{
  "contractName": "Bounty",
  "abi": [
    {
      "inputs": [
        {
          "internalType": "address payable",
          "name": "_creatorWallet",
          "type": "address"
        },
        {
          "internalType": "uint256",
          "name": "_maxValue",
          "type": "uint256"
        },
        {
          "internalType": "uint256",
          "name": "_reservePrice",
          "type": "uint256"
        },
        {
          "internalType": "uint8[]",
          "name": "_bonusTargets",
          "type": "uint8[]"
        },
        {
          "internalType": "uint8[]",
          "name": "_bonusPctYeasNeeded",
          "type": "uint8[]"
        },
        {
          "internalType": "uint8[]",
          "name": "_bonusFailureThresholds",
          "type": "uint8[]"
        },
        {
          "internalType": "uint64",
          "name": "_mustBeClaimedTime",
          "type": "uint64"
        },
        {
          "internalType": "uint64",
          "name": "_timeLimit",
          "type": "uint64"
        },
        {
          "internalType": "address payable",
          "name": "_owner",
          "type": "address"
        }
      ],
      "stateMutability": "nonpayable",
      "type": "constructor"
    },
    {
      "inputs": [],
      "name": "AlreadyPaid",
      "type": "error"
    },
    {
      "inputs": [],
      "name": "AlreadyVoted",
      "type": "error"
    },
    {
      "inputs": [],
      "name": "MaxValueReached",
      "type": "error"
    },
    {
      "inputs": [],
      "name": "NoEquity",
      "type": "error"
    },
    {
      "inputs": [],
      "name": "TooLate",
      "type": "error"
    },
    {
      "inputs": [],
      "name": "Unauthorized",
      "type": "error"
    },
    {
      "inputs": [],
      "name": "VoteOver",
      "type": "error"
    },
    {
      "anonymous": false,
      "inputs": [
        {
          "indexed": false,
          "internalType": "uint8",
          "name": "_milestone",
          "type": "uint8"
        },
        {
          "indexed": false,
          "internalType": "uint256",
          "name": "_amount",
          "type": "uint256"
        },
        {
          "indexed": false,
          "internalType": "address",
          "name": "_creatorWallet",
          "type": "address"
        }
      ],
      "name": "Approval",
      "type": "event"
    },
    {
      "anonymous": false,
      "inputs": [
        {
          "indexed": true,
          "internalType": "string",
          "name": "msg",
          "type": "string"
        }
      ],
      "name": "Debug",
      "type": "event"
    },
    {
      "anonymous": false,
      "inputs": [
        {
          "indexed": false,
          "internalType": "uint8",
          "name": "_milestone",
          "type": "uint8"
        }
      ],
      "name": "Failure",
      "type": "event"
    },
    {
      "anonymous": false,
      "inputs": [
        {
          "indexed": true,
          "internalType": "address",
          "name": "_voter",
          "type": "address"
        },
        {
          "indexed": false,
          "internalType": "bool",
          "name": "_vote",
          "type": "bool"
        }
      ],
      "name": "Vote",
      "type": "event"
    },
    {
      "anonymous": false,
      "inputs": [
        {
          "indexed": true,
          "internalType": "address",
          "name": "_to",
          "type": "address"
        },
        {
          "indexed": false,
          "internalType": "uint256",
          "name": "_amount",
          "type": "uint256"
        }
      ],
      "name": "Withdraw",
      "type": "event"
    },
    {
      "inputs": [
        {
          "internalType": "address",
          "name": "_owner",
          "type": "address"
        }
      ],
      "name": "balanceOf",
      "outputs": [
        {
          "internalType": "uint256",
          "name": "balance",
          "type": "uint256"
        }
      ],
      "stateMutability": "view",
      "type": "function"
    },
    {
      "inputs": [
        {
          "internalType": "uint256",
          "name": "",
          "type": "uint256"
        }
      ],
      "name": "bonusDeadlines",
      "outputs": [
        {
          "internalType": "uint64",
          "name": "",
          "type": "uint64"
        }
      ],
      "stateMutability": "view",
      "type": "function"
    },
    {
      "inputs": [
        {
          "internalType": "uint256",
          "name": "",
          "type": "uint256"
        }
      ],
      "name": "bonusFailureThresholds",
      "outputs": [
        {
          "internalType": "uint8",
          "name": "",
          "type": "uint8"
        }
      ],
      "stateMutability": "view",
      "type": "function"
    },
    {
      "inputs": [
        {
          "internalType": "uint256",
          "name": "",
          "type": "uint256"
        }
      ],
      "name": "bonusFailures",
      "outputs": [
        {
          "internalType": "uint8",
          "name": "",
          "type": "uint8"
        }
      ],
      "stateMutability": "view",
      "type": "function"
    },
    {
      "inputs": [
        {
          "internalType": "uint256",
          "name": "",
          "type": "uint256"
        }
      ],
      "name": "bonusPctYeasNeeded",
      "outputs": [
        {
          "internalType": "uint8",
          "name": "",
          "type": "uint8"
        }
      ],
      "stateMutability": "view",
      "type": "function"
    },
    {
      "inputs": [
        {
          "internalType": "uint256",
          "name": "",
          "type": "uint256"
        }
      ],
      "name": "bonusTargets",
      "outputs": [
        {
          "internalType": "uint8",
          "name": "",
          "type": "uint8"
        }
      ],
      "stateMutability": "view",
      "type": "function"
    },
    {
      "inputs": [],
      "name": "creatorWallet",
      "outputs": [
        {
          "internalType": "address payable",
          "name": "",
          "type": "address"
        }
      ],
      "stateMutability": "view",
      "type": "function"
    },
    {
      "inputs": [],
      "name": "currentNays",
      "outputs": [
        {
          "internalType": "uint256",
          "name": "",
          "type": "uint256"
        }
      ],
      "stateMutability": "view",
      "type": "function"
    },
    {
      "inputs": [],
      "name": "currentVotesCast",
      "outputs": [
        {
          "internalType": "uint32",
          "name": "",
          "type": "uint32"
        }
      ],
      "stateMutability": "view",
      "type": "function"
    },
    {
      "inputs": [],
      "name": "currentYeas",
      "outputs": [
        {
          "internalType": "uint256",
          "name": "",
          "type": "uint256"
        }
      ],
      "stateMutability": "view",
      "type": "function"
    },
    {
      "inputs": [],
      "name": "endTime",
      "outputs": [
        {
          "internalType": "uint64",
          "name": "",
          "type": "uint64"
        }
      ],
      "stateMutability": "view",
      "type": "function"
    },
    {
      "inputs": [
        {
          "internalType": "address",
          "name": "",
          "type": "address"
        }
      ],
      "name": "equity",
      "outputs": [
        {
          "internalType": "uint256",
          "name": "",
          "type": "uint256"
        }
      ],
      "stateMutability": "view",
      "type": "function"
    },
    {
      "inputs": [
        {
          "internalType": "address",
          "name": "_owner",
          "type": "address"
        }
      ],
      "name": "equityOf",
      "outputs": [
        {
          "internalType": "uint256",
          "name": "balance",
          "type": "uint256"
        }
      ],
      "stateMutability": "view",
      "type": "function"
    },
    {
      "inputs": [
        {
          "internalType": "uint256",
          "name": "",
          "type": "uint256"
        }
      ],
      "name": "fans",
      "outputs": [
        {
          "internalType": "address payable",
          "name": "",
          "type": "address"
        }
      ],
      "stateMutability": "view",
      "type": "function"
    },
    {
      "inputs": [],
      "name": "maxValue",
      "outputs": [
        {
          "internalType": "uint256",
          "name": "",
          "type": "uint256"
        }
      ],
      "stateMutability": "view",
      "type": "function"
    },
    {
      "inputs": [],
      "name": "mustBeClaimedTime",
      "outputs": [
        {
          "internalType": "uint64",
          "name": "",
          "type": "uint64"
        }
      ],
      "stateMutability": "view",
      "type": "function"
    },
    {
      "inputs": [
        {
          "internalType": "bool",
          "name": "onOff",
          "type": "bool"
        }
      ],
      "name": "precipitatingEvent",
      "outputs": [
        {
          "internalType": "bool",
          "name": "success",
          "type": "bool"
        }
      ],
      "stateMutability": "nonpayable",
      "type": "function"
    },
    {
      "inputs": [],
      "name": "reservePrice",
      "outputs": [
        {
          "internalType": "uint256",
          "name": "",
          "type": "uint256"
        }
      ],
      "stateMutability": "view",
      "type": "function"
    },
    {
      "inputs": [],
      "name": "status",
      "outputs": [
        {
          "internalType": "uint8",
          "name": "",
          "type": "uint8"
        }
      ],
      "stateMutability": "view",
      "type": "function"
    },
    {
      "inputs": [],
      "name": "timeLimit",
      "outputs": [
        {
          "internalType": "uint64",
          "name": "",
          "type": "uint64"
        }
      ],
      "stateMutability": "view",
      "type": "function"
    },
    {
      "inputs": [
        {
          "internalType": "address",
          "name": "",
          "type": "address"
        }
      ],
      "name": "votingEquity",
      "outputs": [
        {
          "internalType": "uint256",
          "name": "",
          "type": "uint256"
        }
      ],
      "stateMutability": "view",
      "type": "function"
    },
    {
      "inputs": [],
      "name": "votingOn",
      "outputs": [
        {
          "internalType": "uint8",
          "name": "",
          "type": "uint8"
        }
      ],
      "stateMutability": "view",
      "type": "function"
    },
    {
      "inputs": [],
      "name": "withdraw",
      "outputs": [
        {
          "internalType": "bool",
          "name": "success",
          "type": "bool"
        }
      ],
      "stateMutability": "nonpayable",
      "type": "function"
    },
    {
      "inputs": [],
      "name": "uniqueFans",
      "outputs": [
        {
          "internalType": "uint8",
          "name": "num",
          "type": "uint8"
        }
      ],
      "stateMutability": "view",
      "type": "function"
    },
    {
      "inputs": [],
      "name": "bountyStatus",
      "outputs": [
        {
          "internalType": "uint256[3]",
          "name": "stats",
          "type": "uint256[3]"
        }
      ],
      "stateMutability": "view",
      "type": "function"
    },
    {
      "inputs": [],
      "name": "voteStatus",
      "outputs": [
        {
          "internalType": "uint256[7]",
          "name": "stats",
          "type": "uint256[7]"
        }
      ],
      "stateMutability": "view",
      "type": "function"
    },
    {
      "inputs": [],
      "name": "join",
      "outputs": [
        {
          "internalType": "bool",
          "name": "success",
          "type": "bool"
        }
      ],
      "stateMutability": "payable",
      "type": "function"
    },
    {
      "inputs": [],
      "name": "checkVote",
      "outputs": [
        {
          "internalType": "bool",
          "name": "success",
          "type": "bool"
        }
      ],
      "stateMutability": "nonpayable",
      "type": "function"
    },
    {
      "inputs": [
        {
          "internalType": "uint8",
          "name": "_milestone",
          "type": "uint8"
        },
        {
          "internalType": "bool",
          "name": "_vote",
          "type": "bool"
        }
      ],
      "name": "vote",
      "outputs": [
        {
          "internalType": "bool",
          "name": "success",
          "type": "bool"
        }
      ],
      "stateMutability": "nonpayable",
      "type": "function"
    },
    {
      "inputs": [
        {
          "internalType": "uint256",
          "name": "_maxValue",
          "type": "uint256"
        },
        {
          "internalType": "uint256",
          "name": "_reservePrice",
          "type": "uint256"
        },
        {
          "internalType": "uint8[]",
          "name": "_bonusTargets",
          "type": "uint8[]"
        },
        {
          "internalType": "uint8[]",
          "name": "_bonusPctYeasNeeded",
          "type": "uint8[]"
        },
        {
          "internalType": "uint8[]",
          "name": "_bonusFailureThresholds",
          "type": "uint8[]"
        },
        {
          "internalType": "uint64",
          "name": "_timeLimit",
          "type": "uint64"
        }
      ],
      "name": "negotiate",
      "outputs": [
        {
          "internalType": "bool",
          "name": "success",
          "type": "bool"
        }
      ],
      "stateMutability": "nonpayable",
      "type": "function"
    },
    {
      "inputs": [],
      "name": "claim",
      "outputs": [
        {
          "internalType": "bool",
          "name": "success",
          "type": "bool"
        }
      ],
      "stateMutability": "nonpayable",
      "type": "function"
    }
  ],
  "bytecode": "0x60806040523480156200001157600080fd5b50604051620039e4380380620039e48339818101604052810190620000379190620003e6565b88600660006101000a81548173ffffffffffffffffffffffffffffffffffffffff021916908373ffffffffffffffffffffffffffffffffffffffff16021790555087600f819055508660108190555085600790805190602001906200009e9291906200021b565b508460099080519060200190620000b79291906200021b565b5083600b9080519060200190620000d09291906200021b565b5082600e60006101000a81548167ffffffffffffffff021916908367ffffffffffffffff160217905550806000806101000a81548173ffffffffffffffffffffffffffffffffffffffff021916908373ffffffffffffffffffffffffffffffffffffffff1602179055506001600c60086101000a81548160ff02191690831515021790555081601160006101000a81548167ffffffffffffffff021916908367ffffffffffffffff16021790555060078054905067ffffffffffffffff811115620001c4577f4e487b7100000000000000000000000000000000000000000000000000000000600052604160045260246000fd5b604051908082528060200260200182016040528015620001f35781602001602082028036833780820191505090505b50600a90805190602001906200020b9291906200021b565b505050505050505050506200069f565b82805482825590600052602060002090601f01602090048101928215620002b65791602002820160005b838211156200028557835183826101000a81548160ff021916908360ff160217905550926020019260010160208160000104928301926001030262000245565b8015620002b45782816101000a81549060ff021916905560010160208160000104928301926001030262000285565b505b509050620002c59190620002c9565b5090565b5b80821115620002e4576000816000905550600101620002ca565b5090565b6000620002ff620002f98462000533565b6200050a565b905080838252602082019050828560208602820111156200031f57600080fd5b60005b85811015620003535781620003388882620003cf565b84526020840193506020830192505060018101905062000322565b5050509392505050565b6000815190506200036e8162000637565b92915050565b600082601f8301126200038657600080fd5b815162000398848260208601620002e8565b91505092915050565b600081519050620003b28162000651565b92915050565b600081519050620003c9816200066b565b92915050565b600081519050620003e08162000685565b92915050565b60008060008060008060008060006101208a8c0312156200040657600080fd5b6000620004168c828d016200035d565b9950506020620004298c828d01620003a1565b98505060406200043c8c828d01620003a1565b97505060608a015167ffffffffffffffff8111156200045a57600080fd5b620004688c828d0162000374565b96505060808a015167ffffffffffffffff8111156200048657600080fd5b620004948c828d0162000374565b95505060a08a015167ffffffffffffffff811115620004b257600080fd5b620004c08c828d0162000374565b94505060c0620004d38c828d01620003b8565b93505060e0620004e68c828d01620003b8565b925050610100620004fa8c828d016200035d565b9150509295985092959850929598565b60006200051662000529565b9050620005248282620005c1565b919050565b6000604051905090565b600067ffffffffffffffff821115620005515762000550620005f7565b5b602082029050602081019050919050565b60006200056f8262000576565b9050919050565b600073ffffffffffffffffffffffffffffffffffffffff82169050919050565b6000819050919050565b600067ffffffffffffffff82169050919050565b600060ff82169050919050565b620005cc8262000626565b810181811067ffffffffffffffff82111715620005ee57620005ed620005f7565b5b80604052505050565b7f4e487b7100000000000000000000000000000000000000000000000000000000600052604160045260246000fd5b6000601f19601f8301169050919050565b620006428162000562565b81146200064e57600080fd5b50565b6200065c8162000596565b81146200066857600080fd5b50565b6200067681620005a0565b81146200068257600080fd5b50565b6200069081620005b4565b81146200069c57600080fd5b50565b61333580620006af6000396000f3fe6080604052600436106101f5576000357c0100000000000000000000000000000000000000000000000000000000900480637cdc65f21161011f578063c08d1fe5116100b2578063e2fd21e811610081578063e2fd21e81461074e578063e885f76b1461078b578063f541c60f146107b6578063f6432402146107e1576101f5565b8063c08d1fe51461067e578063cb0cd6b5146106a9578063d553ed13146106e6578063db2e1eed14610723576101f5565b8063a064c9d8116100ee578063a064c9d8146105bb578063b0417e98146105f8578063b4bd497a14610623578063b688a36314610660576101f5565b80637cdc65f21461050f5780637f698dad1461053a57806393d181131461056557806394a5c2e414610590576101f5565b80633dad5c70116101975780635d7c58ea116101665780635d7c58ea1461043f578063688594b31461046a57806370a08231146104a75780637ae6ee32146104e4576101f5565b80633dad5c701461035d57806342bbec591461039a5780634ce2cdc7146103d75780634e71d92d14610414576101f5565b80632808241e116101d35780632808241e1461028d5780632e8a498c146102ca5780633197cbb6146103075780633ccfd60b14610332576101f5565b80631b5a3cc9146101fa578063200d2ed21461023757806320949bb414610262575b600080fd5b34801561020657600080fd5b50610221600480360381019061021c9190612839565b61080c565b60405161022e9190612caf565b60405180910390f35b34801561024357600080fd5b5061024c6108b9565b6040516102599190612d1b565b60405180910390f35b34801561026e57600080fd5b506102776108cc565b6040516102849190612d1b565b60405180910390f35b34801561029957600080fd5b506102b460048036038101906102af919061295c565b6108df565b6040516102c19190612caf565b60405180910390f35b3480156102d657600080fd5b506102f160048036038101906102ec9190612810565b610c30565b6040516102fe9190612cca565b60405180910390f35b34801561031357600080fd5b5061031c610c48565b6040516103299190612d00565b60405180910390f35b34801561033e57600080fd5b50610347610c62565b6040516103549190612caf565b60405180910390f35b34801561036957600080fd5b50610384600480360381019061037f9190612862565b610ec1565b6040516103919190612d00565b60405180910390f35b3480156103a657600080fd5b506103c160048036038101906103bc9190612862565b610eff565b6040516103ce9190612d1b565b60405180910390f35b3480156103e357600080fd5b506103fe60048036038101906103f99190612862565b610f33565b60405161040b9190612d1b565b60405180910390f35b34801561042057600080fd5b50610429610f67565b6040516104369190612caf565b60405180910390f35b34801561044b57600080fd5b506104546110a7565b6040516104619190612d00565b60405180910390f35b34801561047657600080fd5b50610491600480360381019061048c9190612862565b6110c1565b60405161049e9190612c5e565b60405180910390f35b3480156104b357600080fd5b506104ce60048036038101906104c99190612810565b611100565b6040516104db9190612cca565b60405180910390f35b3480156104f057600080fd5b506104f96111bd565b6040516105069190612c94565b60405180910390f35b34801561051b57600080fd5b50610524611375565b6040516105319190612c5e565b60405180910390f35b34801561054657600080fd5b5061054f61139b565b60405161055c9190612d1b565b60405180910390f35b34801561057157600080fd5b5061057a6113a8565b6040516105879190612ce5565b60405180910390f35b34801561059c57600080fd5b506105a56113be565b6040516105b29190612cca565b60405180910390f35b3480156105c757600080fd5b506105e260048036038101906105dd919061288b565b6113c4565b6040516105ef9190612caf565b60405180910390f35b34801561060457600080fd5b5061060d6114fc565b60405161061a9190612caf565b60405180910390f35b34801561062f57600080fd5b5061064a60048036038101906106459190612810565b6115f1565b6040516106579190612cca565b60405180910390f35b610668611609565b6040516106759190612caf565b60405180910390f35b34801561068a57600080fd5b506106936118ba565b6040516106a09190612d00565b60405180910390f35b3480156106b557600080fd5b506106d060048036038101906106cb9190612862565b6118d4565b6040516106dd9190612d1b565b60405180910390f35b3480156106f257600080fd5b5061070d60048036038101906107089190612862565b611908565b60405161071a9190612d1b565b60405180910390f35b34801561072f57600080fd5b5061073861193c565b6040516107459190612cca565b60405180910390f35b34801561075a57600080fd5b5061077560048036038101906107709190612810565b611942565b6040516107829190612cca565b60405180910390f35b34801561079757600080fd5b506107a061198b565b6040516107ad9190612cca565b60405180910390f35b3480156107c257600080fd5b506107cb611991565b6040516107d89190612cca565b60405180910390f35b3480156107ed57600080fd5b506107f6611997565b6040516108039190612c79565b60405180910390f35b60008060009054906101000a900473ffffffffffffffffffffffffffffffffffffffff168073ffffffffffffffffffffffffffffffffffffffff163373ffffffffffffffffffffffffffffffffffffffff1614610895576040517f82b4290000000000000000000000000000000000000000000000000000000000815260040160405180910390fd5b82600c60086101000a81548160ff0219169083151502179055506001915050919050565b601460049054906101000a900460ff1681565b600c60099054906101000a900460ff1681565b600080600360003373ffffffffffffffffffffffffffffffffffffffff1673ffffffffffffffffffffffffffffffffffffffff16815260200190815260200160002054141561095a576040517f995a2dae00000000000000000000000000000000000000000000000000000000815260040160405180910390fd5b60405161096690612c1f565b60405180910390207f7cdb51e9dbbc205231228146c3246e7f914aa6d4a33170e43ecc8e3593481d1a60405160405180910390a26000601460049054906101000a900460ff1660ff1614806109d05750600c60099054906101000a900460ff1660ff168360ff1614155b15610a07576040517f4733210000000000000000000000000000000000000000000000000000000000815260040160405180910390fd5b600d60003373ffffffffffffffffffffffffffffffffffffffff1673ffffffffffffffffffffffffffffffffffffffff16815260200190815260200160002060009054906101000a900460ff1615610a8b576040517f7c9a1cf900000000000000000000000000000000000000000000000000000000815260040160405180910390fd5b6000610a9633611942565b90508215610abc578060126000828254610ab09190612e23565b92505081905550610ad6565b8060136000828254610ace9190612e23565b925050819055505b6001601460008282829054906101000a900463ffffffff16610af89190612e79565b92506101000a81548163ffffffff021916908363ffffffff1602179055506001600d60003373ffffffffffffffffffffffffffffffffffffffff1673ffffffffffffffffffffffffffffffffffffffff16815260200190815260200160002060006101000a81548160ff0219169083151502179055503373ffffffffffffffffffffffffffffffffffffffff167fa635d31e67484fd1d93ba01ab0ef882e4440a78aa40d0e2771e8a2aace45986984604051610bb49190612caf565b60405180910390a26000610bc66119f9565b905060008160ff1614610c2357600060018260ff161415610bf057610be9611ad0565b9050610c08565b60028260ff161415610c0757610c04611dba565b90505b5b8015610c1857610c16611f8a565b505b809350505050610c2a565b6001925050505b92915050565b60036020528060005260406000206000915090505481565b600c60009054906101000a900467ffffffffffffffff1681565b600080600360003373ffffffffffffffffffffffffffffffffffffffff1673ffffffffffffffffffffffffffffffffffffffff168152602001908152602001600020541415610cdd576040517f995a2dae00000000000000000000000000000000000000000000000000000000815260040160405180910390fd5b600c60089054906101000a900460ff16610cfa5760009050610ebe565b6000610d0533611100565b90503373ffffffffffffffffffffffffffffffffffffffff166108fc610d42833073ffffffffffffffffffffffffffffffffffffffff16316120a5565b9081150290604051600060405180830381858888f19350505050158015610d6d573d6000803e3d6000fd5b506000600260003373ffffffffffffffffffffffffffffffffffffffff1673ffffffffffffffffffffffffffffffffffffffff16815260200190815260200160002060006101000a81548160ff021916908360ff1602179055506000600360003373ffffffffffffffffffffffffffffffffffffffff1673ffffffffffffffffffffffffffffffffffffffff168152602001908152602001600020819055506000600460003373ffffffffffffffffffffffffffffffffffffffff1673ffffffffffffffffffffffffffffffffffffffff168152602001908152602001600020819055508060016000828254610e639190612f75565b925050819055503373ffffffffffffffffffffffffffffffffffffffff167f884edad9ce6fa2440d8a54cc123490eb96d2768479d49ff9c7366125a942436482604051610eb09190612cca565b60405180910390a260019150505b90565b60088181548110610ed157600080fd5b9060005260206000209060049182820401919006600802915054906101000a900467ffffffffffffffff1681565b60078181548110610f0f57600080fd5b9060005260206000209060209182820401919006915054906101000a900460ff1681565b60098181548110610f4357600080fd5b9060005260206000209060209182820401919006915054906101000a900460ff1681565b60008060009054906101000a900473ffffffffffffffffffffffffffffffffffffffff168073ffffffffffffffffffffffffffffffffffffffff163373ffffffffffffffffffffffffffffffffffffffff1614610ff0576040517f82b4290000000000000000000000000000000000000000000000000000000000815260040160405180910390fd5b6000601460049054906101000a900460ff1660ff161461101357600091506110a3565b601160009054906101000a900467ffffffffffffffff1667ffffffffffffffff164261103f9190612e23565b600c60006101000a81548167ffffffffffffffff021916908367ffffffffffffffff1602179055506000600c60086101000a81548160ff0219169083151502179055506001601460046101000a81548160ff021916908360ff160217905550600191505b5090565b600e60009054906101000a900467ffffffffffffffff1681565b600581815481106110d157600080fd5b906000526020600020016000915054906101000a900473ffffffffffffffffffffffffffffffffffffffff1681565b60006111b660646111a8600260008673ffffffffffffffffffffffffffffffffffffffff1673ffffffffffffffffffffffffffffffffffffffff16815260200190815260200160002060009054906101000a900460ff1660ff16600360008773ffffffffffffffffffffffffffffffffffffffff1673ffffffffffffffffffffffffffffffffffffffff168152602001908152602001600020546120be90919063ffffffff16565b6120d490919063ffffffff16565b9050919050565b6111c5612609565b6040518060e00160405280600c60099054906101000a900460ff1660ff1681526020016009600c60099054906101000a900460ff1660ff1681548110611234577f4e487b7100000000000000000000000000000000000000000000000000000000600052603260045260246000fd5b90600052602060002090602091828204019190069054906101000a900460ff1660ff16815260200160125481526020016013548152602001600a600c60099054906101000a900460ff1660ff16815481106112b8577f4e487b7100000000000000000000000000000000000000000000000000000000600052603260045260246000fd5b90600052602060002090602091828204019190069054906101000a900460ff1660ff168152602001600b600c60099054906101000a900460ff1660ff168154811061132c577f4e487b7100000000000000000000000000000000000000000000000000000000600052603260045260246000fd5b90600052602060002090602091828204019190069054906101000a900460ff1660ff168152602001601460009054906101000a900463ffffffff1663ffffffff16815250905090565b600660009054906101000a900473ffffffffffffffffffffffffffffffffffffffff1681565b6000600580549050905090565b601460009054906101000a900463ffffffff1681565b600f5481565b60008060009054906101000a900473ffffffffffffffffffffffffffffffffffffffff168073ffffffffffffffffffffffffffffffffffffffff163373ffffffffffffffffffffffffffffffffffffffff161461144d576040517f82b4290000000000000000000000000000000000000000000000000000000000815260040160405180910390fd5b6000601460049054906101000a900460ff1660ff161461147057600091506114f1565b8660108190555087600f81905550856007908051906020019061149492919061262b565b5083600b90805190602001906114ab92919061262b565b5084600990805190602001906114c292919061262b565b5082601160006101000a81548167ffffffffffffffff021916908367ffffffffffffffff160217905550600191505b509695505050505050565b60008060009054906101000a900473ffffffffffffffffffffffffffffffffffffffff168073ffffffffffffffffffffffffffffffffffffffff163373ffffffffffffffffffffffffffffffffffffffff1614611585576040517f82b4290000000000000000000000000000000000000000000000000000000000815260040160405180910390fd5b600061158f6119f9565b905060008160ff16146115eb57600060018260ff1614156115b9576115b2611ad0565b90506115d1565b60028260ff1614156115d0576115cd611dba565b90505b5b80156115e1576115df611f8a565b505b80935050506115ed565b505b5090565b60046020528060005260406000206000915090505481565b6000600e60009054906101000a900467ffffffffffffffff168067ffffffffffffffff16421115611666576040517fecdd1c2900000000000000000000000000000000000000000000000000000000815260040160405180910390fd5b60405161167290612bcb565b60405180910390207f7cdb51e9dbbc205231228146c3246e7f914aa6d4a33170e43ecc8e3593481d1a60405160405180910390a260003414156116e1576040517f995a2dae00000000000000000000000000000000000000000000000000000000815260040160405180910390fd5b600f54343073ffffffffffffffffffffffffffffffffffffffff16316117079190612e23565b1061173e576040517f77d09e5000000000000000000000000000000000000000000000000000000000815260040160405180910390fd5b6000600360003373ffffffffffffffffffffffffffffffffffffffff1673ffffffffffffffffffffffffffffffffffffffff168152602001908152602001600020541415611843576005339080600181540180825580915050600190039060005260206000200160009091909190916101000a81548173ffffffffffffffffffffffffffffffffffffffff021916908373ffffffffffffffffffffffffffffffffffffffff1602179055506064600260003373ffffffffffffffffffffffffffffffffffffffff1673ffffffffffffffffffffffffffffffffffffffff16815260200190815260200160002060006101000a81548160ff021916908360ff1602179055505b34600360003373ffffffffffffffffffffffffffffffffffffffff1673ffffffffffffffffffffffffffffffffffffffff16815260200190815260200160002060008282546118929190612e23565b9250508190555034600160008282546118ab9190612e23565b92505081905550600191505090565b601160009054906101000a900467ffffffffffffffff1681565b600b81815481106118e457600080fd5b9060005260206000209060209182820401919006915054906101000a900460ff1681565b600a818154811061191857600080fd5b9060005260206000209060209182820401919006915054906101000a900460ff1681565b60105481565b6000600360008373ffffffffffffffffffffffffffffffffffffffff1673ffffffffffffffffffffffffffffffffffffffff168152602001908152602001600020549050919050565b60125481565b60135481565b61199f6126d2565b6000600c60089054906101000a900460ff166119bc5760006119bf565b60015b60ff16905060405180606001604052806001548152602001828152602001601460049054906101000a900460ff1660ff1681525091505090565b600080611a926064611a846009600c60099054906101000a900460ff1660ff1681548110611a50577f4e487b7100000000000000000000000000000000000000000000000000000000600052603260045260246000fd5b90600052602060002090602091828204019190069054906101000a900460ff1660ff166001546120be90919063ffffffff16565b6120d490919063ffffffff16565b90508060125410611aa7576001915050611acd565b80600154611ab59190612f75565b60135410611ac7576002915050611acd565b60009150505b90565b6000604051611ade90612c34565b60405180910390207f7cdb51e9dbbc205231228146c3246e7f914aa6d4a33170e43ecc8e3593481d1a60405160405180910390a260006007600c60099054906101000a900460ff1660ff1681548110611b60577f4e487b7100000000000000000000000000000000000000000000000000000000600052603260045260246000fd5b90600052602060002090602091828204019190069054906101000a900460ff1660ff161415611bbb576040517fd70a0e3000000000000000000000000000000000000000000000000000000000815260040160405180910390fd5b6000611c536064611c456007600c60099054906101000a900460ff1660ff1681548110611c11577f4e487b7100000000000000000000000000000000000000000000000000000000600052603260045260246000fd5b90600052602060002090602091828204019190069054906101000a900460ff1660ff166001546120be90919063ffffffff16565b6120d490919063ffffffff16565b9050600660009054906101000a900473ffffffffffffffffffffffffffffffffffffffff1673ffffffffffffffffffffffffffffffffffffffff166108fc829081150290604051600060405180830381858888f19350505050158015611cbd573d6000803e3d6000fd5b5060006007600c60099054906101000a900460ff1660ff1681548110611d0c577f4e487b7100000000000000000000000000000000000000000000000000000000600052603260045260246000fd5b90600052602060002090602091828204019190066101000a81548160ff021916908360ff160217905550611d3f816120ea565b507f0e45f244d89cea5099c0a6f24efd8cfde53e85de3cbf08c24acc387c1160ccc3600c60099054906101000a900460ff1682600660009054906101000a900473ffffffffffffffffffffffffffffffffffffffff16604051611da493929190612d36565b60405180910390a1611db461225e565b91505090565b6000604051611dc890612c0a565b60405180910390207f7cdb51e9dbbc205231228146c3246e7f914aa6d4a33170e43ecc8e3593481d1a60405160405180910390a26001600a600c60099054906101000a900460ff1660ff1681548110611e4a577f4e487b7100000000000000000000000000000000000000000000000000000000600052603260045260246000fd5b90600052602060002090602091828204019190068282829054906101000a900460ff16611e779190612eb3565b92506101000a81548160ff021916908360ff160217905550600b600c60099054906101000a900460ff1660ff1681548110611edb577f4e487b7100000000000000000000000000000000000000000000000000000000600052603260045260246000fd5b90600052602060002090602091828204019190069054906101000a900460ff1660ff16600a600c60099054906101000a900460ff1660ff1681548110611f4a577f4e487b7100000000000000000000000000000000000000000000000000000000600052603260045260246000fd5b90600052602060002090602091828204019190069054906101000a900460ff1660ff161415611f8257611f7b61230a565b9050611f87565b600090505b90565b60008060128190555060006013819055506000601460006101000a81548163ffffffff021916908363ffffffff16021790555060005b60058054905081101561209d576000600d60006005848154811061200d577f4e487b7100000000000000000000000000000000000000000000000000000000600052603260045260246000fd5b9060005260206000200160009054906101000a900473ffffffffffffffffffffffffffffffffffffffff1673ffffffffffffffffffffffffffffffffffffffff1673ffffffffffffffffffffffffffffffffffffffff16815260200190815260200160002060006101000a81548160ff0219169083151502179055506001816120969190612e23565b9050611fc0565b506001905090565b60008183106120b457816120b6565b825b905092915050565b600081836120cc9190612f1b565b905092915050565b600081836120e29190612eea565b905092915050565b60006040516120f890612c49565b60405180910390207f7cdb51e9dbbc205231228146c3246e7f914aa6d4a33170e43ecc8e3593481d1a60405160405180910390a260006121566001546121486064866120be90919063ffffffff16565b6120d490919063ffffffff16565b905060005b600580549050811015612253578160026000600584815481106121a7577f4e487b7100000000000000000000000000000000000000000000000000000000600052603260045260246000fd5b9060005260206000200160009054906101000a900473ffffffffffffffffffffffffffffffffffffffff1673ffffffffffffffffffffffffffffffffffffffff1673ffffffffffffffffffffffffffffffffffffffff16815260200190815260200160002060008282829054906101000a900460ff166122279190612fa9565b92506101000a81548160ff021916908360ff16021790555060018161224c9190612e23565b905061215b565b506001915050919050565b600060405161226c90612be0565b60405180910390207f7cdb51e9dbbc205231228146c3246e7f914aa6d4a33170e43ecc8e3593481d1a60405160405180910390a260016007805490506122b29190612f75565b600c60099054906101000a900460ff1660ff161015612303576001600c60098282829054906101000a900460ff166122ea9190612eb3565b92506101000a81548160ff021916908360ff1602179055505b6001905090565b600060405161231890612bf5565b60405180910390207f7cdb51e9dbbc205231228146c3246e7f914aa6d4a33170e43ecc8e3593481d1a60405160405180910390a260006123e460646123d66007600c60099054906101000a900460ff1660ff16815481106123a2577f4e487b7100000000000000000000000000000000000000000000000000000000600052603260045260246000fd5b90600052602060002090602091828204019190069054906101000a900460ff1660ff166001546120be90919063ffffffff16565b6120d490919063ffffffff16565b905060005b6005805490508110156125aa5760006124c36001546124b560646003600060058881548110612441577f4e487b7100000000000000000000000000000000000000000000000000000000600052603260045260246000fd5b9060005260206000200160009054906101000a900473ffffffffffffffffffffffffffffffffffffffff1673ffffffffffffffffffffffffffffffffffffffff1673ffffffffffffffffffffffffffffffffffffffff168152602001908152602001600020546120be90919063ffffffff16565b6120d490919063ffffffff16565b9050600582815481106124ff577f4e487b7100000000000000000000000000000000000000000000000000000000600052603260045260246000fd5b9060005260206000200160009054906101000a900473ffffffffffffffffffffffffffffffffffffffff1673ffffffffffffffffffffffffffffffffffffffff166108fc612569606461255b85886120be90919063ffffffff16565b6120d490919063ffffffff16565b9081150290604051600060405180830381858888f19350505050158015612594573d6000803e3d6000fd5b50506001816125a39190612e23565b90506123e9565b506125b4816120ea565b507f230739317a7f90b018762e0570d567293eac14d67441b810f714879dd6aed0bf600c60099054906101000a900460ff166040516125f39190612d1b565b60405180910390a161260361225e565b91505090565b6040518060e00160405280600790602082028036833780820191505090505090565b82805482825590600052602060002090601f016020900481019282156126c15791602002820160005b8382111561269257835183826101000a81548160ff021916908360ff1602179055509260200192600101602081600001049283019260010302612654565b80156126bf5782816101000a81549060ff0219169055600101602081600001049283019260010302612692565b505b5090506126ce91906126f4565b5090565b6040518060600160405280600390602082028036833780820191505090505090565b5b8082111561270d5760008160009055506001016126f5565b5090565b600061272461271f84612d92565b612d6d565b9050808382526020820190508285602086028201111561274357600080fd5b60005b85811015612773578161275988826127fb565b845260208401935060208301925050600181019050612746565b5050509392505050565b60008135905061278c8161328c565b92915050565b600082601f8301126127a357600080fd5b81356127b3848260208601612711565b91505092915050565b6000813590506127cb816132a3565b92915050565b6000813590506127e0816132ba565b92915050565b6000813590506127f5816132d1565b92915050565b60008135905061280a816132e8565b92915050565b60006020828403121561282257600080fd5b60006128308482850161277d565b91505092915050565b60006020828403121561284b57600080fd5b6000612859848285016127bc565b91505092915050565b60006020828403121561287457600080fd5b6000612882848285016127d1565b91505092915050565b60008060008060008060c087890312156128a457600080fd5b60006128b289828a016127d1565b96505060206128c389828a016127d1565b955050604087013567ffffffffffffffff8111156128e057600080fd5b6128ec89828a01612792565b945050606087013567ffffffffffffffff81111561290957600080fd5b61291589828a01612792565b935050608087013567ffffffffffffffff81111561293257600080fd5b61293e89828a01612792565b92505060a061294f89828a016127e6565b9150509295509295509295565b6000806040838503121561296f57600080fd5b600061297d858286016127fb565b925050602061298e858286016127bc565b9150509250929050565b60006129a48383612b80565b60208301905092915050565b6129b981613068565b82525050565b6129c881612fef565b82525050565b6129d781612dd2565b6129e18184612e02565b92506129ec82612dbe565b8060005b83811015612a1d578151612a048782612998565b9650612a0f83612de8565b9250506001810190506129f0565b505050505050565b612a2e81612ddd565b612a388184612e0d565b9250612a4382612dc8565b8060005b83811015612a74578151612a5b8782612998565b9650612a6683612df5565b925050600181019050612a47565b505050505050565b612a8581613001565b82525050565b6000612a98600b83612e18565b9150612aa38261316d565b600b82019050919050565b6000612abb600d83612e18565b9150612ac682613196565b600d82019050919050565b6000612ade600f83612e18565b9150612ae9826131bf565b600f82019050919050565b6000612b01600d83612e18565b9150612b0c826131e8565b600d82019050919050565b6000612b24600b83612e18565b9150612b2f82613211565b600b82019050919050565b6000612b47600d83612e18565b9150612b528261323a565b600d82019050919050565b6000612b6a600e83612e18565b9150612b7582613263565b600e82019050919050565b612b898161302d565b82525050565b612b988161302d565b82525050565b612ba781613037565b82525050565b612bb681613047565b82525050565b612bc58161305b565b82525050565b6000612bd682612a8b565b9150819050919050565b6000612beb82612aae565b9150819050919050565b6000612c0082612ad1565b9150819050919050565b6000612c1582612af4565b9150819050919050565b6000612c2a82612b17565b9150819050919050565b6000612c3f82612b3a565b9150819050919050565b6000612c5482612b5d565b9150819050919050565b6000602082019050612c7360008301846129bf565b92915050565b6000606082019050612c8e60008301846129ce565b92915050565b600060e082019050612ca96000830184612a25565b92915050565b6000602082019050612cc46000830184612a7c565b92915050565b6000602082019050612cdf6000830184612b8f565b92915050565b6000602082019050612cfa6000830184612b9e565b92915050565b6000602082019050612d156000830184612bad565b92915050565b6000602082019050612d306000830184612bbc565b92915050565b6000606082019050612d4b6000830186612bbc565b612d586020830185612b8f565b612d6560408301846129b0565b949350505050565b6000612d77612d88565b9050612d83828261309e565b919050565b6000604051905090565b600067ffffffffffffffff821115612dad57612dac61312d565b5b602082029050602081019050919050565b6000819050919050565b6000819050919050565b600060039050919050565b600060079050919050565b6000602082019050919050565b6000602082019050919050565b600081905092915050565b600081905092915050565b600081905092915050565b6000612e2e8261302d565b9150612e398361302d565b9250827fffffffffffffffffffffffffffffffffffffffffffffffffffffffffffffffff03821115612e6e57612e6d6130cf565b5b828201905092915050565b6000612e8482613037565b9150612e8f83613037565b92508263ffffffff03821115612ea857612ea76130cf565b5b828201905092915050565b6000612ebe8261305b565b9150612ec98361305b565b92508260ff03821115612edf57612ede6130cf565b5b828201905092915050565b6000612ef58261302d565b9150612f008361302d565b925082612f1057612f0f6130fe565b5b828204905092915050565b6000612f268261302d565b9150612f318361302d565b9250817fffffffffffffffffffffffffffffffffffffffffffffffffffffffffffffffff0483118215151615612f6a57612f696130cf565b5b828202905092915050565b6000612f808261302d565b9150612f8b8361302d565b925082821015612f9e57612f9d6130cf565b5b828203905092915050565b6000612fb48261305b565b9150612fbf8361305b565b925082821015612fd257612fd16130cf565b5b828203905092915050565b6000612fe88261300d565b9050919050565b6000612ffa8261300d565b9050919050565b60008115159050919050565b600073ffffffffffffffffffffffffffffffffffffffff82169050919050565b6000819050919050565b600063ffffffff82169050919050565b600067ffffffffffffffff82169050919050565b600060ff82169050919050565b60006130738261307a565b9050919050565b60006130858261308c565b9050919050565b60006130978261300d565b9050919050565b6130a78261315c565b810181811067ffffffffffffffff821117156130c6576130c561312d565b5b80604052505050565b7f4e487b7100000000000000000000000000000000000000000000000000000000600052601160045260246000fd5b7f4e487b7100000000000000000000000000000000000000000000000000000000600052601260045260246000fd5b7f4e487b7100000000000000000000000000000000000000000000000000000000600052604160045260246000fd5b6000601f19601f8301169050919050565b7f6a6f696e2063616c6c6564000000000000000000000000000000000000000000600082015250565b7f6e6578744d696c6573746f6e6500000000000000000000000000000000000000600082015250565b7f6661696c416e6457697468647261770000000000000000000000000000000000600082015250565b7f6661696c4d696c6573746f6e6500000000000000000000000000000000000000600082015250565b7f766f74652063616c6c6564000000000000000000000000000000000000000000600082015250565b7f617070726f7665416e6450617900000000000000000000000000000000000000600082015250565b7f61646a75737442616c616e636573000000000000000000000000000000000000600082015250565b61329581612fdd565b81146132a057600080fd5b50565b6132ac81613001565b81146132b757600080fd5b50565b6132c38161302d565b81146132ce57600080fd5b50565b6132da81613047565b81146132e557600080fd5b50565b6132f18161305b565b81146132fc57600080fd5b5056fea2646970667358221220ef7d99fa0b9a803e2e6f2a413244e031f0ba55dc59c4ba7f6fb245d58782ca3664736f6c63430008040033",
  "immutableReferences": {},
  "source": "pragma solidity ^0.8.0;\r\nimport \"@openzeppelin/contracts/utils/math/SafeMath.sol\";\r\nimport \"@openzeppelin/contracts/utils/math/Math.sol\";\r\n\r\nabstract contract Treasury {\r\n    using SafeMath for uint256;\r\n    address payable owner;\r\n\r\n    // the total balance in this treasury\r\n    // recorded at the time of vote and used to calculate equity share\r\n    uint256 totalContribution;\r\n\r\n    mapping(address => uint8) pctBalanceRemaining; // fan address => pct equity remaining\r\n    mapping(address => uint256) public equity; // fan address => contribution\r\n    mapping(address => uint256) public votingEquity; // fan address => voting rights\r\n    address payable[] public fans; // fan address to withdraw to, mirrors equity\r\n    address payable public creatorWallet;\r\n\r\n    uint8[] public bonusTargets; // the payout percentages (out of 100) for bonus targets 0,1,2,..\r\n    uint64[] public bonusDeadlines; // the time that bonus[i] expires defaulting to NO\r\n    uint8[] public bonusPctYeasNeeded; // pct yeas needed to pass bonus[i]\r\n    uint8[] public bonusFailures; // how many times bonus[i] has failed a vote\r\n    uint8[] public bonusFailureThresholds; // how many times bonus[i] can fail before automatic withdrawal\r\n\r\n    uint64 public endTime; // the time that this contract expires and mints automatically\r\n    bool isPrecipitatingEvent; // IFF true, withdrawals can take place\r\n\r\n    uint8 public votingOn; // the current milestone that votes are tallied towards\r\n\r\n    error Unauthorized();\r\n    error TooLate();\r\n    error AlreadyPaid();\r\n    error NoEquity();\r\n    error MaxValueReached();\r\n\r\n    modifier onlyBy(address _account) {\r\n        if (msg.sender != _account) revert Unauthorized();\r\n        _;\r\n    }\r\n    modifier onlyBefore(uint64 _time) {\r\n        if (block.timestamp > _time) revert TooLate();\r\n        _;\r\n    }\r\n    modifier onlyWithEquity() {\r\n        if (equity[msg.sender] == 0) revert NoEquity();\r\n        _;\r\n    }\r\n\r\n    function balanceOf(address _owner) public view returns (uint256 balance) {\r\n        return equity[_owner].mul(pctBalanceRemaining[_owner]).div(100);\r\n    }\r\n\r\n    function equityOf(address _owner) public view returns (uint256 balance) {\r\n        return equity[_owner];\r\n    }\r\n\r\n    function withdraw() public onlyWithEquity returns (bool success) {\r\n        if (!isPrecipitatingEvent) {\r\n            return false;\r\n        }\r\n        uint256 amount = balanceOf(msg.sender);\r\n        payable(msg.sender).transfer(Math.min(amount, address(this).balance));\r\n        // Wipe balance and equity from this user\r\n        pctBalanceRemaining[msg.sender] = 0;\r\n        equity[msg.sender] = 0;\r\n        votingEquity[msg.sender] = 0;\r\n        // Subtract from total so that all other %s are correct\r\n        totalContribution -= amount;\r\n\r\n        emit Withdraw(msg.sender, amount);\r\n        return true;\r\n    }\r\n\r\n    function precipitatingEvent(bool onOff)\r\n        public\r\n        onlyBy(owner)\r\n        returns (bool success)\r\n    {\r\n        isPrecipitatingEvent = onOff;\r\n        return true;\r\n    }\r\n\r\n    function nextMilestone() private returns (bool success) {\r\n        emit Debug(\"nextMilestone\");\r\n        if (votingOn < bonusTargets.length - 1) {\r\n            votingOn += 1;\r\n        }\r\n        return true;\r\n    }\r\n\r\n    // Called by server at time of expiry - should check whether this vote\r\n    // actually succeeded and auto fail/withdraw/move on otherwise\r\n    function failMilestone() internal returns (bool success) {\r\n        emit Debug(\"failMilestone\");\r\n        bonusFailures[votingOn] += 1;\r\n        if (bonusFailures[votingOn] == bonusFailureThresholds[votingOn]) {\r\n            return failAndWithdraw();\r\n        }\r\n        return false;\r\n    }\r\n\r\n    function failAndWithdraw() internal returns (bool success) {\r\n        emit Debug(\"failAndWithdraw\");\r\n        // the amount about to be disbursed among all equity holders\r\n        uint256 disbursement = totalContribution\r\n            .mul(bonusTargets[votingOn])\r\n            .div(100);\r\n        for (uint256 i = 0; i < fans.length; i += 1) {\r\n            // calculate the equity % from totalContribution vs equity\r\n            uint256 pctContrib = equity[fans[i]].mul(100).div(\r\n                totalContribution\r\n            ); // percent * 100\r\n            fans[i].transfer(disbursement.mul(pctContrib).div(100));\r\n        }\r\n        // adjust all balances downward\r\n        adjustBalances(disbursement);\r\n\r\n        emit Failure(votingOn);\r\n        return nextMilestone();\r\n    }\r\n\r\n    function approveAndPay() internal returns (bool success) {\r\n        emit Debug(\"approveAndPay\");\r\n        if (bonusTargets[votingOn] == 0) {\r\n            revert AlreadyPaid();\r\n        }\r\n        uint256 disbursement = totalContribution\r\n            .mul(bonusTargets[votingOn])\r\n            .div(100);\r\n        creatorWallet.transfer(disbursement);\r\n        bonusTargets[votingOn] = 0;\r\n        // adjust all balances downward\r\n        adjustBalances(disbursement);\r\n\r\n        emit Approval(votingOn, disbursement, creatorWallet);\r\n        return nextMilestone();\r\n    }\r\n\r\n    function adjustBalances(uint256 disbursement)\r\n        private\r\n        returns (bool success)\r\n    {\r\n        emit Debug(\"adjustBalances\");\r\n        // calc the % to adjust downward\r\n        uint256 pctAdjust = disbursement.mul(100).div(totalContribution);\r\n        for (uint256 i = 0; i < fans.length; i += 1) {\r\n            pctBalanceRemaining[fans[i]] -= uint8(pctAdjust);\r\n        }\r\n        return true;\r\n    }\r\n\r\n    event Withdraw(address indexed _to, uint256 _amount);\r\n    event Approval(uint8 _milestone, uint256 _amount, address _creatorWallet);\r\n    event Failure(uint8 _milestone);\r\n    event Debug(string indexed msg);\r\n}\r\n\r\ncontract Bounty is Treasury {\r\n    using SafeMath for uint256;\r\n\r\n    mapping(address => bool) votedThisRound; // whether this address has already voted\r\n    uint64 public mustBeClaimedTime; // the time epoch at which this bounty expires if unclaimed\r\n    uint256 public maxValue; // the max value this bounty could be\r\n    uint256 public reservePrice; // the lowest value that this bounty can be, otherwise it expires\r\n    uint64 public timeLimit; // the time limit in seconds that this bounty must be completed in\r\n    uint256 public currentYeas; // yea vote weight for the current bonus\r\n    uint256 public currentNays; // nay vote weight for the current bonus\r\n    uint32 public currentVotesCast; // number of discrete votes cast for the current bonus\r\n    uint8 public status; // [UNCLAIMED, CLAIMED, SUCCESS, FAILURE]\r\n\r\n    error VoteOver();\r\n    error AlreadyVoted();\r\n\r\n    constructor(\r\n        address payable _creatorWallet,\r\n        uint256 _maxValue,\r\n        uint256 _reservePrice,\r\n        uint8[] memory _bonusTargets,\r\n        uint8[] memory _bonusPctYeasNeeded,\r\n        uint8[] memory _bonusFailureThresholds,\r\n        uint64 _mustBeClaimedTime,\r\n        uint64 _timeLimit,\r\n        address payable _owner\r\n    ) {\r\n        creatorWallet = _creatorWallet;\r\n        maxValue = _maxValue;\r\n        reservePrice = _reservePrice;\r\n        bonusTargets = _bonusTargets;\r\n        bonusPctYeasNeeded = _bonusPctYeasNeeded;\r\n        bonusFailureThresholds = _bonusFailureThresholds;\r\n        mustBeClaimedTime = _mustBeClaimedTime;\r\n        owner = _owner;\r\n        isPrecipitatingEvent = true;\r\n        timeLimit = _timeLimit;\r\n        bonusFailures = new uint8[](bonusTargets.length);\r\n    }\r\n\r\n    function uniqueFans() public view returns (uint8 num) {\r\n        return uint8(fans.length);\r\n    }\r\n\r\n    // Returns [totalContribution, isPrecipitatingEvent, status]\r\n    function bountyStatus() public view returns (uint256[3] memory stats) {\r\n        uint256 isPrecipitatingEventNum = isPrecipitatingEvent ? 1 : 0;\r\n        return [totalContribution, isPrecipitatingEventNum, uint256(status)];\r\n    }\r\n\r\n    // Returns [milestone, yeasNeeded, yeas, nays, timesFailed, failureThreshold, totalVoters]\r\n    function voteStatus() public view returns (uint256[7] memory stats) {\r\n        return [\r\n            votingOn,\r\n            bonusPctYeasNeeded[votingOn],\r\n            currentYeas,\r\n            currentNays,\r\n            uint256(bonusFailures[votingOn]),\r\n            bonusFailureThresholds[votingOn],\r\n            currentVotesCast\r\n        ];\r\n    }\r\n\r\n    function join()\r\n        public\r\n        payable\r\n        onlyBefore(mustBeClaimedTime)\r\n        returns (bool success)\r\n    {\r\n        emit Debug(\"join called\");\r\n        if (msg.value == 0) {\r\n            revert NoEquity();\r\n        }\r\n        if (address(this).balance + msg.value >= maxValue) {\r\n            revert MaxValueReached();\r\n        }\r\n        if (equity[msg.sender] == 0) {\r\n            // fan not added yet\r\n            fans.push(payable(msg.sender));\r\n            pctBalanceRemaining[msg.sender] = 100;\r\n        }\r\n        equity[msg.sender] += msg.value;\r\n\r\n        totalContribution += msg.value;\r\n        return true;\r\n    }\r\n\r\n    function checkVote() public onlyBy(owner) returns (bool success) {\r\n        uint8 _status = checkVoteMarginMet();\r\n        if (_status != 0) {\r\n            bool result;\r\n            if (_status == 1) {\r\n                result = approveAndPay();\r\n            } else if (_status == 2) {\r\n                result = failMilestone();\r\n            }\r\n            // result is true if we took a step forward, otherwise false\r\n            if (result) {\r\n                // Wipe the state if either of these things happens\r\n                wipeStateForBonus();\r\n            }\r\n            return result;\r\n        }\r\n    }\r\n\r\n    // Returns 0 if not a done vote yet, 1 if passed, 2 if failed\r\n    function checkVoteMarginMet() private view returns (uint8 met) {\r\n        uint256 yeasNeeded = totalContribution\r\n            .mul(bonusPctYeasNeeded[votingOn])\r\n            .div(100);\r\n        if (currentYeas >= yeasNeeded) {\r\n            return 1;\r\n        } else if (currentNays >= totalContribution - yeasNeeded) {\r\n            return 2;\r\n        }\r\n        return 0;\r\n    }\r\n\r\n    function vote(uint8 _milestone, bool _vote)\r\n        public\r\n        onlyWithEquity\r\n        returns (bool success)\r\n    {\r\n        emit Debug(\"vote called\");\r\n        // Not yet claimed\r\n        if (status == 0 || _milestone != votingOn) {\r\n            revert VoteOver();\r\n        }\r\n        if (votedThisRound[msg.sender]) {\r\n            revert AlreadyVoted();\r\n        }\r\n        uint256 amount = equityOf(msg.sender);\r\n        if (_vote) {\r\n            currentYeas += amount;\r\n        } else {\r\n            currentNays += amount;\r\n        }\r\n        currentVotesCast += 1;\r\n        votedThisRound[msg.sender] = true;\r\n\r\n        emit Vote(msg.sender, _vote);\r\n\r\n        uint8 _status = checkVoteMarginMet();\r\n        if (_status != 0) {\r\n            bool result;\r\n            if (_status == 1) {\r\n                result = approveAndPay();\r\n            } else if (_status == 2) {\r\n                result = failMilestone();\r\n            }\r\n            // result is true if we took a step forward, otherwise false\r\n            if (result) {\r\n                // Wipe the state if either of these things happens\r\n                wipeStateForBonus();\r\n            }\r\n            return result;\r\n        }\r\n        return true;\r\n    }\r\n\r\n    function negotiate(\r\n        uint256 _maxValue,\r\n        uint256 _reservePrice,\r\n        uint8[] memory _bonusTargets,\r\n        uint8[] memory _bonusPctYeasNeeded,\r\n        uint8[] memory _bonusFailureThresholds,\r\n        uint64 _timeLimit\r\n    ) public onlyBy(owner) returns (bool success) {\r\n        if (status != 0) {\r\n            return false;\r\n        }\r\n        reservePrice = _reservePrice;\r\n        maxValue = _maxValue;\r\n        bonusTargets = _bonusTargets;\r\n        bonusFailureThresholds = _bonusFailureThresholds;\r\n        bonusPctYeasNeeded = _bonusPctYeasNeeded;\r\n        timeLimit = _timeLimit;\r\n        return true;\r\n    }\r\n\r\n    // Sets initial state and sets the end time of this bounty according to config\r\n    function claim() public onlyBy(owner) returns (bool success) {\r\n        // Already claimed\r\n        if (status != 0) {\r\n            return false;\r\n        }\r\n        endTime = uint64(block.timestamp + timeLimit);\r\n        isPrecipitatingEvent = false;\r\n        status = 1;\r\n        return true;\r\n    }\r\n\r\n    function wipeStateForBonus() private returns (bool success) {\r\n        currentYeas = 0;\r\n        currentNays = 0;\r\n        currentVotesCast = 0;\r\n        for (uint256 i = 0; i < fans.length; i += 1) {\r\n            votedThisRound[fans[i]] = false;\r\n        }\r\n        return true;\r\n    }\r\n\r\n    // _vote is false for nay, true for yea\r\n    event Vote(address indexed _voter, bool _vote);\r\n}\r\n",
  "sourcePath": "C:\\Users\\kumquatexpress\\projects\\polygon-hack\\web3\\contracts\\polygon\\Bounty.sol",
  "compiler": {
    "name": "solc",
    "version": "0.8.4+commit.c7e474f2.Emscripten.clang"
  },
  "schemaVersion": "3.4.4",
  "updatedAt": "2022-02-05T23:33:14.892Z",
  "devdoc": {
    "kind": "dev",
    "methods": {},
    "version": 1
  },
  "userdoc": {
    "kind": "user",
    "methods": {},
    "version": 1
  },
  "db": {
    "callBytecode": {
      "id": "0xfbdd5bbc6d46cadc54b6781dae254a32c592f8cefc5a57ad3296fae431c32e62"
    },
    "createBytecode": {
      "id": "0x7251c7aa4d5ae620cc04e28a206bcc7a185c76b8f79d9aec94aa964858ff770e"
    },
    "contract": {
      "id": "0x8160a78620c6e2cc7e606f611fc67f4faef04667a9064ea297c6aa5a3aaea859"
    }
  }
}