{
  "contractName": "Bounty",
  "abi": [
    {
      "inputs": [
        {
          "internalType": "address payable",
          "name": "_creatorWallet",
          "type": "address"
        },
        {
          "internalType": "uint256",
          "name": "_maxValue",
          "type": "uint256"
        },
        {
          "internalType": "uint256",
          "name": "_reservePrice",
          "type": "uint256"
        },
        {
          "internalType": "uint8",
          "name": "_pctCreatorInitialDisbursement",
          "type": "uint8"
        },
        {
          "internalType": "uint8",
          "name": "_pctCreatorFinalDisbursement",
          "type": "uint8"
        },
        {
          "internalType": "uint8[]",
          "name": "_bonusTargets",
          "type": "uint8[]"
        },
        {
          "internalType": "uint8[]",
          "name": "_bonusPctYeasNeeded",
          "type": "uint8[]"
        },
        {
          "internalType": "uint8[]",
          "name": "_bonusFailureThresholds",
          "type": "uint8[]"
        },
        {
          "internalType": "uint64",
          "name": "_mustBeClaimedTime",
          "type": "uint64"
        },
        {
          "internalType": "uint64",
          "name": "_timeLimit",
          "type": "uint64"
        },
        {
          "internalType": "address payable",
          "name": "_owner",
          "type": "address"
        }
      ],
      "stateMutability": "nonpayable",
      "type": "constructor"
    },
    {
      "inputs": [],
      "name": "AlreadyPaid",
      "type": "error"
    },
    {
      "inputs": [],
      "name": "AlreadyVoted",
      "type": "error"
    },
    {
      "inputs": [],
      "name": "IncorrectPercentages",
      "type": "error"
    },
    {
      "inputs": [],
      "name": "MaxValueReached",
      "type": "error"
    },
    {
      "inputs": [],
      "name": "NoEquity",
      "type": "error"
    },
    {
      "inputs": [],
      "name": "TooLate",
      "type": "error"
    },
    {
      "inputs": [],
      "name": "Unauthorized",
      "type": "error"
    },
    {
      "inputs": [],
      "name": "VoteOver",
      "type": "error"
    },
    {
      "anonymous": false,
      "inputs": [
        {
          "indexed": false,
          "internalType": "uint8",
          "name": "_milestone",
          "type": "uint8"
        },
        {
          "indexed": false,
          "internalType": "uint256",
          "name": "_amount",
          "type": "uint256"
        },
        {
          "indexed": false,
          "internalType": "address",
          "name": "_creatorWallet",
          "type": "address"
        }
      ],
      "name": "Approval",
      "type": "event"
    },
    {
      "anonymous": false,
      "inputs": [
        {
          "indexed": true,
          "internalType": "string",
          "name": "msg",
          "type": "string"
        }
      ],
      "name": "Debug",
      "type": "event"
    },
    {
      "anonymous": false,
      "inputs": [
        {
          "indexed": false,
          "internalType": "uint8",
          "name": "_milestone",
          "type": "uint8"
        }
      ],
      "name": "Failure",
      "type": "event"
    },
    {
      "anonymous": false,
      "inputs": [
        {
          "indexed": true,
          "internalType": "address",
          "name": "_voter",
          "type": "address"
        },
        {
          "indexed": false,
          "internalType": "bool",
          "name": "_vote",
          "type": "bool"
        }
      ],
      "name": "Vote",
      "type": "event"
    },
    {
      "anonymous": false,
      "inputs": [
        {
          "indexed": true,
          "internalType": "address",
          "name": "_to",
          "type": "address"
        },
        {
          "indexed": false,
          "internalType": "uint256",
          "name": "_amount",
          "type": "uint256"
        }
      ],
      "name": "Withdraw",
      "type": "event"
    },
    {
      "inputs": [
        {
          "internalType": "address",
          "name": "_owner",
          "type": "address"
        }
      ],
      "name": "balanceOf",
      "outputs": [
        {
          "internalType": "uint256",
          "name": "balance",
          "type": "uint256"
        }
      ],
      "stateMutability": "view",
      "type": "function"
    },
    {
      "inputs": [
        {
          "internalType": "uint256",
          "name": "",
          "type": "uint256"
        }
      ],
      "name": "bonusDeadlines",
      "outputs": [
        {
          "internalType": "uint64",
          "name": "",
          "type": "uint64"
        }
      ],
      "stateMutability": "view",
      "type": "function"
    },
    {
      "inputs": [
        {
          "internalType": "uint256",
          "name": "",
          "type": "uint256"
        }
      ],
      "name": "bonusFailureThresholds",
      "outputs": [
        {
          "internalType": "uint8",
          "name": "",
          "type": "uint8"
        }
      ],
      "stateMutability": "view",
      "type": "function"
    },
    {
      "inputs": [
        {
          "internalType": "uint256",
          "name": "",
          "type": "uint256"
        }
      ],
      "name": "bonusFailures",
      "outputs": [
        {
          "internalType": "uint8",
          "name": "",
          "type": "uint8"
        }
      ],
      "stateMutability": "view",
      "type": "function"
    },
    {
      "inputs": [
        {
          "internalType": "uint256",
          "name": "",
          "type": "uint256"
        }
      ],
      "name": "bonusPctYeasNeeded",
      "outputs": [
        {
          "internalType": "uint8",
          "name": "",
          "type": "uint8"
        }
      ],
      "stateMutability": "view",
      "type": "function"
    },
    {
      "inputs": [
        {
          "internalType": "uint256",
          "name": "",
          "type": "uint256"
        }
      ],
      "name": "bonusTargets",
      "outputs": [
        {
          "internalType": "uint8",
          "name": "",
          "type": "uint8"
        }
      ],
      "stateMutability": "view",
      "type": "function"
    },
    {
      "inputs": [],
      "name": "creatorWallet",
      "outputs": [
        {
          "internalType": "address payable",
          "name": "",
          "type": "address"
        }
      ],
      "stateMutability": "view",
      "type": "function"
    },
    {
      "inputs": [],
      "name": "currentNays",
      "outputs": [
        {
          "internalType": "uint256",
          "name": "",
          "type": "uint256"
        }
      ],
      "stateMutability": "view",
      "type": "function"
    },
    {
      "inputs": [],
      "name": "currentVotesCast",
      "outputs": [
        {
          "internalType": "uint32",
          "name": "",
          "type": "uint32"
        }
      ],
      "stateMutability": "view",
      "type": "function"
    },
    {
      "inputs": [],
      "name": "currentYeas",
      "outputs": [
        {
          "internalType": "uint256",
          "name": "",
          "type": "uint256"
        }
      ],
      "stateMutability": "view",
      "type": "function"
    },
    {
      "inputs": [],
      "name": "endTime",
      "outputs": [
        {
          "internalType": "uint64",
          "name": "",
          "type": "uint64"
        }
      ],
      "stateMutability": "view",
      "type": "function"
    },
    {
      "inputs": [
        {
          "internalType": "address",
          "name": "",
          "type": "address"
        }
      ],
      "name": "equity",
      "outputs": [
        {
          "internalType": "uint256",
          "name": "",
          "type": "uint256"
        }
      ],
      "stateMutability": "view",
      "type": "function"
    },
    {
      "inputs": [
        {
          "internalType": "address",
          "name": "_owner",
          "type": "address"
        }
      ],
      "name": "equityOf",
      "outputs": [
        {
          "internalType": "uint256",
          "name": "balance",
          "type": "uint256"
        }
      ],
      "stateMutability": "view",
      "type": "function"
    },
    {
      "inputs": [
        {
          "internalType": "uint256",
          "name": "",
          "type": "uint256"
        }
      ],
      "name": "fans",
      "outputs": [
        {
          "internalType": "address payable",
          "name": "",
          "type": "address"
        }
      ],
      "stateMutability": "view",
      "type": "function"
    },
    {
      "inputs": [],
      "name": "getEquityList",
      "outputs": [
        {
          "internalType": "uint8[]",
          "name": "_pctEquity",
          "type": "uint8[]"
        }
      ],
      "stateMutability": "view",
      "type": "function"
    },
    {
      "inputs": [],
      "name": "getFansList",
      "outputs": [
        {
          "internalType": "address payable[]",
          "name": "_fans",
          "type": "address[]"
        }
      ],
      "stateMutability": "view",
      "type": "function"
    },
    {
      "inputs": [],
      "name": "maxValue",
      "outputs": [
        {
          "internalType": "uint256",
          "name": "",
          "type": "uint256"
        }
      ],
      "stateMutability": "view",
      "type": "function"
    },
    {
      "inputs": [],
      "name": "mustBeClaimedTime",
      "outputs": [
        {
          "internalType": "uint64",
          "name": "",
          "type": "uint64"
        }
      ],
      "stateMutability": "view",
      "type": "function"
    },
    {
      "inputs": [
        {
          "internalType": "bool",
          "name": "onOff",
          "type": "bool"
        }
      ],
      "name": "precipitatingEvent",
      "outputs": [
        {
          "internalType": "bool",
          "name": "success",
          "type": "bool"
        }
      ],
      "stateMutability": "nonpayable",
      "type": "function"
    },
    {
      "inputs": [],
      "name": "reservePrice",
      "outputs": [
        {
          "internalType": "uint256",
          "name": "",
          "type": "uint256"
        }
      ],
      "stateMutability": "view",
      "type": "function"
    },
    {
      "inputs": [],
      "name": "status",
      "outputs": [
        {
          "internalType": "uint8",
          "name": "",
          "type": "uint8"
        }
      ],
      "stateMutability": "view",
      "type": "function"
    },
    {
      "inputs": [],
      "name": "timeLimit",
      "outputs": [
        {
          "internalType": "uint64",
          "name": "",
          "type": "uint64"
        }
      ],
      "stateMutability": "view",
      "type": "function"
    },
    {
      "inputs": [
        {
          "internalType": "address",
          "name": "",
          "type": "address"
        }
      ],
      "name": "votingEquity",
      "outputs": [
        {
          "internalType": "uint256",
          "name": "",
          "type": "uint256"
        }
      ],
      "stateMutability": "view",
      "type": "function"
    },
    {
      "inputs": [],
      "name": "votingOn",
      "outputs": [
        {
          "internalType": "uint8",
          "name": "",
          "type": "uint8"
        }
      ],
      "stateMutability": "view",
      "type": "function"
    },
    {
      "inputs": [],
      "name": "withdraw",
      "outputs": [
        {
          "internalType": "bool",
          "name": "success",
          "type": "bool"
        }
      ],
      "stateMutability": "nonpayable",
      "type": "function"
    },
    {
      "inputs": [],
      "name": "uniqueFans",
      "outputs": [
        {
          "internalType": "uint8",
          "name": "num",
          "type": "uint8"
        }
      ],
      "stateMutability": "view",
      "type": "function"
    },
    {
      "inputs": [],
      "name": "bountyStatus",
      "outputs": [
        {
          "internalType": "uint256[3]",
          "name": "stats",
          "type": "uint256[3]"
        }
      ],
      "stateMutability": "view",
      "type": "function"
    },
    {
      "inputs": [],
      "name": "voteStatus",
      "outputs": [
        {
          "internalType": "uint256[10]",
          "name": "stats",
          "type": "uint256[10]"
        }
      ],
      "stateMutability": "view",
      "type": "function"
    },
    {
      "inputs": [],
      "name": "join",
      "outputs": [
        {
          "internalType": "bool",
          "name": "success",
          "type": "bool"
        }
      ],
      "stateMutability": "payable",
      "type": "function"
    },
    {
      "inputs": [],
      "name": "checkVote",
      "outputs": [
        {
          "internalType": "bool",
          "name": "success",
          "type": "bool"
        }
      ],
      "stateMutability": "nonpayable",
      "type": "function"
    },
    {
      "inputs": [
        {
          "internalType": "uint8",
          "name": "_milestone",
          "type": "uint8"
        },
        {
          "internalType": "bool",
          "name": "_vote",
          "type": "bool"
        }
      ],
      "name": "vote",
      "outputs": [
        {
          "internalType": "bool",
          "name": "success",
          "type": "bool"
        }
      ],
      "stateMutability": "nonpayable",
      "type": "function"
    },
    {
      "inputs": [
        {
          "internalType": "uint256",
          "name": "_maxValue",
          "type": "uint256"
        },
        {
          "internalType": "uint256",
          "name": "_reservePrice",
          "type": "uint256"
        },
        {
          "internalType": "uint8[]",
          "name": "_bonusTargets",
          "type": "uint8[]"
        },
        {
          "internalType": "uint8[]",
          "name": "_bonusPctYeasNeeded",
          "type": "uint8[]"
        },
        {
          "internalType": "uint8[]",
          "name": "_bonusFailureThresholds",
          "type": "uint8[]"
        },
        {
          "internalType": "uint64",
          "name": "_timeLimit",
          "type": "uint64"
        }
      ],
      "name": "negotiate",
      "outputs": [
        {
          "internalType": "bool",
          "name": "success",
          "type": "bool"
        }
      ],
      "stateMutability": "nonpayable",
      "type": "function"
    },
    {
      "inputs": [
        {
          "internalType": "address",
          "name": "_addr",
          "type": "address"
        }
      ],
      "name": "amountRejoinTreasury",
      "outputs": [
        {
          "internalType": "uint256",
          "name": "canRejoin",
          "type": "uint256"
        }
      ],
      "stateMutability": "view",
      "type": "function"
    },
    {
      "inputs": [
        {
          "internalType": "address",
          "name": "_addr",
          "type": "address"
        }
      ],
      "name": "negotiateRejoin",
      "outputs": [
        {
          "internalType": "bool",
          "name": "success",
          "type": "bool"
        }
      ],
      "stateMutability": "nonpayable",
      "type": "function"
    },
    {
      "inputs": [],
      "name": "negotiateLeave",
      "outputs": [
        {
          "internalType": "bool",
          "name": "success",
          "type": "bool"
        }
      ],
      "stateMutability": "nonpayable",
      "type": "function"
    },
    {
      "inputs": [],
      "name": "negotiationStatus",
      "outputs": [
        {
          "internalType": "uint256[2]",
          "name": "data",
          "type": "uint256[2]"
        }
      ],
      "stateMutability": "view",
      "type": "function"
    },
    {
      "inputs": [],
      "name": "claim",
      "outputs": [
        {
          "internalType": "bool",
          "name": "success",
          "type": "bool"
        }
      ],
      "stateMutability": "nonpayable",
      "type": "function"
    },
    {
      "inputs": [
        {
          "internalType": "address",
          "name": "_operator",
          "type": "address"
        },
        {
          "internalType": "address",
          "name": "",
          "type": "address"
        },
        {
          "internalType": "uint256",
          "name": "",
          "type": "uint256"
        },
        {
          "internalType": "bytes",
          "name": "",
          "type": "bytes"
        }
      ],
      "name": "onERC721Received",
      "outputs": [
        {
          "internalType": "bytes4",
          "name": "",
          "type": "bytes4"
        }
      ],
      "stateMutability": "nonpayable",
      "type": "function"
    }
  ],
  "bytecode": "0x60806040523480156200001157600080fd5b5060405162004fd138038062004fd18339818101604052810190620000379190620004ea565b6000878962000047919062000694565b905060005b87518160ff161015620000c357878160ff168151811062000096577f4e487b7100000000000000000000000000000000000000000000000000000000600052603260045260246000fd5b602002602001015182620000ab919062000694565b91508080620000ba9062000767565b9150506200004c565b5060648160ff161462000102576040517fe90c19eb00000000000000000000000000000000000000000000000000000000815260040160405180910390fd5b8b600660006101000a81548173ffffffffffffffffffffffffffffffffffffffff021916908373ffffffffffffffffffffffffffffffffffffffff1602179055508a6010819055508960118190555088600660146101000a81548160ff021916908360ff16021790555087600660156101000a81548160ff021916908360ff16021790555086600790805190602001906200019f9291906200031f565b508560099080519060200190620001b89291906200031f565b5084600b9080519060200190620001d19291906200031f565b5083600f60006101000a81548167ffffffffffffffff021916908367ffffffffffffffff160217905550816000806101000a81548173ffffffffffffffffffffffffffffffffffffffff021916908373ffffffffffffffffffffffffffffffffffffffff1602179055506000600c60086101000a81548160ff02191690831515021790555082601260006101000a81548167ffffffffffffffff021916908367ffffffffffffffff16021790555060078054905067ffffffffffffffff811115620002c5577f4e487b7100000000000000000000000000000000000000000000000000000000600052604160045260246000fd5b604051908082528060200260200182016040528015620002f45781602001602082028036833780820191505090505b50600a90805190602001906200030c9291906200031f565b505050505050505050505050506200086d565b82805482825590600052602060002090601f01602090048101928215620003ba5791602002820160005b838211156200038957835183826101000a81548160ff021916908360ff160217905550926020019260010160208160000104928301926001030262000349565b8015620003b85782816101000a81549060ff021916905560010160208160000104928301926001030262000389565b505b509050620003c99190620003cd565b5090565b5b80821115620003e8576000816000905550600101620003ce565b5090565b600062000403620003fd8462000665565b6200063c565b905080838252602082019050828560208602820111156200042357600080fd5b60005b858110156200045757816200043c8882620004d3565b84526020840193506020830192505060018101905062000426565b5050509392505050565b600081519050620004728162000805565b92915050565b600082601f8301126200048a57600080fd5b81516200049c848260208601620003ec565b91505092915050565b600081519050620004b6816200081f565b92915050565b600081519050620004cd8162000839565b92915050565b600081519050620004e48162000853565b92915050565b60008060008060008060008060008060006101608c8e0312156200050d57600080fd5b60006200051d8e828f0162000461565b9b50506020620005308e828f01620004a5565b9a50506040620005438e828f01620004a5565b9950506060620005568e828f01620004d3565b9850506080620005698e828f01620004d3565b97505060a08c015167ffffffffffffffff8111156200058757600080fd5b620005958e828f0162000478565b96505060c08c015167ffffffffffffffff811115620005b357600080fd5b620005c18e828f0162000478565b95505060e08c015167ffffffffffffffff811115620005df57600080fd5b620005ed8e828f0162000478565b945050610100620006018e828f01620004bc565b935050610120620006158e828f01620004bc565b925050610140620006298e828f0162000461565b9150509295989b509295989b9093969950565b6000620006486200065b565b905062000656828262000731565b919050565b6000604051905090565b600067ffffffffffffffff821115620006835762000682620007c5565b5b602082029050602081019050919050565b6000620006a18262000724565b9150620006ae8362000724565b92508260ff03821115620006c757620006c662000796565b5b828201905092915050565b6000620006df82620006e6565b9050919050565b600073ffffffffffffffffffffffffffffffffffffffff82169050919050565b6000819050919050565b600067ffffffffffffffff82169050919050565b600060ff82169050919050565b6200073c82620007f4565b810181811067ffffffffffffffff821117156200075e576200075d620007c5565b5b80604052505050565b6000620007748262000724565b915060ff8214156200078b576200078a62000796565b5b600182019050919050565b7f4e487b7100000000000000000000000000000000000000000000000000000000600052601160045260246000fd5b7f4e487b7100000000000000000000000000000000000000000000000000000000600052604160045260246000fd5b6000601f19601f8301169050919050565b6200081081620006d2565b81146200081c57600080fd5b50565b6200082a8162000706565b81146200083657600080fd5b50565b620008448162000710565b81146200085057600080fd5b50565b6200085e8162000724565b81146200086a57600080fd5b50565b614754806200087d6000396000f3fe608060405260043610610242576000357c010000000000000000000000000000000000000000000000000000000090048063688594b311610140578063b4bd497a116100c8578063db2e1eed1161008c578063db2e1eed146108d3578063e2fd21e8146108fe578063e885f76b1461093b578063f541c60f14610966578063f64324021461099157610242565b8063b4bd497a146107d3578063b688a36314610810578063c08d1fe51461082e578063cb0cd6b514610859578063d553ed131461089657610242565b80637f698dad1161010f5780637f698dad146106ea57806393d181131461071557806394a5c2e414610740578063a064c9d81461076b578063b0417e98146107a857610242565b8063688594b31461061a57806370a08231146106575780637ae6ee32146106945780637cdc65f2146106bf57610242565b80633197cbb6116101ce5780634bd1d75c116101925780634bd1d75c146105315780634ce2cdc71461055c5780634e71d92d146105995780635d7c58ea146105c4578063611f763f146105ef57610242565b80633197cbb614610424578063379ae0471461044f5780633ccfd60b1461048c5780633dad5c70146104b757806342bbec59146104f457610242565b8063200d2ed211610215578063200d2ed21461031757806320949bb4146103425780632808241e1461036d578063292d0c88146103aa5780632e8a498c146103e757610242565b80630f6d2db514610247578063150b7a02146102725780631b535135146102af5780631b5a3cc9146102da575b600080fd5b34801561025357600080fd5b5061025c6109bc565b6040516102699190613f5c565b60405180910390f35b34801561027e57600080fd5b50610299600480360381019061029491906138bd565b610b4b565b6040516102a69190613f99565b60405180910390f35b3480156102bb57600080fd5b506102c4610c9f565b6040516102d19190613f26565b60405180910390f35b3480156102e657600080fd5b5061030160048036038101906102fc9190613938565b610cc5565b60405161030e9190613f7e565b60405180910390f35b34801561032357600080fd5b5061032c610d72565b6040516103399190614005565b60405180910390f35b34801561034e57600080fd5b50610357610d85565b6040516103649190614005565b60405180910390f35b34801561037957600080fd5b50610394600480360381019061038f9190613a5b565b610d98565b6040516103a19190613f7e565b60405180910390f35b3480156103b657600080fd5b506103d160048036038101906103cc9190613894565b6110ea565b6040516103de9190613fb4565b60405180910390f35b3480156103f357600080fd5b5061040e60048036038101906104099190613894565b611133565b60405161041b9190613fb4565b60405180910390f35b34801561043057600080fd5b5061043961114b565b6040516104469190613fea565b60405180910390f35b34801561045b57600080fd5b5061047660048036038101906104719190613894565b611165565b6040516104839190613f7e565b60405180910390f35b34801561049857600080fd5b506104a1611333565b6040516104ae9190613f7e565b60405180910390f35b3480156104c357600080fd5b506104de60048036038101906104d99190613961565b611592565b6040516104eb9190613fea565b60405180910390f35b34801561050057600080fd5b5061051b60048036038101906105169190613961565b6115d0565b6040516105289190614005565b60405180910390f35b34801561053d57600080fd5b50610546611604565b6040516105539190613f7e565b60405180910390f35b34801561056857600080fd5b50610583600480360381019061057e9190613961565b6116d8565b6040516105909190614005565b60405180910390f35b3480156105a557600080fd5b506105ae61170c565b6040516105bb9190613f7e565b60405180910390f35b3480156105d057600080fd5b506105d96117a3565b6040516105e69190613fea565b60405180910390f35b3480156105fb57600080fd5b506106046117bd565b6040516106119190613ee8565b60405180910390f35b34801561062657600080fd5b50610641600480360381019061063c9190613961565b61184b565b60405161064e9190613ecd565b60405180910390f35b34801561066357600080fd5b5061067e60048036038101906106799190613894565b61188a565b60405161068b9190613fb4565b60405180910390f35b3480156106a057600080fd5b506106a9611947565b6040516106b69190613f0a565b60405180910390f35b3480156106cb57600080fd5b506106d4611caa565b6040516106e19190613ecd565b60405180910390f35b3480156106f657600080fd5b506106ff611cd0565b60405161070c9190614005565b60405180910390f35b34801561072157600080fd5b5061072a611cdd565b6040516107379190613fcf565b60405180910390f35b34801561074c57600080fd5b50610755611cf3565b6040516107629190613fb4565b60405180910390f35b34801561077757600080fd5b50610792600480360381019061078d919061398a565b611cf9565b60405161079f9190613f7e565b60405180910390f35b3480156107b457600080fd5b506107bd612089565b6040516107ca9190613f7e565b60405180910390f35b3480156107df57600080fd5b506107fa60048036038101906107f59190613894565b61217e565b6040516108079190613fb4565b60405180910390f35b610818612196565b6040516108259190613f7e565b60405180910390f35b34801561083a57600080fd5b506108436126e4565b6040516108509190613fea565b60405180910390f35b34801561086557600080fd5b50610880600480360381019061087b9190613961565b6126fe565b60405161088d9190614005565b60405180910390f35b3480156108a257600080fd5b506108bd60048036038101906108b89190613961565b612732565b6040516108ca9190614005565b60405180910390f35b3480156108df57600080fd5b506108e8612766565b6040516108f59190613fb4565b60405180910390f35b34801561090a57600080fd5b5061092560048036038101906109209190613894565b61276c565b6040516109329190613fb4565b60405180910390f35b34801561094757600080fd5b506109506127b5565b60405161095d9190613fb4565b60405180910390f35b34801561097257600080fd5b5061097b6127bb565b6040516109889190613fb4565b60405180910390f35b34801561099d57600080fd5b506109a66127c1565b6040516109b39190613f41565b60405180910390f35b6060600060058054905067ffffffffffffffff811115610a05577f4e487b7100000000000000000000000000000000000000000000000000000000600052604160045260246000fd5b604051908082528060200260200182016040528015610a335781602001602082028036833780820191505090505b50905060005b6005805490508160ff161015610b4357610ae0600154610ad26064610ac460058660ff1681548110610a94577f4e487b7100000000000000000000000000000000000000000000000000000000600052603260045260246000fd5b9060005260206000200160009054906101000a900473ffffffffffffffffffffffffffffffffffffffff1661276c565b61282390919063ffffffff16565b61283990919063ffffffff16565b828260ff1681518110610b1c577f4e487b7100000000000000000000000000000000000000000000000000000000600052603260045260246000fd5b602002602001019060ff16908160ff16815250508080610b3b906144c4565b915050610a39565b508091505090565b60008060009054906101000a900473ffffffffffffffffffffffffffffffffffffffff1673ffffffffffffffffffffffffffffffffffffffff168573ffffffffffffffffffffffffffffffffffffffff161415610c71576000610bde6064610bd0600660159054906101000a900460ff1660ff1660015461282390919063ffffffff16565b61283990919063ffffffff16565b9050600660009054906101000a900473ffffffffffffffffffffffffffffffffffffffff1673ffffffffffffffffffffffffffffffffffffffff166108fc829081150290604051600060405180830381858888f19350505050158015610c48573d6000803e3d6000fd5b50610c528161284f565b506004600c600a6101000a81548160ff021916908360ff160217905550505b63150b7a027c0100000000000000000000000000000000000000000000000000000000029050949350505050565b610ca7613602565b60405180604001604052806011548152602001600154815250905090565b60008060009054906101000a900473ffffffffffffffffffffffffffffffffffffffff168073ffffffffffffffffffffffffffffffffffffffff163373ffffffffffffffffffffffffffffffffffffffff1614610d4e576040517f82b4290000000000000000000000000000000000000000000000000000000000815260040160405180910390fd5b82600c60086101000a81548160ff0219169083151502179055506001915050919050565b600c600a9054906101000a900460ff1681565b600c60099054906101000a900460ff1681565b600080600360003373ffffffffffffffffffffffffffffffffffffffff1673ffffffffffffffffffffffffffffffffffffffff168152602001908152602001600020541415610e13576040517f995a2dae00000000000000000000000000000000000000000000000000000000815260040160405180910390fd5b604051610e1f90613e8e565b60405180910390207f7cdb51e9dbbc205231228146c3246e7f914aa6d4a33170e43ecc8e3593481d1a60405160405180910390a26002600c600a9054906101000a900460ff1660ff16141580610e8a5750600c60099054906101000a900460ff1660ff168360ff1614155b15610ec1576040517f4733210000000000000000000000000000000000000000000000000000000000815260040160405180910390fd5b600d60003373ffffffffffffffffffffffffffffffffffffffff1673ffffffffffffffffffffffffffffffffffffffff16815260200190815260200160002060009054906101000a900460ff1615610f45576040517f7c9a1cf900000000000000000000000000000000000000000000000000000000815260040160405180910390fd5b6000610f503361276c565b90508215610f76578060136000828254610f6a91906141dd565b92505081905550610f90565b8060146000828254610f8891906141dd565b925050819055505b6001601560008282829054906101000a900463ffffffff16610fb29190614233565b92506101000a81548163ffffffff021916908363ffffffff1602179055506001600d60003373ffffffffffffffffffffffffffffffffffffffff1673ffffffffffffffffffffffffffffffffffffffff16815260200190815260200160002060006101000a81548160ff0219169083151502179055503373ffffffffffffffffffffffffffffffffffffffff167fa635d31e67484fd1d93ba01ab0ef882e4440a78aa40d0e2771e8a2aace4598698460405161106e9190613f7e565b60405180910390a260006110806129c3565b905060008160ff16146110dd57600060018260ff1614156110aa576110a3612a9a565b90506110c2565b60028260ff1614156110c1576110be612d84565b90505b5b80156110d2576110d0612f54565b505b8093505050506110e4565b6001925050505b92915050565b6000600e60008373ffffffffffffffffffffffffffffffffffffffff1673ffffffffffffffffffffffffffffffffffffffff168152602001908152602001600020549050919050565b60036020528060005260406000206000915090505481565b600c60009054906101000a900467ffffffffffffffff1681565b60008060009054906101000a900473ffffffffffffffffffffffffffffffffffffffff168073ffffffffffffffffffffffffffffffffffffffff163373ffffffffffffffffffffffffffffffffffffffff16146111ee576040517f82b4290000000000000000000000000000000000000000000000000000000000815260040160405180910390fd5b600e60008473ffffffffffffffffffffffffffffffffffffffff1673ffffffffffffffffffffffffffffffffffffffff16815260200190815260200160002054600360008573ffffffffffffffffffffffffffffffffffffffff1673ffffffffffffffffffffffffffffffffffffffff168152602001908152602001600020600082825461127c91906141dd565b92505081905550600e60008473ffffffffffffffffffffffffffffffffffffffff1673ffffffffffffffffffffffffffffffffffffffff16815260200190815260200160002054600160008282546112d491906141dd565b925050819055506000600e60008573ffffffffffffffffffffffffffffffffffffffff1673ffffffffffffffffffffffffffffffffffffffff1681526020019081526020016000208190555061132861306f565b506001915050919050565b600080600360003373ffffffffffffffffffffffffffffffffffffffff1673ffffffffffffffffffffffffffffffffffffffff1681526020019081526020016000205414156113ae576040517f995a2dae00000000000000000000000000000000000000000000000000000000815260040160405180910390fd5b600c60089054906101000a900460ff166113cb576000905061158f565b60006113d63361188a565b90503373ffffffffffffffffffffffffffffffffffffffff166108fc611413833073ffffffffffffffffffffffffffffffffffffffff16316130b3565b9081150290604051600060405180830381858888f1935050505015801561143e573d6000803e3d6000fd5b506000600260003373ffffffffffffffffffffffffffffffffffffffff1673ffffffffffffffffffffffffffffffffffffffff16815260200190815260200160002060006101000a81548160ff021916908360ff1602179055506000600360003373ffffffffffffffffffffffffffffffffffffffff1673ffffffffffffffffffffffffffffffffffffffff168152602001908152602001600020819055506000600460003373ffffffffffffffffffffffffffffffffffffffff1673ffffffffffffffffffffffffffffffffffffffff168152602001908152602001600020819055508060016000828254611534919061432f565b925050819055503373ffffffffffffffffffffffffffffffffffffffff167f884edad9ce6fa2440d8a54cc123490eb96d2768479d49ff9c7366125a9424364826040516115819190613fb4565b60405180910390a260019150505b90565b600881815481106115a257600080fd5b9060005260206000209060049182820401919006600802915054906101000a900467ffffffffffffffff1681565b600781815481106115e057600080fd5b9060005260206000209060209182820401919006915054906101000a900460ff1681565b60003373ffffffffffffffffffffffffffffffffffffffff166108fc600e60003373ffffffffffffffffffffffffffffffffffffffff1673ffffffffffffffffffffffffffffffffffffffff168152602001908152602001600020549081150290604051600060405180830381858888f1935050505015801561168b573d6000803e3d6000fd5b506000600e60003373ffffffffffffffffffffffffffffffffffffffff1673ffffffffffffffffffffffffffffffffffffffff168152602001908152602001600020819055506001905090565b600981815481106116e857600080fd5b9060005260206000209060209182820401919006915054906101000a900460ff1681565b60008060009054906101000a900473ffffffffffffffffffffffffffffffffffffffff168073ffffffffffffffffffffffffffffffffffffffff163373ffffffffffffffffffffffffffffffffffffffff1614611795576040517f82b4290000000000000000000000000000000000000000000000000000000000815260040160405180910390fd5b61179d6130cc565b91505090565b600f60009054906101000a900467ffffffffffffffff1681565b6060600580548060200260200160405190810160405280929190818152602001828054801561184157602002820191906000526020600020905b8160009054906101000a900473ffffffffffffffffffffffffffffffffffffffff1673ffffffffffffffffffffffffffffffffffffffff16815260200190600101908083116117f7575b5050505050905090565b6005818154811061185b57600080fd5b906000526020600020016000915054906101000a900473ffffffffffffffffffffffffffffffffffffffff1681565b60006119406064611932600260008673ffffffffffffffffffffffffffffffffffffffff1673ffffffffffffffffffffffffffffffffffffffff16815260200190815260200160002060009054906101000a900460ff1660ff16600360008773ffffffffffffffffffffffffffffffffffffffff1673ffffffffffffffffffffffffffffffffffffffff1681526020019081526020016000205461282390919063ffffffff16565b61283990919063ffffffff16565b9050919050565b61194f613624565b604051806101400160405280600c60099054906101000a900460ff1660ff1681526020016007600c60099054906101000a900460ff1660ff16815481106119bf577f4e487b7100000000000000000000000000000000000000000000000000000000600052603260045260246000fd5b90600052602060002090602091828204019190069054906101000a900460ff1660ff168152602001611a7d6064611a6f6007600c60099054906101000a900460ff1660ff1681548110611a3b577f4e487b7100000000000000000000000000000000000000000000000000000000600052603260045260246000fd5b90600052602060002090602091828204019190069054906101000a900460ff1660ff1660015461282390919063ffffffff16565b61283990919063ffffffff16565b81526020016009600c60099054906101000a900460ff1660ff1681548110611ace577f4e487b7100000000000000000000000000000000000000000000000000000000600052603260045260246000fd5b90600052602060002090602091828204019190069054906101000a900460ff1660ff168152602001611b8c6064611b7e6009600c60099054906101000a900460ff1660ff1681548110611b4a577f4e487b7100000000000000000000000000000000000000000000000000000000600052603260045260246000fd5b90600052602060002090602091828204019190069054906101000a900460ff1660ff1660015461282390919063ffffffff16565b61283990919063ffffffff16565b815260200160135481526020016014548152602001600a600c60099054906101000a900460ff1660ff1681548110611bed577f4e487b7100000000000000000000000000000000000000000000000000000000600052603260045260246000fd5b90600052602060002090602091828204019190069054906101000a900460ff1660ff168152602001600b600c60099054906101000a900460ff1660ff1681548110611c61577f4e487b7100000000000000000000000000000000000000000000000000000000600052603260045260246000fd5b90600052602060002090602091828204019190069054906101000a900460ff1660ff168152602001601560009054906101000a900463ffffffff1663ffffffff16815250905090565b600660009054906101000a900473ffffffffffffffffffffffffffffffffffffffff1681565b6000600580549050905090565b601560009054906101000a900463ffffffff1681565b60105481565b60008060009054906101000a900473ffffffffffffffffffffffffffffffffffffffff168073ffffffffffffffffffffffffffffffffffffffff163373ffffffffffffffffffffffffffffffffffffffff1614611d82576040517f82b4290000000000000000000000000000000000000000000000000000000000815260040160405180910390fd5b6000600c600a9054906101000a900460ff1660ff1614611da5576000915061207e565b86601181905550876010819055508560079080519060200190611dc9929190613647565b5083600b9080519060200190611de0929190613647565b508460099080519060200190611df7929190613647565b5082601260006101000a81548167ffffffffffffffff021916908367ffffffffffffffff1602179055506001600c60086101000a81548160ff021916908315150217905550600060018190555060005b60058054905081101561205c576003600060058381548110611e92577f4e487b7100000000000000000000000000000000000000000000000000000000600052603260045260246000fd5b9060005260206000200160009054906101000a900473ffffffffffffffffffffffffffffffffffffffff1673ffffffffffffffffffffffffffffffffffffffff1673ffffffffffffffffffffffffffffffffffffffff16815260200190815260200160002054600e600060058481548110611f36577f4e487b7100000000000000000000000000000000000000000000000000000000600052603260045260246000fd5b9060005260206000200160009054906101000a900473ffffffffffffffffffffffffffffffffffffffff1673ffffffffffffffffffffffffffffffffffffffff1673ffffffffffffffffffffffffffffffffffffffff1681526020019081526020016000208190555060006003600060058481548110611fdf577f4e487b7100000000000000000000000000000000000000000000000000000000600052603260045260246000fd5b9060005260206000200160009054906101000a900473ffffffffffffffffffffffffffffffffffffffff1673ffffffffffffffffffffffffffffffffffffffff1673ffffffffffffffffffffffffffffffffffffffff1681526020019081526020016000208190555060018161205591906141dd565b9050611e47565b506001600c600a6101000a81548160ff021916908360ff160217905550600191505b509695505050505050565b60008060009054906101000a900473ffffffffffffffffffffffffffffffffffffffff168073ffffffffffffffffffffffffffffffffffffffff163373ffffffffffffffffffffffffffffffffffffffff1614612112576040517f82b4290000000000000000000000000000000000000000000000000000000000815260040160405180910390fd5b600061211c6129c3565b905060008160ff161461217857600060018260ff1614156121465761213f612a9a565b905061215e565b60028260ff16141561215d5761215a612d84565b90505b5b801561216e5761216c612f54565b505b809350505061217a565b505b5090565b60046020528060005260406000206000915090505481565b6000600f60009054906101000a900467ffffffffffffffff168067ffffffffffffffff164211156121f3576040517fecdd1c2900000000000000000000000000000000000000000000000000000000815260040160405180910390fd5b6040516121ff90613e3a565b60405180910390207f7cdb51e9dbbc205231228146c3246e7f914aa6d4a33170e43ecc8e3593481d1a60405160405180910390a2600034141561226e576040517f995a2dae00000000000000000000000000000000000000000000000000000000815260040160405180910390fd5b601054343073ffffffffffffffffffffffffffffffffffffffff163161229491906141dd565b106122cb576040517f77d09e5000000000000000000000000000000000000000000000000000000000815260040160405180910390fd5b6000600360003373ffffffffffffffffffffffffffffffffffffffff1673ffffffffffffffffffffffffffffffffffffffff1681526020019081526020016000205414801561235957506000600e60003373ffffffffffffffffffffffffffffffffffffffff1673ffffffffffffffffffffffffffffffffffffffff16815260200190815260200160002054145b156126645760006064905060006005805490501115612427576002600060056000815481106123b1577f4e487b7100000000000000000000000000000000000000000000000000000000600052603260045260246000fd5b9060005260206000200160009054906101000a900473ffffffffffffffffffffffffffffffffffffffff1673ffffffffffffffffffffffffffffffffffffffff1673ffffffffffffffffffffffffffffffffffffffff16815260200190815260200160002060009054906101000a900460ff1690505b60648160ff16146124d857600061246b606461245d8460646124499190614363565b60ff1660015461282390919063ffffffff16565b61283990919063ffffffff16565b9050600660009054906101000a900473ffffffffffffffffffffffffffffffffffffffff1673ffffffffffffffffffffffffffffffffffffffff166108fc829081150290604051600060405180830381858888f193505050501580156124d5573d6000803e3d6000fd5b50505b6000805b6005805490508160ff16101561259f573373ffffffffffffffffffffffffffffffffffffffff1660058260ff1681548110612540577f4e487b7100000000000000000000000000000000000000000000000000000000600052603260045260246000fd5b9060005260206000200160009054906101000a900473ffffffffffffffffffffffffffffffffffffffff1673ffffffffffffffffffffffffffffffffffffffff16141561258c57600191505b8080612597906144c4565b9150506124dc565b5080612609576005339080600181540180825580915050600190039060005260206000200160009091909190916101000a81548173ffffffffffffffffffffffffffffffffffffffff021916908373ffffffffffffffffffffffffffffffffffffffff1602179055505b81600260003373ffffffffffffffffffffffffffffffffffffffff1673ffffffffffffffffffffffffffffffffffffffff16815260200190815260200160002060006101000a81548160ff021916908360ff16021790555050505b34600360003373ffffffffffffffffffffffffffffffffffffffff1673ffffffffffffffffffffffffffffffffffffffff16815260200190815260200160002060008282546126b391906141dd565b9250508190555034600160008282546126cc91906141dd565b925050819055506126db61306f565b50600191505090565b601260009054906101000a900467ffffffffffffffff1681565b600b818154811061270e57600080fd5b9060005260206000209060209182820401919006915054906101000a900460ff1681565b600a818154811061274257600080fd5b9060005260206000209060209182820401919006915054906101000a900460ff1681565b60115481565b6000600360008373ffffffffffffffffffffffffffffffffffffffff1673ffffffffffffffffffffffffffffffffffffffff168152602001908152602001600020549050919050565b60135481565b60145481565b6127c96136ee565b6000600c60089054906101000a900460ff166127e65760006127e9565b60015b60ff16905060405180606001604052806001548152602001828152602001600c600a9054906101000a900460ff1660ff1681525091505090565b6000818361283191906142d5565b905092915050565b6000818361284791906142a4565b905092915050565b600060405161285d90613eb8565b60405180910390207f7cdb51e9dbbc205231228146c3246e7f914aa6d4a33170e43ecc8e3593481d1a60405160405180910390a260006128bb6001546128ad60648661282390919063ffffffff16565b61283990919063ffffffff16565b905060005b6005805490508110156129b85781600260006005848154811061290c577f4e487b7100000000000000000000000000000000000000000000000000000000600052603260045260246000fd5b9060005260206000200160009054906101000a900473ffffffffffffffffffffffffffffffffffffffff1673ffffffffffffffffffffffffffffffffffffffff1673ffffffffffffffffffffffffffffffffffffffff16815260200190815260200160002060008282829054906101000a900460ff1661298c9190614363565b92506101000a81548160ff021916908360ff1602179055506001816129b191906141dd565b90506128c0565b506001915050919050565b600080612a5c6064612a4e6009600c60099054906101000a900460ff1660ff1681548110612a1a577f4e487b7100000000000000000000000000000000000000000000000000000000600052603260045260246000fd5b90600052602060002090602091828204019190069054906101000a900460ff1660ff1660015461282390919063ffffffff16565b61283990919063ffffffff16565b90508060135410612a71576001915050612a97565b80600154612a7f919061432f565b60145410612a91576002915050612a97565b60009150505b90565b6000604051612aa890613ea3565b60405180910390207f7cdb51e9dbbc205231228146c3246e7f914aa6d4a33170e43ecc8e3593481d1a60405160405180910390a260006007600c60099054906101000a900460ff1660ff1681548110612b2a577f4e487b7100000000000000000000000000000000000000000000000000000000600052603260045260246000fd5b90600052602060002090602091828204019190069054906101000a900460ff1660ff161415612b85576040517fd70a0e3000000000000000000000000000000000000000000000000000000000815260040160405180910390fd5b6000612c1d6064612c0f6007600c60099054906101000a900460ff1660ff1681548110612bdb577f4e487b7100000000000000000000000000000000000000000000000000000000600052603260045260246000fd5b90600052602060002090602091828204019190069054906101000a900460ff1660ff1660015461282390919063ffffffff16565b61283990919063ffffffff16565b9050600660009054906101000a900473ffffffffffffffffffffffffffffffffffffffff1673ffffffffffffffffffffffffffffffffffffffff166108fc829081150290604051600060405180830381858888f19350505050158015612c87573d6000803e3d6000fd5b5060006007600c60099054906101000a900460ff1660ff1681548110612cd6577f4e487b7100000000000000000000000000000000000000000000000000000000600052603260045260246000fd5b90600052602060002090602091828204019190066101000a81548160ff021916908360ff160217905550612d098161284f565b507f0e45f244d89cea5099c0a6f24efd8cfde53e85de3cbf08c24acc387c1160ccc3600c60099054906101000a900460ff1682600660009054906101000a900473ffffffffffffffffffffffffffffffffffffffff16604051612d6e93929190614020565b60405180910390a1612d7e613236565b91505090565b6000604051612d9290613e79565b60405180910390207f7cdb51e9dbbc205231228146c3246e7f914aa6d4a33170e43ecc8e3593481d1a60405160405180910390a26001600a600c60099054906101000a900460ff1660ff1681548110612e14577f4e487b7100000000000000000000000000000000000000000000000000000000600052603260045260246000fd5b90600052602060002090602091828204019190068282829054906101000a900460ff16612e41919061426d565b92506101000a81548160ff021916908360ff160217905550600b600c60099054906101000a900460ff1660ff1681548110612ea5577f4e487b7100000000000000000000000000000000000000000000000000000000600052603260045260246000fd5b90600052602060002090602091828204019190069054906101000a900460ff1660ff16600a600c60099054906101000a900460ff1660ff1681548110612f14577f4e487b7100000000000000000000000000000000000000000000000000000000600052603260045260246000fd5b90600052602060002090602091828204019190069054906101000a900460ff1660ff161415612f4c57612f45613303565b9050612f51565b600190505b90565b60008060138190555060006014819055506000601560006101000a81548163ffffffff021916908363ffffffff16021790555060005b600580549050811015613067576000600d600060058481548110612fd7577f4e487b7100000000000000000000000000000000000000000000000000000000600052603260045260246000fd5b9060005260206000200160009054906101000a900473ffffffffffffffffffffffffffffffffffffffff1673ffffffffffffffffffffffffffffffffffffffff1673ffffffffffffffffffffffffffffffffffffffff16815260200190815260200160002060006101000a81548160ff02191690831515021790555060018161306091906141dd565b9050612f8a565b506001905090565b60006001600c600a9054906101000a900460ff1660ff16148015613097575060115460015410155b156130ab576130a46130cc565b90506130b0565b600090505b90565b60008183106130c257816130c4565b825b905092915050565b60006002600c600a9054906101000a900460ff1660ff16106130f15760009050613233565b601260009054906101000a900467ffffffffffffffff1667ffffffffffffffff164261311d91906141dd565b600c60006101000a81548167ffffffffffffffff021916908367ffffffffffffffff1602179055506000600c60086101000a81548160ff0219169083151502179055506002600c600a6101000a81548160ff021916908360ff16021790555060006131b860646131aa600660149054906101000a900460ff1660ff1660015461282390919063ffffffff16565b61283990919063ffffffff16565b9050600660009054906101000a900473ffffffffffffffffffffffffffffffffffffffff1673ffffffffffffffffffffffffffffffffffffffff166108fc829081150290604051600060405180830381858888f19350505050158015613222573d6000803e3d6000fd5b5061322c8161284f565b5060019150505b90565b600060405161324490613e4f565b60405180910390207f7cdb51e9dbbc205231228146c3246e7f914aa6d4a33170e43ecc8e3593481d1a60405160405180910390a2600160078054905061328a919061432f565b600c60099054906101000a900460ff1660ff1610156132df576001600c60098282829054906101000a900460ff166132c2919061426d565b92506101000a81548160ff021916908360ff1602179055506132fc565b6003600c600a6101000a81548160ff021916908360ff1602179055505b6001905090565b600060405161331190613e64565b60405180910390207f7cdb51e9dbbc205231228146c3246e7f914aa6d4a33170e43ecc8e3593481d1a60405160405180910390a260006133dd60646133cf6007600c60099054906101000a900460ff1660ff168154811061339b577f4e487b7100000000000000000000000000000000000000000000000000000000600052603260045260246000fd5b90600052602060002090602091828204019190069054906101000a900460ff1660ff1660015461282390919063ffffffff16565b61283990919063ffffffff16565b905060005b6005805490508110156135a35760006134bc6001546134ae6064600360006005888154811061343a577f4e487b7100000000000000000000000000000000000000000000000000000000600052603260045260246000fd5b9060005260206000200160009054906101000a900473ffffffffffffffffffffffffffffffffffffffff1673ffffffffffffffffffffffffffffffffffffffff1673ffffffffffffffffffffffffffffffffffffffff1681526020019081526020016000205461282390919063ffffffff16565b61283990919063ffffffff16565b9050600582815481106134f8577f4e487b7100000000000000000000000000000000000000000000000000000000600052603260045260246000fd5b9060005260206000200160009054906101000a900473ffffffffffffffffffffffffffffffffffffffff1673ffffffffffffffffffffffffffffffffffffffff166108fc6135626064613554858861282390919063ffffffff16565b61283990919063ffffffff16565b9081150290604051600060405180830381858888f1935050505015801561358d573d6000803e3d6000fd5b505060018161359c91906141dd565b90506133e2565b506135ad8161284f565b507f230739317a7f90b018762e0570d567293eac14d67441b810f714879dd6aed0bf600c60099054906101000a900460ff166040516135ec9190614005565b60405180910390a16135fc613236565b91505090565b6040518060400160405280600290602082028036833780820191505090505090565b604051806101400160405280600a90602082028036833780820191505090505090565b82805482825590600052602060002090601f016020900481019282156136dd5791602002820160005b838211156136ae57835183826101000a81548160ff021916908360ff1602179055509260200192600101602081600001049283019260010302613670565b80156136db5782816101000a81549060ff02191690556001016020816000010492830192600103026136ae565b505b5090506136ea9190613710565b5090565b6040518060600160405280600390602082028036833780820191505090505090565b5b80821115613729576000816000905550600101613711565b5090565b600061374061373b8461407c565b614057565b9050808382526020820190508285602086028201111561375f57600080fd5b60005b8581101561378f5781613775888261387f565b845260208401935060208301925050600181019050613762565b5050509392505050565b60006137ac6137a7846140a8565b614057565b9050828152602081018484840111156137c457600080fd5b6137cf848285614484565b509392505050565b6000813590506137e6816146ab565b92915050565b600082601f8301126137fd57600080fd5b813561380d84826020860161372d565b91505092915050565b600081359050613825816146c2565b92915050565b600082601f83011261383c57600080fd5b813561384c848260208601613799565b91505092915050565b600081359050613864816146d9565b92915050565b600081359050613879816146f0565b92915050565b60008135905061388e81614707565b92915050565b6000602082840312156138a657600080fd5b60006138b4848285016137d7565b91505092915050565b600080600080608085870312156138d357600080fd5b60006138e1878288016137d7565b94505060206138f2878288016137d7565b935050604061390387828801613855565b925050606085013567ffffffffffffffff81111561392057600080fd5b61392c8782880161382b565b91505092959194509250565b60006020828403121561394a57600080fd5b600061395884828501613816565b91505092915050565b60006020828403121561397357600080fd5b600061398184828501613855565b91505092915050565b60008060008060008060c087890312156139a357600080fd5b60006139b189828a01613855565b96505060206139c289828a01613855565b955050604087013567ffffffffffffffff8111156139df57600080fd5b6139eb89828a016137ec565b945050606087013567ffffffffffffffff811115613a0857600080fd5b613a1489828a016137ec565b935050608087013567ffffffffffffffff811115613a3157600080fd5b613a3d89828a016137ec565b92505060a0613a4e89828a0161386a565b9150509295509295509295565b60008060408385031215613a6e57600080fd5b6000613a7c8582860161387f565b9250506020613a8d85828601613816565b9150509250929050565b6000613aa38383613aee565b60208301905092915050565b6000613abb8383613de0565b60208301905092915050565b6000613ad38383613e1c565b60208301905092915050565b613ae88161444e565b82525050565b613af7816143a9565b82525050565b613b06816143a9565b82525050565b6000613b1782614117565b613b21818561418f565b9350613b2c836140d9565b8060005b83811015613b5d578151613b448882613a97565b9750613b4f8361414e565b925050600181019050613b30565b5085935050505092915050565b613b7381614122565b613b7d81846141a0565b9250613b88826140e9565b8060005b83811015613bb9578151613ba08782613aaf565b9650613bab8361415b565b925050600181019050613b8c565b505050505050565b613bca8161412d565b613bd481846141ab565b9250613bdf826140f3565b8060005b83811015613c10578151613bf78782613aaf565b9650613c0283614168565b925050600181019050613be3565b505050505050565b613c2181614138565b613c2b81846141b6565b9250613c36826140fd565b8060005b83811015613c67578151613c4e8782613aaf565b9650613c5983614175565b925050600181019050613c3a565b505050505050565b6000613c7a82614143565b613c8481856141c1565b9350613c8f83614107565b8060005b83811015613cc0578151613ca78882613ac7565b9750613cb283614182565b925050600181019050613c93565b5085935050505092915050565b613cd6816143bb565b82525050565b613ce5816143c7565b82525050565b6000613cf8600b836141d2565b9150613d038261458c565b600b82019050919050565b6000613d1b600d836141d2565b9150613d26826145b5565b600d82019050919050565b6000613d3e600f836141d2565b9150613d49826145de565b600f82019050919050565b6000613d61600d836141d2565b9150613d6c82614607565b600d82019050919050565b6000613d84600b836141d2565b9150613d8f82614630565b600b82019050919050565b6000613da7600d836141d2565b9150613db282614659565b600d82019050919050565b6000613dca600e836141d2565b9150613dd582614682565b600e82019050919050565b613de981614413565b82525050565b613df881614413565b82525050565b613e078161441d565b82525050565b613e168161442d565b82525050565b613e2581614441565b82525050565b613e3481614441565b82525050565b6000613e4582613ceb565b9150819050919050565b6000613e5a82613d0e565b9150819050919050565b6000613e6f82613d31565b9150819050919050565b6000613e8482613d54565b9150819050919050565b6000613e9982613d77565b9150819050919050565b6000613eae82613d9a565b9150819050919050565b6000613ec382613dbd565b9150819050919050565b6000602082019050613ee26000830184613afd565b92915050565b60006020820190508181036000830152613f028184613b0c565b905092915050565b600061014082019050613f206000830184613b6a565b92915050565b6000604082019050613f3b6000830184613bc1565b92915050565b6000606082019050613f566000830184613c18565b92915050565b60006020820190508181036000830152613f768184613c6f565b905092915050565b6000602082019050613f936000830184613ccd565b92915050565b6000602082019050613fae6000830184613cdc565b92915050565b6000602082019050613fc96000830184613def565b92915050565b6000602082019050613fe46000830184613dfe565b92915050565b6000602082019050613fff6000830184613e0d565b92915050565b600060208201905061401a6000830184613e2b565b92915050565b60006060820190506140356000830186613e2b565b6140426020830185613def565b61404f6040830184613adf565b949350505050565b6000614061614072565b905061406d8282614493565b919050565b6000604051905090565b600067ffffffffffffffff8211156140975761409661454c565b5b602082029050602081019050919050565b600067ffffffffffffffff8211156140c3576140c261454c565b5b6140cc8261457b565b9050602081019050919050565b6000819050602082019050919050565b6000819050919050565b6000819050919050565b6000819050919050565b6000819050602082019050919050565b600081519050919050565b6000600a9050919050565b600060029050919050565b600060039050919050565b600081519050919050565b6000602082019050919050565b6000602082019050919050565b6000602082019050919050565b6000602082019050919050565b6000602082019050919050565b600082825260208201905092915050565b600081905092915050565b600081905092915050565b600081905092915050565b600082825260208201905092915050565b600081905092915050565b60006141e882614413565b91506141f383614413565b9250827fffffffffffffffffffffffffffffffffffffffffffffffffffffffffffffffff03821115614228576142276144ee565b5b828201905092915050565b600061423e8261441d565b91506142498361441d565b92508263ffffffff03821115614262576142616144ee565b5b828201905092915050565b600061427882614441565b915061428383614441565b92508260ff03821115614299576142986144ee565b5b828201905092915050565b60006142af82614413565b91506142ba83614413565b9250826142ca576142c961451d565b5b828204905092915050565b60006142e082614413565b91506142eb83614413565b9250817fffffffffffffffffffffffffffffffffffffffffffffffffffffffffffffffff0483118215151615614324576143236144ee565b5b828202905092915050565b600061433a82614413565b915061434583614413565b925082821015614358576143576144ee565b5b828203905092915050565b600061436e82614441565b915061437983614441565b92508282101561438c5761438b6144ee565b5b828203905092915050565b60006143a2826143f3565b9050919050565b60006143b4826143f3565b9050919050565b60008115159050919050565b60007fffffffff0000000000000000000000000000000000000000000000000000000082169050919050565b600073ffffffffffffffffffffffffffffffffffffffff82169050919050565b6000819050919050565b600063ffffffff82169050919050565b600067ffffffffffffffff82169050919050565b600060ff82169050919050565b600061445982614460565b9050919050565b600061446b82614472565b9050919050565b600061447d826143f3565b9050919050565b82818337600083830152505050565b61449c8261457b565b810181811067ffffffffffffffff821117156144bb576144ba61454c565b5b80604052505050565b60006144cf82614441565b915060ff8214156144e3576144e26144ee565b5b600182019050919050565b7f4e487b7100000000000000000000000000000000000000000000000000000000600052601160045260246000fd5b7f4e487b7100000000000000000000000000000000000000000000000000000000600052601260045260246000fd5b7f4e487b7100000000000000000000000000000000000000000000000000000000600052604160045260246000fd5b6000601f19601f8301169050919050565b7f6a6f696e2063616c6c6564000000000000000000000000000000000000000000600082015250565b7f6e6578744d696c6573746f6e6500000000000000000000000000000000000000600082015250565b7f6661696c416e6457697468647261770000000000000000000000000000000000600082015250565b7f6661696c4d696c6573746f6e6500000000000000000000000000000000000000600082015250565b7f766f74652063616c6c6564000000000000000000000000000000000000000000600082015250565b7f617070726f7665416e6450617900000000000000000000000000000000000000600082015250565b7f61646a75737442616c616e636573000000000000000000000000000000000000600082015250565b6146b481614397565b81146146bf57600080fd5b50565b6146cb816143bb565b81146146d657600080fd5b50565b6146e281614413565b81146146ed57600080fd5b50565b6146f98161442d565b811461470457600080fd5b50565b61471081614441565b811461471b57600080fd5b5056fea2646970667358221220f0e1a4e393848d041abcbd0d23616377a759ddbc83c4358fee631cd6affa75e964736f6c63430008040033",
  "immutableReferences": {},
  "source": "pragma solidity ^0.8.0;\r\npragma experimental ABIEncoderV2;\r\nimport \"@openzeppelin/contracts/utils/math/SafeMath.sol\";\r\nimport \"@openzeppelin/contracts/utils/math/Math.sol\";\r\nimport \"@openzeppelin/contracts/token/ERC721/IERC721Receiver.sol\";\r\n\r\nabstract contract Treasury {\r\n    using SafeMath for uint256;\r\n    address payable owner;\r\n\r\n    // the total balance in this treasury\r\n    // recorded at the time of vote and used to calculate equity share\r\n    uint256 totalContribution;\r\n\r\n    mapping(address => uint8) pctBalanceRemaining; // fan address => pct equity remaining\r\n    mapping(address => uint256) public equity; // fan address => contribution\r\n    mapping(address => uint256) public votingEquity; // fan address => voting rights\r\n    address payable[] public fans; // fan address to withdraw to, mirrors equity\r\n    address payable public creatorWallet;\r\n\r\n    // NOTE: the below pcts MUST ADD UP TO 100 or the constructor will reject\r\n    uint8 pctCreatorInitialDisbursement;\r\n    uint8 pctCreatorFinalDisbursement;\r\n    uint8[] public bonusTargets; // the payout percentages (out of 100) for bonus targets 0,1,2,..\r\n\r\n    uint64[] public bonusDeadlines; // the time that bonus[i] expires defaulting to NO\r\n    uint8[] public bonusPctYeasNeeded; // pct yeas needed to pass bonus[i]\r\n    uint8[] public bonusFailures; // how many times bonus[i] has failed a vote\r\n    uint8[] public bonusFailureThresholds; // how many times bonus[i] can fail before automatic withdrawal\r\n\r\n    uint64 public endTime; // the time that this contract expires and mints automatically\r\n    bool isPrecipitatingEvent; // IFF true, withdrawals can take place\r\n\r\n    uint8 public votingOn; // the current milestone that votes are tallied towards\r\n    uint8 public status; // [UNCLAIMED, NEGOTIATING, CLAIMED, WAITING_FOR_MINT, SUCCESS, FAILURE]\r\n\r\n    error IncorrectPercentages();\r\n    error Unauthorized();\r\n    error TooLate();\r\n    error AlreadyPaid();\r\n    error NoEquity();\r\n    error MaxValueReached();\r\n\r\n    modifier onlyBy(address _account) {\r\n        if (msg.sender != _account) revert Unauthorized();\r\n        _;\r\n    }\r\n    modifier onlyBefore(uint64 _time) {\r\n        if (block.timestamp > _time) revert TooLate();\r\n        _;\r\n    }\r\n    modifier onlyWithEquity() {\r\n        if (equity[msg.sender] == 0) revert NoEquity();\r\n        _;\r\n    }\r\n\r\n    function balanceOf(address _owner) public view returns (uint256 balance) {\r\n        return equity[_owner].mul(pctBalanceRemaining[_owner]).div(100);\r\n    }\r\n\r\n    function equityOf(address _owner) public view returns (uint256 balance) {\r\n        return equity[_owner];\r\n    }\r\n\r\n    function getEquityList() public view returns (uint8[] memory _pctEquity) {\r\n        uint8[] memory pctEquity = new uint8[](fans.length);\r\n        for (uint8 i = 0; i < fans.length; i++) {\r\n            pctEquity[i] = uint8(\r\n                equityOf(fans[i]).mul(100).div(totalContribution)\r\n            );\r\n        }\r\n        return pctEquity;\r\n    }\r\n\r\n    function getFansList()\r\n        public\r\n        view\r\n        returns (address payable[] memory _fans)\r\n    {\r\n        return fans;\r\n    }\r\n\r\n    function withdraw() public onlyWithEquity returns (bool success) {\r\n        if (!isPrecipitatingEvent) {\r\n            return false;\r\n        }\r\n        uint256 amount = balanceOf(msg.sender);\r\n        payable(msg.sender).transfer(Math.min(amount, address(this).balance));\r\n        // Wipe balance and equity from this user\r\n        pctBalanceRemaining[msg.sender] = 0;\r\n        equity[msg.sender] = 0;\r\n        votingEquity[msg.sender] = 0;\r\n        // Subtract from total so that all other %s are correct\r\n        totalContribution -= amount;\r\n\r\n        emit Withdraw(msg.sender, amount);\r\n        return true;\r\n    }\r\n\r\n    function precipitatingEvent(bool onOff)\r\n        public\r\n        onlyBy(owner)\r\n        returns (bool success)\r\n    {\r\n        isPrecipitatingEvent = onOff;\r\n        return true;\r\n    }\r\n\r\n    function nextMilestone() private returns (bool success) {\r\n        emit Debug(\"nextMilestone\");\r\n        if (votingOn < bonusTargets.length - 1) {\r\n            votingOn += 1;\r\n        } else {\r\n            status = 3; // WAITING FOR MINT\r\n        }\r\n        return true;\r\n    }\r\n\r\n    // Called by server at time of expiry - should check whether this vote\r\n    // actually succeeded and auto fail/withdraw/move on otherwise\r\n    function failMilestone() internal returns (bool success) {\r\n        emit Debug(\"failMilestone\");\r\n        bonusFailures[votingOn] += 1;\r\n        if (bonusFailures[votingOn] == bonusFailureThresholds[votingOn]) {\r\n            return failAndWithdraw();\r\n        }\r\n        return true;\r\n    }\r\n\r\n    function failAndWithdraw() internal returns (bool success) {\r\n        emit Debug(\"failAndWithdraw\");\r\n        // the amount about to be disbursed among all equity holders\r\n        uint256 disbursement = totalContribution\r\n            .mul(bonusTargets[votingOn])\r\n            .div(100);\r\n        for (uint256 i = 0; i < fans.length; i += 1) {\r\n            // calculate the equity % from totalContribution vs equity\r\n            uint256 pctContrib = equity[fans[i]].mul(100).div(\r\n                totalContribution\r\n            ); // percent * 100\r\n            fans[i].transfer(disbursement.mul(pctContrib).div(100));\r\n        }\r\n        // adjust all balances downward\r\n        adjustBalances(disbursement);\r\n\r\n        emit Failure(votingOn);\r\n        return nextMilestone();\r\n    }\r\n\r\n    function approveAndPay() internal returns (bool success) {\r\n        emit Debug(\"approveAndPay\");\r\n        if (bonusTargets[votingOn] == 0) {\r\n            revert AlreadyPaid();\r\n        }\r\n        uint256 disbursement = totalContribution\r\n            .mul(bonusTargets[votingOn])\r\n            .div(100);\r\n        creatorWallet.transfer(disbursement);\r\n        bonusTargets[votingOn] = 0;\r\n        // adjust all balances downward\r\n        adjustBalances(disbursement);\r\n\r\n        emit Approval(votingOn, disbursement, creatorWallet);\r\n        return nextMilestone();\r\n    }\r\n\r\n    function adjustBalances(uint256 disbursement)\r\n        internal\r\n        returns (bool success)\r\n    {\r\n        emit Debug(\"adjustBalances\");\r\n        // calc the % to adjust downward\r\n        uint256 pctAdjust = disbursement.mul(100).div(totalContribution);\r\n        for (uint256 i = 0; i < fans.length; i += 1) {\r\n            pctBalanceRemaining[fans[i]] -= uint8(pctAdjust);\r\n        }\r\n        return true;\r\n    }\r\n\r\n    event Withdraw(address indexed _to, uint256 _amount);\r\n    event Approval(uint8 _milestone, uint256 _amount, address _creatorWallet);\r\n    event Failure(uint8 _milestone);\r\n    event Debug(string indexed msg);\r\n}\r\n\r\ncontract Bounty is Treasury, IERC721Receiver {\r\n    using SafeMath for uint256;\r\n\r\n    mapping(address => bool) votedThisRound; // whether this address has already voted\r\n    // snapshot of funders at time of negotiation, can be withdrawn from always\r\n    mapping(address => uint256) mustRejoinTreasury;\r\n    uint64 public mustBeClaimedTime; // the time epoch at which this bounty expires if unclaimed\r\n    uint256 public maxValue; // the max value this bounty could be\r\n    uint256 public reservePrice; // the lowest value that this bounty can be, otherwise it expires\r\n    uint64 public timeLimit; // the time limit in seconds that this bounty must be completed in\r\n    uint256 public currentYeas; // yea vote weight for the current bonus\r\n    uint256 public currentNays; // nay vote weight for the current bonus\r\n    uint32 public currentVotesCast; // number of discrete votes cast for the current bonus\r\n\r\n    error VoteOver();\r\n    error AlreadyVoted();\r\n\r\n    constructor(\r\n        address payable _creatorWallet,\r\n        uint256 _maxValue,\r\n        uint256 _reservePrice,\r\n        uint8 _pctCreatorInitialDisbursement,\r\n        uint8 _pctCreatorFinalDisbursement,\r\n        uint8[] memory _bonusTargets,\r\n        uint8[] memory _bonusPctYeasNeeded,\r\n        uint8[] memory _bonusFailureThresholds,\r\n        uint64 _mustBeClaimedTime,\r\n        uint64 _timeLimit,\r\n        address payable _owner\r\n    ) {\r\n        uint8 sum = _pctCreatorInitialDisbursement +\r\n            _pctCreatorFinalDisbursement;\r\n        for (uint8 i = 0; i < _bonusTargets.length; i++) {\r\n            sum += _bonusTargets[i];\r\n        }\r\n        if (sum != 100) {\r\n            revert IncorrectPercentages();\r\n        }\r\n        creatorWallet = _creatorWallet;\r\n        maxValue = _maxValue;\r\n        reservePrice = _reservePrice;\r\n        pctCreatorInitialDisbursement = _pctCreatorInitialDisbursement;\r\n        pctCreatorFinalDisbursement = _pctCreatorFinalDisbursement;\r\n        bonusTargets = _bonusTargets;\r\n        bonusPctYeasNeeded = _bonusPctYeasNeeded;\r\n        bonusFailureThresholds = _bonusFailureThresholds;\r\n        mustBeClaimedTime = _mustBeClaimedTime;\r\n        owner = _owner;\r\n        isPrecipitatingEvent = false;\r\n        timeLimit = _timeLimit;\r\n        bonusFailures = new uint8[](bonusTargets.length);\r\n    }\r\n\r\n    function uniqueFans() public view returns (uint8 num) {\r\n        return uint8(fans.length);\r\n    }\r\n\r\n    // Returns [totalContribution, isPrecipitatingEvent, status]\r\n    function bountyStatus() public view returns (uint256[3] memory stats) {\r\n        uint256 isPrecipitatingEventNum = isPrecipitatingEvent ? 1 : 0;\r\n        return [totalContribution, isPrecipitatingEventNum, uint256(status)];\r\n    }\r\n\r\n    // Returns [milestone, bonusTargetPct, bonusTargetEth, pctYeas, yeasNeeded, yeas, nays, timesFailed, failureThreshold, totalVoters]\r\n    function voteStatus() public view returns (uint256[10] memory stats) {\r\n        return [\r\n            votingOn,\r\n            bonusTargets[votingOn],\r\n            totalContribution.mul(bonusTargets[votingOn]).div(100),\r\n            bonusPctYeasNeeded[votingOn],\r\n            totalContribution.mul(bonusPctYeasNeeded[votingOn]).div(100),\r\n            currentYeas,\r\n            currentNays,\r\n            uint256(bonusFailures[votingOn]),\r\n            bonusFailureThresholds[votingOn],\r\n            currentVotesCast\r\n        ];\r\n    }\r\n\r\n    function join()\r\n        public\r\n        payable\r\n        onlyBefore(mustBeClaimedTime)\r\n        returns (bool success)\r\n    {\r\n        emit Debug(\"join called\");\r\n        if (msg.value == 0) {\r\n            revert NoEquity();\r\n        }\r\n        if (address(this).balance + msg.value >= maxValue) {\r\n            revert MaxValueReached();\r\n        }\r\n        if (equity[msg.sender] == 0 && mustRejoinTreasury[msg.sender] == 0) {\r\n            // how much have other fans paid already? disburse this % from the new number\r\n            uint8 pctRemaining = 100;\r\n            if (fans.length > 0) {\r\n                pctRemaining = pctBalanceRemaining[fans[0]];\r\n            }\r\n            if (pctRemaining != 100) {\r\n                // disburse funds to creator immediately here\r\n                uint256 disbursement = totalContribution\r\n                    .mul(100 - pctRemaining)\r\n                    .div(100);\r\n                creatorWallet.transfer(disbursement);\r\n            }\r\n            // fan not added yet\r\n            bool fanExists = false;\r\n            for (uint8 i = 0; i < fans.length; i++) {\r\n                if (fans[i] == payable(msg.sender)) {\r\n                    fanExists = true;\r\n                }\r\n            }\r\n            if (!fanExists) {\r\n                fans.push(payable(msg.sender));\r\n            }\r\n            pctBalanceRemaining[msg.sender] = pctRemaining;\r\n        }\r\n        equity[msg.sender] += msg.value;\r\n        totalContribution += msg.value;\r\n\r\n        checkReserveMetAndClaim();\r\n        return true;\r\n    }\r\n\r\n    function checkVote() public onlyBy(owner) returns (bool success) {\r\n        uint8 voteStat = checkVoteMarginMet();\r\n        if (voteStat != 0) {\r\n            bool result;\r\n            if (voteStat == 1) {\r\n                result = approveAndPay();\r\n            } else if (voteStat == 2) {\r\n                result = failMilestone();\r\n            }\r\n            // result is true if we took a step forward, otherwise false\r\n            if (result) {\r\n                // Wipe the state if either of these things happens\r\n                wipeStateForBonus();\r\n            }\r\n            return result;\r\n        }\r\n    }\r\n\r\n    // Returns 0 if not a done vote yet, 1 if passed, 2 if failed\r\n    function checkVoteMarginMet() private view returns (uint8 met) {\r\n        uint256 yeasNeeded = totalContribution\r\n            .mul(bonusPctYeasNeeded[votingOn])\r\n            .div(100);\r\n        if (currentYeas >= yeasNeeded) {\r\n            return 1;\r\n        } else if (currentNays >= totalContribution - yeasNeeded) {\r\n            return 2;\r\n        }\r\n        return 0;\r\n    }\r\n\r\n    function vote(uint8 _milestone, bool _vote)\r\n        public\r\n        onlyWithEquity\r\n        returns (bool success)\r\n    {\r\n        emit Debug(\"vote called\");\r\n        // Not yet claimed\r\n        if (status != 2 || _milestone != votingOn) {\r\n            revert VoteOver();\r\n        }\r\n        if (votedThisRound[msg.sender]) {\r\n            revert AlreadyVoted();\r\n        }\r\n        uint256 amount = equityOf(msg.sender);\r\n        if (_vote) {\r\n            currentYeas += amount;\r\n        } else {\r\n            currentNays += amount;\r\n        }\r\n        currentVotesCast += 1;\r\n        votedThisRound[msg.sender] = true;\r\n\r\n        emit Vote(msg.sender, _vote);\r\n\r\n        uint8 _status = checkVoteMarginMet();\r\n        if (_status != 0) {\r\n            bool result;\r\n            if (_status == 1) {\r\n                result = approveAndPay();\r\n            } else if (_status == 2) {\r\n                result = failMilestone();\r\n            }\r\n            // result is true if we took a step forward, otherwise false\r\n            if (result) {\r\n                // Wipe the state if either of these things happens\r\n                wipeStateForBonus();\r\n            }\r\n            return result;\r\n        }\r\n        return true;\r\n    }\r\n\r\n    function negotiate(\r\n        uint256 _maxValue,\r\n        uint256 _reservePrice,\r\n        uint8[] memory _bonusTargets,\r\n        uint8[] memory _bonusPctYeasNeeded,\r\n        uint8[] memory _bonusFailureThresholds,\r\n        uint64 _timeLimit\r\n    ) public onlyBy(owner) returns (bool success) {\r\n        if (status != 0) {\r\n            return false;\r\n        }\r\n        reservePrice = _reservePrice;\r\n        maxValue = _maxValue;\r\n        bonusTargets = _bonusTargets;\r\n        bonusFailureThresholds = _bonusFailureThresholds;\r\n        bonusPctYeasNeeded = _bonusPctYeasNeeded;\r\n        timeLimit = _timeLimit;\r\n        isPrecipitatingEvent = true;\r\n\r\n        // MAKE A SNAPSHOT OF THE TREASURY AND RESET\r\n        totalContribution = 0;\r\n        for (uint256 i = 0; i < fans.length; i += 1) {\r\n            mustRejoinTreasury[fans[i]] = equity[fans[i]];\r\n            equity[fans[i]] = 0;\r\n        }\r\n        status = 1; // NEGOTIATING\r\n        return true;\r\n    }\r\n\r\n    function amountRejoinTreasury(address _addr)\r\n        public\r\n        view\r\n        returns (uint256 canRejoin)\r\n    {\r\n        return mustRejoinTreasury[_addr];\r\n    }\r\n\r\n    function negotiateRejoin(address _addr)\r\n        public\r\n        onlyBy(owner)\r\n        returns (bool success)\r\n    {\r\n        equity[_addr] += mustRejoinTreasury[_addr];\r\n        totalContribution += mustRejoinTreasury[_addr];\r\n        mustRejoinTreasury[_addr] = 0;\r\n        checkReserveMetAndClaim();\r\n        return true;\r\n    }\r\n\r\n    function negotiateLeave() public returns (bool success) {\r\n        payable(msg.sender).transfer(mustRejoinTreasury[msg.sender]);\r\n        mustRejoinTreasury[msg.sender] = 0;\r\n        return true;\r\n    }\r\n\r\n    function checkReserveMetAndClaim() private returns (bool success) {\r\n        if (status == 1 && totalContribution >= reservePrice) {\r\n            return claimInternal();\r\n        }\r\n        return false;\r\n    }\r\n\r\n    function negotiationStatus() public view returns (uint256[2] memory data) {\r\n        return [reservePrice, totalContribution];\r\n    }\r\n\r\n    // Async set initial state and sets the end time of this bounty according to config\r\n    function claim() public onlyBy(owner) returns (bool success) {\r\n        return claimInternal();\r\n    }\r\n\r\n    function claimInternal() private returns (bool success) {\r\n        // Already claimed\r\n        if (status >= 2) {\r\n            return false;\r\n        }\r\n        endTime = uint64(block.timestamp + timeLimit);\r\n        isPrecipitatingEvent = false;\r\n        status = 2; // CLAIMED\r\n\r\n        uint256 disbursement = totalContribution\r\n            .mul(pctCreatorInitialDisbursement)\r\n            .div(100);\r\n        creatorWallet.transfer(disbursement);\r\n        // adjust all existing balances downward\r\n        adjustBalances(disbursement);\r\n\r\n        return true;\r\n    }\r\n\r\n    function wipeStateForBonus() private returns (bool success) {\r\n        currentYeas = 0;\r\n        currentNays = 0;\r\n        currentVotesCast = 0;\r\n        for (uint256 i = 0; i < fans.length; i += 1) {\r\n            votedThisRound[fans[i]] = false;\r\n        }\r\n        return true;\r\n    }\r\n\r\n    function onERC721Received(\r\n        address _operator,\r\n        address,\r\n        uint256,\r\n        bytes memory\r\n    ) public virtual override returns (bytes4) {\r\n        if (_operator == owner) {\r\n            // COMPLETE THE BOUNTY HERE\r\n            uint256 disbursement = totalContribution\r\n                .mul(pctCreatorFinalDisbursement)\r\n                .div(100);\r\n            creatorWallet.transfer(disbursement);\r\n            // adjust all existing balances downward\r\n            adjustBalances(disbursement);\r\n            status = 4; // SUCCESS\r\n        }\r\n        return this.onERC721Received.selector;\r\n    }\r\n\r\n    // _vote is false for nay, true for yea\r\n    event Vote(address indexed _voter, bool _vote);\r\n}\r\n",
  "sourcePath": "C:\\Users\\kumquatexpress\\projects\\polygon-hack\\web3\\contracts\\polygon\\Bounty.sol",
  "compiler": {
    "name": "solc",
    "version": "0.8.4+commit.c7e474f2.Emscripten.clang"
  },
  "schemaVersion": "3.4.4",
  "updatedAt": "2022-02-09T00:55:01.954Z",
  "devdoc": {
    "kind": "dev",
    "methods": {},
    "version": 1
  },
  "userdoc": {
    "kind": "user",
    "methods": {},
    "version": 1
  },
  "db": {
    "callBytecode": {
      "id": "0x50aacc95c70bc76a2a79f51c1a8b8cd9c0de27a47380564fc8e31d75e9d63574"
    },
    "createBytecode": {
      "id": "0x15f0c2bcbb2cd7c1e038f779a1f2eb2eb8e7e26c8994c78b6f095371e2463145"
    },
    "contract": {
      "id": "0xf5f771d23f7c79623344bb1908e09350e12dc75dde5987c2bff5637d77d451fd"
    }
  }
}