{
  "contractName": "Bounty",
  "abi": [
    {
      "inputs": [
        {
          "internalType": "address payable",
          "name": "_creatorWallet",
          "type": "address"
        },
        {
          "internalType": "uint256",
          "name": "_maxValue",
          "type": "uint256"
        },
        {
          "internalType": "uint8[]",
          "name": "_bonusTargets",
          "type": "uint8[]"
        },
        {
          "internalType": "uint8[]",
          "name": "_bonusPctYeasNeeded",
          "type": "uint8[]"
        },
        {
          "internalType": "uint8[]",
          "name": "_bonusFailureThresholds",
          "type": "uint8[]"
        },
        {
          "internalType": "uint64",
          "name": "_mustBeClaimedTime",
          "type": "uint64"
        },
        {
          "internalType": "uint64",
          "name": "_timeLimit",
          "type": "uint64"
        },
        {
          "internalType": "address payable",
          "name": "_owner",
          "type": "address"
        }
      ],
      "stateMutability": "nonpayable",
      "type": "constructor"
    },
    {
      "inputs": [],
      "name": "AlreadyPaid",
      "type": "error"
    },
    {
      "inputs": [],
      "name": "AlreadyVoted",
      "type": "error"
    },
    {
      "inputs": [],
      "name": "MaxValueReached",
      "type": "error"
    },
    {
      "inputs": [],
      "name": "NoEquity",
      "type": "error"
    },
    {
      "inputs": [],
      "name": "TooLate",
      "type": "error"
    },
    {
      "inputs": [],
      "name": "Unauthorized",
      "type": "error"
    },
    {
      "inputs": [],
      "name": "VoteOver",
      "type": "error"
    },
    {
      "anonymous": false,
      "inputs": [
        {
          "indexed": false,
          "internalType": "uint8",
          "name": "_milestone",
          "type": "uint8"
        },
        {
          "indexed": false,
          "internalType": "uint256",
          "name": "_amount",
          "type": "uint256"
        },
        {
          "indexed": false,
          "internalType": "address",
          "name": "_creatorWallet",
          "type": "address"
        }
      ],
      "name": "Approval",
      "type": "event"
    },
    {
      "anonymous": false,
      "inputs": [
        {
          "indexed": false,
          "internalType": "uint8",
          "name": "_milestone",
          "type": "uint8"
        }
      ],
      "name": "Failure",
      "type": "event"
    },
    {
      "anonymous": false,
      "inputs": [
        {
          "indexed": true,
          "internalType": "address",
          "name": "_voter",
          "type": "address"
        },
        {
          "indexed": false,
          "internalType": "bool",
          "name": "_vote",
          "type": "bool"
        }
      ],
      "name": "Vote",
      "type": "event"
    },
    {
      "anonymous": false,
      "inputs": [
        {
          "indexed": true,
          "internalType": "address",
          "name": "_to",
          "type": "address"
        },
        {
          "indexed": false,
          "internalType": "uint256",
          "name": "_amount",
          "type": "uint256"
        }
      ],
      "name": "Withdraw",
      "type": "event"
    },
    {
      "inputs": [
        {
          "internalType": "address",
          "name": "_owner",
          "type": "address"
        }
      ],
      "name": "balanceOf",
      "outputs": [
        {
          "internalType": "uint256",
          "name": "balance",
          "type": "uint256"
        }
      ],
      "stateMutability": "view",
      "type": "function"
    },
    {
      "inputs": [
        {
          "internalType": "uint256",
          "name": "",
          "type": "uint256"
        }
      ],
      "name": "bonusDeadlines",
      "outputs": [
        {
          "internalType": "uint64",
          "name": "",
          "type": "uint64"
        }
      ],
      "stateMutability": "view",
      "type": "function"
    },
    {
      "inputs": [
        {
          "internalType": "uint256",
          "name": "",
          "type": "uint256"
        }
      ],
      "name": "bonusFailureThresholds",
      "outputs": [
        {
          "internalType": "uint8",
          "name": "",
          "type": "uint8"
        }
      ],
      "stateMutability": "view",
      "type": "function"
    },
    {
      "inputs": [
        {
          "internalType": "uint256",
          "name": "",
          "type": "uint256"
        }
      ],
      "name": "bonusFailures",
      "outputs": [
        {
          "internalType": "uint8",
          "name": "",
          "type": "uint8"
        }
      ],
      "stateMutability": "view",
      "type": "function"
    },
    {
      "inputs": [
        {
          "internalType": "uint256",
          "name": "",
          "type": "uint256"
        }
      ],
      "name": "bonusPctYeasNeeded",
      "outputs": [
        {
          "internalType": "uint8",
          "name": "",
          "type": "uint8"
        }
      ],
      "stateMutability": "view",
      "type": "function"
    },
    {
      "inputs": [
        {
          "internalType": "uint256",
          "name": "",
          "type": "uint256"
        }
      ],
      "name": "bonusTargets",
      "outputs": [
        {
          "internalType": "uint8",
          "name": "",
          "type": "uint8"
        }
      ],
      "stateMutability": "view",
      "type": "function"
    },
    {
      "inputs": [],
      "name": "creatorWallet",
      "outputs": [
        {
          "internalType": "address payable",
          "name": "",
          "type": "address"
        }
      ],
      "stateMutability": "view",
      "type": "function"
    },
    {
      "inputs": [],
      "name": "currentNays",
      "outputs": [
        {
          "internalType": "uint256",
          "name": "",
          "type": "uint256"
        }
      ],
      "stateMutability": "view",
      "type": "function"
    },
    {
      "inputs": [],
      "name": "currentVotesCast",
      "outputs": [
        {
          "internalType": "uint32",
          "name": "",
          "type": "uint32"
        }
      ],
      "stateMutability": "view",
      "type": "function"
    },
    {
      "inputs": [],
      "name": "currentYeas",
      "outputs": [
        {
          "internalType": "uint256",
          "name": "",
          "type": "uint256"
        }
      ],
      "stateMutability": "view",
      "type": "function"
    },
    {
      "inputs": [],
      "name": "endTime",
      "outputs": [
        {
          "internalType": "uint64",
          "name": "",
          "type": "uint64"
        }
      ],
      "stateMutability": "view",
      "type": "function"
    },
    {
      "inputs": [
        {
          "internalType": "address",
          "name": "",
          "type": "address"
        }
      ],
      "name": "equity",
      "outputs": [
        {
          "internalType": "uint256",
          "name": "",
          "type": "uint256"
        }
      ],
      "stateMutability": "view",
      "type": "function"
    },
    {
      "inputs": [
        {
          "internalType": "address",
          "name": "_owner",
          "type": "address"
        }
      ],
      "name": "equityOf",
      "outputs": [
        {
          "internalType": "uint256",
          "name": "balance",
          "type": "uint256"
        }
      ],
      "stateMutability": "view",
      "type": "function"
    },
    {
      "inputs": [],
      "name": "failMilestone",
      "outputs": [
        {
          "internalType": "bool",
          "name": "success",
          "type": "bool"
        }
      ],
      "stateMutability": "nonpayable",
      "type": "function"
    },
    {
      "inputs": [
        {
          "internalType": "uint256",
          "name": "",
          "type": "uint256"
        }
      ],
      "name": "fans",
      "outputs": [
        {
          "internalType": "address payable",
          "name": "",
          "type": "address"
        }
      ],
      "stateMutability": "view",
      "type": "function"
    },
    {
      "inputs": [],
      "name": "maxValue",
      "outputs": [
        {
          "internalType": "uint256",
          "name": "",
          "type": "uint256"
        }
      ],
      "stateMutability": "view",
      "type": "function"
    },
    {
      "inputs": [],
      "name": "mustBeClaimedTime",
      "outputs": [
        {
          "internalType": "uint64",
          "name": "",
          "type": "uint64"
        }
      ],
      "stateMutability": "view",
      "type": "function"
    },
    {
      "inputs": [
        {
          "internalType": "bool",
          "name": "onOff",
          "type": "bool"
        }
      ],
      "name": "precipitatingEvent",
      "outputs": [
        {
          "internalType": "bool",
          "name": "success",
          "type": "bool"
        }
      ],
      "stateMutability": "nonpayable",
      "type": "function"
    },
    {
      "inputs": [],
      "name": "timeLimit",
      "outputs": [
        {
          "internalType": "uint64",
          "name": "",
          "type": "uint64"
        }
      ],
      "stateMutability": "view",
      "type": "function"
    },
    {
      "inputs": [
        {
          "internalType": "address",
          "name": "",
          "type": "address"
        }
      ],
      "name": "votingEquity",
      "outputs": [
        {
          "internalType": "uint256",
          "name": "",
          "type": "uint256"
        }
      ],
      "stateMutability": "view",
      "type": "function"
    },
    {
      "inputs": [],
      "name": "votingOn",
      "outputs": [
        {
          "internalType": "uint8",
          "name": "",
          "type": "uint8"
        }
      ],
      "stateMutability": "view",
      "type": "function"
    },
    {
      "inputs": [],
      "name": "withdraw",
      "outputs": [
        {
          "internalType": "bool",
          "name": "success",
          "type": "bool"
        }
      ],
      "stateMutability": "nonpayable",
      "type": "function"
    },
    {
      "inputs": [],
      "name": "uniqueFans",
      "outputs": [
        {
          "internalType": "uint8",
          "name": "num",
          "type": "uint8"
        }
      ],
      "stateMutability": "view",
      "type": "function"
    },
    {
      "inputs": [],
      "name": "voteStatus",
      "outputs": [
        {
          "internalType": "uint256[7]",
          "name": "stats",
          "type": "uint256[7]"
        }
      ],
      "stateMutability": "view",
      "type": "function"
    },
    {
      "inputs": [],
      "name": "join",
      "outputs": [
        {
          "internalType": "bool",
          "name": "success",
          "type": "bool"
        }
      ],
      "stateMutability": "payable",
      "type": "function"
    },
    {
      "inputs": [
        {
          "internalType": "uint8",
          "name": "_milestone",
          "type": "uint8"
        },
        {
          "internalType": "bool",
          "name": "_vote",
          "type": "bool"
        }
      ],
      "name": "vote",
      "outputs": [
        {
          "internalType": "bool",
          "name": "success",
          "type": "bool"
        }
      ],
      "stateMutability": "nonpayable",
      "type": "function"
    },
    {
      "inputs": [],
      "name": "claim",
      "outputs": [
        {
          "internalType": "bool",
          "name": "success",
          "type": "bool"
        }
      ],
      "stateMutability": "nonpayable",
      "type": "function"
    }
  ],
  "bytecode": "0x60806040523480156200001157600080fd5b5060405162002ddf38038062002ddf8339818101604052810190620000379190620003de565b87600660006101000a81548173ffffffffffffffffffffffffffffffffffffffff021916908373ffffffffffffffffffffffffffffffffffffffff16021790555086600f8190555085600790805190602001906200009792919062000213565b508460099080519060200190620000b092919062000213565b5083600b9080519060200190620000c992919062000213565b5082600e60006101000a81548167ffffffffffffffff021916908367ffffffffffffffff160217905550806000806101000a81548173ffffffffffffffffffffffffffffffffffffffff021916908373ffffffffffffffffffffffffffffffffffffffff1602179055506001600c60086101000a81548160ff02191690831515021790555081601060006101000a81548167ffffffffffffffff021916908367ffffffffffffffff16021790555060078054905067ffffffffffffffff811115620001bd577f4e487b7100000000000000000000000000000000000000000000000000000000600052604160045260246000fd5b604051908082528060200260200182016040528015620001ec5781602001602082028036833780820191505090505b50600a90805190602001906200020492919062000213565b50505050505050505062000681565b82805482825590600052602060002090601f01602090048101928215620002ae5791602002820160005b838211156200027d57835183826101000a81548160ff021916908360ff16021790555092602001926001016020816000010492830192600103026200023d565b8015620002ac5782816101000a81549060ff02191690556001016020816000010492830192600103026200027d565b505b509050620002bd9190620002c1565b5090565b5b80821115620002dc576000816000905550600101620002c2565b5090565b6000620002f7620002f18462000515565b620004ec565b905080838252602082019050828560208602820111156200031757600080fd5b60005b858110156200034b5781620003308882620003c7565b8452602084019350602083019250506001810190506200031a565b5050509392505050565b600081519050620003668162000619565b92915050565b600082601f8301126200037e57600080fd5b815162000390848260208601620002e0565b91505092915050565b600081519050620003aa8162000633565b92915050565b600081519050620003c1816200064d565b92915050565b600081519050620003d88162000667565b92915050565b600080600080600080600080610100898b031215620003fc57600080fd5b60006200040c8b828c0162000355565b98505060206200041f8b828c0162000399565b975050604089015167ffffffffffffffff8111156200043d57600080fd5b6200044b8b828c016200036c565b965050606089015167ffffffffffffffff8111156200046957600080fd5b620004778b828c016200036c565b955050608089015167ffffffffffffffff8111156200049557600080fd5b620004a38b828c016200036c565b94505060a0620004b68b828c01620003b0565b93505060c0620004c98b828c01620003b0565b92505060e0620004dc8b828c0162000355565b9150509295985092959890939650565b6000620004f86200050b565b9050620005068282620005a3565b919050565b6000604051905090565b600067ffffffffffffffff821115620005335762000532620005d9565b5b602082029050602081019050919050565b6000620005518262000558565b9050919050565b600073ffffffffffffffffffffffffffffffffffffffff82169050919050565b6000819050919050565b600067ffffffffffffffff82169050919050565b600060ff82169050919050565b620005ae8262000608565b810181811067ffffffffffffffff82111715620005d057620005cf620005d9565b5b80604052505050565b7f4e487b7100000000000000000000000000000000000000000000000000000000600052604160045260246000fd5b6000601f19601f8301169050919050565b620006248162000544565b81146200063057600080fd5b50565b6200063e8162000578565b81146200064a57600080fd5b50565b620006588162000582565b81146200066457600080fd5b50565b620006728162000596565b81146200067e57600080fd5b50565b61274e80620006916000396000f3fe6080604052600436106101b9576000357c01000000000000000000000000000000000000000000000000000000009004806370a0823111610109578063b688a363116100a7578063d553ed1311610081578063d553ed1314610642578063e2fd21e81461067f578063e885f76b146106bc578063f541c60f146106e7576101b9565b8063b688a363146105bc578063c08d1fe5146105da578063cb0cd6b514610605576101b9565b80637f698dad116100e35780637f698dad146104fe57806393d181131461052957806394a5c2e414610554578063b4bd497a1461057f576101b9565b806370a082311461046b5780637ae6ee32146104a85780637cdc65f2146104d3576101b9565b80633ccfd60b116101765780634ce2cdc7116101505780634ce2cdc71461039b5780634e71d92d146103d85780635d7c58ea14610403578063688594b31461042e576101b9565b80633ccfd60b146102f65780633dad5c701461032157806342bbec591461035e576101b9565b806306574a8c146101be5780631b5a3cc9146101e957806320949bb4146102265780632808241e146102515780632e8a498c1461028e5780633197cbb6146102cb575b600080fd5b3480156101ca57600080fd5b506101d3610712565b6040516101e091906122f8565b60405180910390f35b3480156101f557600080fd5b50610210600480360381019061020b919061214d565b61092a565b60405161021d91906122f8565b60405180910390f35b34801561023257600080fd5b5061023b6109d7565b6040516102489190612364565b60405180910390f35b34801561025d57600080fd5b506102786004803603810190610273919061219f565b6109ea565b60405161028591906122f8565b60405180910390f35b34801561029a57600080fd5b506102b560048036038101906102b09190612124565b610cdc565b6040516102c29190612313565b60405180910390f35b3480156102d757600080fd5b506102e0610cf4565b6040516102ed9190612349565b60405180910390f35b34801561030257600080fd5b5061030b610d0e565b60405161031891906122f8565b60405180910390f35b34801561032d57600080fd5b5061034860048036038101906103439190612176565b610f6d565b6040516103559190612349565b60405180910390f35b34801561036a57600080fd5b5061038560048036038101906103809190612176565b610fab565b6040516103929190612364565b60405180910390f35b3480156103a757600080fd5b506103c260048036038101906103bd9190612176565b610fdf565b6040516103cf9190612364565b60405180910390f35b3480156103e457600080fd5b506103ed611013565b6040516103fa91906122f8565b60405180910390f35b34801561040f57600080fd5b50610418611146565b6040516104259190612349565b60405180910390f35b34801561043a57600080fd5b5061045560048036038101906104509190612176565b611160565b60405161046291906122c2565b60405180910390f35b34801561047757600080fd5b50610492600480360381019061048d9190612124565b61119f565b60405161049f9190612313565b60405180910390f35b3480156104b457600080fd5b506104bd61125c565b6040516104ca91906122dd565b60405180910390f35b3480156104df57600080fd5b506104e8611414565b6040516104f591906122c2565b60405180910390f35b34801561050a57600080fd5b5061051361143a565b6040516105209190612364565b60405180910390f35b34801561053557600080fd5b5061053e611447565b60405161054b919061232e565b60405180910390f35b34801561056057600080fd5b5061056961145d565b6040516105769190612313565b60405180910390f35b34801561058b57600080fd5b506105a660048036038101906105a19190612124565b611463565b6040516105b39190612313565b60405180910390f35b6105c461147b565b6040516105d191906122f8565b60405180910390f35b3480156105e657600080fd5b506105ef6116ec565b6040516105fc9190612349565b60405180910390f35b34801561061157600080fd5b5061062c60048036038101906106279190612176565b611706565b6040516106399190612364565b60405180910390f35b34801561064e57600080fd5b5061066960048036038101906106649190612176565b61173a565b6040516106769190612364565b60405180910390f35b34801561068b57600080fd5b506106a660048036038101906106a19190612124565b61176e565b6040516106b39190612313565b60405180910390f35b3480156106c857600080fd5b506106d16117b7565b6040516106de9190612313565b60405180910390f35b3480156106f357600080fd5b506106fc6117bd565b6040516107099190612313565b60405180910390f35b60008060009054906101000a900473ffffffffffffffffffffffffffffffffffffffff168073ffffffffffffffffffffffffffffffffffffffff163373ffffffffffffffffffffffffffffffffffffffff161461079b576040517f82b4290000000000000000000000000000000000000000000000000000000000815260040160405180910390fd5b6001600a600c60099054906101000a900460ff1660ff16815481106107e9577f4e487b7100000000000000000000000000000000000000000000000000000000600052603260045260246000fd5b90600052602060002090602091828204019190068282829054906101000a900460ff166108169190612473565b92506101000a81548160ff021916908360ff160217905550600b600c60099054906101000a900460ff1660ff168154811061087a577f4e487b7100000000000000000000000000000000000000000000000000000000600052603260045260246000fd5b90600052602060002090602091828204019190069054906101000a900460ff1660ff16600a600c60099054906101000a900460ff1660ff16815481106108e9577f4e487b7100000000000000000000000000000000000000000000000000000000600052603260045260246000fd5b90600052602060002090602091828204019190069054906101000a900460ff1660ff1614156109215761091a6117c3565b9150610926565b600091505b5090565b60008060009054906101000a900473ffffffffffffffffffffffffffffffffffffffff168073ffffffffffffffffffffffffffffffffffffffff163373ffffffffffffffffffffffffffffffffffffffff16146109b3576040517f82b4290000000000000000000000000000000000000000000000000000000000815260040160405180910390fd5b82600c60086101000a81548160ff0219169083151502179055506001915050919050565b600c60099054906101000a900460ff1681565b600080600360003373ffffffffffffffffffffffffffffffffffffffff1673ffffffffffffffffffffffffffffffffffffffff168152602001908152602001600020541415610a65576040517f995a2dae00000000000000000000000000000000000000000000000000000000815260040160405180910390fd5b600c60099054906101000a900460ff1660ff168360ff1614610ab3576040517f4733210000000000000000000000000000000000000000000000000000000000815260040160405180910390fd5b600d60003373ffffffffffffffffffffffffffffffffffffffff1673ffffffffffffffffffffffffffffffffffffffff16815260200190815260200160002060009054906101000a900460ff1615610b37576040517f7c9a1cf900000000000000000000000000000000000000000000000000000000815260040160405180910390fd5b6000610b423361176e565b90508215610b68578060116000828254610b5c91906123e3565b92505081905550610b82565b8060126000828254610b7a91906123e3565b925050819055505b6001601360008282829054906101000a900463ffffffff16610ba49190612439565b92506101000a81548163ffffffff021916908363ffffffff1602179055506001600d60003373ffffffffffffffffffffffffffffffffffffffff1673ffffffffffffffffffffffffffffffffffffffff16815260200190815260200160002060006101000a81548160ff0219169083151502179055503373ffffffffffffffffffffffffffffffffffffffff167fa635d31e67484fd1d93ba01ab0ef882e4440a78aa40d0e2771e8a2aace45986984604051610c6091906122f8565b60405180910390a26000610c72611a87565b905060008160ff1614610ccf57600060018260ff161415610c9c57610c95611b5e565b9050610cb4565b60028260ff161415610cb357610cb0610712565b90505b5b8015610cc457610cc2611e07565b505b809350505050610cd6565b6001925050505b92915050565b60036020528060005260406000206000915090505481565b600c60009054906101000a900467ffffffffffffffff1681565b600080600360003373ffffffffffffffffffffffffffffffffffffffff1673ffffffffffffffffffffffffffffffffffffffff168152602001908152602001600020541415610d89576040517f995a2dae00000000000000000000000000000000000000000000000000000000815260040160405180910390fd5b600c60089054906101000a900460ff16610da65760009050610f6a565b6000610db13361119f565b90503373ffffffffffffffffffffffffffffffffffffffff166108fc610dee833073ffffffffffffffffffffffffffffffffffffffff1631611eca565b9081150290604051600060405180830381858888f19350505050158015610e19573d6000803e3d6000fd5b506000600260003373ffffffffffffffffffffffffffffffffffffffff1673ffffffffffffffffffffffffffffffffffffffff16815260200190815260200160002060006101000a81548160ff021916908360ff1602179055506000600360003373ffffffffffffffffffffffffffffffffffffffff1673ffffffffffffffffffffffffffffffffffffffff168152602001908152602001600020819055506000600460003373ffffffffffffffffffffffffffffffffffffffff1673ffffffffffffffffffffffffffffffffffffffff168152602001908152602001600020819055508060016000828254610f0f9190612535565b925050819055503373ffffffffffffffffffffffffffffffffffffffff167f884edad9ce6fa2440d8a54cc123490eb96d2768479d49ff9c7366125a942436482604051610f5c9190612313565b60405180910390a260019150505b90565b60088181548110610f7d57600080fd5b9060005260206000209060049182820401919006600802915054906101000a900467ffffffffffffffff1681565b60078181548110610fbb57600080fd5b9060005260206000209060209182820401919006915054906101000a900460ff1681565b60098181548110610fef57600080fd5b9060005260206000209060209182820401919006915054906101000a900460ff1681565b6000600660009054906101000a900473ffffffffffffffffffffffffffffffffffffffff168073ffffffffffffffffffffffffffffffffffffffff163373ffffffffffffffffffffffffffffffffffffffff161461109d576040517f82b4290000000000000000000000000000000000000000000000000000000000815260040160405180910390fd5b6000600c60009054906101000a900467ffffffffffffffff1667ffffffffffffffff16146110ce5760009150611142565b601060009054906101000a900467ffffffffffffffff1667ffffffffffffffff16426110fa91906123e3565b600c60006101000a81548167ffffffffffffffff021916908367ffffffffffffffff1602179055506000600c60086101000a81548160ff021916908315150217905550600191505b5090565b600e60009054906101000a900467ffffffffffffffff1681565b6005818154811061117057600080fd5b906000526020600020016000915054906101000a900473ffffffffffffffffffffffffffffffffffffffff1681565b60006112556064611247600260008673ffffffffffffffffffffffffffffffffffffffff1673ffffffffffffffffffffffffffffffffffffffff16815260200190815260200160002060009054906101000a900460ff1660ff16600360008773ffffffffffffffffffffffffffffffffffffffff1673ffffffffffffffffffffffffffffffffffffffff16815260200190815260200160002054611ee390919063ffffffff16565b611ef990919063ffffffff16565b9050919050565b6112646120ae565b6040518060e00160405280600c60099054906101000a900460ff1660ff1681526020016009600c60099054906101000a900460ff1660ff16815481106112d3577f4e487b7100000000000000000000000000000000000000000000000000000000600052603260045260246000fd5b90600052602060002090602091828204019190069054906101000a900460ff1660ff16815260200160115481526020016012548152602001600a600c60099054906101000a900460ff1660ff1681548110611357577f4e487b7100000000000000000000000000000000000000000000000000000000600052603260045260246000fd5b90600052602060002090602091828204019190069054906101000a900460ff1660ff168152602001600b600c60099054906101000a900460ff1660ff16815481106113cb577f4e487b7100000000000000000000000000000000000000000000000000000000600052603260045260246000fd5b90600052602060002090602091828204019190069054906101000a900460ff1660ff168152602001601360009054906101000a900463ffffffff1663ffffffff16815250905090565b600660009054906101000a900473ffffffffffffffffffffffffffffffffffffffff1681565b6000600580549050905090565b601360009054906101000a900463ffffffff1681565b600f5481565b60046020528060005260406000206000915090505481565b6000600e60009054906101000a900467ffffffffffffffff168067ffffffffffffffff164211156114d8576040517fecdd1c2900000000000000000000000000000000000000000000000000000000815260040160405180910390fd5b6000341415611513576040517f995a2dae00000000000000000000000000000000000000000000000000000000815260040160405180910390fd5b600f54343073ffffffffffffffffffffffffffffffffffffffff163161153991906123e3565b10611570576040517f77d09e5000000000000000000000000000000000000000000000000000000000815260040160405180910390fd5b6000600360003373ffffffffffffffffffffffffffffffffffffffff1673ffffffffffffffffffffffffffffffffffffffff168152602001908152602001600020541415611675576005339080600181540180825580915050600190039060005260206000200160009091909190916101000a81548173ffffffffffffffffffffffffffffffffffffffff021916908373ffffffffffffffffffffffffffffffffffffffff1602179055506064600260003373ffffffffffffffffffffffffffffffffffffffff1673ffffffffffffffffffffffffffffffffffffffff16815260200190815260200160002060006101000a81548160ff021916908360ff1602179055505b34600360003373ffffffffffffffffffffffffffffffffffffffff1673ffffffffffffffffffffffffffffffffffffffff16815260200190815260200160002060008282546116c491906123e3565b9250508190555034600160008282546116dd91906123e3565b92505081905550600191505090565b601060009054906101000a900467ffffffffffffffff1681565b600b818154811061171657600080fd5b9060005260206000209060209182820401919006915054906101000a900460ff1681565b600a818154811061174a57600080fd5b9060005260206000209060209182820401919006915054906101000a900460ff1681565b6000600360008373ffffffffffffffffffffffffffffffffffffffff1673ffffffffffffffffffffffffffffffffffffffff168152602001908152602001600020549050919050565b60115481565b60125481565b60008061185c606461184e6007600c60099054906101000a900460ff1660ff168154811061181a577f4e487b7100000000000000000000000000000000000000000000000000000000600052603260045260246000fd5b90600052602060002090602091828204019190069054906101000a900460ff1660ff16600154611ee390919063ffffffff16565b611ef990919063ffffffff16565b905060005b600580549050811015611a2857600060036000600584815481106118ae577f4e487b7100000000000000000000000000000000000000000000000000000000600052603260045260246000fd5b9060005260206000200160009054906101000a900473ffffffffffffffffffffffffffffffffffffffff1673ffffffffffffffffffffffffffffffffffffffff1673ffffffffffffffffffffffffffffffffffffffff1681526020019081526020016000205490506000611940600154611932606485611ee390919063ffffffff16565b611ef990919063ffffffff16565b90506005838154811061197c577f4e487b7100000000000000000000000000000000000000000000000000000000600052603260045260246000fd5b9060005260206000200160009054906101000a900473ffffffffffffffffffffffffffffffffffffffff1673ffffffffffffffffffffffffffffffffffffffff166108fc6119e660646119d88589611ee390919063ffffffff16565b611ef990919063ffffffff16565b9081150290604051600060405180830381858888f19350505050158015611a11573d6000803e3d6000fd5b505050600181611a2191906123e3565b9050611861565b50611a3281611f0f565b507f230739317a7f90b018762e0570d567293eac14d67441b810f714879dd6aed0bf600c60099054906101000a900460ff16604051611a719190612364565b60405180910390a1611a81612042565b91505090565b600080611b206064611b126009600c60099054906101000a900460ff1660ff1681548110611ade577f4e487b7100000000000000000000000000000000000000000000000000000000600052603260045260246000fd5b90600052602060002090602091828204019190069054906101000a900460ff1660ff16600154611ee390919063ffffffff16565b611ef990919063ffffffff16565b90508060115410611b35576001915050611b5b565b80600154611b439190612535565b60125410611b55576002915050611b5b565b60009150505b90565b6000806007600c60099054906101000a900460ff1660ff1681548110611bad577f4e487b7100000000000000000000000000000000000000000000000000000000600052603260045260246000fd5b90600052602060002090602091828204019190069054906101000a900460ff1660ff161015611c08576040517fd70a0e3000000000000000000000000000000000000000000000000000000000815260040160405180910390fd5b6000611ca06064611c926007600c60099054906101000a900460ff1660ff1681548110611c5e577f4e487b7100000000000000000000000000000000000000000000000000000000600052603260045260246000fd5b90600052602060002090602091828204019190069054906101000a900460ff1660ff16600154611ee390919063ffffffff16565b611ef990919063ffffffff16565b9050600660009054906101000a900473ffffffffffffffffffffffffffffffffffffffff1673ffffffffffffffffffffffffffffffffffffffff166108fc829081150290604051600060405180830381858888f19350505050158015611d0a573d6000803e3d6000fd5b5060006007600c60099054906101000a900460ff1660ff1681548110611d59577f4e487b7100000000000000000000000000000000000000000000000000000000600052603260045260246000fd5b90600052602060002090602091828204019190066101000a81548160ff021916908360ff160217905550611d8c81611f0f565b507f0e45f244d89cea5099c0a6f24efd8cfde53e85de3cbf08c24acc387c1160ccc3600c60099054906101000a900460ff1682600660009054906101000a900473ffffffffffffffffffffffffffffffffffffffff16604051611df19392919061237f565b60405180910390a1611e01612042565b91505090565b60008060009054906101000a900473ffffffffffffffffffffffffffffffffffffffff168073ffffffffffffffffffffffffffffffffffffffff163373ffffffffffffffffffffffffffffffffffffffff1614611e90576040517f82b4290000000000000000000000000000000000000000000000000000000000815260040160405180910390fd5b600060118190555060006012819055506000601360006101000a81548163ffffffff021916908363ffffffff160217905550600191505090565b6000818310611ed95781611edb565b825b905092915050565b60008183611ef191906124db565b905092915050565b60008183611f0791906124aa565b905092915050565b600080611f3a600154611f2c606486611ee390919063ffffffff16565b611ef990919063ffffffff16565b905060005b60058054905081101561203757816002600060058481548110611f8b577f4e487b7100000000000000000000000000000000000000000000000000000000600052603260045260246000fd5b9060005260206000200160009054906101000a900473ffffffffffffffffffffffffffffffffffffffff1673ffffffffffffffffffffffffffffffffffffffff1673ffffffffffffffffffffffffffffffffffffffff16815260200190815260200160002060008282829054906101000a900460ff1661200b9190612569565b92506101000a81548160ff021916908360ff16021790555060018161203091906123e3565b9050611f3f565b506001915050919050565b600060016007805490506120569190612535565b600c60099054906101000a900460ff1660ff1610156120a7576001600c60098282829054906101000a900460ff1661208e9190612473565b92506101000a81548160ff021916908360ff1602179055505b6001905090565b6040518060e00160405280600790602082028036833780820191505090505090565b6000813590506120df816126bc565b92915050565b6000813590506120f4816126d3565b92915050565b600081359050612109816126ea565b92915050565b60008135905061211e81612701565b92915050565b60006020828403121561213657600080fd5b6000612144848285016120d0565b91505092915050565b60006020828403121561215f57600080fd5b600061216d848285016120e5565b91505092915050565b60006020828403121561218857600080fd5b6000612196848285016120fa565b91505092915050565b600080604083850312156121b257600080fd5b60006121c08582860161210f565b92505060206121d1858286016120e5565b9150509250929050565b60006121e78383612277565b60208301905092915050565b6121fc81612628565b82525050565b61220b816125af565b82525050565b61221a816123c0565b61222481846123d8565b925061222f826123b6565b8060005b8381101561226057815161224787826121db565b9650612252836123cb565b925050600181019050612233565b505050505050565b612271816125c1565b82525050565b612280816125ed565b82525050565b61228f816125ed565b82525050565b61229e816125f7565b82525050565b6122ad81612607565b82525050565b6122bc8161261b565b82525050565b60006020820190506122d76000830184612202565b92915050565b600060e0820190506122f26000830184612211565b92915050565b600060208201905061230d6000830184612268565b92915050565b60006020820190506123286000830184612286565b92915050565b60006020820190506123436000830184612295565b92915050565b600060208201905061235e60008301846122a4565b92915050565b600060208201905061237960008301846122b3565b92915050565b600060608201905061239460008301866122b3565b6123a16020830185612286565b6123ae60408301846121f3565b949350505050565b6000819050919050565b600060079050919050565b6000602082019050919050565b600081905092915050565b60006123ee826125ed565b91506123f9836125ed565b9250827fffffffffffffffffffffffffffffffffffffffffffffffffffffffffffffffff0382111561242e5761242d61265e565b5b828201905092915050565b6000612444826125f7565b915061244f836125f7565b92508263ffffffff038211156124685761246761265e565b5b828201905092915050565b600061247e8261261b565b91506124898361261b565b92508260ff0382111561249f5761249e61265e565b5b828201905092915050565b60006124b5826125ed565b91506124c0836125ed565b9250826124d0576124cf61268d565b5b828204905092915050565b60006124e6826125ed565b91506124f1836125ed565b9250817fffffffffffffffffffffffffffffffffffffffffffffffffffffffffffffffff048311821515161561252a5761252961265e565b5b828202905092915050565b6000612540826125ed565b915061254b836125ed565b92508282101561255e5761255d61265e565b5b828203905092915050565b60006125748261261b565b915061257f8361261b565b9250828210156125925761259161265e565b5b828203905092915050565b60006125a8826125cd565b9050919050565b60006125ba826125cd565b9050919050565b60008115159050919050565b600073ffffffffffffffffffffffffffffffffffffffff82169050919050565b6000819050919050565b600063ffffffff82169050919050565b600067ffffffffffffffff82169050919050565b600060ff82169050919050565b60006126338261263a565b9050919050565b60006126458261264c565b9050919050565b6000612657826125cd565b9050919050565b7f4e487b7100000000000000000000000000000000000000000000000000000000600052601160045260246000fd5b7f4e487b7100000000000000000000000000000000000000000000000000000000600052601260045260246000fd5b6126c58161259d565b81146126d057600080fd5b50565b6126dc816125c1565b81146126e757600080fd5b50565b6126f3816125ed565b81146126fe57600080fd5b50565b61270a8161261b565b811461271557600080fd5b5056fea2646970667358221220144d15b17c6fa4b6243c70b49f5188863e6c8ea42ae8dcfcb2c6f11d32804a9464736f6c63430008040033",
  "immutableReferences": {},
  "source": "pragma solidity ^0.8.0;\r\nimport \"@openzeppelin/contracts/utils/math/SafeMath.sol\";\r\nimport \"@openzeppelin/contracts/utils/math/Math.sol\";\r\n\r\nabstract contract Treasury {\r\n    using SafeMath for uint256;\r\n    address payable owner;\r\n\r\n    // the total balance in this treasury\r\n    // recorded at the time of vote and used to calculate equity share\r\n    uint256 totalContribution;\r\n\r\n    mapping(address => uint8) pctBalanceRemaining; // fan address => pct equity remaining\r\n    mapping(address => uint256) public equity; // fan address => contribution\r\n    mapping(address => uint256) public votingEquity; // fan address => voting rights\r\n    address payable[] public fans; // fan address to withdraw to, mirrors equity\r\n    address payable public creatorWallet;\r\n\r\n    uint8[] public bonusTargets; // the payout percentages (out of 100) for bonus targets 0,1,2,..\r\n    uint64[] public bonusDeadlines; // the time that bonus[i] expires defaulting to NO\r\n    uint8[] public bonusPctYeasNeeded; // pct yeas needed to pass bonus[i]\r\n    uint8[] public bonusFailures; // how many times bonus[i] has failed a vote\r\n    uint8[] public bonusFailureThresholds; // how many times bonus[i] can fail before automatic withdrawal\r\n\r\n    uint64 public endTime; // the time that this contract expires and mints automatically\r\n    bool isPrecipitatingEvent; // IFF true, withdrawals can take place\r\n\r\n    uint8 public votingOn; // the current milestone that votes are tallied towards\r\n\r\n    error Unauthorized();\r\n    error TooLate();\r\n    error AlreadyPaid();\r\n    error NoEquity();\r\n    error MaxValueReached();\r\n\r\n    modifier onlyBy(address _account) {\r\n        if (msg.sender != _account) revert Unauthorized();\r\n        _;\r\n    }\r\n    modifier onlyBefore(uint64 _time) {\r\n        if (block.timestamp > _time) revert TooLate();\r\n        _;\r\n    }\r\n    modifier onlyWithEquity() {\r\n        if (equity[msg.sender] == 0) revert NoEquity();\r\n        _;\r\n    }\r\n\r\n    function balanceOf(address _owner) public view returns (uint256 balance) {\r\n        return equity[_owner].mul(pctBalanceRemaining[_owner]).div(100);\r\n    }\r\n\r\n    function equityOf(address _owner) public view returns (uint256 balance) {\r\n        return equity[_owner];\r\n    }\r\n\r\n    function withdraw() public onlyWithEquity returns (bool success) {\r\n        if (!isPrecipitatingEvent) {\r\n            return false;\r\n        }\r\n        uint256 amount = balanceOf(msg.sender);\r\n        payable(msg.sender).transfer(Math.min(amount, address(this).balance));\r\n        // Wipe balance and equity from this user\r\n        pctBalanceRemaining[msg.sender] = 0;\r\n        equity[msg.sender] = 0;\r\n        votingEquity[msg.sender] = 0;\r\n        // Subtract from total so that all other %s are correct\r\n        totalContribution -= amount;\r\n\r\n        emit Withdraw(msg.sender, amount);\r\n        return true;\r\n    }\r\n\r\n    function precipitatingEvent(bool onOff)\r\n        public\r\n        onlyBy(owner)\r\n        returns (bool success)\r\n    {\r\n        isPrecipitatingEvent = onOff;\r\n        return true;\r\n    }\r\n\r\n    function nextMilestone() private returns (bool success) {\r\n        if (votingOn < bonusTargets.length - 1) {\r\n            votingOn += 1;\r\n        }\r\n        return true;\r\n    }\r\n\r\n    // Called by server at time of expiry - should check whether this vote\r\n    // actually succeeded and auto fail/withdraw/move on otherwise\r\n    function failMilestone() public onlyBy(owner) returns (bool success) {\r\n        bonusFailures[votingOn] += 1;\r\n        if (bonusFailures[votingOn] == bonusFailureThresholds[votingOn]) {\r\n            return failAndWithdraw();\r\n        }\r\n        return false;\r\n    }\r\n\r\n    function failAndWithdraw() internal returns (bool success) {\r\n        // the amount about to be disbursed among all equity holders\r\n        uint256 disbursement = totalContribution\r\n            .mul(bonusTargets[votingOn])\r\n            .div(100);\r\n        for (uint256 i = 0; i < fans.length; i += 1) {\r\n            // calculate the equity % from totalContribution vs equity\r\n            uint256 contrib = equity[fans[i]];\r\n            uint256 pctContrib = contrib.mul(100).div(totalContribution); // percent * 100\r\n            fans[i].transfer(disbursement.mul(pctContrib).div(100));\r\n        }\r\n        // adjust all balances downward\r\n        adjustBalances(disbursement);\r\n\r\n        emit Failure(votingOn);\r\n        return nextMilestone();\r\n    }\r\n\r\n    function approveAndPay() internal returns (bool success) {\r\n        if (bonusTargets[votingOn] < 0) {\r\n            revert AlreadyPaid();\r\n        }\r\n        uint256 disbursement = totalContribution\r\n            .mul(bonusTargets[votingOn])\r\n            .div(100);\r\n        creatorWallet.transfer(disbursement);\r\n        bonusTargets[votingOn] = 0;\r\n        // adjust all balances downward\r\n        adjustBalances(disbursement);\r\n\r\n        emit Approval(votingOn, disbursement, creatorWallet);\r\n        return nextMilestone();\r\n    }\r\n\r\n    function adjustBalances(uint256 disbursement)\r\n        private\r\n        returns (bool success)\r\n    {\r\n        // calc the % to adjust downward\r\n        uint256 pctAdjust = disbursement.mul(100).div(totalContribution);\r\n        for (uint256 i = 0; i < fans.length; i += 1) {\r\n            pctBalanceRemaining[fans[i]] -= uint8(pctAdjust);\r\n        }\r\n        return true;\r\n    }\r\n\r\n    event Withdraw(address indexed _to, uint256 _amount);\r\n    event Approval(uint8 _milestone, uint256 _amount, address _creatorWallet);\r\n    event Failure(uint8 _milestone);\r\n}\r\n\r\ncontract Bounty is Treasury {\r\n    using SafeMath for uint256;\r\n\r\n    mapping(address => bool) votedThisRound; // whether this address has already voted\r\n    uint64 public mustBeClaimedTime; // the time epoch at which this bounty expires if unclaimed\r\n    uint256 public maxValue; // the max value this bounty could be\r\n    uint64 public timeLimit; // the time limit in seconds that this bounty must be completed in\r\n    uint256 public currentYeas; // yea vote weight for the current bonus\r\n    uint256 public currentNays; // nay vote weight for the current bonus\r\n    uint32 public currentVotesCast; // number of discrete votes cast for the current bonus\r\n\r\n    error VoteOver();\r\n    error AlreadyVoted();\r\n\r\n    constructor(\r\n        address payable _creatorWallet,\r\n        uint256 _maxValue,\r\n        uint8[] memory _bonusTargets,\r\n        uint8[] memory _bonusPctYeasNeeded,\r\n        uint8[] memory _bonusFailureThresholds,\r\n        uint64 _mustBeClaimedTime,\r\n        uint64 _timeLimit,\r\n        address payable _owner\r\n    ) {\r\n        creatorWallet = _creatorWallet;\r\n        maxValue = _maxValue;\r\n        bonusTargets = _bonusTargets;\r\n        bonusPctYeasNeeded = _bonusPctYeasNeeded;\r\n        bonusFailureThresholds = _bonusFailureThresholds;\r\n        mustBeClaimedTime = _mustBeClaimedTime;\r\n        owner = _owner;\r\n        isPrecipitatingEvent = true;\r\n        timeLimit = _timeLimit;\r\n        bonusFailures = new uint8[](bonusTargets.length);\r\n    }\r\n\r\n    function uniqueFans() public view returns (uint8 num) {\r\n        return uint8(fans.length);\r\n    }\r\n\r\n    // Returns [milestone, yeasNeeded, yeas, nays, timesFailed, failureThreshold, totalVoters]\r\n    function voteStatus() public view returns (uint256[7] memory stats) {\r\n        return [\r\n            votingOn,\r\n            bonusPctYeasNeeded[votingOn],\r\n            currentYeas,\r\n            currentNays,\r\n            uint256(bonusFailures[votingOn]),\r\n            bonusFailureThresholds[votingOn],\r\n            currentVotesCast\r\n        ];\r\n    }\r\n\r\n    function join()\r\n        public\r\n        payable\r\n        onlyBefore(mustBeClaimedTime)\r\n        returns (bool success)\r\n    {\r\n        if (msg.value == 0) {\r\n            revert NoEquity();\r\n        }\r\n        if (address(this).balance + msg.value >= maxValue) {\r\n            revert MaxValueReached();\r\n        }\r\n        if (equity[msg.sender] == 0) {\r\n            // fan not added yet\r\n            fans.push(payable(msg.sender));\r\n            pctBalanceRemaining[msg.sender] = 100;\r\n        }\r\n        equity[msg.sender] += msg.value;\r\n\r\n        totalContribution += msg.value;\r\n        return true;\r\n    }\r\n\r\n    // Returns 0 if not a done vote yet, 1 if passed, 2 if failed\r\n    function checkVoteMarginMet() private view returns (uint8 met) {\r\n        uint256 yeasNeeded = totalContribution\r\n            .mul(bonusPctYeasNeeded[votingOn])\r\n            .div(100);\r\n        if (currentYeas >= yeasNeeded) {\r\n            return 1;\r\n        } else if (currentNays >= totalContribution - yeasNeeded) {\r\n            return 2;\r\n        }\r\n        return 0;\r\n    }\r\n\r\n    function vote(uint8 _milestone, bool _vote)\r\n        public\r\n        onlyWithEquity\r\n        returns (bool success)\r\n    {\r\n        if (_milestone != votingOn) {\r\n            revert VoteOver();\r\n        }\r\n        if (votedThisRound[msg.sender]) {\r\n            revert AlreadyVoted();\r\n        }\r\n        uint256 amount = equityOf(msg.sender);\r\n        if (_vote) {\r\n            currentYeas += amount;\r\n        } else {\r\n            currentNays += amount;\r\n        }\r\n        currentVotesCast += 1;\r\n        votedThisRound[msg.sender] = true;\r\n\r\n        emit Vote(msg.sender, _vote);\r\n\r\n        uint8 status = checkVoteMarginMet();\r\n        if (status != 0) {\r\n            bool result;\r\n            if (status == 1) {\r\n                result = approveAndPay();\r\n            } else if (status == 2) {\r\n                result = failMilestone();\r\n            }\r\n            // result is true if we took a step forward, otherwise false\r\n            if (result) {\r\n                // Wipe the state if either of these things happens\r\n                wipeStateForBonus();\r\n            }\r\n            return result;\r\n        }\r\n        return true;\r\n    }\r\n\r\n    // Sets initial state and sets the end time of this bounty according to config\r\n    // This must be called by the creator - they will have to pay the gas\r\n    function claim() public onlyBy(creatorWallet) returns (bool success) {\r\n        // Already claimed\r\n        if (endTime != 0) {\r\n            return false;\r\n        }\r\n        endTime = uint64(block.timestamp + timeLimit);\r\n        isPrecipitatingEvent = false;\r\n        return true;\r\n    }\r\n\r\n    function wipeStateForBonus() private onlyBy(owner) returns (bool success) {\r\n        currentYeas = 0;\r\n        currentNays = 0;\r\n        currentVotesCast = 0;\r\n        return true;\r\n    }\r\n\r\n    // _vote is false for nay, true for yea\r\n    event Vote(address indexed _voter, bool _vote);\r\n}\r\n",
  "sourcePath": "C:\\Users\\kumquatexpress\\projects\\polygon-hack\\web3\\contracts\\polygon\\Bounty.sol",
  "compiler": {
    "name": "solc",
    "version": "0.8.4+commit.c7e474f2.Emscripten.clang"
  },
  "schemaVersion": "3.4.4",
  "updatedAt": "2022-02-03T23:04:28.939Z",
  "devdoc": {
    "kind": "dev",
    "methods": {},
    "version": 1
  },
  "userdoc": {
    "kind": "user",
    "methods": {},
    "version": 1
  },
  "db": {
    "callBytecode": {
      "id": "0x7c9852725451c674034be82ebddc657e2b162dd86ace2a2bc6f5db8433a952ba"
    },
    "createBytecode": {
      "id": "0xf3a87564bb212b3bb8dca5bb269147f6dd04dc060fc258ed9bb554b212cd46ad"
    },
    "contract": {
      "id": "0x861bc04e04359564b66b489e75e18f763ce10fa7f6795ac7ca32a9ccf8cc3b58"
    }
  }
}