{
  "contractName": "Bounty",
  "abi": [
    {
      "inputs": [
        {
          "internalType": "address payable",
          "name": "_creatorWallet",
          "type": "address"
        },
        {
          "internalType": "uint256",
          "name": "_maxValue",
          "type": "uint256"
        },
        {
          "internalType": "uint256",
          "name": "_reservePrice",
          "type": "uint256"
        },
        {
          "internalType": "uint8",
          "name": "_pctCreatorInitialDisbursement",
          "type": "uint8"
        },
        {
          "internalType": "uint8",
          "name": "_pctCreatorFinalDisbursement",
          "type": "uint8"
        },
        {
          "internalType": "uint8[]",
          "name": "_bonusTargets",
          "type": "uint8[]"
        },
        {
          "internalType": "uint8[]",
          "name": "_bonusPctYeasNeeded",
          "type": "uint8[]"
        },
        {
          "internalType": "uint8[]",
          "name": "_bonusFailureThresholds",
          "type": "uint8[]"
        },
        {
          "internalType": "uint64",
          "name": "_mustBeClaimedTime",
          "type": "uint64"
        },
        {
          "internalType": "uint64",
          "name": "_timeLimit",
          "type": "uint64"
        },
        {
          "internalType": "address payable",
          "name": "_owner",
          "type": "address"
        }
      ],
      "stateMutability": "nonpayable",
      "type": "constructor"
    },
    {
      "inputs": [],
      "name": "AlreadyPaid",
      "type": "error"
    },
    {
      "inputs": [],
      "name": "AlreadyVoted",
      "type": "error"
    },
    {
      "inputs": [],
      "name": "IncorrectPercentages",
      "type": "error"
    },
    {
      "inputs": [],
      "name": "MaxValueReached",
      "type": "error"
    },
    {
      "inputs": [],
      "name": "NoEquity",
      "type": "error"
    },
    {
      "inputs": [],
      "name": "TooLate",
      "type": "error"
    },
    {
      "inputs": [],
      "name": "Unauthorized",
      "type": "error"
    },
    {
      "inputs": [],
      "name": "VoteOver",
      "type": "error"
    },
    {
      "anonymous": false,
      "inputs": [
        {
          "indexed": false,
          "internalType": "uint8",
          "name": "_milestone",
          "type": "uint8"
        },
        {
          "indexed": false,
          "internalType": "uint256",
          "name": "_amount",
          "type": "uint256"
        },
        {
          "indexed": false,
          "internalType": "address",
          "name": "_creatorWallet",
          "type": "address"
        }
      ],
      "name": "Approval",
      "type": "event"
    },
    {
      "anonymous": false,
      "inputs": [
        {
          "indexed": true,
          "internalType": "string",
          "name": "msg",
          "type": "string"
        }
      ],
      "name": "Debug",
      "type": "event"
    },
    {
      "anonymous": false,
      "inputs": [
        {
          "indexed": false,
          "internalType": "uint8",
          "name": "_milestone",
          "type": "uint8"
        }
      ],
      "name": "Failure",
      "type": "event"
    },
    {
      "anonymous": false,
      "inputs": [
        {
          "indexed": true,
          "internalType": "address",
          "name": "_voter",
          "type": "address"
        },
        {
          "indexed": false,
          "internalType": "bool",
          "name": "_vote",
          "type": "bool"
        }
      ],
      "name": "Vote",
      "type": "event"
    },
    {
      "anonymous": false,
      "inputs": [
        {
          "indexed": true,
          "internalType": "address",
          "name": "_to",
          "type": "address"
        },
        {
          "indexed": false,
          "internalType": "uint256",
          "name": "_amount",
          "type": "uint256"
        }
      ],
      "name": "Withdraw",
      "type": "event"
    },
    {
      "inputs": [
        {
          "internalType": "address",
          "name": "_owner",
          "type": "address"
        }
      ],
      "name": "balanceOf",
      "outputs": [
        {
          "internalType": "uint256",
          "name": "balance",
          "type": "uint256"
        }
      ],
      "stateMutability": "view",
      "type": "function"
    },
    {
      "inputs": [
        {
          "internalType": "uint256",
          "name": "",
          "type": "uint256"
        }
      ],
      "name": "bonusDeadlines",
      "outputs": [
        {
          "internalType": "uint64",
          "name": "",
          "type": "uint64"
        }
      ],
      "stateMutability": "view",
      "type": "function"
    },
    {
      "inputs": [
        {
          "internalType": "uint256",
          "name": "",
          "type": "uint256"
        }
      ],
      "name": "bonusFailureThresholds",
      "outputs": [
        {
          "internalType": "uint8",
          "name": "",
          "type": "uint8"
        }
      ],
      "stateMutability": "view",
      "type": "function"
    },
    {
      "inputs": [
        {
          "internalType": "uint256",
          "name": "",
          "type": "uint256"
        }
      ],
      "name": "bonusFailures",
      "outputs": [
        {
          "internalType": "uint8",
          "name": "",
          "type": "uint8"
        }
      ],
      "stateMutability": "view",
      "type": "function"
    },
    {
      "inputs": [
        {
          "internalType": "uint256",
          "name": "",
          "type": "uint256"
        }
      ],
      "name": "bonusPctYeasNeeded",
      "outputs": [
        {
          "internalType": "uint8",
          "name": "",
          "type": "uint8"
        }
      ],
      "stateMutability": "view",
      "type": "function"
    },
    {
      "inputs": [
        {
          "internalType": "uint256",
          "name": "",
          "type": "uint256"
        }
      ],
      "name": "bonusTargets",
      "outputs": [
        {
          "internalType": "uint8",
          "name": "",
          "type": "uint8"
        }
      ],
      "stateMutability": "view",
      "type": "function"
    },
    {
      "inputs": [],
      "name": "creatorWallet",
      "outputs": [
        {
          "internalType": "address payable",
          "name": "",
          "type": "address"
        }
      ],
      "stateMutability": "view",
      "type": "function"
    },
    {
      "inputs": [],
      "name": "currentNays",
      "outputs": [
        {
          "internalType": "uint256",
          "name": "",
          "type": "uint256"
        }
      ],
      "stateMutability": "view",
      "type": "function"
    },
    {
      "inputs": [],
      "name": "currentVotesCast",
      "outputs": [
        {
          "internalType": "uint32",
          "name": "",
          "type": "uint32"
        }
      ],
      "stateMutability": "view",
      "type": "function"
    },
    {
      "inputs": [],
      "name": "currentYeas",
      "outputs": [
        {
          "internalType": "uint256",
          "name": "",
          "type": "uint256"
        }
      ],
      "stateMutability": "view",
      "type": "function"
    },
    {
      "inputs": [],
      "name": "endTime",
      "outputs": [
        {
          "internalType": "uint64",
          "name": "",
          "type": "uint64"
        }
      ],
      "stateMutability": "view",
      "type": "function"
    },
    {
      "inputs": [
        {
          "internalType": "address",
          "name": "",
          "type": "address"
        }
      ],
      "name": "equity",
      "outputs": [
        {
          "internalType": "uint256",
          "name": "",
          "type": "uint256"
        }
      ],
      "stateMutability": "view",
      "type": "function"
    },
    {
      "inputs": [
        {
          "internalType": "address",
          "name": "_owner",
          "type": "address"
        }
      ],
      "name": "equityOf",
      "outputs": [
        {
          "internalType": "uint256",
          "name": "balance",
          "type": "uint256"
        }
      ],
      "stateMutability": "view",
      "type": "function"
    },
    {
      "inputs": [
        {
          "internalType": "uint256",
          "name": "",
          "type": "uint256"
        }
      ],
      "name": "fans",
      "outputs": [
        {
          "internalType": "address payable",
          "name": "",
          "type": "address"
        }
      ],
      "stateMutability": "view",
      "type": "function"
    },
    {
      "inputs": [],
      "name": "maxValue",
      "outputs": [
        {
          "internalType": "uint256",
          "name": "",
          "type": "uint256"
        }
      ],
      "stateMutability": "view",
      "type": "function"
    },
    {
      "inputs": [],
      "name": "mustBeClaimedTime",
      "outputs": [
        {
          "internalType": "uint64",
          "name": "",
          "type": "uint64"
        }
      ],
      "stateMutability": "view",
      "type": "function"
    },
    {
      "inputs": [
        {
          "internalType": "bool",
          "name": "onOff",
          "type": "bool"
        }
      ],
      "name": "precipitatingEvent",
      "outputs": [
        {
          "internalType": "bool",
          "name": "success",
          "type": "bool"
        }
      ],
      "stateMutability": "nonpayable",
      "type": "function"
    },
    {
      "inputs": [],
      "name": "reservePrice",
      "outputs": [
        {
          "internalType": "uint256",
          "name": "",
          "type": "uint256"
        }
      ],
      "stateMutability": "view",
      "type": "function"
    },
    {
      "inputs": [],
      "name": "status",
      "outputs": [
        {
          "internalType": "uint8",
          "name": "",
          "type": "uint8"
        }
      ],
      "stateMutability": "view",
      "type": "function"
    },
    {
      "inputs": [],
      "name": "timeLimit",
      "outputs": [
        {
          "internalType": "uint64",
          "name": "",
          "type": "uint64"
        }
      ],
      "stateMutability": "view",
      "type": "function"
    },
    {
      "inputs": [
        {
          "internalType": "address",
          "name": "",
          "type": "address"
        }
      ],
      "name": "votingEquity",
      "outputs": [
        {
          "internalType": "uint256",
          "name": "",
          "type": "uint256"
        }
      ],
      "stateMutability": "view",
      "type": "function"
    },
    {
      "inputs": [],
      "name": "votingOn",
      "outputs": [
        {
          "internalType": "uint8",
          "name": "",
          "type": "uint8"
        }
      ],
      "stateMutability": "view",
      "type": "function"
    },
    {
      "inputs": [],
      "name": "withdraw",
      "outputs": [
        {
          "internalType": "bool",
          "name": "success",
          "type": "bool"
        }
      ],
      "stateMutability": "nonpayable",
      "type": "function"
    },
    {
      "inputs": [],
      "name": "uniqueFans",
      "outputs": [
        {
          "internalType": "uint8",
          "name": "num",
          "type": "uint8"
        }
      ],
      "stateMutability": "view",
      "type": "function"
    },
    {
      "inputs": [],
      "name": "bountyStatus",
      "outputs": [
        {
          "internalType": "uint256[3]",
          "name": "stats",
          "type": "uint256[3]"
        }
      ],
      "stateMutability": "view",
      "type": "function"
    },
    {
      "inputs": [],
      "name": "voteStatus",
      "outputs": [
        {
          "internalType": "uint256[7]",
          "name": "stats",
          "type": "uint256[7]"
        }
      ],
      "stateMutability": "view",
      "type": "function"
    },
    {
      "inputs": [],
      "name": "join",
      "outputs": [
        {
          "internalType": "bool",
          "name": "success",
          "type": "bool"
        }
      ],
      "stateMutability": "payable",
      "type": "function"
    },
    {
      "inputs": [],
      "name": "checkVote",
      "outputs": [
        {
          "internalType": "bool",
          "name": "success",
          "type": "bool"
        }
      ],
      "stateMutability": "nonpayable",
      "type": "function"
    },
    {
      "inputs": [
        {
          "internalType": "uint8",
          "name": "_milestone",
          "type": "uint8"
        },
        {
          "internalType": "bool",
          "name": "_vote",
          "type": "bool"
        }
      ],
      "name": "vote",
      "outputs": [
        {
          "internalType": "bool",
          "name": "success",
          "type": "bool"
        }
      ],
      "stateMutability": "nonpayable",
      "type": "function"
    },
    {
      "inputs": [
        {
          "internalType": "uint256",
          "name": "_maxValue",
          "type": "uint256"
        },
        {
          "internalType": "uint256",
          "name": "_reservePrice",
          "type": "uint256"
        },
        {
          "internalType": "uint8[]",
          "name": "_bonusTargets",
          "type": "uint8[]"
        },
        {
          "internalType": "uint8[]",
          "name": "_bonusPctYeasNeeded",
          "type": "uint8[]"
        },
        {
          "internalType": "uint8[]",
          "name": "_bonusFailureThresholds",
          "type": "uint8[]"
        },
        {
          "internalType": "uint64",
          "name": "_timeLimit",
          "type": "uint64"
        }
      ],
      "name": "negotiate",
      "outputs": [
        {
          "internalType": "bool",
          "name": "success",
          "type": "bool"
        }
      ],
      "stateMutability": "nonpayable",
      "type": "function"
    },
    {
      "inputs": [
        {
          "internalType": "address",
          "name": "_addr",
          "type": "address"
        }
      ],
      "name": "canRejoinTreasury",
      "outputs": [
        {
          "internalType": "bool",
          "name": "canRejoin",
          "type": "bool"
        }
      ],
      "stateMutability": "view",
      "type": "function"
    },
    {
      "inputs": [
        {
          "internalType": "address",
          "name": "_addr",
          "type": "address"
        }
      ],
      "name": "negotiateRejoin",
      "outputs": [
        {
          "internalType": "bool",
          "name": "success",
          "type": "bool"
        }
      ],
      "stateMutability": "nonpayable",
      "type": "function"
    },
    {
      "inputs": [],
      "name": "negotiateLeave",
      "outputs": [
        {
          "internalType": "bool",
          "name": "success",
          "type": "bool"
        }
      ],
      "stateMutability": "nonpayable",
      "type": "function"
    },
    {
      "inputs": [],
      "name": "negotiationStatus",
      "outputs": [
        {
          "internalType": "uint256[2]",
          "name": "data",
          "type": "uint256[2]"
        }
      ],
      "stateMutability": "view",
      "type": "function"
    },
    {
      "inputs": [],
      "name": "claim",
      "outputs": [
        {
          "internalType": "bool",
          "name": "success",
          "type": "bool"
        }
      ],
      "stateMutability": "nonpayable",
      "type": "function"
    },
    {
      "inputs": [
        {
          "internalType": "address",
          "name": "_operator",
          "type": "address"
        },
        {
          "internalType": "address",
          "name": "",
          "type": "address"
        },
        {
          "internalType": "uint256",
          "name": "",
          "type": "uint256"
        },
        {
          "internalType": "bytes",
          "name": "",
          "type": "bytes"
        }
      ],
      "name": "onERC721Received",
      "outputs": [
        {
          "internalType": "bytes4",
          "name": "",
          "type": "bytes4"
        }
      ],
      "stateMutability": "nonpayable",
      "type": "function"
    }
  ],
  "bytecode": "0x60806040523480156200001157600080fd5b506040516200487f3803806200487f8339818101604052810190620000379190620004ea565b6000878962000047919062000694565b905060005b87518160ff161015620000c357878160ff168151811062000096577f4e487b7100000000000000000000000000000000000000000000000000000000600052603260045260246000fd5b602002602001015182620000ab919062000694565b91508080620000ba9062000767565b9150506200004c565b5060648160ff161462000102576040517fe90c19eb00000000000000000000000000000000000000000000000000000000815260040160405180910390fd5b8b600660006101000a81548173ffffffffffffffffffffffffffffffffffffffff021916908373ffffffffffffffffffffffffffffffffffffffff1602179055508a6010819055508960118190555088600660146101000a81548160ff021916908360ff16021790555087600660156101000a81548160ff021916908360ff16021790555086600790805190602001906200019f9291906200031f565b508560099080519060200190620001b89291906200031f565b5084600b9080519060200190620001d19291906200031f565b5083600f60006101000a81548167ffffffffffffffff021916908367ffffffffffffffff160217905550816000806101000a81548173ffffffffffffffffffffffffffffffffffffffff021916908373ffffffffffffffffffffffffffffffffffffffff1602179055506000600c60086101000a81548160ff02191690831515021790555082601260006101000a81548167ffffffffffffffff021916908367ffffffffffffffff16021790555060078054905067ffffffffffffffff811115620002c5577f4e487b7100000000000000000000000000000000000000000000000000000000600052604160045260246000fd5b604051908082528060200260200182016040528015620002f45781602001602082028036833780820191505090505b50600a90805190602001906200030c9291906200031f565b505050505050505050505050506200086d565b82805482825590600052602060002090601f01602090048101928215620003ba5791602002820160005b838211156200038957835183826101000a81548160ff021916908360ff160217905550926020019260010160208160000104928301926001030262000349565b8015620003b85782816101000a81549060ff021916905560010160208160000104928301926001030262000389565b505b509050620003c99190620003cd565b5090565b5b80821115620003e8576000816000905550600101620003ce565b5090565b600062000403620003fd8462000665565b6200063c565b905080838252602082019050828560208602820111156200042357600080fd5b60005b858110156200045757816200043c8882620004d3565b84526020840193506020830192505060018101905062000426565b5050509392505050565b600081519050620004728162000805565b92915050565b600082601f8301126200048a57600080fd5b81516200049c848260208601620003ec565b91505092915050565b600081519050620004b6816200081f565b92915050565b600081519050620004cd8162000839565b92915050565b600081519050620004e48162000853565b92915050565b60008060008060008060008060008060006101608c8e0312156200050d57600080fd5b60006200051d8e828f0162000461565b9b50506020620005308e828f01620004a5565b9a50506040620005438e828f01620004a5565b9950506060620005568e828f01620004d3565b9850506080620005698e828f01620004d3565b97505060a08c015167ffffffffffffffff8111156200058757600080fd5b620005958e828f0162000478565b96505060c08c015167ffffffffffffffff811115620005b357600080fd5b620005c18e828f0162000478565b95505060e08c015167ffffffffffffffff811115620005df57600080fd5b620005ed8e828f0162000478565b945050610100620006018e828f01620004bc565b935050610120620006158e828f01620004bc565b925050610140620006298e828f0162000461565b9150509295989b509295989b9093969950565b6000620006486200065b565b905062000656828262000731565b919050565b6000604051905090565b600067ffffffffffffffff821115620006835762000682620007c5565b5b602082029050602081019050919050565b6000620006a18262000724565b9150620006ae8362000724565b92508260ff03821115620006c757620006c662000796565b5b828201905092915050565b6000620006df82620006e6565b9050919050565b600073ffffffffffffffffffffffffffffffffffffffff82169050919050565b6000819050919050565b600067ffffffffffffffff82169050919050565b600060ff82169050919050565b6200073c82620007f4565b810181811067ffffffffffffffff821117156200075e576200075d620007c5565b5b80604052505050565b6000620007748262000724565b915060ff8214156200078b576200078a62000796565b5b600182019050919050565b7f4e487b7100000000000000000000000000000000000000000000000000000000600052601160045260246000fd5b7f4e487b7100000000000000000000000000000000000000000000000000000000600052604160045260246000fd5b6000601f19601f8301169050919050565b6200081081620006d2565b81146200081c57600080fd5b50565b6200082a8162000706565b81146200083657600080fd5b50565b620008448162000710565b81146200085057600080fd5b50565b6200085e8162000724565b81146200086a57600080fd5b50565b614002806200087d6000396000f3fe60806040526004361061022c576000357c01000000000000000000000000000000000000000000000000000000009004806370a0823111610135578063b688a363116100bd578063db2e1eed1161008c578063db2e1eed14610867578063e2fd21e814610892578063e885f76b146108cf578063f541c60f146108fa578063f6432402146109255761022c565b8063b688a363146107a4578063c08d1fe5146107c2578063cb0cd6b5146107ed578063d553ed131461082a5761022c565b806393d181131161010457806393d18113146106a957806394a5c2e4146106d4578063a064c9d8146106ff578063b0417e981461073c578063b4bd497a146107675761022c565b806370a08231146105eb5780637ae6ee32146106285780637cdc65f2146106535780637f698dad1461067e5761022c565b80633ccfd60b116101b85780634ce2cdc7116101875780634ce2cdc7146104de5780634e71d92d1461051b5780635d7c58ea146105465780636650e24914610571578063688594b3146105ae5761022c565b80633ccfd60b1461040e5780633dad5c701461043957806342bbec59146104765780634bd1d75c146104b35761022c565b806320949bb4116101ff57806320949bb4146103015780632808241e1461032c5780632e8a498c146103695780633197cbb6146103a6578063379ae047146103d15761022c565b8063150b7a02146102315780631b5351351461026e5780631b5a3cc914610299578063200d2ed2146102d6575b600080fd5b34801561023d57600080fd5b5061025860048036038101906102539190613356565b610950565b60405161026591906138e3565b60405180910390f35b34801561027a57600080fd5b50610283610aa4565b6040516102909190613877565b60405180910390f35b3480156102a557600080fd5b506102c060048036038101906102bb91906133d1565b610aca565b6040516102cd91906138c8565b60405180910390f35b3480156102e257600080fd5b506102eb610b77565b6040516102f8919061394f565b60405180910390f35b34801561030d57600080fd5b50610316610b8a565b604051610323919061394f565b60405180910390f35b34801561033857600080fd5b50610353600480360381019061034e91906134f4565b610b9d565b60405161036091906138c8565b60405180910390f35b34801561037557600080fd5b50610390600480360381019061038b919061332d565b610eef565b60405161039d91906138fe565b60405180910390f35b3480156103b257600080fd5b506103bb610f07565b6040516103c89190613934565b60405180910390f35b3480156103dd57600080fd5b506103f860048036038101906103f3919061332d565b610f21565b60405161040591906138c8565b60405180910390f35b34801561041a57600080fd5b506104236110ef565b60405161043091906138c8565b60405180910390f35b34801561044557600080fd5b50610460600480360381019061045b91906133fa565b61134e565b60405161046d9190613934565b60405180910390f35b34801561048257600080fd5b5061049d600480360381019061049891906133fa565b61138c565b6040516104aa919061394f565b60405180910390f35b3480156104bf57600080fd5b506104c86113c0565b6040516104d591906138c8565b60405180910390f35b3480156104ea57600080fd5b50610505600480360381019061050091906133fa565b61144f565b604051610512919061394f565b60405180910390f35b34801561052757600080fd5b50610530611483565b60405161053d91906138c8565b60405180910390f35b34801561055257600080fd5b5061055b61151a565b6040516105689190613934565b60405180910390f35b34801561057d57600080fd5b506105986004803603810190610593919061332d565b611534565b6040516105a591906138c8565b60405180910390f35b3480156105ba57600080fd5b506105d560048036038101906105d091906133fa565b611580565b6040516105e2919061385c565b60405180910390f35b3480156105f757600080fd5b50610612600480360381019061060d919061332d565b6115bf565b60405161061f91906138fe565b60405180910390f35b34801561063457600080fd5b5061063d61167c565b60405161064a91906138ad565b60405180910390f35b34801561065f57600080fd5b50610668611834565b604051610675919061385c565b60405180910390f35b34801561068a57600080fd5b5061069361185a565b6040516106a0919061394f565b60405180910390f35b3480156106b557600080fd5b506106be611867565b6040516106cb9190613919565b60405180910390f35b3480156106e057600080fd5b506106e961187d565b6040516106f691906138fe565b60405180910390f35b34801561070b57600080fd5b5061072660048036038101906107219190613423565b611883565b60405161073391906138c8565b60405180910390f35b34801561074857600080fd5b50610751611c13565b60405161075e91906138c8565b60405180910390f35b34801561077357600080fd5b5061078e6004803603810190610789919061332d565b611d08565b60405161079b91906138fe565b60405180910390f35b6107ac611d20565b6040516107b991906138c8565b60405180910390f35b3480156107ce57600080fd5b506107d761219f565b6040516107e49190613934565b60405180910390f35b3480156107f957600080fd5b50610814600480360381019061080f91906133fa565b6121b9565b604051610821919061394f565b60405180910390f35b34801561083657600080fd5b50610851600480360381019061084c91906133fa565b6121ed565b60405161085e919061394f565b60405180910390f35b34801561087357600080fd5b5061087c612221565b60405161088991906138fe565b60405180910390f35b34801561089e57600080fd5b506108b960048036038101906108b4919061332d565b612227565b6040516108c691906138fe565b60405180910390f35b3480156108db57600080fd5b506108e4612270565b6040516108f191906138fe565b60405180910390f35b34801561090657600080fd5b5061090f612276565b60405161091c91906138fe565b60405180910390f35b34801561093157600080fd5b5061093a61227c565b6040516109479190613892565b60405180910390f35b60008060009054906101000a900473ffffffffffffffffffffffffffffffffffffffff1673ffffffffffffffffffffffffffffffffffffffff168573ffffffffffffffffffffffffffffffffffffffff161415610a765760006109e360646109d5600660159054906101000a900460ff1660ff166001546122de90919063ffffffff16565b6122f490919063ffffffff16565b9050600660009054906101000a900473ffffffffffffffffffffffffffffffffffffffff1673ffffffffffffffffffffffffffffffffffffffff166108fc829081150290604051600060405180830381858888f19350505050158015610a4d573d6000803e3d6000fd5b50610a578161230a565b506003601560046101000a81548160ff021916908360ff160217905550505b63150b7a027c0100000000000000000000000000000000000000000000000000000000029050949350505050565b610aac61309c565b60405180604001604052806011548152602001600154815250905090565b60008060009054906101000a900473ffffffffffffffffffffffffffffffffffffffff168073ffffffffffffffffffffffffffffffffffffffff163373ffffffffffffffffffffffffffffffffffffffff1614610b53576040517f82b4290000000000000000000000000000000000000000000000000000000000815260040160405180910390fd5b82600c60086101000a81548160ff0219169083151502179055506001915050919050565b601560049054906101000a900460ff1681565b600c60099054906101000a900460ff1681565b600080600360003373ffffffffffffffffffffffffffffffffffffffff1673ffffffffffffffffffffffffffffffffffffffff168152602001908152602001600020541415610c18576040517f995a2dae00000000000000000000000000000000000000000000000000000000815260040160405180910390fd5b604051610c249061381d565b60405180910390207f7cdb51e9dbbc205231228146c3246e7f914aa6d4a33170e43ecc8e3593481d1a60405160405180910390a26002601560049054906101000a900460ff1660ff16141580610c8f5750600c60099054906101000a900460ff1660ff168360ff1614155b15610cc6576040517f4733210000000000000000000000000000000000000000000000000000000000815260040160405180910390fd5b600d60003373ffffffffffffffffffffffffffffffffffffffff1673ffffffffffffffffffffffffffffffffffffffff16815260200190815260200160002060009054906101000a900460ff1615610d4a576040517f7c9a1cf900000000000000000000000000000000000000000000000000000000815260040160405180910390fd5b6000610d5533612227565b90508215610d7b578060136000828254610d6f9190613ab5565b92505081905550610d95565b8060146000828254610d8d9190613ab5565b925050819055505b6001601560008282829054906101000a900463ffffffff16610db79190613b0b565b92506101000a81548163ffffffff021916908363ffffffff1602179055506001600d60003373ffffffffffffffffffffffffffffffffffffffff1673ffffffffffffffffffffffffffffffffffffffff16815260200190815260200160002060006101000a81548160ff0219169083151502179055503373ffffffffffffffffffffffffffffffffffffffff167fa635d31e67484fd1d93ba01ab0ef882e4440a78aa40d0e2771e8a2aace45986984604051610e7391906138c8565b60405180910390a26000610e8561247e565b905060008160ff1614610ee257600060018260ff161415610eaf57610ea8612555565b9050610ec7565b60028260ff161415610ec657610ec361283f565b90505b5b8015610ed757610ed5612a0f565b505b809350505050610ee9565b6001925050505b92915050565b60036020528060005260406000206000915090505481565b600c60009054906101000a900467ffffffffffffffff1681565b60008060009054906101000a900473ffffffffffffffffffffffffffffffffffffffff168073ffffffffffffffffffffffffffffffffffffffff163373ffffffffffffffffffffffffffffffffffffffff1614610faa576040517f82b4290000000000000000000000000000000000000000000000000000000000815260040160405180910390fd5b600e60008473ffffffffffffffffffffffffffffffffffffffff1673ffffffffffffffffffffffffffffffffffffffff16815260200190815260200160002054600360008573ffffffffffffffffffffffffffffffffffffffff1673ffffffffffffffffffffffffffffffffffffffff16815260200190815260200160002060008282546110389190613ab5565b92505081905550600e60008473ffffffffffffffffffffffffffffffffffffffff1673ffffffffffffffffffffffffffffffffffffffff16815260200190815260200160002054600160008282546110909190613ab5565b925050819055506000600e60008573ffffffffffffffffffffffffffffffffffffffff1673ffffffffffffffffffffffffffffffffffffffff168152602001908152602001600020819055506110e4612b2a565b506001915050919050565b600080600360003373ffffffffffffffffffffffffffffffffffffffff1673ffffffffffffffffffffffffffffffffffffffff16815260200190815260200160002054141561116a576040517f995a2dae00000000000000000000000000000000000000000000000000000000815260040160405180910390fd5b600c60089054906101000a900460ff16611187576000905061134b565b6000611192336115bf565b90503373ffffffffffffffffffffffffffffffffffffffff166108fc6111cf833073ffffffffffffffffffffffffffffffffffffffff1631612b6e565b9081150290604051600060405180830381858888f193505050501580156111fa573d6000803e3d6000fd5b506000600260003373ffffffffffffffffffffffffffffffffffffffff1673ffffffffffffffffffffffffffffffffffffffff16815260200190815260200160002060006101000a81548160ff021916908360ff1602179055506000600360003373ffffffffffffffffffffffffffffffffffffffff1673ffffffffffffffffffffffffffffffffffffffff168152602001908152602001600020819055506000600460003373ffffffffffffffffffffffffffffffffffffffff1673ffffffffffffffffffffffffffffffffffffffff1681526020019081526020016000208190555080600160008282546112f09190613c07565b925050819055503373ffffffffffffffffffffffffffffffffffffffff167f884edad9ce6fa2440d8a54cc123490eb96d2768479d49ff9c7366125a94243648260405161133d91906138fe565b60405180910390a260019150505b90565b6008818154811061135e57600080fd5b9060005260206000209060049182820401919006600802915054906101000a900467ffffffffffffffff1681565b6007818154811061139c57600080fd5b9060005260206000209060209182820401919006915054906101000a900460ff1681565b60003373ffffffffffffffffffffffffffffffffffffffff166108fc600e60003373ffffffffffffffffffffffffffffffffffffffff1673ffffffffffffffffffffffffffffffffffffffff168152602001908152602001600020549081150290604051600060405180830381858888f19350505050158015611447573d6000803e3d6000fd5b506001905090565b6009818154811061145f57600080fd5b9060005260206000209060209182820401919006915054906101000a900460ff1681565b60008060009054906101000a900473ffffffffffffffffffffffffffffffffffffffff168073ffffffffffffffffffffffffffffffffffffffff163373ffffffffffffffffffffffffffffffffffffffff161461150c576040517f82b4290000000000000000000000000000000000000000000000000000000000815260040160405180910390fd5b611514612b87565b91505090565b600f60009054906101000a900467ffffffffffffffff1681565b600080600e60008473ffffffffffffffffffffffffffffffffffffffff1673ffffffffffffffffffffffffffffffffffffffff1681526020019081526020016000205414159050919050565b6005818154811061159057600080fd5b906000526020600020016000915054906101000a900473ffffffffffffffffffffffffffffffffffffffff1681565b60006116756064611667600260008673ffffffffffffffffffffffffffffffffffffffff1673ffffffffffffffffffffffffffffffffffffffff16815260200190815260200160002060009054906101000a900460ff1660ff16600360008773ffffffffffffffffffffffffffffffffffffffff1673ffffffffffffffffffffffffffffffffffffffff168152602001908152602001600020546122de90919063ffffffff16565b6122f490919063ffffffff16565b9050919050565b6116846130be565b6040518060e00160405280600c60099054906101000a900460ff1660ff1681526020016009600c60099054906101000a900460ff1660ff16815481106116f3577f4e487b7100000000000000000000000000000000000000000000000000000000600052603260045260246000fd5b90600052602060002090602091828204019190069054906101000a900460ff1660ff16815260200160135481526020016014548152602001600a600c60099054906101000a900460ff1660ff1681548110611777577f4e487b7100000000000000000000000000000000000000000000000000000000600052603260045260246000fd5b90600052602060002090602091828204019190069054906101000a900460ff1660ff168152602001600b600c60099054906101000a900460ff1660ff16815481106117eb577f4e487b7100000000000000000000000000000000000000000000000000000000600052603260045260246000fd5b90600052602060002090602091828204019190069054906101000a900460ff1660ff168152602001601560009054906101000a900463ffffffff1663ffffffff16815250905090565b600660009054906101000a900473ffffffffffffffffffffffffffffffffffffffff1681565b6000600580549050905090565b601560009054906101000a900463ffffffff1681565b60105481565b60008060009054906101000a900473ffffffffffffffffffffffffffffffffffffffff168073ffffffffffffffffffffffffffffffffffffffff163373ffffffffffffffffffffffffffffffffffffffff161461190c576040517f82b4290000000000000000000000000000000000000000000000000000000000815260040160405180910390fd5b6000601560049054906101000a900460ff1660ff161461192f5760009150611c08565b866011819055508760108190555085600790805190602001906119539291906130e0565b5083600b908051906020019061196a9291906130e0565b5084600990805190602001906119819291906130e0565b5082601260006101000a81548167ffffffffffffffff021916908367ffffffffffffffff1602179055506001600c60086101000a81548160ff021916908315150217905550600060018190555060005b600580549050811015611be6576003600060058381548110611a1c577f4e487b7100000000000000000000000000000000000000000000000000000000600052603260045260246000fd5b9060005260206000200160009054906101000a900473ffffffffffffffffffffffffffffffffffffffff1673ffffffffffffffffffffffffffffffffffffffff1673ffffffffffffffffffffffffffffffffffffffff16815260200190815260200160002054600e600060058481548110611ac0577f4e487b7100000000000000000000000000000000000000000000000000000000600052603260045260246000fd5b9060005260206000200160009054906101000a900473ffffffffffffffffffffffffffffffffffffffff1673ffffffffffffffffffffffffffffffffffffffff1673ffffffffffffffffffffffffffffffffffffffff1681526020019081526020016000208190555060006003600060058481548110611b69577f4e487b7100000000000000000000000000000000000000000000000000000000600052603260045260246000fd5b9060005260206000200160009054906101000a900473ffffffffffffffffffffffffffffffffffffffff1673ffffffffffffffffffffffffffffffffffffffff1673ffffffffffffffffffffffffffffffffffffffff16815260200190815260200160002081905550600181611bdf9190613ab5565b90506119d1565b506001601560046101000a81548160ff021916908360ff160217905550600191505b509695505050505050565b60008060009054906101000a900473ffffffffffffffffffffffffffffffffffffffff168073ffffffffffffffffffffffffffffffffffffffff163373ffffffffffffffffffffffffffffffffffffffff1614611c9c576040517f82b4290000000000000000000000000000000000000000000000000000000000815260040160405180910390fd5b6000611ca661247e565b905060008160ff1614611d0257600060018260ff161415611cd057611cc9612555565b9050611ce8565b60028260ff161415611ce757611ce461283f565b90505b5b8015611cf857611cf6612a0f565b505b8093505050611d04565b505b5090565b60046020528060005260406000206000915090505481565b6000600f60009054906101000a900467ffffffffffffffff168067ffffffffffffffff16421115611d7d576040517fecdd1c2900000000000000000000000000000000000000000000000000000000815260040160405180910390fd5b604051611d89906137c9565b60405180910390207f7cdb51e9dbbc205231228146c3246e7f914aa6d4a33170e43ecc8e3593481d1a60405160405180910390a26000341415611df8576040517f995a2dae00000000000000000000000000000000000000000000000000000000815260040160405180910390fd5b601054343073ffffffffffffffffffffffffffffffffffffffff1631611e1e9190613ab5565b10611e55576040517f77d09e5000000000000000000000000000000000000000000000000000000000815260040160405180910390fd5b6000600360003373ffffffffffffffffffffffffffffffffffffffff1673ffffffffffffffffffffffffffffffffffffffff16815260200190815260200160002054148015611ee357506000600e60003373ffffffffffffffffffffffffffffffffffffffff1673ffffffffffffffffffffffffffffffffffffffff16815260200190815260200160002054145b1561211f5760006064905060006005805490501115611fb157600260006005600081548110611f3b577f4e487b7100000000000000000000000000000000000000000000000000000000600052603260045260246000fd5b9060005260206000200160009054906101000a900473ffffffffffffffffffffffffffffffffffffffff1673ffffffffffffffffffffffffffffffffffffffff1673ffffffffffffffffffffffffffffffffffffffff16815260200190815260200160002060009054906101000a900460ff1690505b60648160ff1614612062576000611ff56064611fe7846064611fd39190613c3b565b60ff166001546122de90919063ffffffff16565b6122f490919063ffffffff16565b9050600660009054906101000a900473ffffffffffffffffffffffffffffffffffffffff1673ffffffffffffffffffffffffffffffffffffffff166108fc829081150290604051600060405180830381858888f1935050505015801561205f573d6000803e3d6000fd5b50505b6005339080600181540180825580915050600190039060005260206000200160009091909190916101000a81548173ffffffffffffffffffffffffffffffffffffffff021916908373ffffffffffffffffffffffffffffffffffffffff16021790555080600260003373ffffffffffffffffffffffffffffffffffffffff1673ffffffffffffffffffffffffffffffffffffffff16815260200190815260200160002060006101000a81548160ff021916908360ff160217905550505b34600360003373ffffffffffffffffffffffffffffffffffffffff1673ffffffffffffffffffffffffffffffffffffffff168152602001908152602001600020600082825461216e9190613ab5565b9250508190555034600160008282546121879190613ab5565b92505081905550612196612b2a565b50600191505090565b601260009054906101000a900467ffffffffffffffff1681565b600b81815481106121c957600080fd5b9060005260206000209060209182820401919006915054906101000a900460ff1681565b600a81815481106121fd57600080fd5b9060005260206000209060209182820401919006915054906101000a900460ff1681565b60115481565b6000600360008373ffffffffffffffffffffffffffffffffffffffff1673ffffffffffffffffffffffffffffffffffffffff168152602001908152602001600020549050919050565b60135481565b60145481565b612284613187565b6000600c60089054906101000a900460ff166122a15760006122a4565b60015b60ff16905060405180606001604052806001548152602001828152602001601560049054906101000a900460ff1660ff1681525091505090565b600081836122ec9190613bad565b905092915050565b600081836123029190613b7c565b905092915050565b600060405161231890613847565b60405180910390207f7cdb51e9dbbc205231228146c3246e7f914aa6d4a33170e43ecc8e3593481d1a60405160405180910390a260006123766001546123686064866122de90919063ffffffff16565b6122f490919063ffffffff16565b905060005b600580549050811015612473578160026000600584815481106123c7577f4e487b7100000000000000000000000000000000000000000000000000000000600052603260045260246000fd5b9060005260206000200160009054906101000a900473ffffffffffffffffffffffffffffffffffffffff1673ffffffffffffffffffffffffffffffffffffffff1673ffffffffffffffffffffffffffffffffffffffff16815260200190815260200160002060008282829054906101000a900460ff166124479190613c3b565b92506101000a81548160ff021916908360ff16021790555060018161246c9190613ab5565b905061237b565b506001915050919050565b60008061251760646125096009600c60099054906101000a900460ff1660ff16815481106124d5577f4e487b7100000000000000000000000000000000000000000000000000000000600052603260045260246000fd5b90600052602060002090602091828204019190069054906101000a900460ff1660ff166001546122de90919063ffffffff16565b6122f490919063ffffffff16565b9050806013541061252c576001915050612552565b8060015461253a9190613c07565b6014541061254c576002915050612552565b60009150505b90565b600060405161256390613832565b60405180910390207f7cdb51e9dbbc205231228146c3246e7f914aa6d4a33170e43ecc8e3593481d1a60405160405180910390a260006007600c60099054906101000a900460ff1660ff16815481106125e5577f4e487b7100000000000000000000000000000000000000000000000000000000600052603260045260246000fd5b90600052602060002090602091828204019190069054906101000a900460ff1660ff161415612640576040517fd70a0e3000000000000000000000000000000000000000000000000000000000815260040160405180910390fd5b60006126d860646126ca6007600c60099054906101000a900460ff1660ff1681548110612696577f4e487b7100000000000000000000000000000000000000000000000000000000600052603260045260246000fd5b90600052602060002090602091828204019190069054906101000a900460ff1660ff166001546122de90919063ffffffff16565b6122f490919063ffffffff16565b9050600660009054906101000a900473ffffffffffffffffffffffffffffffffffffffff1673ffffffffffffffffffffffffffffffffffffffff166108fc829081150290604051600060405180830381858888f19350505050158015612742573d6000803e3d6000fd5b5060006007600c60099054906101000a900460ff1660ff1681548110612791577f4e487b7100000000000000000000000000000000000000000000000000000000600052603260045260246000fd5b90600052602060002090602091828204019190066101000a81548160ff021916908360ff1602179055506127c48161230a565b507f0e45f244d89cea5099c0a6f24efd8cfde53e85de3cbf08c24acc387c1160ccc3600c60099054906101000a900460ff1682600660009054906101000a900473ffffffffffffffffffffffffffffffffffffffff166040516128299392919061396a565b60405180910390a1612839612cf1565b91505090565b600060405161284d90613808565b60405180910390207f7cdb51e9dbbc205231228146c3246e7f914aa6d4a33170e43ecc8e3593481d1a60405160405180910390a26001600a600c60099054906101000a900460ff1660ff16815481106128cf577f4e487b7100000000000000000000000000000000000000000000000000000000600052603260045260246000fd5b90600052602060002090602091828204019190068282829054906101000a900460ff166128fc9190613b45565b92506101000a81548160ff021916908360ff160217905550600b600c60099054906101000a900460ff1660ff1681548110612960577f4e487b7100000000000000000000000000000000000000000000000000000000600052603260045260246000fd5b90600052602060002090602091828204019190069054906101000a900460ff1660ff16600a600c60099054906101000a900460ff1660ff16815481106129cf577f4e487b7100000000000000000000000000000000000000000000000000000000600052603260045260246000fd5b90600052602060002090602091828204019190069054906101000a900460ff1660ff161415612a0757612a00612d9d565b9050612a0c565b600090505b90565b60008060138190555060006014819055506000601560006101000a81548163ffffffff021916908363ffffffff16021790555060005b600580549050811015612b22576000600d600060058481548110612a92577f4e487b7100000000000000000000000000000000000000000000000000000000600052603260045260246000fd5b9060005260206000200160009054906101000a900473ffffffffffffffffffffffffffffffffffffffff1673ffffffffffffffffffffffffffffffffffffffff1673ffffffffffffffffffffffffffffffffffffffff16815260200190815260200160002060006101000a81548160ff021916908315150217905550600181612b1b9190613ab5565b9050612a45565b506001905090565b60006001601560049054906101000a900460ff1660ff16148015612b52575060115460015410155b15612b6657612b5f612b87565b9050612b6b565b600090505b90565b6000818310612b7d5781612b7f565b825b905092915050565b60006002601560049054906101000a900460ff1660ff1610612bac5760009050612cee565b601260009054906101000a900467ffffffffffffffff1667ffffffffffffffff1642612bd89190613ab5565b600c60006101000a81548167ffffffffffffffff021916908367ffffffffffffffff1602179055506000600c60086101000a81548160ff0219169083151502179055506002601560046101000a81548160ff021916908360ff1602179055506000612c736064612c65600660149054906101000a900460ff1660ff166001546122de90919063ffffffff16565b6122f490919063ffffffff16565b9050600660009054906101000a900473ffffffffffffffffffffffffffffffffffffffff1673ffffffffffffffffffffffffffffffffffffffff166108fc829081150290604051600060405180830381858888f19350505050158015612cdd573d6000803e3d6000fd5b50612ce78161230a565b5060019150505b90565b6000604051612cff906137de565b60405180910390207f7cdb51e9dbbc205231228146c3246e7f914aa6d4a33170e43ecc8e3593481d1a60405160405180910390a26001600780549050612d459190613c07565b600c60099054906101000a900460ff1660ff161015612d96576001600c60098282829054906101000a900460ff16612d7d9190613b45565b92506101000a81548160ff021916908360ff1602179055505b6001905090565b6000604051612dab906137f3565b60405180910390207f7cdb51e9dbbc205231228146c3246e7f914aa6d4a33170e43ecc8e3593481d1a60405160405180910390a26000612e776064612e696007600c60099054906101000a900460ff1660ff1681548110612e35577f4e487b7100000000000000000000000000000000000000000000000000000000600052603260045260246000fd5b90600052602060002090602091828204019190069054906101000a900460ff1660ff166001546122de90919063ffffffff16565b6122f490919063ffffffff16565b905060005b60058054905081101561303d576000612f56600154612f4860646003600060058881548110612ed4577f4e487b7100000000000000000000000000000000000000000000000000000000600052603260045260246000fd5b9060005260206000200160009054906101000a900473ffffffffffffffffffffffffffffffffffffffff1673ffffffffffffffffffffffffffffffffffffffff1673ffffffffffffffffffffffffffffffffffffffff168152602001908152602001600020546122de90919063ffffffff16565b6122f490919063ffffffff16565b905060058281548110612f92577f4e487b7100000000000000000000000000000000000000000000000000000000600052603260045260246000fd5b9060005260206000200160009054906101000a900473ffffffffffffffffffffffffffffffffffffffff1673ffffffffffffffffffffffffffffffffffffffff166108fc612ffc6064612fee85886122de90919063ffffffff16565b6122f490919063ffffffff16565b9081150290604051600060405180830381858888f19350505050158015613027573d6000803e3d6000fd5b50506001816130369190613ab5565b9050612e7c565b506130478161230a565b507f230739317a7f90b018762e0570d567293eac14d67441b810f714879dd6aed0bf600c60099054906101000a900460ff16604051613086919061394f565b60405180910390a1613096612cf1565b91505090565b6040518060400160405280600290602082028036833780820191505090505090565b6040518060e00160405280600790602082028036833780820191505090505090565b82805482825590600052602060002090601f016020900481019282156131765791602002820160005b8382111561314757835183826101000a81548160ff021916908360ff1602179055509260200192600101602081600001049283019260010302613109565b80156131745782816101000a81549060ff0219169055600101602081600001049283019260010302613147565b505b50905061318391906131a9565b5090565b6040518060600160405280600390602082028036833780820191505090505090565b5b808211156131c25760008160009055506001016131aa565b5090565b60006131d96131d4846139c6565b6139a1565b905080838252602082019050828560208602820111156131f857600080fd5b60005b85811015613228578161320e8882613318565b8452602084019350602083019250506001810190506131fb565b5050509392505050565b6000613245613240846139f2565b6139a1565b90508281526020810184848401111561325d57600080fd5b613268848285613d5c565b509392505050565b60008135905061327f81613f59565b92915050565b600082601f83011261329657600080fd5b81356132a68482602086016131c6565b91505092915050565b6000813590506132be81613f70565b92915050565b600082601f8301126132d557600080fd5b81356132e5848260208601613232565b91505092915050565b6000813590506132fd81613f87565b92915050565b60008135905061331281613f9e565b92915050565b60008135905061332781613fb5565b92915050565b60006020828403121561333f57600080fd5b600061334d84828501613270565b91505092915050565b6000806000806080858703121561336c57600080fd5b600061337a87828801613270565b945050602061338b87828801613270565b935050604061339c878288016132ee565b925050606085013567ffffffffffffffff8111156133b957600080fd5b6133c5878288016132c4565b91505092959194509250565b6000602082840312156133e357600080fd5b60006133f1848285016132af565b91505092915050565b60006020828403121561340c57600080fd5b600061341a848285016132ee565b91505092915050565b60008060008060008060c0878903121561343c57600080fd5b600061344a89828a016132ee565b965050602061345b89828a016132ee565b955050604087013567ffffffffffffffff81111561347857600080fd5b61348489828a01613285565b945050606087013567ffffffffffffffff8111156134a157600080fd5b6134ad89828a01613285565b935050608087013567ffffffffffffffff8111156134ca57600080fd5b6134d689828a01613285565b92505060a06134e789828a01613303565b9150509295509295509295565b6000806040838503121561350757600080fd5b600061351585828601613318565b9250506020613526858286016132af565b9150509250929050565b600061353c838361377e565b60208301905092915050565b61355181613d26565b82525050565b61356081613c81565b82525050565b61356f81613a41565b6135798184613a89565b925061358482613a23565b8060005b838110156135b557815161359c8782613530565b96506135a783613a62565b925050600181019050613588565b505050505050565b6135c681613a4c565b6135d08184613a94565b92506135db82613a2d565b8060005b8381101561360c5781516135f38782613530565b96506135fe83613a6f565b9250506001810190506135df565b505050505050565b61361d81613a57565b6136278184613a9f565b925061363282613a37565b8060005b8381101561366357815161364a8782613530565b965061365583613a7c565b925050600181019050613636565b505050505050565b61367481613c93565b82525050565b61368381613c9f565b82525050565b6000613696600b83613aaa565b91506136a182613e3a565b600b82019050919050565b60006136b9600d83613aaa565b91506136c482613e63565b600d82019050919050565b60006136dc600f83613aaa565b91506136e782613e8c565b600f82019050919050565b60006136ff600d83613aaa565b915061370a82613eb5565b600d82019050919050565b6000613722600b83613aaa565b915061372d82613ede565b600b82019050919050565b6000613745600d83613aaa565b915061375082613f07565b600d82019050919050565b6000613768600e83613aaa565b915061377382613f30565b600e82019050919050565b61378781613ceb565b82525050565b61379681613ceb565b82525050565b6137a581613cf5565b82525050565b6137b481613d05565b82525050565b6137c381613d19565b82525050565b60006137d482613689565b9150819050919050565b60006137e9826136ac565b9150819050919050565b60006137fe826136cf565b9150819050919050565b6000613813826136f2565b9150819050919050565b600061382882613715565b9150819050919050565b600061383d82613738565b9150819050919050565b60006138528261375b565b9150819050919050565b60006020820190506138716000830184613557565b92915050565b600060408201905061388c6000830184613566565b92915050565b60006060820190506138a760008301846135bd565b92915050565b600060e0820190506138c26000830184613614565b92915050565b60006020820190506138dd600083018461366b565b92915050565b60006020820190506138f8600083018461367a565b92915050565b6000602082019050613913600083018461378d565b92915050565b600060208201905061392e600083018461379c565b92915050565b600060208201905061394960008301846137ab565b92915050565b600060208201905061396460008301846137ba565b92915050565b600060608201905061397f60008301866137ba565b61398c602083018561378d565b6139996040830184613548565b949350505050565b60006139ab6139bc565b90506139b78282613d6b565b919050565b6000604051905090565b600067ffffffffffffffff8211156139e1576139e0613dfa565b5b602082029050602081019050919050565b600067ffffffffffffffff821115613a0d57613a0c613dfa565b5b613a1682613e29565b9050602081019050919050565b6000819050919050565b6000819050919050565b6000819050919050565b600060029050919050565b600060039050919050565b600060079050919050565b6000602082019050919050565b6000602082019050919050565b6000602082019050919050565b600081905092915050565b600081905092915050565b600081905092915050565b600081905092915050565b6000613ac082613ceb565b9150613acb83613ceb565b9250827fffffffffffffffffffffffffffffffffffffffffffffffffffffffffffffffff03821115613b0057613aff613d9c565b5b828201905092915050565b6000613b1682613cf5565b9150613b2183613cf5565b92508263ffffffff03821115613b3a57613b39613d9c565b5b828201905092915050565b6000613b5082613d19565b9150613b5b83613d19565b92508260ff03821115613b7157613b70613d9c565b5b828201905092915050565b6000613b8782613ceb565b9150613b9283613ceb565b925082613ba257613ba1613dcb565b5b828204905092915050565b6000613bb882613ceb565b9150613bc383613ceb565b9250817fffffffffffffffffffffffffffffffffffffffffffffffffffffffffffffffff0483118215151615613bfc57613bfb613d9c565b5b828202905092915050565b6000613c1282613ceb565b9150613c1d83613ceb565b925082821015613c3057613c2f613d9c565b5b828203905092915050565b6000613c4682613d19565b9150613c5183613d19565b925082821015613c6457613c63613d9c565b5b828203905092915050565b6000613c7a82613ccb565b9050919050565b6000613c8c82613ccb565b9050919050565b60008115159050919050565b60007fffffffff0000000000000000000000000000000000000000000000000000000082169050919050565b600073ffffffffffffffffffffffffffffffffffffffff82169050919050565b6000819050919050565b600063ffffffff82169050919050565b600067ffffffffffffffff82169050919050565b600060ff82169050919050565b6000613d3182613d38565b9050919050565b6000613d4382613d4a565b9050919050565b6000613d5582613ccb565b9050919050565b82818337600083830152505050565b613d7482613e29565b810181811067ffffffffffffffff82111715613d9357613d92613dfa565b5b80604052505050565b7f4e487b7100000000000000000000000000000000000000000000000000000000600052601160045260246000fd5b7f4e487b7100000000000000000000000000000000000000000000000000000000600052601260045260246000fd5b7f4e487b7100000000000000000000000000000000000000000000000000000000600052604160045260246000fd5b6000601f19601f8301169050919050565b7f6a6f696e2063616c6c6564000000000000000000000000000000000000000000600082015250565b7f6e6578744d696c6573746f6e6500000000000000000000000000000000000000600082015250565b7f6661696c416e6457697468647261770000000000000000000000000000000000600082015250565b7f6661696c4d696c6573746f6e6500000000000000000000000000000000000000600082015250565b7f766f74652063616c6c6564000000000000000000000000000000000000000000600082015250565b7f617070726f7665416e6450617900000000000000000000000000000000000000600082015250565b7f61646a75737442616c616e636573000000000000000000000000000000000000600082015250565b613f6281613c6f565b8114613f6d57600080fd5b50565b613f7981613c93565b8114613f8457600080fd5b50565b613f9081613ceb565b8114613f9b57600080fd5b50565b613fa781613d05565b8114613fb257600080fd5b50565b613fbe81613d19565b8114613fc957600080fd5b5056fea2646970667358221220c48a262a76c3228d1b599e4377088c8e49ab3055a17dbed83a407d7923037b9f64736f6c63430008040033",
  "immutableReferences": {},
  "source": "pragma solidity ^0.8.0;\r\nimport \"@openzeppelin/contracts/utils/math/SafeMath.sol\";\r\nimport \"@openzeppelin/contracts/utils/math/Math.sol\";\r\nimport \"@openzeppelin/contracts/token/ERC721/IERC721Receiver.sol\";\r\n\r\nabstract contract Treasury {\r\n    using SafeMath for uint256;\r\n    address payable owner;\r\n\r\n    // the total balance in this treasury\r\n    // recorded at the time of vote and used to calculate equity share\r\n    uint256 totalContribution;\r\n\r\n    mapping(address => uint8) pctBalanceRemaining; // fan address => pct equity remaining\r\n    mapping(address => uint256) public equity; // fan address => contribution\r\n    mapping(address => uint256) public votingEquity; // fan address => voting rights\r\n    address payable[] public fans; // fan address to withdraw to, mirrors equity\r\n    address payable public creatorWallet;\r\n\r\n    // NOTE: the below pcts MUST ADD UP TO 100 or the constructor will reject\r\n    uint8 pctCreatorInitialDisbursement;\r\n    uint8 pctCreatorFinalDisbursement;\r\n    uint8[] public bonusTargets; // the payout percentages (out of 100) for bonus targets 0,1,2,..\r\n\r\n    uint64[] public bonusDeadlines; // the time that bonus[i] expires defaulting to NO\r\n    uint8[] public bonusPctYeasNeeded; // pct yeas needed to pass bonus[i]\r\n    uint8[] public bonusFailures; // how many times bonus[i] has failed a vote\r\n    uint8[] public bonusFailureThresholds; // how many times bonus[i] can fail before automatic withdrawal\r\n\r\n    uint64 public endTime; // the time that this contract expires and mints automatically\r\n    bool isPrecipitatingEvent; // IFF true, withdrawals can take place\r\n\r\n    uint8 public votingOn; // the current milestone that votes are tallied towards\r\n\r\n    error IncorrectPercentages();\r\n    error Unauthorized();\r\n    error TooLate();\r\n    error AlreadyPaid();\r\n    error NoEquity();\r\n    error MaxValueReached();\r\n\r\n    modifier onlyBy(address _account) {\r\n        if (msg.sender != _account) revert Unauthorized();\r\n        _;\r\n    }\r\n    modifier onlyBefore(uint64 _time) {\r\n        if (block.timestamp > _time) revert TooLate();\r\n        _;\r\n    }\r\n    modifier onlyWithEquity() {\r\n        if (equity[msg.sender] == 0) revert NoEquity();\r\n        _;\r\n    }\r\n\r\n    function balanceOf(address _owner) public view returns (uint256 balance) {\r\n        return equity[_owner].mul(pctBalanceRemaining[_owner]).div(100);\r\n    }\r\n\r\n    function equityOf(address _owner) public view returns (uint256 balance) {\r\n        return equity[_owner];\r\n    }\r\n\r\n    function withdraw() public onlyWithEquity returns (bool success) {\r\n        if (!isPrecipitatingEvent) {\r\n            return false;\r\n        }\r\n        uint256 amount = balanceOf(msg.sender);\r\n        payable(msg.sender).transfer(Math.min(amount, address(this).balance));\r\n        // Wipe balance and equity from this user\r\n        pctBalanceRemaining[msg.sender] = 0;\r\n        equity[msg.sender] = 0;\r\n        votingEquity[msg.sender] = 0;\r\n        // Subtract from total so that all other %s are correct\r\n        totalContribution -= amount;\r\n\r\n        emit Withdraw(msg.sender, amount);\r\n        return true;\r\n    }\r\n\r\n    function precipitatingEvent(bool onOff)\r\n        public\r\n        onlyBy(owner)\r\n        returns (bool success)\r\n    {\r\n        isPrecipitatingEvent = onOff;\r\n        return true;\r\n    }\r\n\r\n    function nextMilestone() private returns (bool success) {\r\n        emit Debug(\"nextMilestone\");\r\n        if (votingOn < bonusTargets.length - 1) {\r\n            votingOn += 1;\r\n        }\r\n        return true;\r\n    }\r\n\r\n    // Called by server at time of expiry - should check whether this vote\r\n    // actually succeeded and auto fail/withdraw/move on otherwise\r\n    function failMilestone() internal returns (bool success) {\r\n        emit Debug(\"failMilestone\");\r\n        bonusFailures[votingOn] += 1;\r\n        if (bonusFailures[votingOn] == bonusFailureThresholds[votingOn]) {\r\n            return failAndWithdraw();\r\n        }\r\n        return false;\r\n    }\r\n\r\n    function failAndWithdraw() internal returns (bool success) {\r\n        emit Debug(\"failAndWithdraw\");\r\n        // the amount about to be disbursed among all equity holders\r\n        uint256 disbursement = totalContribution\r\n            .mul(bonusTargets[votingOn])\r\n            .div(100);\r\n        for (uint256 i = 0; i < fans.length; i += 1) {\r\n            // calculate the equity % from totalContribution vs equity\r\n            uint256 pctContrib = equity[fans[i]].mul(100).div(\r\n                totalContribution\r\n            ); // percent * 100\r\n            fans[i].transfer(disbursement.mul(pctContrib).div(100));\r\n        }\r\n        // adjust all balances downward\r\n        adjustBalances(disbursement);\r\n\r\n        emit Failure(votingOn);\r\n        return nextMilestone();\r\n    }\r\n\r\n    function approveAndPay() internal returns (bool success) {\r\n        emit Debug(\"approveAndPay\");\r\n        if (bonusTargets[votingOn] == 0) {\r\n            revert AlreadyPaid();\r\n        }\r\n        uint256 disbursement = totalContribution\r\n            .mul(bonusTargets[votingOn])\r\n            .div(100);\r\n        creatorWallet.transfer(disbursement);\r\n        bonusTargets[votingOn] = 0;\r\n        // adjust all balances downward\r\n        adjustBalances(disbursement);\r\n\r\n        emit Approval(votingOn, disbursement, creatorWallet);\r\n        return nextMilestone();\r\n    }\r\n\r\n    function adjustBalances(uint256 disbursement)\r\n        internal\r\n        returns (bool success)\r\n    {\r\n        emit Debug(\"adjustBalances\");\r\n        // calc the % to adjust downward\r\n        uint256 pctAdjust = disbursement.mul(100).div(totalContribution);\r\n        for (uint256 i = 0; i < fans.length; i += 1) {\r\n            pctBalanceRemaining[fans[i]] -= uint8(pctAdjust);\r\n        }\r\n        return true;\r\n    }\r\n\r\n    event Withdraw(address indexed _to, uint256 _amount);\r\n    event Approval(uint8 _milestone, uint256 _amount, address _creatorWallet);\r\n    event Failure(uint8 _milestone);\r\n    event Debug(string indexed msg);\r\n}\r\n\r\ncontract Bounty is Treasury, IERC721Receiver {\r\n    using SafeMath for uint256;\r\n\r\n    mapping(address => bool) votedThisRound; // whether this address has already voted\r\n    // snapshot of funders at time of negotiation, can be withdrawn from always\r\n    mapping(address => uint256) mustRejoinTreasury;\r\n    uint64 public mustBeClaimedTime; // the time epoch at which this bounty expires if unclaimed\r\n    uint256 public maxValue; // the max value this bounty could be\r\n    uint256 public reservePrice; // the lowest value that this bounty can be, otherwise it expires\r\n    uint64 public timeLimit; // the time limit in seconds that this bounty must be completed in\r\n    uint256 public currentYeas; // yea vote weight for the current bonus\r\n    uint256 public currentNays; // nay vote weight for the current bonus\r\n    uint32 public currentVotesCast; // number of discrete votes cast for the current bonus\r\n    uint8 public status; // [UNCLAIMED, NEGOTIATING, CLAIMED, SUCCESS, FAILURE]\r\n\r\n    error VoteOver();\r\n    error AlreadyVoted();\r\n\r\n    constructor(\r\n        address payable _creatorWallet,\r\n        uint256 _maxValue,\r\n        uint256 _reservePrice,\r\n        uint8 _pctCreatorInitialDisbursement,\r\n        uint8 _pctCreatorFinalDisbursement,\r\n        uint8[] memory _bonusTargets,\r\n        uint8[] memory _bonusPctYeasNeeded,\r\n        uint8[] memory _bonusFailureThresholds,\r\n        uint64 _mustBeClaimedTime,\r\n        uint64 _timeLimit,\r\n        address payable _owner\r\n    ) {\r\n        uint8 sum = _pctCreatorInitialDisbursement +\r\n            _pctCreatorFinalDisbursement;\r\n        for (uint8 i = 0; i < _bonusTargets.length; i++) {\r\n            sum += _bonusTargets[i];\r\n        }\r\n        if (sum != 100) {\r\n            revert IncorrectPercentages();\r\n        }\r\n        creatorWallet = _creatorWallet;\r\n        maxValue = _maxValue;\r\n        reservePrice = _reservePrice;\r\n        pctCreatorInitialDisbursement = _pctCreatorInitialDisbursement;\r\n        pctCreatorFinalDisbursement = _pctCreatorFinalDisbursement;\r\n        bonusTargets = _bonusTargets;\r\n        bonusPctYeasNeeded = _bonusPctYeasNeeded;\r\n        bonusFailureThresholds = _bonusFailureThresholds;\r\n        mustBeClaimedTime = _mustBeClaimedTime;\r\n        owner = _owner;\r\n        isPrecipitatingEvent = false;\r\n        timeLimit = _timeLimit;\r\n        bonusFailures = new uint8[](bonusTargets.length);\r\n    }\r\n\r\n    function uniqueFans() public view returns (uint8 num) {\r\n        return uint8(fans.length);\r\n    }\r\n\r\n    // Returns [totalContribution, isPrecipitatingEvent, status]\r\n    function bountyStatus() public view returns (uint256[3] memory stats) {\r\n        uint256 isPrecipitatingEventNum = isPrecipitatingEvent ? 1 : 0;\r\n        return [totalContribution, isPrecipitatingEventNum, uint256(status)];\r\n    }\r\n\r\n    // Returns [milestone, yeasNeeded, yeas, nays, timesFailed, failureThreshold, totalVoters]\r\n    function voteStatus() public view returns (uint256[7] memory stats) {\r\n        return [\r\n            votingOn,\r\n            bonusPctYeasNeeded[votingOn],\r\n            currentYeas,\r\n            currentNays,\r\n            uint256(bonusFailures[votingOn]),\r\n            bonusFailureThresholds[votingOn],\r\n            currentVotesCast\r\n        ];\r\n    }\r\n\r\n    function join()\r\n        public\r\n        payable\r\n        onlyBefore(mustBeClaimedTime)\r\n        returns (bool success)\r\n    {\r\n        emit Debug(\"join called\");\r\n        if (msg.value == 0) {\r\n            revert NoEquity();\r\n        }\r\n        if (address(this).balance + msg.value >= maxValue) {\r\n            revert MaxValueReached();\r\n        }\r\n        if (equity[msg.sender] == 0 && mustRejoinTreasury[msg.sender] == 0) {\r\n            // how much have other fans paid already? disburse this % from the new number\r\n            uint8 pctRemaining = 100;\r\n            if (fans.length > 0) {\r\n                pctRemaining = pctBalanceRemaining[fans[0]];\r\n            }\r\n            if (pctRemaining != 100) {\r\n                // disburse funds to creator immediately here\r\n                uint256 disbursement = totalContribution\r\n                    .mul(100 - pctRemaining)\r\n                    .div(100);\r\n                creatorWallet.transfer(disbursement);\r\n            }\r\n            // fan not added yet\r\n            fans.push(payable(msg.sender));\r\n            pctBalanceRemaining[msg.sender] = pctRemaining;\r\n        }\r\n        equity[msg.sender] += msg.value;\r\n        totalContribution += msg.value;\r\n\r\n        checkReserveMetAndClaim();\r\n        return true;\r\n    }\r\n\r\n    function checkVote() public onlyBy(owner) returns (bool success) {\r\n        uint8 voteStat = checkVoteMarginMet();\r\n        if (voteStat != 0) {\r\n            bool result;\r\n            if (voteStat == 1) {\r\n                result = approveAndPay();\r\n            } else if (voteStat == 2) {\r\n                result = failMilestone();\r\n            }\r\n            // result is true if we took a step forward, otherwise false\r\n            if (result) {\r\n                // Wipe the state if either of these things happens\r\n                wipeStateForBonus();\r\n            }\r\n            return result;\r\n        }\r\n    }\r\n\r\n    // Returns 0 if not a done vote yet, 1 if passed, 2 if failed\r\n    function checkVoteMarginMet() private view returns (uint8 met) {\r\n        uint256 yeasNeeded = totalContribution\r\n            .mul(bonusPctYeasNeeded[votingOn])\r\n            .div(100);\r\n        if (currentYeas >= yeasNeeded) {\r\n            return 1;\r\n        } else if (currentNays >= totalContribution - yeasNeeded) {\r\n            return 2;\r\n        }\r\n        return 0;\r\n    }\r\n\r\n    function vote(uint8 _milestone, bool _vote)\r\n        public\r\n        onlyWithEquity\r\n        returns (bool success)\r\n    {\r\n        emit Debug(\"vote called\");\r\n        // Not yet claimed\r\n        if (status != 2 || _milestone != votingOn) {\r\n            revert VoteOver();\r\n        }\r\n        if (votedThisRound[msg.sender]) {\r\n            revert AlreadyVoted();\r\n        }\r\n        uint256 amount = equityOf(msg.sender);\r\n        if (_vote) {\r\n            currentYeas += amount;\r\n        } else {\r\n            currentNays += amount;\r\n        }\r\n        currentVotesCast += 1;\r\n        votedThisRound[msg.sender] = true;\r\n\r\n        emit Vote(msg.sender, _vote);\r\n\r\n        uint8 _status = checkVoteMarginMet();\r\n        if (_status != 0) {\r\n            bool result;\r\n            if (_status == 1) {\r\n                result = approveAndPay();\r\n            } else if (_status == 2) {\r\n                result = failMilestone();\r\n            }\r\n            // result is true if we took a step forward, otherwise false\r\n            if (result) {\r\n                // Wipe the state if either of these things happens\r\n                wipeStateForBonus();\r\n            }\r\n            return result;\r\n        }\r\n        return true;\r\n    }\r\n\r\n    function negotiate(\r\n        uint256 _maxValue,\r\n        uint256 _reservePrice,\r\n        uint8[] memory _bonusTargets,\r\n        uint8[] memory _bonusPctYeasNeeded,\r\n        uint8[] memory _bonusFailureThresholds,\r\n        uint64 _timeLimit\r\n    ) public onlyBy(owner) returns (bool success) {\r\n        if (status != 0) {\r\n            return false;\r\n        }\r\n        reservePrice = _reservePrice;\r\n        maxValue = _maxValue;\r\n        bonusTargets = _bonusTargets;\r\n        bonusFailureThresholds = _bonusFailureThresholds;\r\n        bonusPctYeasNeeded = _bonusPctYeasNeeded;\r\n        timeLimit = _timeLimit;\r\n        isPrecipitatingEvent = true;\r\n\r\n        // MAKE A SNAPSHOT OF THE TREASURY AND RESET\r\n        totalContribution = 0;\r\n        for (uint256 i = 0; i < fans.length; i += 1) {\r\n            mustRejoinTreasury[fans[i]] = equity[fans[i]];\r\n            equity[fans[i]] = 0;\r\n        }\r\n        status = 1; // NEGOTIATING\r\n        return true;\r\n    }\r\n\r\n    function canRejoinTreasury(address _addr)\r\n        public\r\n        view\r\n        returns (bool canRejoin)\r\n    {\r\n        return mustRejoinTreasury[_addr] != 0;\r\n    }\r\n\r\n    function negotiateRejoin(address _addr)\r\n        public\r\n        onlyBy(owner)\r\n        returns (bool success)\r\n    {\r\n        equity[_addr] += mustRejoinTreasury[_addr];\r\n        totalContribution += mustRejoinTreasury[_addr];\r\n        mustRejoinTreasury[_addr] = 0;\r\n        checkReserveMetAndClaim();\r\n        return true;\r\n    }\r\n\r\n    function negotiateLeave() public returns (bool success) {\r\n        payable(msg.sender).transfer(mustRejoinTreasury[msg.sender]);\r\n        return true;\r\n    }\r\n\r\n    function checkReserveMetAndClaim() private returns (bool success) {\r\n        if (status == 1 && totalContribution >= reservePrice) {\r\n            return claimInternal();\r\n        }\r\n        return false;\r\n    }\r\n\r\n    function negotiationStatus() public view returns (uint256[2] memory data) {\r\n        return [reservePrice, totalContribution];\r\n    }\r\n\r\n    // Async set initial state and sets the end time of this bounty according to config\r\n    function claim() public onlyBy(owner) returns (bool success) {\r\n        return claimInternal();\r\n    }\r\n\r\n    function claimInternal() private returns (bool success) {\r\n        // Already claimed\r\n        if (status >= 2) {\r\n            return false;\r\n        }\r\n        endTime = uint64(block.timestamp + timeLimit);\r\n        isPrecipitatingEvent = false;\r\n        status = 2; // CLAIMED\r\n\r\n        uint256 disbursement = totalContribution\r\n            .mul(pctCreatorInitialDisbursement)\r\n            .div(100);\r\n        creatorWallet.transfer(disbursement);\r\n        // adjust all existing balances downward\r\n        adjustBalances(disbursement);\r\n\r\n        return true;\r\n    }\r\n\r\n    function wipeStateForBonus() private returns (bool success) {\r\n        currentYeas = 0;\r\n        currentNays = 0;\r\n        currentVotesCast = 0;\r\n        for (uint256 i = 0; i < fans.length; i += 1) {\r\n            votedThisRound[fans[i]] = false;\r\n        }\r\n        return true;\r\n    }\r\n\r\n    function onERC721Received(\r\n        address _operator,\r\n        address,\r\n        uint256,\r\n        bytes memory\r\n    ) public virtual override returns (bytes4) {\r\n        if (_operator == owner) {\r\n            // COMPLETE THE BOUNTY HERE\r\n            uint256 disbursement = totalContribution\r\n                .mul(pctCreatorFinalDisbursement)\r\n                .div(100);\r\n            creatorWallet.transfer(disbursement);\r\n            // adjust all existing balances downward\r\n            adjustBalances(disbursement);\r\n            status = 3;\r\n        }\r\n        return this.onERC721Received.selector;\r\n    }\r\n\r\n    // _vote is false for nay, true for yea\r\n    event Vote(address indexed _voter, bool _vote);\r\n}\r\n",
  "sourcePath": "C:\\Users\\kumquatexpress\\projects\\polygon-hack\\web3\\contracts\\polygon\\Bounty.sol",
  "compiler": {
    "name": "solc",
    "version": "0.8.4+commit.c7e474f2.Emscripten.clang"
  },
  "schemaVersion": "3.4.4",
  "updatedAt": "2022-02-06T07:57:07.987Z",
  "devdoc": {
    "kind": "dev",
    "methods": {},
    "version": 1
  },
  "userdoc": {
    "kind": "user",
    "methods": {},
    "version": 1
  },
  "db": {
    "callBytecode": {
      "id": "0x6b0a64bfee7c8d3aac720db1335c429c3eac627900f0f54006c4fbeb8579519d"
    },
    "createBytecode": {
      "id": "0xcfcb75fc02be25fc8f12fff6085540b51f6108aff35f1bc368c4091550b8322f"
    },
    "contract": {
      "id": "0x9ba405417ac43282627c18e935d314374407e31d049a1c551174d3d1435dc924"
    }
  }
}