{
  "contractName": "Machine",
  "abi": [
    {
      "anonymous": false,
      "inputs": [
        {
          "indexed": true,
          "internalType": "address",
          "name": "configAddress",
          "type": "address"
        },
        {
          "indexed": true,
          "internalType": "address",
          "name": "sender",
          "type": "address"
        }
      ],
      "name": "Create",
      "type": "event"
    },
    {
      "inputs": [],
      "name": "owner",
      "outputs": [
        {
          "internalType": "address",
          "name": "",
          "type": "address"
        }
      ],
      "stateMutability": "view",
      "type": "function"
    },
    {
      "inputs": [
        {
          "internalType": "address payable",
          "name": "_creatorWallet",
          "type": "address"
        },
        {
          "internalType": "uint256",
          "name": "_maxValue",
          "type": "uint256"
        },
        {
          "internalType": "uint256",
          "name": "_reservePrice",
          "type": "uint256"
        },
        {
          "internalType": "uint8",
          "name": "_pctCreatorInitialDisbursement",
          "type": "uint8"
        },
        {
          "internalType": "uint8",
          "name": "_pctCreatorFinalDisbursement",
          "type": "uint8"
        },
        {
          "internalType": "uint8[]",
          "name": "_bonusTargets",
          "type": "uint8[]"
        },
        {
          "internalType": "uint8[]",
          "name": "_bonusPctYeasNeeded",
          "type": "uint8[]"
        },
        {
          "internalType": "uint8[]",
          "name": "_bonusFailureThresholds",
          "type": "uint8[]"
        },
        {
          "internalType": "uint64",
          "name": "_mustBeClaimedTime",
          "type": "uint64"
        },
        {
          "internalType": "uint64",
          "name": "_timeLimit",
          "type": "uint64"
        }
      ],
      "name": "create",
      "outputs": [
        {
          "internalType": "address",
          "name": "configAddress",
          "type": "address"
        }
      ],
      "stateMutability": "nonpayable",
      "type": "function"
    }
  ],
  "bytecode": "0x6080604052336000806101000a81548173ffffffffffffffffffffffffffffffffffffffff021916908373ffffffffffffffffffffffffffffffffffffffff16021790555034801561005057600080fd5b506157c3806100606000396000f3fe60806040523480156200001157600080fd5b506004361062000057576000357c0100000000000000000000000000000000000000000000000000000000900480638da5cb5b146200005c57806390f3e72b146200007e575b600080fd5b62000066620000b4565b604051620000759190620004e7565b60405180910390f35b6200009c6004803603810190620000969190620002c2565b620000d8565b604051620000ab9190620004e7565b60405180910390f35b60008054906101000a900473ffffffffffffffffffffffffffffffffffffffff1681565b6000808b8b8b8b8b8b8b8b8b8b60008054906101000a900473ffffffffffffffffffffffffffffffffffffffff166040516200011490620001b6565b6200012a9b9a9998979695949392919062000504565b604051809103906000f08015801562000147573d6000803e3d6000fd5b5090503373ffffffffffffffffffffffffffffffffffffffff168173ffffffffffffffffffffffffffffffffffffffff167f96b5b9b8a7193304150caccf9b80d150675fa3d6af57761d8d8ef1d6f9a1a90960405160405180910390a3809150509a9950505050505050505050565b614fd180620007bd83390190565b6000620001db620001d58462000603565b620005da565b90508083825260208201905082856020860282011115620001fb57600080fd5b60005b858110156200022f5781620002148882620002ab565b845260208401935060208301925050600181019050620001fe565b5050509392505050565b6000813590506200024a8162000754565b92915050565b600082601f8301126200026257600080fd5b813562000274848260208601620001c4565b91505092915050565b6000813590506200028e816200076e565b92915050565b600081359050620002a58162000788565b92915050565b600081359050620002bc81620007a2565b92915050565b6000806000806000806000806000806101408b8d031215620002e357600080fd5b6000620002f38d828e0162000239565b9a50506020620003068d828e016200027d565b9950506040620003198d828e016200027d565b98505060606200032c8d828e01620002ab565b97505060806200033f8d828e01620002ab565b96505060a08b013567ffffffffffffffff8111156200035d57600080fd5b6200036b8d828e0162000250565b95505060c08b013567ffffffffffffffff8111156200038957600080fd5b620003978d828e0162000250565b94505060e08b013567ffffffffffffffff811115620003b557600080fd5b620003c38d828e0162000250565b935050610100620003d78d828e0162000294565b925050610120620003eb8d828e0162000294565b9150509295989b9194979a5092959850565b60006200040b8383620004c5565b60208301905092915050565b62000422816200067f565b82525050565b62000433816200066b565b82525050565b6000620004468262000642565b6200045281856200065a565b93506200045f8362000632565b8060005b83811015620004965781516200047a8882620003fd565b975062000487836200064d565b92505060018101905062000463565b5085935050505092915050565b620004ae81620006b3565b82525050565b620004bf81620006bd565b82525050565b620004d081620006d1565b82525050565b620004e181620006d1565b82525050565b6000602082019050620004fe600083018462000428565b92915050565b6000610160820190506200051c600083018e62000417565b6200052b602083018d620004a3565b6200053a604083018c620004a3565b62000549606083018b620004d6565b62000558608083018a620004d6565b81810360a08301526200056c818962000439565b905081810360c083015262000582818862000439565b905081810360e083015262000598818762000439565b9050620005aa610100830186620004b4565b620005ba610120830185620004b4565b620005ca61014083018462000417565b9c9b505050505050505050505050565b6000620005e6620005f9565b9050620005f48282620006de565b919050565b6000604051905090565b600067ffffffffffffffff82111562000621576200062062000714565b5b602082029050602081019050919050565b6000819050602082019050919050565b600081519050919050565b6000602082019050919050565b600082825260208201905092915050565b6000620006788262000693565b9050919050565b60006200068c8262000693565b9050919050565b600073ffffffffffffffffffffffffffffffffffffffff82169050919050565b6000819050919050565b600067ffffffffffffffff82169050919050565b600060ff82169050919050565b620006e98262000743565b810181811067ffffffffffffffff821117156200070b576200070a62000714565b5b80604052505050565b7f4e487b7100000000000000000000000000000000000000000000000000000000600052604160045260246000fd5b6000601f19601f8301169050919050565b6200075f816200067f565b81146200076b57600080fd5b50565b6200077981620006b3565b81146200078557600080fd5b50565b6200079381620006bd565b81146200079f57600080fd5b50565b620007ad81620006d1565b8114620007b957600080fd5b5056fe60806040523480156200001157600080fd5b5060405162004fd138038062004fd18339818101604052810190620000379190620004ea565b6000878962000047919062000694565b905060005b87518160ff161015620000c357878160ff168151811062000096577f4e487b7100000000000000000000000000000000000000000000000000000000600052603260045260246000fd5b602002602001015182620000ab919062000694565b91508080620000ba9062000767565b9150506200004c565b5060648160ff161462000102576040517fe90c19eb00000000000000000000000000000000000000000000000000000000815260040160405180910390fd5b8b600660006101000a81548173ffffffffffffffffffffffffffffffffffffffff021916908373ffffffffffffffffffffffffffffffffffffffff1602179055508a6010819055508960118190555088600660146101000a81548160ff021916908360ff16021790555087600660156101000a81548160ff021916908360ff16021790555086600790805190602001906200019f9291906200031f565b508560099080519060200190620001b89291906200031f565b5084600b9080519060200190620001d19291906200031f565b5083600f60006101000a81548167ffffffffffffffff021916908367ffffffffffffffff160217905550816000806101000a81548173ffffffffffffffffffffffffffffffffffffffff021916908373ffffffffffffffffffffffffffffffffffffffff1602179055506000600c60086101000a81548160ff02191690831515021790555082601260006101000a81548167ffffffffffffffff021916908367ffffffffffffffff16021790555060078054905067ffffffffffffffff811115620002c5577f4e487b7100000000000000000000000000000000000000000000000000000000600052604160045260246000fd5b604051908082528060200260200182016040528015620002f45781602001602082028036833780820191505090505b50600a90805190602001906200030c9291906200031f565b505050505050505050505050506200086d565b82805482825590600052602060002090601f01602090048101928215620003ba5791602002820160005b838211156200038957835183826101000a81548160ff021916908360ff160217905550926020019260010160208160000104928301926001030262000349565b8015620003b85782816101000a81549060ff021916905560010160208160000104928301926001030262000389565b505b509050620003c99190620003cd565b5090565b5b80821115620003e8576000816000905550600101620003ce565b5090565b600062000403620003fd8462000665565b6200063c565b905080838252602082019050828560208602820111156200042357600080fd5b60005b858110156200045757816200043c8882620004d3565b84526020840193506020830192505060018101905062000426565b5050509392505050565b600081519050620004728162000805565b92915050565b600082601f8301126200048a57600080fd5b81516200049c848260208601620003ec565b91505092915050565b600081519050620004b6816200081f565b92915050565b600081519050620004cd8162000839565b92915050565b600081519050620004e48162000853565b92915050565b60008060008060008060008060008060006101608c8e0312156200050d57600080fd5b60006200051d8e828f0162000461565b9b50506020620005308e828f01620004a5565b9a50506040620005438e828f01620004a5565b9950506060620005568e828f01620004d3565b9850506080620005698e828f01620004d3565b97505060a08c015167ffffffffffffffff8111156200058757600080fd5b620005958e828f0162000478565b96505060c08c015167ffffffffffffffff811115620005b357600080fd5b620005c18e828f0162000478565b95505060e08c015167ffffffffffffffff811115620005df57600080fd5b620005ed8e828f0162000478565b945050610100620006018e828f01620004bc565b935050610120620006158e828f01620004bc565b925050610140620006298e828f0162000461565b9150509295989b509295989b9093969950565b6000620006486200065b565b905062000656828262000731565b919050565b6000604051905090565b600067ffffffffffffffff821115620006835762000682620007c5565b5b602082029050602081019050919050565b6000620006a18262000724565b9150620006ae8362000724565b92508260ff03821115620006c757620006c662000796565b5b828201905092915050565b6000620006df82620006e6565b9050919050565b600073ffffffffffffffffffffffffffffffffffffffff82169050919050565b6000819050919050565b600067ffffffffffffffff82169050919050565b600060ff82169050919050565b6200073c82620007f4565b810181811067ffffffffffffffff821117156200075e576200075d620007c5565b5b80604052505050565b6000620007748262000724565b915060ff8214156200078b576200078a62000796565b5b600182019050919050565b7f4e487b7100000000000000000000000000000000000000000000000000000000600052601160045260246000fd5b7f4e487b7100000000000000000000000000000000000000000000000000000000600052604160045260246000fd5b6000601f19601f8301169050919050565b6200081081620006d2565b81146200081c57600080fd5b50565b6200082a8162000706565b81146200083657600080fd5b50565b620008448162000710565b81146200085057600080fd5b50565b6200085e8162000724565b81146200086a57600080fd5b50565b614754806200087d6000396000f3fe608060405260043610610242576000357c010000000000000000000000000000000000000000000000000000000090048063688594b311610140578063b4bd497a116100c8578063db2e1eed1161008c578063db2e1eed146108d3578063e2fd21e8146108fe578063e885f76b1461093b578063f541c60f14610966578063f64324021461099157610242565b8063b4bd497a146107d3578063b688a36314610810578063c08d1fe51461082e578063cb0cd6b514610859578063d553ed131461089657610242565b80637f698dad1161010f5780637f698dad146106ea57806393d181131461071557806394a5c2e414610740578063a064c9d81461076b578063b0417e98146107a857610242565b8063688594b31461061a57806370a08231146106575780637ae6ee32146106945780637cdc65f2146106bf57610242565b80633197cbb6116101ce5780634bd1d75c116101925780634bd1d75c146105315780634ce2cdc71461055c5780634e71d92d146105995780635d7c58ea146105c4578063611f763f146105ef57610242565b80633197cbb614610424578063379ae0471461044f5780633ccfd60b1461048c5780633dad5c70146104b757806342bbec59146104f457610242565b8063200d2ed211610215578063200d2ed21461031757806320949bb4146103425780632808241e1461036d578063292d0c88146103aa5780632e8a498c146103e757610242565b80630f6d2db514610247578063150b7a02146102725780631b535135146102af5780631b5a3cc9146102da575b600080fd5b34801561025357600080fd5b5061025c6109bc565b6040516102699190613f5c565b60405180910390f35b34801561027e57600080fd5b50610299600480360381019061029491906138bd565b610b4b565b6040516102a69190613f99565b60405180910390f35b3480156102bb57600080fd5b506102c4610c9f565b6040516102d19190613f26565b60405180910390f35b3480156102e657600080fd5b5061030160048036038101906102fc9190613938565b610cc5565b60405161030e9190613f7e565b60405180910390f35b34801561032357600080fd5b5061032c610d72565b6040516103399190614005565b60405180910390f35b34801561034e57600080fd5b50610357610d85565b6040516103649190614005565b60405180910390f35b34801561037957600080fd5b50610394600480360381019061038f9190613a5b565b610d98565b6040516103a19190613f7e565b60405180910390f35b3480156103b657600080fd5b506103d160048036038101906103cc9190613894565b6110ea565b6040516103de9190613fb4565b60405180910390f35b3480156103f357600080fd5b5061040e60048036038101906104099190613894565b611133565b60405161041b9190613fb4565b60405180910390f35b34801561043057600080fd5b5061043961114b565b6040516104469190613fea565b60405180910390f35b34801561045b57600080fd5b5061047660048036038101906104719190613894565b611165565b6040516104839190613f7e565b60405180910390f35b34801561049857600080fd5b506104a1611333565b6040516104ae9190613f7e565b60405180910390f35b3480156104c357600080fd5b506104de60048036038101906104d99190613961565b611592565b6040516104eb9190613fea565b60405180910390f35b34801561050057600080fd5b5061051b60048036038101906105169190613961565b6115d0565b6040516105289190614005565b60405180910390f35b34801561053d57600080fd5b50610546611604565b6040516105539190613f7e565b60405180910390f35b34801561056857600080fd5b50610583600480360381019061057e9190613961565b6116d8565b6040516105909190614005565b60405180910390f35b3480156105a557600080fd5b506105ae61170c565b6040516105bb9190613f7e565b60405180910390f35b3480156105d057600080fd5b506105d96117a3565b6040516105e69190613fea565b60405180910390f35b3480156105fb57600080fd5b506106046117bd565b6040516106119190613ee8565b60405180910390f35b34801561062657600080fd5b50610641600480360381019061063c9190613961565b61184b565b60405161064e9190613ecd565b60405180910390f35b34801561066357600080fd5b5061067e60048036038101906106799190613894565b61188a565b60405161068b9190613fb4565b60405180910390f35b3480156106a057600080fd5b506106a9611947565b6040516106b69190613f0a565b60405180910390f35b3480156106cb57600080fd5b506106d4611caa565b6040516106e19190613ecd565b60405180910390f35b3480156106f657600080fd5b506106ff611cd0565b60405161070c9190614005565b60405180910390f35b34801561072157600080fd5b5061072a611cdd565b6040516107379190613fcf565b60405180910390f35b34801561074c57600080fd5b50610755611cf3565b6040516107629190613fb4565b60405180910390f35b34801561077757600080fd5b50610792600480360381019061078d919061398a565b611cf9565b60405161079f9190613f7e565b60405180910390f35b3480156107b457600080fd5b506107bd612089565b6040516107ca9190613f7e565b60405180910390f35b3480156107df57600080fd5b506107fa60048036038101906107f59190613894565b61217e565b6040516108079190613fb4565b60405180910390f35b610818612196565b6040516108259190613f7e565b60405180910390f35b34801561083a57600080fd5b506108436126e4565b6040516108509190613fea565b60405180910390f35b34801561086557600080fd5b50610880600480360381019061087b9190613961565b6126fe565b60405161088d9190614005565b60405180910390f35b3480156108a257600080fd5b506108bd60048036038101906108b89190613961565b612732565b6040516108ca9190614005565b60405180910390f35b3480156108df57600080fd5b506108e8612766565b6040516108f59190613fb4565b60405180910390f35b34801561090a57600080fd5b5061092560048036038101906109209190613894565b61276c565b6040516109329190613fb4565b60405180910390f35b34801561094757600080fd5b506109506127b5565b60405161095d9190613fb4565b60405180910390f35b34801561097257600080fd5b5061097b6127bb565b6040516109889190613fb4565b60405180910390f35b34801561099d57600080fd5b506109a66127c1565b6040516109b39190613f41565b60405180910390f35b6060600060058054905067ffffffffffffffff811115610a05577f4e487b7100000000000000000000000000000000000000000000000000000000600052604160045260246000fd5b604051908082528060200260200182016040528015610a335781602001602082028036833780820191505090505b50905060005b6005805490508160ff161015610b4357610ae0600154610ad26064610ac460058660ff1681548110610a94577f4e487b7100000000000000000000000000000000000000000000000000000000600052603260045260246000fd5b9060005260206000200160009054906101000a900473ffffffffffffffffffffffffffffffffffffffff1661276c565b61282390919063ffffffff16565b61283990919063ffffffff16565b828260ff1681518110610b1c577f4e487b7100000000000000000000000000000000000000000000000000000000600052603260045260246000fd5b602002602001019060ff16908160ff16815250508080610b3b906144c4565b915050610a39565b508091505090565b60008060009054906101000a900473ffffffffffffffffffffffffffffffffffffffff1673ffffffffffffffffffffffffffffffffffffffff168573ffffffffffffffffffffffffffffffffffffffff161415610c71576000610bde6064610bd0600660159054906101000a900460ff1660ff1660015461282390919063ffffffff16565b61283990919063ffffffff16565b9050600660009054906101000a900473ffffffffffffffffffffffffffffffffffffffff1673ffffffffffffffffffffffffffffffffffffffff166108fc829081150290604051600060405180830381858888f19350505050158015610c48573d6000803e3d6000fd5b50610c528161284f565b506004600c600a6101000a81548160ff021916908360ff160217905550505b63150b7a027c0100000000000000000000000000000000000000000000000000000000029050949350505050565b610ca7613602565b60405180604001604052806011548152602001600154815250905090565b60008060009054906101000a900473ffffffffffffffffffffffffffffffffffffffff168073ffffffffffffffffffffffffffffffffffffffff163373ffffffffffffffffffffffffffffffffffffffff1614610d4e576040517f82b4290000000000000000000000000000000000000000000000000000000000815260040160405180910390fd5b82600c60086101000a81548160ff0219169083151502179055506001915050919050565b600c600a9054906101000a900460ff1681565b600c60099054906101000a900460ff1681565b600080600360003373ffffffffffffffffffffffffffffffffffffffff1673ffffffffffffffffffffffffffffffffffffffff168152602001908152602001600020541415610e13576040517f995a2dae00000000000000000000000000000000000000000000000000000000815260040160405180910390fd5b604051610e1f90613e8e565b60405180910390207f7cdb51e9dbbc205231228146c3246e7f914aa6d4a33170e43ecc8e3593481d1a60405160405180910390a26002600c600a9054906101000a900460ff1660ff16141580610e8a5750600c60099054906101000a900460ff1660ff168360ff1614155b15610ec1576040517f4733210000000000000000000000000000000000000000000000000000000000815260040160405180910390fd5b600d60003373ffffffffffffffffffffffffffffffffffffffff1673ffffffffffffffffffffffffffffffffffffffff16815260200190815260200160002060009054906101000a900460ff1615610f45576040517f7c9a1cf900000000000000000000000000000000000000000000000000000000815260040160405180910390fd5b6000610f503361276c565b90508215610f76578060136000828254610f6a91906141dd565b92505081905550610f90565b8060146000828254610f8891906141dd565b925050819055505b6001601560008282829054906101000a900463ffffffff16610fb29190614233565b92506101000a81548163ffffffff021916908363ffffffff1602179055506001600d60003373ffffffffffffffffffffffffffffffffffffffff1673ffffffffffffffffffffffffffffffffffffffff16815260200190815260200160002060006101000a81548160ff0219169083151502179055503373ffffffffffffffffffffffffffffffffffffffff167fa635d31e67484fd1d93ba01ab0ef882e4440a78aa40d0e2771e8a2aace4598698460405161106e9190613f7e565b60405180910390a260006110806129c3565b905060008160ff16146110dd57600060018260ff1614156110aa576110a3612a9a565b90506110c2565b60028260ff1614156110c1576110be612d84565b90505b5b80156110d2576110d0612f54565b505b8093505050506110e4565b6001925050505b92915050565b6000600e60008373ffffffffffffffffffffffffffffffffffffffff1673ffffffffffffffffffffffffffffffffffffffff168152602001908152602001600020549050919050565b60036020528060005260406000206000915090505481565b600c60009054906101000a900467ffffffffffffffff1681565b60008060009054906101000a900473ffffffffffffffffffffffffffffffffffffffff168073ffffffffffffffffffffffffffffffffffffffff163373ffffffffffffffffffffffffffffffffffffffff16146111ee576040517f82b4290000000000000000000000000000000000000000000000000000000000815260040160405180910390fd5b600e60008473ffffffffffffffffffffffffffffffffffffffff1673ffffffffffffffffffffffffffffffffffffffff16815260200190815260200160002054600360008573ffffffffffffffffffffffffffffffffffffffff1673ffffffffffffffffffffffffffffffffffffffff168152602001908152602001600020600082825461127c91906141dd565b92505081905550600e60008473ffffffffffffffffffffffffffffffffffffffff1673ffffffffffffffffffffffffffffffffffffffff16815260200190815260200160002054600160008282546112d491906141dd565b925050819055506000600e60008573ffffffffffffffffffffffffffffffffffffffff1673ffffffffffffffffffffffffffffffffffffffff1681526020019081526020016000208190555061132861306f565b506001915050919050565b600080600360003373ffffffffffffffffffffffffffffffffffffffff1673ffffffffffffffffffffffffffffffffffffffff1681526020019081526020016000205414156113ae576040517f995a2dae00000000000000000000000000000000000000000000000000000000815260040160405180910390fd5b600c60089054906101000a900460ff166113cb576000905061158f565b60006113d63361188a565b90503373ffffffffffffffffffffffffffffffffffffffff166108fc611413833073ffffffffffffffffffffffffffffffffffffffff16316130b3565b9081150290604051600060405180830381858888f1935050505015801561143e573d6000803e3d6000fd5b506000600260003373ffffffffffffffffffffffffffffffffffffffff1673ffffffffffffffffffffffffffffffffffffffff16815260200190815260200160002060006101000a81548160ff021916908360ff1602179055506000600360003373ffffffffffffffffffffffffffffffffffffffff1673ffffffffffffffffffffffffffffffffffffffff168152602001908152602001600020819055506000600460003373ffffffffffffffffffffffffffffffffffffffff1673ffffffffffffffffffffffffffffffffffffffff168152602001908152602001600020819055508060016000828254611534919061432f565b925050819055503373ffffffffffffffffffffffffffffffffffffffff167f884edad9ce6fa2440d8a54cc123490eb96d2768479d49ff9c7366125a9424364826040516115819190613fb4565b60405180910390a260019150505b90565b600881815481106115a257600080fd5b9060005260206000209060049182820401919006600802915054906101000a900467ffffffffffffffff1681565b600781815481106115e057600080fd5b9060005260206000209060209182820401919006915054906101000a900460ff1681565b60003373ffffffffffffffffffffffffffffffffffffffff166108fc600e60003373ffffffffffffffffffffffffffffffffffffffff1673ffffffffffffffffffffffffffffffffffffffff168152602001908152602001600020549081150290604051600060405180830381858888f1935050505015801561168b573d6000803e3d6000fd5b506000600e60003373ffffffffffffffffffffffffffffffffffffffff1673ffffffffffffffffffffffffffffffffffffffff168152602001908152602001600020819055506001905090565b600981815481106116e857600080fd5b9060005260206000209060209182820401919006915054906101000a900460ff1681565b60008060009054906101000a900473ffffffffffffffffffffffffffffffffffffffff168073ffffffffffffffffffffffffffffffffffffffff163373ffffffffffffffffffffffffffffffffffffffff1614611795576040517f82b4290000000000000000000000000000000000000000000000000000000000815260040160405180910390fd5b61179d6130cc565b91505090565b600f60009054906101000a900467ffffffffffffffff1681565b6060600580548060200260200160405190810160405280929190818152602001828054801561184157602002820191906000526020600020905b8160009054906101000a900473ffffffffffffffffffffffffffffffffffffffff1673ffffffffffffffffffffffffffffffffffffffff16815260200190600101908083116117f7575b5050505050905090565b6005818154811061185b57600080fd5b906000526020600020016000915054906101000a900473ffffffffffffffffffffffffffffffffffffffff1681565b60006119406064611932600260008673ffffffffffffffffffffffffffffffffffffffff1673ffffffffffffffffffffffffffffffffffffffff16815260200190815260200160002060009054906101000a900460ff1660ff16600360008773ffffffffffffffffffffffffffffffffffffffff1673ffffffffffffffffffffffffffffffffffffffff1681526020019081526020016000205461282390919063ffffffff16565b61283990919063ffffffff16565b9050919050565b61194f613624565b604051806101400160405280600c60099054906101000a900460ff1660ff1681526020016007600c60099054906101000a900460ff1660ff16815481106119bf577f4e487b7100000000000000000000000000000000000000000000000000000000600052603260045260246000fd5b90600052602060002090602091828204019190069054906101000a900460ff1660ff168152602001611a7d6064611a6f6007600c60099054906101000a900460ff1660ff1681548110611a3b577f4e487b7100000000000000000000000000000000000000000000000000000000600052603260045260246000fd5b90600052602060002090602091828204019190069054906101000a900460ff1660ff1660015461282390919063ffffffff16565b61283990919063ffffffff16565b81526020016009600c60099054906101000a900460ff1660ff1681548110611ace577f4e487b7100000000000000000000000000000000000000000000000000000000600052603260045260246000fd5b90600052602060002090602091828204019190069054906101000a900460ff1660ff168152602001611b8c6064611b7e6009600c60099054906101000a900460ff1660ff1681548110611b4a577f4e487b7100000000000000000000000000000000000000000000000000000000600052603260045260246000fd5b90600052602060002090602091828204019190069054906101000a900460ff1660ff1660015461282390919063ffffffff16565b61283990919063ffffffff16565b815260200160135481526020016014548152602001600a600c60099054906101000a900460ff1660ff1681548110611bed577f4e487b7100000000000000000000000000000000000000000000000000000000600052603260045260246000fd5b90600052602060002090602091828204019190069054906101000a900460ff1660ff168152602001600b600c60099054906101000a900460ff1660ff1681548110611c61577f4e487b7100000000000000000000000000000000000000000000000000000000600052603260045260246000fd5b90600052602060002090602091828204019190069054906101000a900460ff1660ff168152602001601560009054906101000a900463ffffffff1663ffffffff16815250905090565b600660009054906101000a900473ffffffffffffffffffffffffffffffffffffffff1681565b6000600580549050905090565b601560009054906101000a900463ffffffff1681565b60105481565b60008060009054906101000a900473ffffffffffffffffffffffffffffffffffffffff168073ffffffffffffffffffffffffffffffffffffffff163373ffffffffffffffffffffffffffffffffffffffff1614611d82576040517f82b4290000000000000000000000000000000000000000000000000000000000815260040160405180910390fd5b6000600c600a9054906101000a900460ff1660ff1614611da5576000915061207e565b86601181905550876010819055508560079080519060200190611dc9929190613647565b5083600b9080519060200190611de0929190613647565b508460099080519060200190611df7929190613647565b5082601260006101000a81548167ffffffffffffffff021916908367ffffffffffffffff1602179055506001600c60086101000a81548160ff021916908315150217905550600060018190555060005b60058054905081101561205c576003600060058381548110611e92577f4e487b7100000000000000000000000000000000000000000000000000000000600052603260045260246000fd5b9060005260206000200160009054906101000a900473ffffffffffffffffffffffffffffffffffffffff1673ffffffffffffffffffffffffffffffffffffffff1673ffffffffffffffffffffffffffffffffffffffff16815260200190815260200160002054600e600060058481548110611f36577f4e487b7100000000000000000000000000000000000000000000000000000000600052603260045260246000fd5b9060005260206000200160009054906101000a900473ffffffffffffffffffffffffffffffffffffffff1673ffffffffffffffffffffffffffffffffffffffff1673ffffffffffffffffffffffffffffffffffffffff1681526020019081526020016000208190555060006003600060058481548110611fdf577f4e487b7100000000000000000000000000000000000000000000000000000000600052603260045260246000fd5b9060005260206000200160009054906101000a900473ffffffffffffffffffffffffffffffffffffffff1673ffffffffffffffffffffffffffffffffffffffff1673ffffffffffffffffffffffffffffffffffffffff1681526020019081526020016000208190555060018161205591906141dd565b9050611e47565b506001600c600a6101000a81548160ff021916908360ff160217905550600191505b509695505050505050565b60008060009054906101000a900473ffffffffffffffffffffffffffffffffffffffff168073ffffffffffffffffffffffffffffffffffffffff163373ffffffffffffffffffffffffffffffffffffffff1614612112576040517f82b4290000000000000000000000000000000000000000000000000000000000815260040160405180910390fd5b600061211c6129c3565b905060008160ff161461217857600060018260ff1614156121465761213f612a9a565b905061215e565b60028260ff16141561215d5761215a612d84565b90505b5b801561216e5761216c612f54565b505b809350505061217a565b505b5090565b60046020528060005260406000206000915090505481565b6000600f60009054906101000a900467ffffffffffffffff168067ffffffffffffffff164211156121f3576040517fecdd1c2900000000000000000000000000000000000000000000000000000000815260040160405180910390fd5b6040516121ff90613e3a565b60405180910390207f7cdb51e9dbbc205231228146c3246e7f914aa6d4a33170e43ecc8e3593481d1a60405160405180910390a2600034141561226e576040517f995a2dae00000000000000000000000000000000000000000000000000000000815260040160405180910390fd5b601054343073ffffffffffffffffffffffffffffffffffffffff163161229491906141dd565b106122cb576040517f77d09e5000000000000000000000000000000000000000000000000000000000815260040160405180910390fd5b6000600360003373ffffffffffffffffffffffffffffffffffffffff1673ffffffffffffffffffffffffffffffffffffffff1681526020019081526020016000205414801561235957506000600e60003373ffffffffffffffffffffffffffffffffffffffff1673ffffffffffffffffffffffffffffffffffffffff16815260200190815260200160002054145b156126645760006064905060006005805490501115612427576002600060056000815481106123b1577f4e487b7100000000000000000000000000000000000000000000000000000000600052603260045260246000fd5b9060005260206000200160009054906101000a900473ffffffffffffffffffffffffffffffffffffffff1673ffffffffffffffffffffffffffffffffffffffff1673ffffffffffffffffffffffffffffffffffffffff16815260200190815260200160002060009054906101000a900460ff1690505b60648160ff16146124d857600061246b606461245d8460646124499190614363565b60ff1660015461282390919063ffffffff16565b61283990919063ffffffff16565b9050600660009054906101000a900473ffffffffffffffffffffffffffffffffffffffff1673ffffffffffffffffffffffffffffffffffffffff166108fc829081150290604051600060405180830381858888f193505050501580156124d5573d6000803e3d6000fd5b50505b6000805b6005805490508160ff16101561259f573373ffffffffffffffffffffffffffffffffffffffff1660058260ff1681548110612540577f4e487b7100000000000000000000000000000000000000000000000000000000600052603260045260246000fd5b9060005260206000200160009054906101000a900473ffffffffffffffffffffffffffffffffffffffff1673ffffffffffffffffffffffffffffffffffffffff16141561258c57600191505b8080612597906144c4565b9150506124dc565b5080612609576005339080600181540180825580915050600190039060005260206000200160009091909190916101000a81548173ffffffffffffffffffffffffffffffffffffffff021916908373ffffffffffffffffffffffffffffffffffffffff1602179055505b81600260003373ffffffffffffffffffffffffffffffffffffffff1673ffffffffffffffffffffffffffffffffffffffff16815260200190815260200160002060006101000a81548160ff021916908360ff16021790555050505b34600360003373ffffffffffffffffffffffffffffffffffffffff1673ffffffffffffffffffffffffffffffffffffffff16815260200190815260200160002060008282546126b391906141dd565b9250508190555034600160008282546126cc91906141dd565b925050819055506126db61306f565b50600191505090565b601260009054906101000a900467ffffffffffffffff1681565b600b818154811061270e57600080fd5b9060005260206000209060209182820401919006915054906101000a900460ff1681565b600a818154811061274257600080fd5b9060005260206000209060209182820401919006915054906101000a900460ff1681565b60115481565b6000600360008373ffffffffffffffffffffffffffffffffffffffff1673ffffffffffffffffffffffffffffffffffffffff168152602001908152602001600020549050919050565b60135481565b60145481565b6127c96136ee565b6000600c60089054906101000a900460ff166127e65760006127e9565b60015b60ff16905060405180606001604052806001548152602001828152602001600c600a9054906101000a900460ff1660ff1681525091505090565b6000818361283191906142d5565b905092915050565b6000818361284791906142a4565b905092915050565b600060405161285d90613eb8565b60405180910390207f7cdb51e9dbbc205231228146c3246e7f914aa6d4a33170e43ecc8e3593481d1a60405160405180910390a260006128bb6001546128ad60648661282390919063ffffffff16565b61283990919063ffffffff16565b905060005b6005805490508110156129b85781600260006005848154811061290c577f4e487b7100000000000000000000000000000000000000000000000000000000600052603260045260246000fd5b9060005260206000200160009054906101000a900473ffffffffffffffffffffffffffffffffffffffff1673ffffffffffffffffffffffffffffffffffffffff1673ffffffffffffffffffffffffffffffffffffffff16815260200190815260200160002060008282829054906101000a900460ff1661298c9190614363565b92506101000a81548160ff021916908360ff1602179055506001816129b191906141dd565b90506128c0565b506001915050919050565b600080612a5c6064612a4e6009600c60099054906101000a900460ff1660ff1681548110612a1a577f4e487b7100000000000000000000000000000000000000000000000000000000600052603260045260246000fd5b90600052602060002090602091828204019190069054906101000a900460ff1660ff1660015461282390919063ffffffff16565b61283990919063ffffffff16565b90508060135410612a71576001915050612a97565b80600154612a7f919061432f565b60145410612a91576002915050612a97565b60009150505b90565b6000604051612aa890613ea3565b60405180910390207f7cdb51e9dbbc205231228146c3246e7f914aa6d4a33170e43ecc8e3593481d1a60405160405180910390a260006007600c60099054906101000a900460ff1660ff1681548110612b2a577f4e487b7100000000000000000000000000000000000000000000000000000000600052603260045260246000fd5b90600052602060002090602091828204019190069054906101000a900460ff1660ff161415612b85576040517fd70a0e3000000000000000000000000000000000000000000000000000000000815260040160405180910390fd5b6000612c1d6064612c0f6007600c60099054906101000a900460ff1660ff1681548110612bdb577f4e487b7100000000000000000000000000000000000000000000000000000000600052603260045260246000fd5b90600052602060002090602091828204019190069054906101000a900460ff1660ff1660015461282390919063ffffffff16565b61283990919063ffffffff16565b9050600660009054906101000a900473ffffffffffffffffffffffffffffffffffffffff1673ffffffffffffffffffffffffffffffffffffffff166108fc829081150290604051600060405180830381858888f19350505050158015612c87573d6000803e3d6000fd5b5060006007600c60099054906101000a900460ff1660ff1681548110612cd6577f4e487b7100000000000000000000000000000000000000000000000000000000600052603260045260246000fd5b90600052602060002090602091828204019190066101000a81548160ff021916908360ff160217905550612d098161284f565b507f0e45f244d89cea5099c0a6f24efd8cfde53e85de3cbf08c24acc387c1160ccc3600c60099054906101000a900460ff1682600660009054906101000a900473ffffffffffffffffffffffffffffffffffffffff16604051612d6e93929190614020565b60405180910390a1612d7e613236565b91505090565b6000604051612d9290613e79565b60405180910390207f7cdb51e9dbbc205231228146c3246e7f914aa6d4a33170e43ecc8e3593481d1a60405160405180910390a26001600a600c60099054906101000a900460ff1660ff1681548110612e14577f4e487b7100000000000000000000000000000000000000000000000000000000600052603260045260246000fd5b90600052602060002090602091828204019190068282829054906101000a900460ff16612e41919061426d565b92506101000a81548160ff021916908360ff160217905550600b600c60099054906101000a900460ff1660ff1681548110612ea5577f4e487b7100000000000000000000000000000000000000000000000000000000600052603260045260246000fd5b90600052602060002090602091828204019190069054906101000a900460ff1660ff16600a600c60099054906101000a900460ff1660ff1681548110612f14577f4e487b7100000000000000000000000000000000000000000000000000000000600052603260045260246000fd5b90600052602060002090602091828204019190069054906101000a900460ff1660ff161415612f4c57612f45613303565b9050612f51565b600190505b90565b60008060138190555060006014819055506000601560006101000a81548163ffffffff021916908363ffffffff16021790555060005b600580549050811015613067576000600d600060058481548110612fd7577f4e487b7100000000000000000000000000000000000000000000000000000000600052603260045260246000fd5b9060005260206000200160009054906101000a900473ffffffffffffffffffffffffffffffffffffffff1673ffffffffffffffffffffffffffffffffffffffff1673ffffffffffffffffffffffffffffffffffffffff16815260200190815260200160002060006101000a81548160ff02191690831515021790555060018161306091906141dd565b9050612f8a565b506001905090565b60006001600c600a9054906101000a900460ff1660ff16148015613097575060115460015410155b156130ab576130a46130cc565b90506130b0565b600090505b90565b60008183106130c257816130c4565b825b905092915050565b60006002600c600a9054906101000a900460ff1660ff16106130f15760009050613233565b601260009054906101000a900467ffffffffffffffff1667ffffffffffffffff164261311d91906141dd565b600c60006101000a81548167ffffffffffffffff021916908367ffffffffffffffff1602179055506000600c60086101000a81548160ff0219169083151502179055506002600c600a6101000a81548160ff021916908360ff16021790555060006131b860646131aa600660149054906101000a900460ff1660ff1660015461282390919063ffffffff16565b61283990919063ffffffff16565b9050600660009054906101000a900473ffffffffffffffffffffffffffffffffffffffff1673ffffffffffffffffffffffffffffffffffffffff166108fc829081150290604051600060405180830381858888f19350505050158015613222573d6000803e3d6000fd5b5061322c8161284f565b5060019150505b90565b600060405161324490613e4f565b60405180910390207f7cdb51e9dbbc205231228146c3246e7f914aa6d4a33170e43ecc8e3593481d1a60405160405180910390a2600160078054905061328a919061432f565b600c60099054906101000a900460ff1660ff1610156132df576001600c60098282829054906101000a900460ff166132c2919061426d565b92506101000a81548160ff021916908360ff1602179055506132fc565b6003600c600a6101000a81548160ff021916908360ff1602179055505b6001905090565b600060405161331190613e64565b60405180910390207f7cdb51e9dbbc205231228146c3246e7f914aa6d4a33170e43ecc8e3593481d1a60405160405180910390a260006133dd60646133cf6007600c60099054906101000a900460ff1660ff168154811061339b577f4e487b7100000000000000000000000000000000000000000000000000000000600052603260045260246000fd5b90600052602060002090602091828204019190069054906101000a900460ff1660ff1660015461282390919063ffffffff16565b61283990919063ffffffff16565b905060005b6005805490508110156135a35760006134bc6001546134ae6064600360006005888154811061343a577f4e487b7100000000000000000000000000000000000000000000000000000000600052603260045260246000fd5b9060005260206000200160009054906101000a900473ffffffffffffffffffffffffffffffffffffffff1673ffffffffffffffffffffffffffffffffffffffff1673ffffffffffffffffffffffffffffffffffffffff1681526020019081526020016000205461282390919063ffffffff16565b61283990919063ffffffff16565b9050600582815481106134f8577f4e487b7100000000000000000000000000000000000000000000000000000000600052603260045260246000fd5b9060005260206000200160009054906101000a900473ffffffffffffffffffffffffffffffffffffffff1673ffffffffffffffffffffffffffffffffffffffff166108fc6135626064613554858861282390919063ffffffff16565b61283990919063ffffffff16565b9081150290604051600060405180830381858888f1935050505015801561358d573d6000803e3d6000fd5b505060018161359c91906141dd565b90506133e2565b506135ad8161284f565b507f230739317a7f90b018762e0570d567293eac14d67441b810f714879dd6aed0bf600c60099054906101000a900460ff166040516135ec9190614005565b60405180910390a16135fc613236565b91505090565b6040518060400160405280600290602082028036833780820191505090505090565b604051806101400160405280600a90602082028036833780820191505090505090565b82805482825590600052602060002090601f016020900481019282156136dd5791602002820160005b838211156136ae57835183826101000a81548160ff021916908360ff1602179055509260200192600101602081600001049283019260010302613670565b80156136db5782816101000a81549060ff02191690556001016020816000010492830192600103026136ae565b505b5090506136ea9190613710565b5090565b6040518060600160405280600390602082028036833780820191505090505090565b5b80821115613729576000816000905550600101613711565b5090565b600061374061373b8461407c565b614057565b9050808382526020820190508285602086028201111561375f57600080fd5b60005b8581101561378f5781613775888261387f565b845260208401935060208301925050600181019050613762565b5050509392505050565b60006137ac6137a7846140a8565b614057565b9050828152602081018484840111156137c457600080fd5b6137cf848285614484565b509392505050565b6000813590506137e6816146ab565b92915050565b600082601f8301126137fd57600080fd5b813561380d84826020860161372d565b91505092915050565b600081359050613825816146c2565b92915050565b600082601f83011261383c57600080fd5b813561384c848260208601613799565b91505092915050565b600081359050613864816146d9565b92915050565b600081359050613879816146f0565b92915050565b60008135905061388e81614707565b92915050565b6000602082840312156138a657600080fd5b60006138b4848285016137d7565b91505092915050565b600080600080608085870312156138d357600080fd5b60006138e1878288016137d7565b94505060206138f2878288016137d7565b935050604061390387828801613855565b925050606085013567ffffffffffffffff81111561392057600080fd5b61392c8782880161382b565b91505092959194509250565b60006020828403121561394a57600080fd5b600061395884828501613816565b91505092915050565b60006020828403121561397357600080fd5b600061398184828501613855565b91505092915050565b60008060008060008060c087890312156139a357600080fd5b60006139b189828a01613855565b96505060206139c289828a01613855565b955050604087013567ffffffffffffffff8111156139df57600080fd5b6139eb89828a016137ec565b945050606087013567ffffffffffffffff811115613a0857600080fd5b613a1489828a016137ec565b935050608087013567ffffffffffffffff811115613a3157600080fd5b613a3d89828a016137ec565b92505060a0613a4e89828a0161386a565b9150509295509295509295565b60008060408385031215613a6e57600080fd5b6000613a7c8582860161387f565b9250506020613a8d85828601613816565b9150509250929050565b6000613aa38383613aee565b60208301905092915050565b6000613abb8383613de0565b60208301905092915050565b6000613ad38383613e1c565b60208301905092915050565b613ae88161444e565b82525050565b613af7816143a9565b82525050565b613b06816143a9565b82525050565b6000613b1782614117565b613b21818561418f565b9350613b2c836140d9565b8060005b83811015613b5d578151613b448882613a97565b9750613b4f8361414e565b925050600181019050613b30565b5085935050505092915050565b613b7381614122565b613b7d81846141a0565b9250613b88826140e9565b8060005b83811015613bb9578151613ba08782613aaf565b9650613bab8361415b565b925050600181019050613b8c565b505050505050565b613bca8161412d565b613bd481846141ab565b9250613bdf826140f3565b8060005b83811015613c10578151613bf78782613aaf565b9650613c0283614168565b925050600181019050613be3565b505050505050565b613c2181614138565b613c2b81846141b6565b9250613c36826140fd565b8060005b83811015613c67578151613c4e8782613aaf565b9650613c5983614175565b925050600181019050613c3a565b505050505050565b6000613c7a82614143565b613c8481856141c1565b9350613c8f83614107565b8060005b83811015613cc0578151613ca78882613ac7565b9750613cb283614182565b925050600181019050613c93565b5085935050505092915050565b613cd6816143bb565b82525050565b613ce5816143c7565b82525050565b6000613cf8600b836141d2565b9150613d038261458c565b600b82019050919050565b6000613d1b600d836141d2565b9150613d26826145b5565b600d82019050919050565b6000613d3e600f836141d2565b9150613d49826145de565b600f82019050919050565b6000613d61600d836141d2565b9150613d6c82614607565b600d82019050919050565b6000613d84600b836141d2565b9150613d8f82614630565b600b82019050919050565b6000613da7600d836141d2565b9150613db282614659565b600d82019050919050565b6000613dca600e836141d2565b9150613dd582614682565b600e82019050919050565b613de981614413565b82525050565b613df881614413565b82525050565b613e078161441d565b82525050565b613e168161442d565b82525050565b613e2581614441565b82525050565b613e3481614441565b82525050565b6000613e4582613ceb565b9150819050919050565b6000613e5a82613d0e565b9150819050919050565b6000613e6f82613d31565b9150819050919050565b6000613e8482613d54565b9150819050919050565b6000613e9982613d77565b9150819050919050565b6000613eae82613d9a565b9150819050919050565b6000613ec382613dbd565b9150819050919050565b6000602082019050613ee26000830184613afd565b92915050565b60006020820190508181036000830152613f028184613b0c565b905092915050565b600061014082019050613f206000830184613b6a565b92915050565b6000604082019050613f3b6000830184613bc1565b92915050565b6000606082019050613f566000830184613c18565b92915050565b60006020820190508181036000830152613f768184613c6f565b905092915050565b6000602082019050613f936000830184613ccd565b92915050565b6000602082019050613fae6000830184613cdc565b92915050565b6000602082019050613fc96000830184613def565b92915050565b6000602082019050613fe46000830184613dfe565b92915050565b6000602082019050613fff6000830184613e0d565b92915050565b600060208201905061401a6000830184613e2b565b92915050565b60006060820190506140356000830186613e2b565b6140426020830185613def565b61404f6040830184613adf565b949350505050565b6000614061614072565b905061406d8282614493565b919050565b6000604051905090565b600067ffffffffffffffff8211156140975761409661454c565b5b602082029050602081019050919050565b600067ffffffffffffffff8211156140c3576140c261454c565b5b6140cc8261457b565b9050602081019050919050565b6000819050602082019050919050565b6000819050919050565b6000819050919050565b6000819050919050565b6000819050602082019050919050565b600081519050919050565b6000600a9050919050565b600060029050919050565b600060039050919050565b600081519050919050565b6000602082019050919050565b6000602082019050919050565b6000602082019050919050565b6000602082019050919050565b6000602082019050919050565b600082825260208201905092915050565b600081905092915050565b600081905092915050565b600081905092915050565b600082825260208201905092915050565b600081905092915050565b60006141e882614413565b91506141f383614413565b9250827fffffffffffffffffffffffffffffffffffffffffffffffffffffffffffffffff03821115614228576142276144ee565b5b828201905092915050565b600061423e8261441d565b91506142498361441d565b92508263ffffffff03821115614262576142616144ee565b5b828201905092915050565b600061427882614441565b915061428383614441565b92508260ff03821115614299576142986144ee565b5b828201905092915050565b60006142af82614413565b91506142ba83614413565b9250826142ca576142c961451d565b5b828204905092915050565b60006142e082614413565b91506142eb83614413565b9250817fffffffffffffffffffffffffffffffffffffffffffffffffffffffffffffffff0483118215151615614324576143236144ee565b5b828202905092915050565b600061433a82614413565b915061434583614413565b925082821015614358576143576144ee565b5b828203905092915050565b600061436e82614441565b915061437983614441565b92508282101561438c5761438b6144ee565b5b828203905092915050565b60006143a2826143f3565b9050919050565b60006143b4826143f3565b9050919050565b60008115159050919050565b60007fffffffff0000000000000000000000000000000000000000000000000000000082169050919050565b600073ffffffffffffffffffffffffffffffffffffffff82169050919050565b6000819050919050565b600063ffffffff82169050919050565b600067ffffffffffffffff82169050919050565b600060ff82169050919050565b600061445982614460565b9050919050565b600061446b82614472565b9050919050565b600061447d826143f3565b9050919050565b82818337600083830152505050565b61449c8261457b565b810181811067ffffffffffffffff821117156144bb576144ba61454c565b5b80604052505050565b60006144cf82614441565b915060ff8214156144e3576144e26144ee565b5b600182019050919050565b7f4e487b7100000000000000000000000000000000000000000000000000000000600052601160045260246000fd5b7f4e487b7100000000000000000000000000000000000000000000000000000000600052601260045260246000fd5b7f4e487b7100000000000000000000000000000000000000000000000000000000600052604160045260246000fd5b6000601f19601f8301169050919050565b7f6a6f696e2063616c6c6564000000000000000000000000000000000000000000600082015250565b7f6e6578744d696c6573746f6e6500000000000000000000000000000000000000600082015250565b7f6661696c416e6457697468647261770000000000000000000000000000000000600082015250565b7f6661696c4d696c6573746f6e6500000000000000000000000000000000000000600082015250565b7f766f74652063616c6c6564000000000000000000000000000000000000000000600082015250565b7f617070726f7665416e6450617900000000000000000000000000000000000000600082015250565b7f61646a75737442616c616e636573000000000000000000000000000000000000600082015250565b6146b481614397565b81146146bf57600080fd5b50565b6146cb816143bb565b81146146d657600080fd5b50565b6146e281614413565b81146146ed57600080fd5b50565b6146f98161442d565b811461470457600080fd5b50565b61471081614441565b811461471b57600080fd5b5056fea2646970667358221220f0e1a4e393848d041abcbd0d23616377a759ddbc83c4358fee631cd6affa75e964736f6c63430008040033a264697066735822122086355e97e514176694e59e94bb4a29ad0df93e3576eeec2af6211f2adb6ae0bc64736f6c63430008040033",
  "immutableReferences": {},
  "source": "// SPDX-License-Identifier: MIT\r\npragma solidity ^0.8.0;\r\n\r\nimport \"./Bounty.sol\";\r\n\r\ncontract Machine {\r\n    address public owner = msg.sender;\r\n\r\n    event Create(address indexed configAddress, address indexed sender);\r\n\r\n    function create(\r\n        address payable _creatorWallet,\r\n        uint256 _maxValue,\r\n        uint256 _reservePrice,\r\n        uint8 _pctCreatorInitialDisbursement,\r\n        uint8 _pctCreatorFinalDisbursement,\r\n        uint8[] memory _bonusTargets,\r\n        uint8[] memory _bonusPctYeasNeeded,\r\n        uint8[] memory _bonusFailureThresholds,\r\n        uint64 _mustBeClaimedTime,\r\n        uint64 _timeLimit\r\n    ) public returns (address configAddress) {\r\n        address config = address(\r\n            new Bounty(\r\n                _creatorWallet,\r\n                _maxValue,\r\n                _reservePrice,\r\n                _pctCreatorInitialDisbursement,\r\n                _pctCreatorFinalDisbursement,\r\n                _bonusTargets,\r\n                _bonusPctYeasNeeded,\r\n                _bonusFailureThresholds,\r\n                _mustBeClaimedTime,\r\n                _timeLimit,\r\n                payable(owner)\r\n            )\r\n        );\r\n        emit Create(config, msg.sender);\r\n        return config;\r\n    }\r\n}\r\n",
  "sourcePath": "C:\\Users\\kumquatexpress\\projects\\polygon-hack\\web3\\contracts\\polygon\\Machine.sol",
  "compiler": {
    "name": "solc",
    "version": "0.8.4+commit.c7e474f2.Emscripten.clang"
  },
  "schemaVersion": "3.4.4",
  "updatedAt": "2022-02-09T03:13:10.636Z",
  "networkType": "ethereum",
  "devdoc": {
    "kind": "dev",
    "methods": {},
    "version": 1
  },
  "userdoc": {
    "kind": "user",
    "methods": {},
    "version": 1
  },
  "db": {
    "callBytecode": {
      "id": "0xcf61cb3f6d22308f6404b6e2d12fc95bac155aa0b4e86a93b5acadefb308c068"
    },
    "createBytecode": {
      "id": "0x348a8e90383f59f0e1b9e516b952485b07a6bd4d2823be6afeace0f202b1ecbf"
    },
    "contract": {
      "id": "0xd3f79cbb8c5f9634eefd21dcb53e1b9e9f98caaea3d8b533a0fb473209dba9e1"
    }
  }
}