{
  "contractName": "Bounty",
  "abi": [
    {
      "inputs": [
        {
          "internalType": "address payable",
          "name": "_creatorWallet",
          "type": "address"
        },
        {
          "internalType": "uint256",
          "name": "_maxValue",
          "type": "uint256"
        },
        {
          "internalType": "uint256",
          "name": "_reservePrice",
          "type": "uint256"
        },
        {
          "internalType": "uint8[]",
          "name": "_bonusTargets",
          "type": "uint8[]"
        },
        {
          "internalType": "uint8[]",
          "name": "_bonusPctYeasNeeded",
          "type": "uint8[]"
        },
        {
          "internalType": "uint8[]",
          "name": "_bonusFailureThresholds",
          "type": "uint8[]"
        },
        {
          "internalType": "uint64",
          "name": "_mustBeClaimedTime",
          "type": "uint64"
        },
        {
          "internalType": "uint64",
          "name": "_timeLimit",
          "type": "uint64"
        },
        {
          "internalType": "address payable",
          "name": "_owner",
          "type": "address"
        }
      ],
      "stateMutability": "nonpayable",
      "type": "constructor"
    },
    {
      "inputs": [],
      "name": "AlreadyPaid",
      "type": "error"
    },
    {
      "inputs": [],
      "name": "AlreadyVoted",
      "type": "error"
    },
    {
      "inputs": [],
      "name": "MaxValueReached",
      "type": "error"
    },
    {
      "inputs": [],
      "name": "NoEquity",
      "type": "error"
    },
    {
      "inputs": [],
      "name": "TooLate",
      "type": "error"
    },
    {
      "inputs": [],
      "name": "Unauthorized",
      "type": "error"
    },
    {
      "inputs": [],
      "name": "VoteOver",
      "type": "error"
    },
    {
      "anonymous": false,
      "inputs": [
        {
          "indexed": false,
          "internalType": "uint8",
          "name": "_milestone",
          "type": "uint8"
        },
        {
          "indexed": false,
          "internalType": "uint256",
          "name": "_amount",
          "type": "uint256"
        },
        {
          "indexed": false,
          "internalType": "address",
          "name": "_creatorWallet",
          "type": "address"
        }
      ],
      "name": "Approval",
      "type": "event"
    },
    {
      "anonymous": false,
      "inputs": [
        {
          "indexed": true,
          "internalType": "string",
          "name": "msg",
          "type": "string"
        }
      ],
      "name": "Debug",
      "type": "event"
    },
    {
      "anonymous": false,
      "inputs": [
        {
          "indexed": false,
          "internalType": "uint8",
          "name": "_milestone",
          "type": "uint8"
        }
      ],
      "name": "Failure",
      "type": "event"
    },
    {
      "anonymous": false,
      "inputs": [
        {
          "indexed": true,
          "internalType": "address",
          "name": "_voter",
          "type": "address"
        },
        {
          "indexed": false,
          "internalType": "bool",
          "name": "_vote",
          "type": "bool"
        }
      ],
      "name": "Vote",
      "type": "event"
    },
    {
      "anonymous": false,
      "inputs": [
        {
          "indexed": true,
          "internalType": "address",
          "name": "_to",
          "type": "address"
        },
        {
          "indexed": false,
          "internalType": "uint256",
          "name": "_amount",
          "type": "uint256"
        }
      ],
      "name": "Withdraw",
      "type": "event"
    },
    {
      "inputs": [
        {
          "internalType": "address",
          "name": "_owner",
          "type": "address"
        }
      ],
      "name": "balanceOf",
      "outputs": [
        {
          "internalType": "uint256",
          "name": "balance",
          "type": "uint256"
        }
      ],
      "stateMutability": "view",
      "type": "function"
    },
    {
      "inputs": [
        {
          "internalType": "uint256",
          "name": "",
          "type": "uint256"
        }
      ],
      "name": "bonusDeadlines",
      "outputs": [
        {
          "internalType": "uint64",
          "name": "",
          "type": "uint64"
        }
      ],
      "stateMutability": "view",
      "type": "function"
    },
    {
      "inputs": [
        {
          "internalType": "uint256",
          "name": "",
          "type": "uint256"
        }
      ],
      "name": "bonusFailureThresholds",
      "outputs": [
        {
          "internalType": "uint8",
          "name": "",
          "type": "uint8"
        }
      ],
      "stateMutability": "view",
      "type": "function"
    },
    {
      "inputs": [
        {
          "internalType": "uint256",
          "name": "",
          "type": "uint256"
        }
      ],
      "name": "bonusFailures",
      "outputs": [
        {
          "internalType": "uint8",
          "name": "",
          "type": "uint8"
        }
      ],
      "stateMutability": "view",
      "type": "function"
    },
    {
      "inputs": [
        {
          "internalType": "uint256",
          "name": "",
          "type": "uint256"
        }
      ],
      "name": "bonusPctYeasNeeded",
      "outputs": [
        {
          "internalType": "uint8",
          "name": "",
          "type": "uint8"
        }
      ],
      "stateMutability": "view",
      "type": "function"
    },
    {
      "inputs": [
        {
          "internalType": "uint256",
          "name": "",
          "type": "uint256"
        }
      ],
      "name": "bonusTargets",
      "outputs": [
        {
          "internalType": "uint8",
          "name": "",
          "type": "uint8"
        }
      ],
      "stateMutability": "view",
      "type": "function"
    },
    {
      "inputs": [],
      "name": "creatorWallet",
      "outputs": [
        {
          "internalType": "address payable",
          "name": "",
          "type": "address"
        }
      ],
      "stateMutability": "view",
      "type": "function"
    },
    {
      "inputs": [],
      "name": "currentNays",
      "outputs": [
        {
          "internalType": "uint256",
          "name": "",
          "type": "uint256"
        }
      ],
      "stateMutability": "view",
      "type": "function"
    },
    {
      "inputs": [],
      "name": "currentVotesCast",
      "outputs": [
        {
          "internalType": "uint32",
          "name": "",
          "type": "uint32"
        }
      ],
      "stateMutability": "view",
      "type": "function"
    },
    {
      "inputs": [],
      "name": "currentYeas",
      "outputs": [
        {
          "internalType": "uint256",
          "name": "",
          "type": "uint256"
        }
      ],
      "stateMutability": "view",
      "type": "function"
    },
    {
      "inputs": [],
      "name": "endTime",
      "outputs": [
        {
          "internalType": "uint64",
          "name": "",
          "type": "uint64"
        }
      ],
      "stateMutability": "view",
      "type": "function"
    },
    {
      "inputs": [
        {
          "internalType": "address",
          "name": "",
          "type": "address"
        }
      ],
      "name": "equity",
      "outputs": [
        {
          "internalType": "uint256",
          "name": "",
          "type": "uint256"
        }
      ],
      "stateMutability": "view",
      "type": "function"
    },
    {
      "inputs": [
        {
          "internalType": "address",
          "name": "_owner",
          "type": "address"
        }
      ],
      "name": "equityOf",
      "outputs": [
        {
          "internalType": "uint256",
          "name": "balance",
          "type": "uint256"
        }
      ],
      "stateMutability": "view",
      "type": "function"
    },
    {
      "inputs": [
        {
          "internalType": "uint256",
          "name": "",
          "type": "uint256"
        }
      ],
      "name": "fans",
      "outputs": [
        {
          "internalType": "address payable",
          "name": "",
          "type": "address"
        }
      ],
      "stateMutability": "view",
      "type": "function"
    },
    {
      "inputs": [],
      "name": "maxValue",
      "outputs": [
        {
          "internalType": "uint256",
          "name": "",
          "type": "uint256"
        }
      ],
      "stateMutability": "view",
      "type": "function"
    },
    {
      "inputs": [],
      "name": "mustBeClaimedTime",
      "outputs": [
        {
          "internalType": "uint64",
          "name": "",
          "type": "uint64"
        }
      ],
      "stateMutability": "view",
      "type": "function"
    },
    {
      "inputs": [
        {
          "internalType": "bool",
          "name": "onOff",
          "type": "bool"
        }
      ],
      "name": "precipitatingEvent",
      "outputs": [
        {
          "internalType": "bool",
          "name": "success",
          "type": "bool"
        }
      ],
      "stateMutability": "nonpayable",
      "type": "function"
    },
    {
      "inputs": [],
      "name": "reservePrice",
      "outputs": [
        {
          "internalType": "uint256",
          "name": "",
          "type": "uint256"
        }
      ],
      "stateMutability": "view",
      "type": "function"
    },
    {
      "inputs": [],
      "name": "status",
      "outputs": [
        {
          "internalType": "uint8",
          "name": "",
          "type": "uint8"
        }
      ],
      "stateMutability": "view",
      "type": "function"
    },
    {
      "inputs": [],
      "name": "timeLimit",
      "outputs": [
        {
          "internalType": "uint64",
          "name": "",
          "type": "uint64"
        }
      ],
      "stateMutability": "view",
      "type": "function"
    },
    {
      "inputs": [
        {
          "internalType": "address",
          "name": "",
          "type": "address"
        }
      ],
      "name": "votingEquity",
      "outputs": [
        {
          "internalType": "uint256",
          "name": "",
          "type": "uint256"
        }
      ],
      "stateMutability": "view",
      "type": "function"
    },
    {
      "inputs": [],
      "name": "votingOn",
      "outputs": [
        {
          "internalType": "uint8",
          "name": "",
          "type": "uint8"
        }
      ],
      "stateMutability": "view",
      "type": "function"
    },
    {
      "inputs": [],
      "name": "withdraw",
      "outputs": [
        {
          "internalType": "bool",
          "name": "success",
          "type": "bool"
        }
      ],
      "stateMutability": "nonpayable",
      "type": "function"
    },
    {
      "inputs": [],
      "name": "uniqueFans",
      "outputs": [
        {
          "internalType": "uint8",
          "name": "num",
          "type": "uint8"
        }
      ],
      "stateMutability": "view",
      "type": "function"
    },
    {
      "inputs": [],
      "name": "voteStatus",
      "outputs": [
        {
          "internalType": "uint256[7]",
          "name": "stats",
          "type": "uint256[7]"
        }
      ],
      "stateMutability": "view",
      "type": "function"
    },
    {
      "inputs": [],
      "name": "join",
      "outputs": [
        {
          "internalType": "bool",
          "name": "success",
          "type": "bool"
        }
      ],
      "stateMutability": "payable",
      "type": "function"
    },
    {
      "inputs": [],
      "name": "checkVote",
      "outputs": [
        {
          "internalType": "bool",
          "name": "success",
          "type": "bool"
        }
      ],
      "stateMutability": "nonpayable",
      "type": "function"
    },
    {
      "inputs": [
        {
          "internalType": "uint8",
          "name": "_milestone",
          "type": "uint8"
        },
        {
          "internalType": "bool",
          "name": "_vote",
          "type": "bool"
        }
      ],
      "name": "vote",
      "outputs": [
        {
          "internalType": "bool",
          "name": "success",
          "type": "bool"
        }
      ],
      "stateMutability": "nonpayable",
      "type": "function"
    },
    {
      "inputs": [
        {
          "internalType": "uint256",
          "name": "_maxValue",
          "type": "uint256"
        },
        {
          "internalType": "uint256",
          "name": "_reservePrice",
          "type": "uint256"
        },
        {
          "internalType": "uint8[]",
          "name": "_bonusTargets",
          "type": "uint8[]"
        },
        {
          "internalType": "uint8[]",
          "name": "_bonusPctYeasNeeded",
          "type": "uint8[]"
        },
        {
          "internalType": "uint8[]",
          "name": "_bonusFailureThresholds",
          "type": "uint8[]"
        },
        {
          "internalType": "uint64",
          "name": "_timeLimit",
          "type": "uint64"
        }
      ],
      "name": "negotiate",
      "outputs": [
        {
          "internalType": "bool",
          "name": "success",
          "type": "bool"
        }
      ],
      "stateMutability": "nonpayable",
      "type": "function"
    },
    {
      "inputs": [],
      "name": "claim",
      "outputs": [
        {
          "internalType": "bool",
          "name": "success",
          "type": "bool"
        }
      ],
      "stateMutability": "nonpayable",
      "type": "function"
    }
  ],
  "bytecode": "0x60806040523480156200001157600080fd5b506040516200388b3803806200388b8339818101604052810190620000379190620003e6565b88600660006101000a81548173ffffffffffffffffffffffffffffffffffffffff021916908373ffffffffffffffffffffffffffffffffffffffff16021790555087600f819055508660108190555085600790805190602001906200009e9291906200021b565b508460099080519060200190620000b79291906200021b565b5083600b9080519060200190620000d09291906200021b565b5082600e60006101000a81548167ffffffffffffffff021916908367ffffffffffffffff160217905550806000806101000a81548173ffffffffffffffffffffffffffffffffffffffff021916908373ffffffffffffffffffffffffffffffffffffffff1602179055506001600c60086101000a81548160ff02191690831515021790555081601160006101000a81548167ffffffffffffffff021916908367ffffffffffffffff16021790555060078054905067ffffffffffffffff811115620001c4577f4e487b7100000000000000000000000000000000000000000000000000000000600052604160045260246000fd5b604051908082528060200260200182016040528015620001f35781602001602082028036833780820191505090505b50600a90805190602001906200020b9291906200021b565b505050505050505050506200069f565b82805482825590600052602060002090601f01602090048101928215620002b65791602002820160005b838211156200028557835183826101000a81548160ff021916908360ff160217905550926020019260010160208160000104928301926001030262000245565b8015620002b45782816101000a81549060ff021916905560010160208160000104928301926001030262000285565b505b509050620002c59190620002c9565b5090565b5b80821115620002e4576000816000905550600101620002ca565b5090565b6000620002ff620002f98462000533565b6200050a565b905080838252602082019050828560208602820111156200031f57600080fd5b60005b85811015620003535781620003388882620003cf565b84526020840193506020830192505060018101905062000322565b5050509392505050565b6000815190506200036e8162000637565b92915050565b600082601f8301126200038657600080fd5b815162000398848260208601620002e8565b91505092915050565b600081519050620003b28162000651565b92915050565b600081519050620003c9816200066b565b92915050565b600081519050620003e08162000685565b92915050565b60008060008060008060008060006101208a8c0312156200040657600080fd5b6000620004168c828d016200035d565b9950506020620004298c828d01620003a1565b98505060406200043c8c828d01620003a1565b97505060608a015167ffffffffffffffff8111156200045a57600080fd5b620004688c828d0162000374565b96505060808a015167ffffffffffffffff8111156200048657600080fd5b620004948c828d0162000374565b95505060a08a015167ffffffffffffffff811115620004b257600080fd5b620004c08c828d0162000374565b94505060c0620004d38c828d01620003b8565b93505060e0620004e68c828d01620003b8565b925050610100620004fa8c828d016200035d565b9150509295985092959850929598565b60006200051662000529565b9050620005248282620005c1565b919050565b6000604051905090565b600067ffffffffffffffff821115620005515762000550620005f7565b5b602082029050602081019050919050565b60006200056f8262000576565b9050919050565b600073ffffffffffffffffffffffffffffffffffffffff82169050919050565b6000819050919050565b600067ffffffffffffffff82169050919050565b600060ff82169050919050565b620005cc8262000626565b810181811067ffffffffffffffff82111715620005ee57620005ed620005f7565b5b80604052505050565b7f4e487b7100000000000000000000000000000000000000000000000000000000600052604160045260246000fd5b6000601f19601f8301169050919050565b620006428162000562565b81146200064e57600080fd5b50565b6200065c8162000596565b81146200066857600080fd5b50565b6200067681620005a0565b81146200068257600080fd5b50565b6200069081620005b4565b81146200069c57600080fd5b50565b6131dc80620006af6000396000f3fe6080604052600436106101ea576000357c0100000000000000000000000000000000000000000000000000000000900480637cdc65f211610114578063b688a363116100b2578063db2e1eed11610081578063db2e1eed14610718578063e2fd21e814610743578063e885f76b14610780578063f541c60f146107ab576101ea565b8063b688a36314610655578063c08d1fe514610673578063cb0cd6b51461069e578063d553ed13146106db576101ea565b806394a5c2e4116100ee57806394a5c2e414610585578063a064c9d8146105b0578063b0417e98146105ed578063b4bd497a14610618576101ea565b80637cdc65f2146105045780637f698dad1461052f57806393d181131461055a576101ea565b80633dad5c701161018c5780635d7c58ea1161015b5780635d7c58ea14610434578063688594b31461045f57806370a082311461049c5780637ae6ee32146104d9576101ea565b80633dad5c701461035257806342bbec591461038f5780634ce2cdc7146103cc5780634e71d92d14610409576101ea565b80632808241e116101c85780632808241e146102825780632e8a498c146102bf5780633197cbb6146102fc5780633ccfd60b14610327576101ea565b80631b5a3cc9146101ef578063200d2ed21461022c57806320949bb414610257575b600080fd5b3480156101fb57600080fd5b506102166004803603810190610211919061277f565b6107d6565b6040516102239190612b83565b60405180910390f35b34801561023857600080fd5b50610241610883565b60405161024e9190612bef565b60405180910390f35b34801561026357600080fd5b5061026c610896565b6040516102799190612bef565b60405180910390f35b34801561028e57600080fd5b506102a960048036038101906102a491906128a2565b6108a9565b6040516102b69190612b83565b60405180910390f35b3480156102cb57600080fd5b506102e660048036038101906102e19190612756565b610bfa565b6040516102f39190612b9e565b60405180910390f35b34801561030857600080fd5b50610311610c12565b60405161031e9190612bd4565b60405180910390f35b34801561033357600080fd5b5061033c610c2c565b6040516103499190612b83565b60405180910390f35b34801561035e57600080fd5b50610379600480360381019061037491906127a8565b610e8b565b6040516103869190612bd4565b60405180910390f35b34801561039b57600080fd5b506103b660048036038101906103b191906127a8565b610ec9565b6040516103c39190612bef565b60405180910390f35b3480156103d857600080fd5b506103f360048036038101906103ee91906127a8565b610efd565b6040516104009190612bef565b60405180910390f35b34801561041557600080fd5b5061041e610f31565b60405161042b9190612b83565b60405180910390f35b34801561044057600080fd5b50610449611071565b6040516104569190612bd4565b60405180910390f35b34801561046b57600080fd5b50610486600480360381019061048191906127a8565b61108b565b6040516104939190612b4d565b60405180910390f35b3480156104a857600080fd5b506104c360048036038101906104be9190612756565b6110ca565b6040516104d09190612b9e565b60405180910390f35b3480156104e557600080fd5b506104ee611187565b6040516104fb9190612b68565b60405180910390f35b34801561051057600080fd5b5061051961133f565b6040516105269190612b4d565b60405180910390f35b34801561053b57600080fd5b50610544611365565b6040516105519190612bef565b60405180910390f35b34801561056657600080fd5b5061056f611372565b60405161057c9190612bb9565b60405180910390f35b34801561059157600080fd5b5061059a611388565b6040516105a79190612b9e565b60405180910390f35b3480156105bc57600080fd5b506105d760048036038101906105d291906127d1565b61138e565b6040516105e49190612b83565b60405180910390f35b3480156105f957600080fd5b506106026114c6565b60405161060f9190612b83565b60405180910390f35b34801561062457600080fd5b5061063f600480360381019061063a9190612756565b6115bb565b60405161064c9190612b9e565b60405180910390f35b61065d6115d3565b60405161066a9190612b83565b60405180910390f35b34801561067f57600080fd5b50610688611884565b6040516106959190612bd4565b60405180910390f35b3480156106aa57600080fd5b506106c560048036038101906106c091906127a8565b61189e565b6040516106d29190612bef565b60405180910390f35b3480156106e757600080fd5b5061070260048036038101906106fd91906127a8565b6118d2565b60405161070f9190612bef565b60405180910390f35b34801561072457600080fd5b5061072d611906565b60405161073a9190612b9e565b60405180910390f35b34801561074f57600080fd5b5061076a60048036038101906107659190612756565b61190c565b6040516107779190612b9e565b60405180910390f35b34801561078c57600080fd5b50610795611955565b6040516107a29190612b9e565b60405180910390f35b3480156107b757600080fd5b506107c061195b565b6040516107cd9190612b9e565b60405180910390f35b60008060009054906101000a900473ffffffffffffffffffffffffffffffffffffffff168073ffffffffffffffffffffffffffffffffffffffff163373ffffffffffffffffffffffffffffffffffffffff161461085f576040517f82b4290000000000000000000000000000000000000000000000000000000000815260040160405180910390fd5b82600c60086101000a81548160ff0219169083151502179055506001915050919050565b601460049054906101000a900460ff1681565b600c60099054906101000a900460ff1681565b600080600360003373ffffffffffffffffffffffffffffffffffffffff1673ffffffffffffffffffffffffffffffffffffffff168152602001908152602001600020541415610924576040517f995a2dae00000000000000000000000000000000000000000000000000000000815260040160405180910390fd5b60405161093090612b0e565b60405180910390207f7cdb51e9dbbc205231228146c3246e7f914aa6d4a33170e43ecc8e3593481d1a60405160405180910390a26000601460049054906101000a900460ff1660ff16148061099a5750600c60099054906101000a900460ff1660ff168360ff1614155b156109d1576040517f4733210000000000000000000000000000000000000000000000000000000000815260040160405180910390fd5b600d60003373ffffffffffffffffffffffffffffffffffffffff1673ffffffffffffffffffffffffffffffffffffffff16815260200190815260200160002060009054906101000a900460ff1615610a55576040517f7c9a1cf900000000000000000000000000000000000000000000000000000000815260040160405180910390fd5b6000610a603361190c565b90508215610a86578060126000828254610a7a9190612cca565b92505081905550610aa0565b8060136000828254610a989190612cca565b925050819055505b6001601460008282829054906101000a900463ffffffff16610ac29190612d20565b92506101000a81548163ffffffff021916908363ffffffff1602179055506001600d60003373ffffffffffffffffffffffffffffffffffffffff1673ffffffffffffffffffffffffffffffffffffffff16815260200190815260200160002060006101000a81548160ff0219169083151502179055503373ffffffffffffffffffffffffffffffffffffffff167fa635d31e67484fd1d93ba01ab0ef882e4440a78aa40d0e2771e8a2aace45986984604051610b7e9190612b83565b60405180910390a26000610b90611961565b905060008160ff1614610bed57600060018260ff161415610bba57610bb3611a38565b9050610bd2565b60028260ff161415610bd157610bce611d22565b90505b5b8015610be257610be0611ef2565b505b809350505050610bf4565b6001925050505b92915050565b60036020528060005260406000206000915090505481565b600c60009054906101000a900467ffffffffffffffff1681565b600080600360003373ffffffffffffffffffffffffffffffffffffffff1673ffffffffffffffffffffffffffffffffffffffff168152602001908152602001600020541415610ca7576040517f995a2dae00000000000000000000000000000000000000000000000000000000815260040160405180910390fd5b600c60089054906101000a900460ff16610cc45760009050610e88565b6000610ccf336110ca565b90503373ffffffffffffffffffffffffffffffffffffffff166108fc610d0c833073ffffffffffffffffffffffffffffffffffffffff163161200d565b9081150290604051600060405180830381858888f19350505050158015610d37573d6000803e3d6000fd5b506000600260003373ffffffffffffffffffffffffffffffffffffffff1673ffffffffffffffffffffffffffffffffffffffff16815260200190815260200160002060006101000a81548160ff021916908360ff1602179055506000600360003373ffffffffffffffffffffffffffffffffffffffff1673ffffffffffffffffffffffffffffffffffffffff168152602001908152602001600020819055506000600460003373ffffffffffffffffffffffffffffffffffffffff1673ffffffffffffffffffffffffffffffffffffffff168152602001908152602001600020819055508060016000828254610e2d9190612e1c565b925050819055503373ffffffffffffffffffffffffffffffffffffffff167f884edad9ce6fa2440d8a54cc123490eb96d2768479d49ff9c7366125a942436482604051610e7a9190612b9e565b60405180910390a260019150505b90565b60088181548110610e9b57600080fd5b9060005260206000209060049182820401919006600802915054906101000a900467ffffffffffffffff1681565b60078181548110610ed957600080fd5b9060005260206000209060209182820401919006915054906101000a900460ff1681565b60098181548110610f0d57600080fd5b9060005260206000209060209182820401919006915054906101000a900460ff1681565b60008060009054906101000a900473ffffffffffffffffffffffffffffffffffffffff168073ffffffffffffffffffffffffffffffffffffffff163373ffffffffffffffffffffffffffffffffffffffff1614610fba576040517f82b4290000000000000000000000000000000000000000000000000000000000815260040160405180910390fd5b6000601460049054906101000a900460ff1660ff1614610fdd576000915061106d565b601160009054906101000a900467ffffffffffffffff1667ffffffffffffffff16426110099190612cca565b600c60006101000a81548167ffffffffffffffff021916908367ffffffffffffffff1602179055506000600c60086101000a81548160ff0219169083151502179055506001601460046101000a81548160ff021916908360ff160217905550600191505b5090565b600e60009054906101000a900467ffffffffffffffff1681565b6005818154811061109b57600080fd5b906000526020600020016000915054906101000a900473ffffffffffffffffffffffffffffffffffffffff1681565b60006111806064611172600260008673ffffffffffffffffffffffffffffffffffffffff1673ffffffffffffffffffffffffffffffffffffffff16815260200190815260200160002060009054906101000a900460ff1660ff16600360008773ffffffffffffffffffffffffffffffffffffffff1673ffffffffffffffffffffffffffffffffffffffff1681526020019081526020016000205461202690919063ffffffff16565b61203c90919063ffffffff16565b9050919050565b61118f612571565b6040518060e00160405280600c60099054906101000a900460ff1660ff1681526020016009600c60099054906101000a900460ff1660ff16815481106111fe577f4e487b7100000000000000000000000000000000000000000000000000000000600052603260045260246000fd5b90600052602060002090602091828204019190069054906101000a900460ff1660ff16815260200160125481526020016013548152602001600a600c60099054906101000a900460ff1660ff1681548110611282577f4e487b7100000000000000000000000000000000000000000000000000000000600052603260045260246000fd5b90600052602060002090602091828204019190069054906101000a900460ff1660ff168152602001600b600c60099054906101000a900460ff1660ff16815481106112f6577f4e487b7100000000000000000000000000000000000000000000000000000000600052603260045260246000fd5b90600052602060002090602091828204019190069054906101000a900460ff1660ff168152602001601460009054906101000a900463ffffffff1663ffffffff16815250905090565b600660009054906101000a900473ffffffffffffffffffffffffffffffffffffffff1681565b6000600580549050905090565b601460009054906101000a900463ffffffff1681565b600f5481565b60008060009054906101000a900473ffffffffffffffffffffffffffffffffffffffff168073ffffffffffffffffffffffffffffffffffffffff163373ffffffffffffffffffffffffffffffffffffffff1614611417576040517f82b4290000000000000000000000000000000000000000000000000000000000815260040160405180910390fd5b6000601460049054906101000a900460ff1660ff161461143a57600091506114bb565b8660108190555087600f81905550856007908051906020019061145e929190612593565b5083600b9080519060200190611475929190612593565b50846009908051906020019061148c929190612593565b5082601160006101000a81548167ffffffffffffffff021916908367ffffffffffffffff160217905550600191505b509695505050505050565b60008060009054906101000a900473ffffffffffffffffffffffffffffffffffffffff168073ffffffffffffffffffffffffffffffffffffffff163373ffffffffffffffffffffffffffffffffffffffff161461154f576040517f82b4290000000000000000000000000000000000000000000000000000000000815260040160405180910390fd5b6000611559611961565b905060008160ff16146115b557600060018260ff1614156115835761157c611a38565b905061159b565b60028260ff16141561159a57611597611d22565b90505b5b80156115ab576115a9611ef2565b505b80935050506115b7565b505b5090565b60046020528060005260406000206000915090505481565b6000600e60009054906101000a900467ffffffffffffffff168067ffffffffffffffff16421115611630576040517fecdd1c2900000000000000000000000000000000000000000000000000000000815260040160405180910390fd5b60405161163c90612aba565b60405180910390207f7cdb51e9dbbc205231228146c3246e7f914aa6d4a33170e43ecc8e3593481d1a60405160405180910390a260003414156116ab576040517f995a2dae00000000000000000000000000000000000000000000000000000000815260040160405180910390fd5b600f54343073ffffffffffffffffffffffffffffffffffffffff16316116d19190612cca565b10611708576040517f77d09e5000000000000000000000000000000000000000000000000000000000815260040160405180910390fd5b6000600360003373ffffffffffffffffffffffffffffffffffffffff1673ffffffffffffffffffffffffffffffffffffffff16815260200190815260200160002054141561180d576005339080600181540180825580915050600190039060005260206000200160009091909190916101000a81548173ffffffffffffffffffffffffffffffffffffffff021916908373ffffffffffffffffffffffffffffffffffffffff1602179055506064600260003373ffffffffffffffffffffffffffffffffffffffff1673ffffffffffffffffffffffffffffffffffffffff16815260200190815260200160002060006101000a81548160ff021916908360ff1602179055505b34600360003373ffffffffffffffffffffffffffffffffffffffff1673ffffffffffffffffffffffffffffffffffffffff168152602001908152602001600020600082825461185c9190612cca565b9250508190555034600160008282546118759190612cca565b92505081905550600191505090565b601160009054906101000a900467ffffffffffffffff1681565b600b81815481106118ae57600080fd5b9060005260206000209060209182820401919006915054906101000a900460ff1681565b600a81815481106118e257600080fd5b9060005260206000209060209182820401919006915054906101000a900460ff1681565b60105481565b6000600360008373ffffffffffffffffffffffffffffffffffffffff1673ffffffffffffffffffffffffffffffffffffffff168152602001908152602001600020549050919050565b60125481565b60135481565b6000806119fa60646119ec6009600c60099054906101000a900460ff1660ff16815481106119b8577f4e487b7100000000000000000000000000000000000000000000000000000000600052603260045260246000fd5b90600052602060002090602091828204019190069054906101000a900460ff1660ff1660015461202690919063ffffffff16565b61203c90919063ffffffff16565b90508060125410611a0f576001915050611a35565b80600154611a1d9190612e1c565b60135410611a2f576002915050611a35565b60009150505b90565b6000604051611a4690612b23565b60405180910390207f7cdb51e9dbbc205231228146c3246e7f914aa6d4a33170e43ecc8e3593481d1a60405160405180910390a260006007600c60099054906101000a900460ff1660ff1681548110611ac8577f4e487b7100000000000000000000000000000000000000000000000000000000600052603260045260246000fd5b90600052602060002090602091828204019190069054906101000a900460ff1660ff161415611b23576040517fd70a0e3000000000000000000000000000000000000000000000000000000000815260040160405180910390fd5b6000611bbb6064611bad6007600c60099054906101000a900460ff1660ff1681548110611b79577f4e487b7100000000000000000000000000000000000000000000000000000000600052603260045260246000fd5b90600052602060002090602091828204019190069054906101000a900460ff1660ff1660015461202690919063ffffffff16565b61203c90919063ffffffff16565b9050600660009054906101000a900473ffffffffffffffffffffffffffffffffffffffff1673ffffffffffffffffffffffffffffffffffffffff166108fc829081150290604051600060405180830381858888f19350505050158015611c25573d6000803e3d6000fd5b5060006007600c60099054906101000a900460ff1660ff1681548110611c74577f4e487b7100000000000000000000000000000000000000000000000000000000600052603260045260246000fd5b90600052602060002090602091828204019190066101000a81548160ff021916908360ff160217905550611ca781612052565b507f0e45f244d89cea5099c0a6f24efd8cfde53e85de3cbf08c24acc387c1160ccc3600c60099054906101000a900460ff1682600660009054906101000a900473ffffffffffffffffffffffffffffffffffffffff16604051611d0c93929190612c0a565b60405180910390a1611d1c6121c6565b91505090565b6000604051611d3090612af9565b60405180910390207f7cdb51e9dbbc205231228146c3246e7f914aa6d4a33170e43ecc8e3593481d1a60405160405180910390a26001600a600c60099054906101000a900460ff1660ff1681548110611db2577f4e487b7100000000000000000000000000000000000000000000000000000000600052603260045260246000fd5b90600052602060002090602091828204019190068282829054906101000a900460ff16611ddf9190612d5a565b92506101000a81548160ff021916908360ff160217905550600b600c60099054906101000a900460ff1660ff1681548110611e43577f4e487b7100000000000000000000000000000000000000000000000000000000600052603260045260246000fd5b90600052602060002090602091828204019190069054906101000a900460ff1660ff16600a600c60099054906101000a900460ff1660ff1681548110611eb2577f4e487b7100000000000000000000000000000000000000000000000000000000600052603260045260246000fd5b90600052602060002090602091828204019190069054906101000a900460ff1660ff161415611eea57611ee3612272565b9050611eef565b600090505b90565b60008060128190555060006013819055506000601460006101000a81548163ffffffff021916908363ffffffff16021790555060005b600580549050811015612005576000600d600060058481548110611f75577f4e487b7100000000000000000000000000000000000000000000000000000000600052603260045260246000fd5b9060005260206000200160009054906101000a900473ffffffffffffffffffffffffffffffffffffffff1673ffffffffffffffffffffffffffffffffffffffff1673ffffffffffffffffffffffffffffffffffffffff16815260200190815260200160002060006101000a81548160ff021916908315150217905550600181611ffe9190612cca565b9050611f28565b506001905090565b600081831061201c578161201e565b825b905092915050565b600081836120349190612dc2565b905092915050565b6000818361204a9190612d91565b905092915050565b600060405161206090612b38565b60405180910390207f7cdb51e9dbbc205231228146c3246e7f914aa6d4a33170e43ecc8e3593481d1a60405160405180910390a260006120be6001546120b060648661202690919063ffffffff16565b61203c90919063ffffffff16565b905060005b6005805490508110156121bb5781600260006005848154811061210f577f4e487b7100000000000000000000000000000000000000000000000000000000600052603260045260246000fd5b9060005260206000200160009054906101000a900473ffffffffffffffffffffffffffffffffffffffff1673ffffffffffffffffffffffffffffffffffffffff1673ffffffffffffffffffffffffffffffffffffffff16815260200190815260200160002060008282829054906101000a900460ff1661218f9190612e50565b92506101000a81548160ff021916908360ff1602179055506001816121b49190612cca565b90506120c3565b506001915050919050565b60006040516121d490612acf565b60405180910390207f7cdb51e9dbbc205231228146c3246e7f914aa6d4a33170e43ecc8e3593481d1a60405160405180910390a2600160078054905061221a9190612e1c565b600c60099054906101000a900460ff1660ff16101561226b576001600c60098282829054906101000a900460ff166122529190612d5a565b92506101000a81548160ff021916908360ff1602179055505b6001905090565b600060405161228090612ae4565b60405180910390207f7cdb51e9dbbc205231228146c3246e7f914aa6d4a33170e43ecc8e3593481d1a60405160405180910390a2600061234c606461233e6007600c60099054906101000a900460ff1660ff168154811061230a577f4e487b7100000000000000000000000000000000000000000000000000000000600052603260045260246000fd5b90600052602060002090602091828204019190069054906101000a900460ff1660ff1660015461202690919063ffffffff16565b61203c90919063ffffffff16565b905060005b60058054905081101561251257600061242b60015461241d606460036000600588815481106123a9577f4e487b7100000000000000000000000000000000000000000000000000000000600052603260045260246000fd5b9060005260206000200160009054906101000a900473ffffffffffffffffffffffffffffffffffffffff1673ffffffffffffffffffffffffffffffffffffffff1673ffffffffffffffffffffffffffffffffffffffff1681526020019081526020016000205461202690919063ffffffff16565b61203c90919063ffffffff16565b905060058281548110612467577f4e487b7100000000000000000000000000000000000000000000000000000000600052603260045260246000fd5b9060005260206000200160009054906101000a900473ffffffffffffffffffffffffffffffffffffffff1673ffffffffffffffffffffffffffffffffffffffff166108fc6124d160646124c3858861202690919063ffffffff16565b61203c90919063ffffffff16565b9081150290604051600060405180830381858888f193505050501580156124fc573d6000803e3d6000fd5b505060018161250b9190612cca565b9050612351565b5061251c81612052565b507f230739317a7f90b018762e0570d567293eac14d67441b810f714879dd6aed0bf600c60099054906101000a900460ff1660405161255b9190612bef565b60405180910390a161256b6121c6565b91505090565b6040518060e00160405280600790602082028036833780820191505090505090565b82805482825590600052602060002090601f016020900481019282156126295791602002820160005b838211156125fa57835183826101000a81548160ff021916908360ff16021790555092602001926001016020816000010492830192600103026125bc565b80156126275782816101000a81549060ff02191690556001016020816000010492830192600103026125fa565b505b509050612636919061263a565b5090565b5b8082111561265357600081600090555060010161263b565b5090565b600061266a61266584612c66565b612c41565b9050808382526020820190508285602086028201111561268957600080fd5b60005b858110156126b9578161269f8882612741565b84526020840193506020830192505060018101905061268c565b5050509392505050565b6000813590506126d281613133565b92915050565b600082601f8301126126e957600080fd5b81356126f9848260208601612657565b91505092915050565b6000813590506127118161314a565b92915050565b60008135905061272681613161565b92915050565b60008135905061273b81613178565b92915050565b6000813590506127508161318f565b92915050565b60006020828403121561276857600080fd5b6000612776848285016126c3565b91505092915050565b60006020828403121561279157600080fd5b600061279f84828501612702565b91505092915050565b6000602082840312156127ba57600080fd5b60006127c884828501612717565b91505092915050565b60008060008060008060c087890312156127ea57600080fd5b60006127f889828a01612717565b965050602061280989828a01612717565b955050604087013567ffffffffffffffff81111561282657600080fd5b61283289828a016126d8565b945050606087013567ffffffffffffffff81111561284f57600080fd5b61285b89828a016126d8565b935050608087013567ffffffffffffffff81111561287857600080fd5b61288489828a016126d8565b92505060a061289589828a0161272c565b9150509295509295509295565b600080604083850312156128b557600080fd5b60006128c385828601612741565b92505060206128d485828601612702565b9150509250929050565b60006128ea8383612a6f565b60208301905092915050565b6128ff81612f0f565b82525050565b61290e81612e96565b82525050565b61291d81612c9c565b6129278184612cb4565b925061293282612c92565b8060005b8381101561296357815161294a87826128de565b965061295583612ca7565b925050600181019050612936565b505050505050565b61297481612ea8565b82525050565b6000612987600b83612cbf565b915061299282613014565b600b82019050919050565b60006129aa600d83612cbf565b91506129b58261303d565b600d82019050919050565b60006129cd600f83612cbf565b91506129d882613066565b600f82019050919050565b60006129f0600d83612cbf565b91506129fb8261308f565b600d82019050919050565b6000612a13600b83612cbf565b9150612a1e826130b8565b600b82019050919050565b6000612a36600d83612cbf565b9150612a41826130e1565b600d82019050919050565b6000612a59600e83612cbf565b9150612a648261310a565b600e82019050919050565b612a7881612ed4565b82525050565b612a8781612ed4565b82525050565b612a9681612ede565b82525050565b612aa581612eee565b82525050565b612ab481612f02565b82525050565b6000612ac58261297a565b9150819050919050565b6000612ada8261299d565b9150819050919050565b6000612aef826129c0565b9150819050919050565b6000612b04826129e3565b9150819050919050565b6000612b1982612a06565b9150819050919050565b6000612b2e82612a29565b9150819050919050565b6000612b4382612a4c565b9150819050919050565b6000602082019050612b626000830184612905565b92915050565b600060e082019050612b7d6000830184612914565b92915050565b6000602082019050612b98600083018461296b565b92915050565b6000602082019050612bb36000830184612a7e565b92915050565b6000602082019050612bce6000830184612a8d565b92915050565b6000602082019050612be96000830184612a9c565b92915050565b6000602082019050612c046000830184612aab565b92915050565b6000606082019050612c1f6000830186612aab565b612c2c6020830185612a7e565b612c3960408301846128f6565b949350505050565b6000612c4b612c5c565b9050612c578282612f45565b919050565b6000604051905090565b600067ffffffffffffffff821115612c8157612c80612fd4565b5b602082029050602081019050919050565b6000819050919050565b600060079050919050565b6000602082019050919050565b600081905092915050565b600081905092915050565b6000612cd582612ed4565b9150612ce083612ed4565b9250827fffffffffffffffffffffffffffffffffffffffffffffffffffffffffffffffff03821115612d1557612d14612f76565b5b828201905092915050565b6000612d2b82612ede565b9150612d3683612ede565b92508263ffffffff03821115612d4f57612d4e612f76565b5b828201905092915050565b6000612d6582612f02565b9150612d7083612f02565b92508260ff03821115612d8657612d85612f76565b5b828201905092915050565b6000612d9c82612ed4565b9150612da783612ed4565b925082612db757612db6612fa5565b5b828204905092915050565b6000612dcd82612ed4565b9150612dd883612ed4565b9250817fffffffffffffffffffffffffffffffffffffffffffffffffffffffffffffffff0483118215151615612e1157612e10612f76565b5b828202905092915050565b6000612e2782612ed4565b9150612e3283612ed4565b925082821015612e4557612e44612f76565b5b828203905092915050565b6000612e5b82612f02565b9150612e6683612f02565b925082821015612e7957612e78612f76565b5b828203905092915050565b6000612e8f82612eb4565b9050919050565b6000612ea182612eb4565b9050919050565b60008115159050919050565b600073ffffffffffffffffffffffffffffffffffffffff82169050919050565b6000819050919050565b600063ffffffff82169050919050565b600067ffffffffffffffff82169050919050565b600060ff82169050919050565b6000612f1a82612f21565b9050919050565b6000612f2c82612f33565b9050919050565b6000612f3e82612eb4565b9050919050565b612f4e82613003565b810181811067ffffffffffffffff82111715612f6d57612f6c612fd4565b5b80604052505050565b7f4e487b7100000000000000000000000000000000000000000000000000000000600052601160045260246000fd5b7f4e487b7100000000000000000000000000000000000000000000000000000000600052601260045260246000fd5b7f4e487b7100000000000000000000000000000000000000000000000000000000600052604160045260246000fd5b6000601f19601f8301169050919050565b7f6a6f696e2063616c6c6564000000000000000000000000000000000000000000600082015250565b7f6e6578744d696c6573746f6e6500000000000000000000000000000000000000600082015250565b7f6661696c416e6457697468647261770000000000000000000000000000000000600082015250565b7f6661696c4d696c6573746f6e6500000000000000000000000000000000000000600082015250565b7f766f74652063616c6c6564000000000000000000000000000000000000000000600082015250565b7f617070726f7665416e6450617900000000000000000000000000000000000000600082015250565b7f61646a75737442616c616e636573000000000000000000000000000000000000600082015250565b61313c81612e84565b811461314757600080fd5b50565b61315381612ea8565b811461315e57600080fd5b50565b61316a81612ed4565b811461317557600080fd5b50565b61318181612eee565b811461318c57600080fd5b50565b61319881612f02565b81146131a357600080fd5b5056fea2646970667358221220434a3078b863625c9152f2c5b53b0312cfc850e6601546f753236d1c516a65a864736f6c63430008040033",
  "immutableReferences": {},
  "source": "pragma solidity ^0.8.0;\r\nimport \"@openzeppelin/contracts/utils/math/SafeMath.sol\";\r\nimport \"@openzeppelin/contracts/utils/math/Math.sol\";\r\n\r\nabstract contract Treasury {\r\n    using SafeMath for uint256;\r\n    address payable owner;\r\n\r\n    // the total balance in this treasury\r\n    // recorded at the time of vote and used to calculate equity share\r\n    uint256 totalContribution;\r\n\r\n    mapping(address => uint8) pctBalanceRemaining; // fan address => pct equity remaining\r\n    mapping(address => uint256) public equity; // fan address => contribution\r\n    mapping(address => uint256) public votingEquity; // fan address => voting rights\r\n    address payable[] public fans; // fan address to withdraw to, mirrors equity\r\n    address payable public creatorWallet;\r\n\r\n    uint8[] public bonusTargets; // the payout percentages (out of 100) for bonus targets 0,1,2,..\r\n    uint64[] public bonusDeadlines; // the time that bonus[i] expires defaulting to NO\r\n    uint8[] public bonusPctYeasNeeded; // pct yeas needed to pass bonus[i]\r\n    uint8[] public bonusFailures; // how many times bonus[i] has failed a vote\r\n    uint8[] public bonusFailureThresholds; // how many times bonus[i] can fail before automatic withdrawal\r\n\r\n    uint64 public endTime; // the time that this contract expires and mints automatically\r\n    bool isPrecipitatingEvent; // IFF true, withdrawals can take place\r\n\r\n    uint8 public votingOn; // the current milestone that votes are tallied towards\r\n\r\n    error Unauthorized();\r\n    error TooLate();\r\n    error AlreadyPaid();\r\n    error NoEquity();\r\n    error MaxValueReached();\r\n\r\n    modifier onlyBy(address _account) {\r\n        if (msg.sender != _account) revert Unauthorized();\r\n        _;\r\n    }\r\n    modifier onlyBefore(uint64 _time) {\r\n        if (block.timestamp > _time) revert TooLate();\r\n        _;\r\n    }\r\n    modifier onlyWithEquity() {\r\n        if (equity[msg.sender] == 0) revert NoEquity();\r\n        _;\r\n    }\r\n\r\n    function balanceOf(address _owner) public view returns (uint256 balance) {\r\n        return equity[_owner].mul(pctBalanceRemaining[_owner]).div(100);\r\n    }\r\n\r\n    function equityOf(address _owner) public view returns (uint256 balance) {\r\n        return equity[_owner];\r\n    }\r\n\r\n    function withdraw() public onlyWithEquity returns (bool success) {\r\n        if (!isPrecipitatingEvent) {\r\n            return false;\r\n        }\r\n        uint256 amount = balanceOf(msg.sender);\r\n        payable(msg.sender).transfer(Math.min(amount, address(this).balance));\r\n        // Wipe balance and equity from this user\r\n        pctBalanceRemaining[msg.sender] = 0;\r\n        equity[msg.sender] = 0;\r\n        votingEquity[msg.sender] = 0;\r\n        // Subtract from total so that all other %s are correct\r\n        totalContribution -= amount;\r\n\r\n        emit Withdraw(msg.sender, amount);\r\n        return true;\r\n    }\r\n\r\n    function precipitatingEvent(bool onOff)\r\n        public\r\n        onlyBy(owner)\r\n        returns (bool success)\r\n    {\r\n        isPrecipitatingEvent = onOff;\r\n        return true;\r\n    }\r\n\r\n    function nextMilestone() private returns (bool success) {\r\n        emit Debug(\"nextMilestone\");\r\n        if (votingOn < bonusTargets.length - 1) {\r\n            votingOn += 1;\r\n        }\r\n        return true;\r\n    }\r\n\r\n    // Called by server at time of expiry - should check whether this vote\r\n    // actually succeeded and auto fail/withdraw/move on otherwise\r\n    function failMilestone() internal returns (bool success) {\r\n        emit Debug(\"failMilestone\");\r\n        bonusFailures[votingOn] += 1;\r\n        if (bonusFailures[votingOn] == bonusFailureThresholds[votingOn]) {\r\n            return failAndWithdraw();\r\n        }\r\n        return false;\r\n    }\r\n\r\n    function failAndWithdraw() internal returns (bool success) {\r\n        emit Debug(\"failAndWithdraw\");\r\n        // the amount about to be disbursed among all equity holders\r\n        uint256 disbursement = totalContribution\r\n            .mul(bonusTargets[votingOn])\r\n            .div(100);\r\n        for (uint256 i = 0; i < fans.length; i += 1) {\r\n            // calculate the equity % from totalContribution vs equity\r\n            uint256 pctContrib = equity[fans[i]].mul(100).div(\r\n                totalContribution\r\n            ); // percent * 100\r\n            fans[i].transfer(disbursement.mul(pctContrib).div(100));\r\n        }\r\n        // adjust all balances downward\r\n        adjustBalances(disbursement);\r\n\r\n        emit Failure(votingOn);\r\n        return nextMilestone();\r\n    }\r\n\r\n    function approveAndPay() internal returns (bool success) {\r\n        emit Debug(\"approveAndPay\");\r\n        if (bonusTargets[votingOn] == 0) {\r\n            revert AlreadyPaid();\r\n        }\r\n        uint256 disbursement = totalContribution\r\n            .mul(bonusTargets[votingOn])\r\n            .div(100);\r\n        creatorWallet.transfer(disbursement);\r\n        bonusTargets[votingOn] = 0;\r\n        // adjust all balances downward\r\n        adjustBalances(disbursement);\r\n\r\n        emit Approval(votingOn, disbursement, creatorWallet);\r\n        return nextMilestone();\r\n    }\r\n\r\n    function adjustBalances(uint256 disbursement)\r\n        private\r\n        returns (bool success)\r\n    {\r\n        emit Debug(\"adjustBalances\");\r\n        // calc the % to adjust downward\r\n        uint256 pctAdjust = disbursement.mul(100).div(totalContribution);\r\n        for (uint256 i = 0; i < fans.length; i += 1) {\r\n            pctBalanceRemaining[fans[i]] -= uint8(pctAdjust);\r\n        }\r\n        return true;\r\n    }\r\n\r\n    event Withdraw(address indexed _to, uint256 _amount);\r\n    event Approval(uint8 _milestone, uint256 _amount, address _creatorWallet);\r\n    event Failure(uint8 _milestone);\r\n    event Debug(string indexed msg);\r\n}\r\n\r\ncontract Bounty is Treasury {\r\n    using SafeMath for uint256;\r\n\r\n    mapping(address => bool) votedThisRound; // whether this address has already voted\r\n    uint64 public mustBeClaimedTime; // the time epoch at which this bounty expires if unclaimed\r\n    uint256 public maxValue; // the max value this bounty could be\r\n    uint256 public reservePrice; // the lowest value that this bounty can be, otherwise it expires\r\n    uint64 public timeLimit; // the time limit in seconds that this bounty must be completed in\r\n    uint256 public currentYeas; // yea vote weight for the current bonus\r\n    uint256 public currentNays; // nay vote weight for the current bonus\r\n    uint32 public currentVotesCast; // number of discrete votes cast for the current bonus\r\n    uint8 public status; // [UNCLAIMED, CLAIMED, SUCCESS, FAILURE]\r\n\r\n    error VoteOver();\r\n    error AlreadyVoted();\r\n\r\n    constructor(\r\n        address payable _creatorWallet,\r\n        uint256 _maxValue,\r\n        uint256 _reservePrice,\r\n        uint8[] memory _bonusTargets,\r\n        uint8[] memory _bonusPctYeasNeeded,\r\n        uint8[] memory _bonusFailureThresholds,\r\n        uint64 _mustBeClaimedTime,\r\n        uint64 _timeLimit,\r\n        address payable _owner\r\n    ) {\r\n        creatorWallet = _creatorWallet;\r\n        maxValue = _maxValue;\r\n        reservePrice = _reservePrice;\r\n        bonusTargets = _bonusTargets;\r\n        bonusPctYeasNeeded = _bonusPctYeasNeeded;\r\n        bonusFailureThresholds = _bonusFailureThresholds;\r\n        mustBeClaimedTime = _mustBeClaimedTime;\r\n        owner = _owner;\r\n        isPrecipitatingEvent = true;\r\n        timeLimit = _timeLimit;\r\n        bonusFailures = new uint8[](bonusTargets.length);\r\n    }\r\n\r\n    function uniqueFans() public view returns (uint8 num) {\r\n        return uint8(fans.length);\r\n    }\r\n\r\n    // Returns [milestone, yeasNeeded, yeas, nays, timesFailed, failureThreshold, totalVoters]\r\n    function voteStatus() public view returns (uint256[7] memory stats) {\r\n        return [\r\n            votingOn,\r\n            bonusPctYeasNeeded[votingOn],\r\n            currentYeas,\r\n            currentNays,\r\n            uint256(bonusFailures[votingOn]),\r\n            bonusFailureThresholds[votingOn],\r\n            currentVotesCast\r\n        ];\r\n    }\r\n\r\n    function join()\r\n        public\r\n        payable\r\n        onlyBefore(mustBeClaimedTime)\r\n        returns (bool success)\r\n    {\r\n        emit Debug(\"join called\");\r\n        if (msg.value == 0) {\r\n            revert NoEquity();\r\n        }\r\n        if (address(this).balance + msg.value >= maxValue) {\r\n            revert MaxValueReached();\r\n        }\r\n        if (equity[msg.sender] == 0) {\r\n            // fan not added yet\r\n            fans.push(payable(msg.sender));\r\n            pctBalanceRemaining[msg.sender] = 100;\r\n        }\r\n        equity[msg.sender] += msg.value;\r\n\r\n        totalContribution += msg.value;\r\n        return true;\r\n    }\r\n\r\n    function checkVote() public onlyBy(owner) returns (bool success) {\r\n        uint8 _status = checkVoteMarginMet();\r\n        if (_status != 0) {\r\n            bool result;\r\n            if (_status == 1) {\r\n                result = approveAndPay();\r\n            } else if (_status == 2) {\r\n                result = failMilestone();\r\n            }\r\n            // result is true if we took a step forward, otherwise false\r\n            if (result) {\r\n                // Wipe the state if either of these things happens\r\n                wipeStateForBonus();\r\n            }\r\n            return result;\r\n        }\r\n    }\r\n\r\n    // Returns 0 if not a done vote yet, 1 if passed, 2 if failed\r\n    function checkVoteMarginMet() private view returns (uint8 met) {\r\n        uint256 yeasNeeded = totalContribution\r\n            .mul(bonusPctYeasNeeded[votingOn])\r\n            .div(100);\r\n        if (currentYeas >= yeasNeeded) {\r\n            return 1;\r\n        } else if (currentNays >= totalContribution - yeasNeeded) {\r\n            return 2;\r\n        }\r\n        return 0;\r\n    }\r\n\r\n    function vote(uint8 _milestone, bool _vote)\r\n        public\r\n        onlyWithEquity\r\n        returns (bool success)\r\n    {\r\n        emit Debug(\"vote called\");\r\n        // Not yet claimed\r\n        if (status == 0 || _milestone != votingOn) {\r\n            revert VoteOver();\r\n        }\r\n        if (votedThisRound[msg.sender]) {\r\n            revert AlreadyVoted();\r\n        }\r\n        uint256 amount = equityOf(msg.sender);\r\n        if (_vote) {\r\n            currentYeas += amount;\r\n        } else {\r\n            currentNays += amount;\r\n        }\r\n        currentVotesCast += 1;\r\n        votedThisRound[msg.sender] = true;\r\n\r\n        emit Vote(msg.sender, _vote);\r\n\r\n        uint8 _status = checkVoteMarginMet();\r\n        if (_status != 0) {\r\n            bool result;\r\n            if (_status == 1) {\r\n                result = approveAndPay();\r\n            } else if (_status == 2) {\r\n                result = failMilestone();\r\n            }\r\n            // result is true if we took a step forward, otherwise false\r\n            if (result) {\r\n                // Wipe the state if either of these things happens\r\n                wipeStateForBonus();\r\n            }\r\n            return result;\r\n        }\r\n        return true;\r\n    }\r\n\r\n    function negotiate(\r\n        uint256 _maxValue,\r\n        uint256 _reservePrice,\r\n        uint8[] memory _bonusTargets,\r\n        uint8[] memory _bonusPctYeasNeeded,\r\n        uint8[] memory _bonusFailureThresholds,\r\n        uint64 _timeLimit\r\n    ) public onlyBy(owner) returns (bool success) {\r\n        if (status != 0) {\r\n            return false;\r\n        }\r\n        reservePrice = _reservePrice;\r\n        maxValue = _maxValue;\r\n        bonusTargets = _bonusTargets;\r\n        bonusFailureThresholds = _bonusFailureThresholds;\r\n        bonusPctYeasNeeded = _bonusPctYeasNeeded;\r\n        timeLimit = _timeLimit;\r\n        return true;\r\n    }\r\n\r\n    // Sets initial state and sets the end time of this bounty according to config\r\n    function claim() public onlyBy(owner) returns (bool success) {\r\n        // Already claimed\r\n        if (status != 0) {\r\n            return false;\r\n        }\r\n        endTime = uint64(block.timestamp + timeLimit);\r\n        isPrecipitatingEvent = false;\r\n        status = 1;\r\n        return true;\r\n    }\r\n\r\n    function wipeStateForBonus() private returns (bool success) {\r\n        currentYeas = 0;\r\n        currentNays = 0;\r\n        currentVotesCast = 0;\r\n        for (uint256 i = 0; i < fans.length; i += 1) {\r\n            votedThisRound[fans[i]] = false;\r\n        }\r\n        return true;\r\n    }\r\n\r\n    // _vote is false for nay, true for yea\r\n    event Vote(address indexed _voter, bool _vote);\r\n}\r\n",
  "sourcePath": "C:\\Users\\kumquatexpress\\projects\\polygon-hack\\web3\\contracts\\polygon\\Bounty.sol",
  "compiler": {
    "name": "solc",
    "version": "0.8.4+commit.c7e474f2.Emscripten.clang"
  },
  "schemaVersion": "3.4.4",
  "updatedAt": "2022-02-05T18:15:24.539Z",
  "devdoc": {
    "kind": "dev",
    "methods": {},
    "version": 1
  },
  "userdoc": {
    "kind": "user",
    "methods": {},
    "version": 1
  },
  "db": {
    "callBytecode": {
      "id": "0x3737db7cf1aa27f0799619f3442d831482c6f0e5069f45657dda634d3576611d"
    },
    "createBytecode": {
      "id": "0xaaf7427f3e789296aeecfef588fc7d93b092ac9fc5b93d66abd7126bf37923a4"
    },
    "contract": {
      "id": "0x4b451a20b8416c952a99ed9d1de6e262c978dc818d8fc338042700c1ecfc5d99"
    }
  }
}