{
  "contractName": "Bounty",
  "abi": [
    {
      "inputs": [
        {
          "internalType": "address payable",
          "name": "_creatorWallet",
          "type": "address"
        },
        {
          "internalType": "uint256",
          "name": "_maxValue",
          "type": "uint256"
        },
        {
          "internalType": "uint256",
          "name": "_reservePrice",
          "type": "uint256"
        },
        {
          "internalType": "uint8",
          "name": "_pctCreatorInitialDisbursement",
          "type": "uint8"
        },
        {
          "internalType": "uint8",
          "name": "_pctCreatorFinalDisbursement",
          "type": "uint8"
        },
        {
          "internalType": "uint8[]",
          "name": "_bonusTargets",
          "type": "uint8[]"
        },
        {
          "internalType": "uint8[]",
          "name": "_bonusPctYeasNeeded",
          "type": "uint8[]"
        },
        {
          "internalType": "uint8[]",
          "name": "_bonusFailureThresholds",
          "type": "uint8[]"
        },
        {
          "internalType": "uint64",
          "name": "_mustBeClaimedTime",
          "type": "uint64"
        },
        {
          "internalType": "uint64",
          "name": "_timeLimit",
          "type": "uint64"
        },
        {
          "internalType": "address payable",
          "name": "_owner",
          "type": "address"
        }
      ],
      "stateMutability": "nonpayable",
      "type": "constructor"
    },
    {
      "inputs": [],
      "name": "AlreadyPaid",
      "type": "error"
    },
    {
      "inputs": [],
      "name": "AlreadyVoted",
      "type": "error"
    },
    {
      "inputs": [],
      "name": "IncorrectPercentages",
      "type": "error"
    },
    {
      "inputs": [],
      "name": "MaxValueReached",
      "type": "error"
    },
    {
      "inputs": [],
      "name": "NoEquity",
      "type": "error"
    },
    {
      "inputs": [],
      "name": "TooLate",
      "type": "error"
    },
    {
      "inputs": [],
      "name": "Unauthorized",
      "type": "error"
    },
    {
      "inputs": [],
      "name": "VoteOver",
      "type": "error"
    },
    {
      "anonymous": false,
      "inputs": [
        {
          "indexed": false,
          "internalType": "uint8",
          "name": "_milestone",
          "type": "uint8"
        },
        {
          "indexed": false,
          "internalType": "uint256",
          "name": "_amount",
          "type": "uint256"
        },
        {
          "indexed": false,
          "internalType": "address",
          "name": "_creatorWallet",
          "type": "address"
        }
      ],
      "name": "Approval",
      "type": "event"
    },
    {
      "anonymous": false,
      "inputs": [
        {
          "indexed": true,
          "internalType": "string",
          "name": "msg",
          "type": "string"
        }
      ],
      "name": "Debug",
      "type": "event"
    },
    {
      "anonymous": false,
      "inputs": [
        {
          "indexed": false,
          "internalType": "uint8",
          "name": "_milestone",
          "type": "uint8"
        }
      ],
      "name": "Failure",
      "type": "event"
    },
    {
      "anonymous": false,
      "inputs": [
        {
          "indexed": true,
          "internalType": "address",
          "name": "_voter",
          "type": "address"
        },
        {
          "indexed": false,
          "internalType": "bool",
          "name": "_vote",
          "type": "bool"
        }
      ],
      "name": "Vote",
      "type": "event"
    },
    {
      "anonymous": false,
      "inputs": [
        {
          "indexed": true,
          "internalType": "address",
          "name": "_to",
          "type": "address"
        },
        {
          "indexed": false,
          "internalType": "uint256",
          "name": "_amount",
          "type": "uint256"
        }
      ],
      "name": "Withdraw",
      "type": "event"
    },
    {
      "inputs": [
        {
          "internalType": "address",
          "name": "_owner",
          "type": "address"
        }
      ],
      "name": "balanceOf",
      "outputs": [
        {
          "internalType": "uint256",
          "name": "balance",
          "type": "uint256"
        }
      ],
      "stateMutability": "view",
      "type": "function"
    },
    {
      "inputs": [
        {
          "internalType": "uint256",
          "name": "",
          "type": "uint256"
        }
      ],
      "name": "bonusDeadlines",
      "outputs": [
        {
          "internalType": "uint64",
          "name": "",
          "type": "uint64"
        }
      ],
      "stateMutability": "view",
      "type": "function"
    },
    {
      "inputs": [
        {
          "internalType": "uint256",
          "name": "",
          "type": "uint256"
        }
      ],
      "name": "bonusFailureThresholds",
      "outputs": [
        {
          "internalType": "uint8",
          "name": "",
          "type": "uint8"
        }
      ],
      "stateMutability": "view",
      "type": "function"
    },
    {
      "inputs": [
        {
          "internalType": "uint256",
          "name": "",
          "type": "uint256"
        }
      ],
      "name": "bonusFailures",
      "outputs": [
        {
          "internalType": "uint8",
          "name": "",
          "type": "uint8"
        }
      ],
      "stateMutability": "view",
      "type": "function"
    },
    {
      "inputs": [
        {
          "internalType": "uint256",
          "name": "",
          "type": "uint256"
        }
      ],
      "name": "bonusPctYeasNeeded",
      "outputs": [
        {
          "internalType": "uint8",
          "name": "",
          "type": "uint8"
        }
      ],
      "stateMutability": "view",
      "type": "function"
    },
    {
      "inputs": [
        {
          "internalType": "uint256",
          "name": "",
          "type": "uint256"
        }
      ],
      "name": "bonusTargets",
      "outputs": [
        {
          "internalType": "uint8",
          "name": "",
          "type": "uint8"
        }
      ],
      "stateMutability": "view",
      "type": "function"
    },
    {
      "inputs": [],
      "name": "creatorWallet",
      "outputs": [
        {
          "internalType": "address payable",
          "name": "",
          "type": "address"
        }
      ],
      "stateMutability": "view",
      "type": "function"
    },
    {
      "inputs": [],
      "name": "currentNays",
      "outputs": [
        {
          "internalType": "uint256",
          "name": "",
          "type": "uint256"
        }
      ],
      "stateMutability": "view",
      "type": "function"
    },
    {
      "inputs": [],
      "name": "currentVotesCast",
      "outputs": [
        {
          "internalType": "uint32",
          "name": "",
          "type": "uint32"
        }
      ],
      "stateMutability": "view",
      "type": "function"
    },
    {
      "inputs": [],
      "name": "currentYeas",
      "outputs": [
        {
          "internalType": "uint256",
          "name": "",
          "type": "uint256"
        }
      ],
      "stateMutability": "view",
      "type": "function"
    },
    {
      "inputs": [],
      "name": "endTime",
      "outputs": [
        {
          "internalType": "uint64",
          "name": "",
          "type": "uint64"
        }
      ],
      "stateMutability": "view",
      "type": "function"
    },
    {
      "inputs": [
        {
          "internalType": "address",
          "name": "",
          "type": "address"
        }
      ],
      "name": "equity",
      "outputs": [
        {
          "internalType": "uint256",
          "name": "",
          "type": "uint256"
        }
      ],
      "stateMutability": "view",
      "type": "function"
    },
    {
      "inputs": [
        {
          "internalType": "address",
          "name": "_owner",
          "type": "address"
        }
      ],
      "name": "equityOf",
      "outputs": [
        {
          "internalType": "uint256",
          "name": "balance",
          "type": "uint256"
        }
      ],
      "stateMutability": "view",
      "type": "function"
    },
    {
      "inputs": [
        {
          "internalType": "uint256",
          "name": "",
          "type": "uint256"
        }
      ],
      "name": "fans",
      "outputs": [
        {
          "internalType": "address payable",
          "name": "",
          "type": "address"
        }
      ],
      "stateMutability": "view",
      "type": "function"
    },
    {
      "inputs": [],
      "name": "maxValue",
      "outputs": [
        {
          "internalType": "uint256",
          "name": "",
          "type": "uint256"
        }
      ],
      "stateMutability": "view",
      "type": "function"
    },
    {
      "inputs": [],
      "name": "mustBeClaimedTime",
      "outputs": [
        {
          "internalType": "uint64",
          "name": "",
          "type": "uint64"
        }
      ],
      "stateMutability": "view",
      "type": "function"
    },
    {
      "inputs": [
        {
          "internalType": "bool",
          "name": "onOff",
          "type": "bool"
        }
      ],
      "name": "precipitatingEvent",
      "outputs": [
        {
          "internalType": "bool",
          "name": "success",
          "type": "bool"
        }
      ],
      "stateMutability": "nonpayable",
      "type": "function"
    },
    {
      "inputs": [],
      "name": "reservePrice",
      "outputs": [
        {
          "internalType": "uint256",
          "name": "",
          "type": "uint256"
        }
      ],
      "stateMutability": "view",
      "type": "function"
    },
    {
      "inputs": [],
      "name": "status",
      "outputs": [
        {
          "internalType": "uint8",
          "name": "",
          "type": "uint8"
        }
      ],
      "stateMutability": "view",
      "type": "function"
    },
    {
      "inputs": [],
      "name": "timeLimit",
      "outputs": [
        {
          "internalType": "uint64",
          "name": "",
          "type": "uint64"
        }
      ],
      "stateMutability": "view",
      "type": "function"
    },
    {
      "inputs": [
        {
          "internalType": "address",
          "name": "",
          "type": "address"
        }
      ],
      "name": "votingEquity",
      "outputs": [
        {
          "internalType": "uint256",
          "name": "",
          "type": "uint256"
        }
      ],
      "stateMutability": "view",
      "type": "function"
    },
    {
      "inputs": [],
      "name": "votingOn",
      "outputs": [
        {
          "internalType": "uint8",
          "name": "",
          "type": "uint8"
        }
      ],
      "stateMutability": "view",
      "type": "function"
    },
    {
      "inputs": [],
      "name": "withdraw",
      "outputs": [
        {
          "internalType": "bool",
          "name": "success",
          "type": "bool"
        }
      ],
      "stateMutability": "nonpayable",
      "type": "function"
    },
    {
      "inputs": [],
      "name": "uniqueFans",
      "outputs": [
        {
          "internalType": "uint8",
          "name": "num",
          "type": "uint8"
        }
      ],
      "stateMutability": "view",
      "type": "function"
    },
    {
      "inputs": [],
      "name": "bountyStatus",
      "outputs": [
        {
          "internalType": "uint256[3]",
          "name": "stats",
          "type": "uint256[3]"
        }
      ],
      "stateMutability": "view",
      "type": "function"
    },
    {
      "inputs": [],
      "name": "voteStatus",
      "outputs": [
        {
          "internalType": "uint256[10]",
          "name": "stats",
          "type": "uint256[10]"
        }
      ],
      "stateMutability": "view",
      "type": "function"
    },
    {
      "inputs": [],
      "name": "join",
      "outputs": [
        {
          "internalType": "bool",
          "name": "success",
          "type": "bool"
        }
      ],
      "stateMutability": "payable",
      "type": "function"
    },
    {
      "inputs": [],
      "name": "checkVote",
      "outputs": [
        {
          "internalType": "bool",
          "name": "success",
          "type": "bool"
        }
      ],
      "stateMutability": "nonpayable",
      "type": "function"
    },
    {
      "inputs": [
        {
          "internalType": "uint8",
          "name": "_milestone",
          "type": "uint8"
        },
        {
          "internalType": "bool",
          "name": "_vote",
          "type": "bool"
        }
      ],
      "name": "vote",
      "outputs": [
        {
          "internalType": "bool",
          "name": "success",
          "type": "bool"
        }
      ],
      "stateMutability": "nonpayable",
      "type": "function"
    },
    {
      "inputs": [
        {
          "internalType": "uint256",
          "name": "_maxValue",
          "type": "uint256"
        },
        {
          "internalType": "uint256",
          "name": "_reservePrice",
          "type": "uint256"
        },
        {
          "internalType": "uint8[]",
          "name": "_bonusTargets",
          "type": "uint8[]"
        },
        {
          "internalType": "uint8[]",
          "name": "_bonusPctYeasNeeded",
          "type": "uint8[]"
        },
        {
          "internalType": "uint8[]",
          "name": "_bonusFailureThresholds",
          "type": "uint8[]"
        },
        {
          "internalType": "uint64",
          "name": "_timeLimit",
          "type": "uint64"
        }
      ],
      "name": "negotiate",
      "outputs": [
        {
          "internalType": "bool",
          "name": "success",
          "type": "bool"
        }
      ],
      "stateMutability": "nonpayable",
      "type": "function"
    },
    {
      "inputs": [
        {
          "internalType": "address",
          "name": "_addr",
          "type": "address"
        }
      ],
      "name": "amountRejoinTreasury",
      "outputs": [
        {
          "internalType": "uint256",
          "name": "canRejoin",
          "type": "uint256"
        }
      ],
      "stateMutability": "view",
      "type": "function"
    },
    {
      "inputs": [
        {
          "internalType": "address",
          "name": "_addr",
          "type": "address"
        }
      ],
      "name": "negotiateRejoin",
      "outputs": [
        {
          "internalType": "bool",
          "name": "success",
          "type": "bool"
        }
      ],
      "stateMutability": "nonpayable",
      "type": "function"
    },
    {
      "inputs": [],
      "name": "negotiateLeave",
      "outputs": [
        {
          "internalType": "bool",
          "name": "success",
          "type": "bool"
        }
      ],
      "stateMutability": "nonpayable",
      "type": "function"
    },
    {
      "inputs": [],
      "name": "negotiationStatus",
      "outputs": [
        {
          "internalType": "uint256[2]",
          "name": "data",
          "type": "uint256[2]"
        }
      ],
      "stateMutability": "view",
      "type": "function"
    },
    {
      "inputs": [],
      "name": "claim",
      "outputs": [
        {
          "internalType": "bool",
          "name": "success",
          "type": "bool"
        }
      ],
      "stateMutability": "nonpayable",
      "type": "function"
    },
    {
      "inputs": [
        {
          "internalType": "address",
          "name": "_operator",
          "type": "address"
        },
        {
          "internalType": "address",
          "name": "",
          "type": "address"
        },
        {
          "internalType": "uint256",
          "name": "",
          "type": "uint256"
        },
        {
          "internalType": "bytes",
          "name": "",
          "type": "bytes"
        }
      ],
      "name": "onERC721Received",
      "outputs": [
        {
          "internalType": "bytes4",
          "name": "",
          "type": "bytes4"
        }
      ],
      "stateMutability": "nonpayable",
      "type": "function"
    }
  ],
  "bytecode": "0x60806040523480156200001157600080fd5b5060405162004a6e38038062004a6e8339818101604052810190620000379190620004ea565b6000878962000047919062000694565b905060005b87518160ff161015620000c357878160ff168151811062000096577f4e487b7100000000000000000000000000000000000000000000000000000000600052603260045260246000fd5b602002602001015182620000ab919062000694565b91508080620000ba9062000767565b9150506200004c565b5060648160ff161462000102576040517fe90c19eb00000000000000000000000000000000000000000000000000000000815260040160405180910390fd5b8b600660006101000a81548173ffffffffffffffffffffffffffffffffffffffff021916908373ffffffffffffffffffffffffffffffffffffffff1602179055508a6010819055508960118190555088600660146101000a81548160ff021916908360ff16021790555087600660156101000a81548160ff021916908360ff16021790555086600790805190602001906200019f9291906200031f565b508560099080519060200190620001b89291906200031f565b5084600b9080519060200190620001d19291906200031f565b5083600f60006101000a81548167ffffffffffffffff021916908367ffffffffffffffff160217905550816000806101000a81548173ffffffffffffffffffffffffffffffffffffffff021916908373ffffffffffffffffffffffffffffffffffffffff1602179055506000600c60086101000a81548160ff02191690831515021790555082601260006101000a81548167ffffffffffffffff021916908367ffffffffffffffff16021790555060078054905067ffffffffffffffff811115620002c5577f4e487b7100000000000000000000000000000000000000000000000000000000600052604160045260246000fd5b604051908082528060200260200182016040528015620002f45781602001602082028036833780820191505090505b50600a90805190602001906200030c9291906200031f565b505050505050505050505050506200086d565b82805482825590600052602060002090601f01602090048101928215620003ba5791602002820160005b838211156200038957835183826101000a81548160ff021916908360ff160217905550926020019260010160208160000104928301926001030262000349565b8015620003b85782816101000a81549060ff021916905560010160208160000104928301926001030262000389565b505b509050620003c99190620003cd565b5090565b5b80821115620003e8576000816000905550600101620003ce565b5090565b600062000403620003fd8462000665565b6200063c565b905080838252602082019050828560208602820111156200042357600080fd5b60005b858110156200045757816200043c8882620004d3565b84526020840193506020830192505060018101905062000426565b5050509392505050565b600081519050620004728162000805565b92915050565b600082601f8301126200048a57600080fd5b81516200049c848260208601620003ec565b91505092915050565b600081519050620004b6816200081f565b92915050565b600081519050620004cd8162000839565b92915050565b600081519050620004e48162000853565b92915050565b60008060008060008060008060008060006101608c8e0312156200050d57600080fd5b60006200051d8e828f0162000461565b9b50506020620005308e828f01620004a5565b9a50506040620005438e828f01620004a5565b9950506060620005568e828f01620004d3565b9850506080620005698e828f01620004d3565b97505060a08c015167ffffffffffffffff8111156200058757600080fd5b620005958e828f0162000478565b96505060c08c015167ffffffffffffffff811115620005b357600080fd5b620005c18e828f0162000478565b95505060e08c015167ffffffffffffffff811115620005df57600080fd5b620005ed8e828f0162000478565b945050610100620006018e828f01620004bc565b935050610120620006158e828f01620004bc565b925050610140620006298e828f0162000461565b9150509295989b509295989b9093969950565b6000620006486200065b565b905062000656828262000731565b919050565b6000604051905090565b600067ffffffffffffffff821115620006835762000682620007c5565b5b602082029050602081019050919050565b6000620006a18262000724565b9150620006ae8362000724565b92508260ff03821115620006c757620006c662000796565b5b828201905092915050565b6000620006df82620006e6565b9050919050565b600073ffffffffffffffffffffffffffffffffffffffff82169050919050565b6000819050919050565b600067ffffffffffffffff82169050919050565b600060ff82169050919050565b6200073c82620007f4565b810181811067ffffffffffffffff821117156200075e576200075d620007c5565b5b80604052505050565b6000620007748262000724565b915060ff8214156200078b576200078a62000796565b5b600182019050919050565b7f4e487b7100000000000000000000000000000000000000000000000000000000600052601160045260246000fd5b7f4e487b7100000000000000000000000000000000000000000000000000000000600052604160045260246000fd5b6000601f19601f8301169050919050565b6200081081620006d2565b81146200081c57600080fd5b50565b6200082a8162000706565b81146200083657600080fd5b50565b620008448162000710565b81146200085057600080fd5b50565b6200085e8162000724565b81146200086a57600080fd5b50565b6141f1806200087d6000396000f3fe60806040526004361061022c576000357c01000000000000000000000000000000000000000000000000000000009004806370a0823111610135578063b688a363116100bd578063db2e1eed1161008c578063db2e1eed14610867578063e2fd21e814610892578063e885f76b146108cf578063f541c60f146108fa578063f6432402146109255761022c565b8063b688a363146107a4578063c08d1fe5146107c2578063cb0cd6b5146107ed578063d553ed131461082a5761022c565b806393d181131161010457806393d18113146106a957806394a5c2e4146106d4578063a064c9d8146106ff578063b0417e981461073c578063b4bd497a146107675761022c565b806370a08231146105eb5780637ae6ee32146106285780637cdc65f2146106535780637f698dad1461067e5761022c565b8063379ae047116101b85780634bd1d75c116101875780634bd1d75c146104f05780634ce2cdc71461051b5780634e71d92d146105585780635d7c58ea14610583578063688594b3146105ae5761022c565b8063379ae0471461040e5780633ccfd60b1461044b5780633dad5c701461047657806342bbec59146104b35761022c565b806320949bb4116101ff57806320949bb4146103015780632808241e1461032c578063292d0c88146103695780632e8a498c146103a65780633197cbb6146103e35761022c565b8063150b7a02146102315780631b5351351461026e5780631b5a3cc914610299578063200d2ed2146102d6575b600080fd5b34801561023d57600080fd5b5061025860048036038101906102539190613544565b610950565b6040516102659190613ad2565b60405180910390f35b34801561027a57600080fd5b50610283610aa4565b6040516102909190613a81565b60405180910390f35b3480156102a557600080fd5b506102c060048036038101906102bb91906135bf565b610aca565b6040516102cd9190613ab7565b60405180910390f35b3480156102e257600080fd5b506102eb610b77565b6040516102f89190613b3e565b60405180910390f35b34801561030d57600080fd5b50610316610b8a565b6040516103239190613b3e565b60405180910390f35b34801561033857600080fd5b50610353600480360381019061034e91906136e2565b610b9d565b6040516103609190613ab7565b60405180910390f35b34801561037557600080fd5b50610390600480360381019061038b919061351b565b610eef565b60405161039d9190613aed565b60405180910390f35b3480156103b257600080fd5b506103cd60048036038101906103c8919061351b565b610f38565b6040516103da9190613aed565b60405180910390f35b3480156103ef57600080fd5b506103f8610f50565b6040516104059190613b23565b60405180910390f35b34801561041a57600080fd5b506104356004803603810190610430919061351b565b610f6a565b6040516104429190613ab7565b60405180910390f35b34801561045757600080fd5b50610460611138565b60405161046d9190613ab7565b60405180910390f35b34801561048257600080fd5b5061049d600480360381019061049891906135e8565b611397565b6040516104aa9190613b23565b60405180910390f35b3480156104bf57600080fd5b506104da60048036038101906104d591906135e8565b6113d5565b6040516104e79190613b3e565b60405180910390f35b3480156104fc57600080fd5b50610505611409565b6040516105129190613ab7565b60405180910390f35b34801561052757600080fd5b50610542600480360381019061053d91906135e8565b6114dd565b60405161054f9190613b3e565b60405180910390f35b34801561056457600080fd5b5061056d611511565b60405161057a9190613ab7565b60405180910390f35b34801561058f57600080fd5b506105986115a8565b6040516105a59190613b23565b60405180910390f35b3480156105ba57600080fd5b506105d560048036038101906105d091906135e8565b6115c2565b6040516105e29190613a4a565b60405180910390f35b3480156105f757600080fd5b50610612600480360381019061060d919061351b565b611601565b60405161061f9190613aed565b60405180910390f35b34801561063457600080fd5b5061063d6116be565b60405161064a9190613a65565b60405180910390f35b34801561065f57600080fd5b50610668611a21565b6040516106759190613a4a565b60405180910390f35b34801561068a57600080fd5b50610693611a47565b6040516106a09190613b3e565b60405180910390f35b3480156106b557600080fd5b506106be611a54565b6040516106cb9190613b08565b60405180910390f35b3480156106e057600080fd5b506106e9611a6a565b6040516106f69190613aed565b60405180910390f35b34801561070b57600080fd5b5061072660048036038101906107219190613611565b611a70565b6040516107339190613ab7565b60405180910390f35b34801561074857600080fd5b50610751611e00565b60405161075e9190613ab7565b60405180910390f35b34801561077357600080fd5b5061078e6004803603810190610789919061351b565b611ef5565b60405161079b9190613aed565b60405180910390f35b6107ac611f0d565b6040516107b99190613ab7565b60405180910390f35b3480156107ce57600080fd5b506107d761238c565b6040516107e49190613b23565b60405180910390f35b3480156107f957600080fd5b50610814600480360381019061080f91906135e8565b6123a6565b6040516108219190613b3e565b60405180910390f35b34801561083657600080fd5b50610851600480360381019061084c91906135e8565b6123da565b60405161085e9190613b3e565b60405180910390f35b34801561087357600080fd5b5061087c61240e565b6040516108899190613aed565b60405180910390f35b34801561089e57600080fd5b506108b960048036038101906108b4919061351b565b612414565b6040516108c69190613aed565b60405180910390f35b3480156108db57600080fd5b506108e461245d565b6040516108f19190613aed565b60405180910390f35b34801561090657600080fd5b5061090f612463565b60405161091c9190613aed565b60405180910390f35b34801561093157600080fd5b5061093a612469565b6040516109479190613a9c565b60405180910390f35b60008060009054906101000a900473ffffffffffffffffffffffffffffffffffffffff1673ffffffffffffffffffffffffffffffffffffffff168573ffffffffffffffffffffffffffffffffffffffff161415610a765760006109e360646109d5600660159054906101000a900460ff1660ff166001546124cb90919063ffffffff16565b6124e190919063ffffffff16565b9050600660009054906101000a900473ffffffffffffffffffffffffffffffffffffffff1673ffffffffffffffffffffffffffffffffffffffff166108fc829081150290604051600060405180830381858888f19350505050158015610a4d573d6000803e3d6000fd5b50610a57816124f7565b506003601560046101000a81548160ff021916908360ff160217905550505b63150b7a027c0100000000000000000000000000000000000000000000000000000000029050949350505050565b610aac613289565b60405180604001604052806011548152602001600154815250905090565b60008060009054906101000a900473ffffffffffffffffffffffffffffffffffffffff168073ffffffffffffffffffffffffffffffffffffffff163373ffffffffffffffffffffffffffffffffffffffff1614610b53576040517f82b4290000000000000000000000000000000000000000000000000000000000815260040160405180910390fd5b82600c60086101000a81548160ff0219169083151502179055506001915050919050565b601560049054906101000a900460ff1681565b600c60099054906101000a900460ff1681565b600080600360003373ffffffffffffffffffffffffffffffffffffffff1673ffffffffffffffffffffffffffffffffffffffff168152602001908152602001600020541415610c18576040517f995a2dae00000000000000000000000000000000000000000000000000000000815260040160405180910390fd5b604051610c2490613a0b565b60405180910390207f7cdb51e9dbbc205231228146c3246e7f914aa6d4a33170e43ecc8e3593481d1a60405160405180910390a26002601560049054906101000a900460ff1660ff16141580610c8f5750600c60099054906101000a900460ff1660ff168360ff1614155b15610cc6576040517f4733210000000000000000000000000000000000000000000000000000000000815260040160405180910390fd5b600d60003373ffffffffffffffffffffffffffffffffffffffff1673ffffffffffffffffffffffffffffffffffffffff16815260200190815260200160002060009054906101000a900460ff1615610d4a576040517f7c9a1cf900000000000000000000000000000000000000000000000000000000815260040160405180910390fd5b6000610d5533612414565b90508215610d7b578060136000828254610d6f9190613ca4565b92505081905550610d95565b8060146000828254610d8d9190613ca4565b925050819055505b6001601560008282829054906101000a900463ffffffff16610db79190613cfa565b92506101000a81548163ffffffff021916908363ffffffff1602179055506001600d60003373ffffffffffffffffffffffffffffffffffffffff1673ffffffffffffffffffffffffffffffffffffffff16815260200190815260200160002060006101000a81548160ff0219169083151502179055503373ffffffffffffffffffffffffffffffffffffffff167fa635d31e67484fd1d93ba01ab0ef882e4440a78aa40d0e2771e8a2aace45986984604051610e739190613ab7565b60405180910390a26000610e8561266b565b905060008160ff1614610ee257600060018260ff161415610eaf57610ea8612742565b9050610ec7565b60028260ff161415610ec657610ec3612a2c565b90505b5b8015610ed757610ed5612bfc565b505b809350505050610ee9565b6001925050505b92915050565b6000600e60008373ffffffffffffffffffffffffffffffffffffffff1673ffffffffffffffffffffffffffffffffffffffff168152602001908152602001600020549050919050565b60036020528060005260406000206000915090505481565b600c60009054906101000a900467ffffffffffffffff1681565b60008060009054906101000a900473ffffffffffffffffffffffffffffffffffffffff168073ffffffffffffffffffffffffffffffffffffffff163373ffffffffffffffffffffffffffffffffffffffff1614610ff3576040517f82b4290000000000000000000000000000000000000000000000000000000000815260040160405180910390fd5b600e60008473ffffffffffffffffffffffffffffffffffffffff1673ffffffffffffffffffffffffffffffffffffffff16815260200190815260200160002054600360008573ffffffffffffffffffffffffffffffffffffffff1673ffffffffffffffffffffffffffffffffffffffff16815260200190815260200160002060008282546110819190613ca4565b92505081905550600e60008473ffffffffffffffffffffffffffffffffffffffff1673ffffffffffffffffffffffffffffffffffffffff16815260200190815260200160002054600160008282546110d99190613ca4565b925050819055506000600e60008573ffffffffffffffffffffffffffffffffffffffff1673ffffffffffffffffffffffffffffffffffffffff1681526020019081526020016000208190555061112d612d17565b506001915050919050565b600080600360003373ffffffffffffffffffffffffffffffffffffffff1673ffffffffffffffffffffffffffffffffffffffff1681526020019081526020016000205414156111b3576040517f995a2dae00000000000000000000000000000000000000000000000000000000815260040160405180910390fd5b600c60089054906101000a900460ff166111d05760009050611394565b60006111db33611601565b90503373ffffffffffffffffffffffffffffffffffffffff166108fc611218833073ffffffffffffffffffffffffffffffffffffffff1631612d5b565b9081150290604051600060405180830381858888f19350505050158015611243573d6000803e3d6000fd5b506000600260003373ffffffffffffffffffffffffffffffffffffffff1673ffffffffffffffffffffffffffffffffffffffff16815260200190815260200160002060006101000a81548160ff021916908360ff1602179055506000600360003373ffffffffffffffffffffffffffffffffffffffff1673ffffffffffffffffffffffffffffffffffffffff168152602001908152602001600020819055506000600460003373ffffffffffffffffffffffffffffffffffffffff1673ffffffffffffffffffffffffffffffffffffffff1681526020019081526020016000208190555080600160008282546113399190613df6565b925050819055503373ffffffffffffffffffffffffffffffffffffffff167f884edad9ce6fa2440d8a54cc123490eb96d2768479d49ff9c7366125a9424364826040516113869190613aed565b60405180910390a260019150505b90565b600881815481106113a757600080fd5b9060005260206000209060049182820401919006600802915054906101000a900467ffffffffffffffff1681565b600781815481106113e557600080fd5b9060005260206000209060209182820401919006915054906101000a900460ff1681565b60003373ffffffffffffffffffffffffffffffffffffffff166108fc600e60003373ffffffffffffffffffffffffffffffffffffffff1673ffffffffffffffffffffffffffffffffffffffff168152602001908152602001600020549081150290604051600060405180830381858888f19350505050158015611490573d6000803e3d6000fd5b506000600e60003373ffffffffffffffffffffffffffffffffffffffff1673ffffffffffffffffffffffffffffffffffffffff168152602001908152602001600020819055506001905090565b600981815481106114ed57600080fd5b9060005260206000209060209182820401919006915054906101000a900460ff1681565b60008060009054906101000a900473ffffffffffffffffffffffffffffffffffffffff168073ffffffffffffffffffffffffffffffffffffffff163373ffffffffffffffffffffffffffffffffffffffff161461159a576040517f82b4290000000000000000000000000000000000000000000000000000000000815260040160405180910390fd5b6115a2612d74565b91505090565b600f60009054906101000a900467ffffffffffffffff1681565b600581815481106115d257600080fd5b906000526020600020016000915054906101000a900473ffffffffffffffffffffffffffffffffffffffff1681565b60006116b760646116a9600260008673ffffffffffffffffffffffffffffffffffffffff1673ffffffffffffffffffffffffffffffffffffffff16815260200190815260200160002060009054906101000a900460ff1660ff16600360008773ffffffffffffffffffffffffffffffffffffffff1673ffffffffffffffffffffffffffffffffffffffff168152602001908152602001600020546124cb90919063ffffffff16565b6124e190919063ffffffff16565b9050919050565b6116c66132ab565b604051806101400160405280600c60099054906101000a900460ff1660ff1681526020016007600c60099054906101000a900460ff1660ff1681548110611736577f4e487b7100000000000000000000000000000000000000000000000000000000600052603260045260246000fd5b90600052602060002090602091828204019190069054906101000a900460ff1660ff1681526020016117f460646117e66007600c60099054906101000a900460ff1660ff16815481106117b2577f4e487b7100000000000000000000000000000000000000000000000000000000600052603260045260246000fd5b90600052602060002090602091828204019190069054906101000a900460ff1660ff166001546124cb90919063ffffffff16565b6124e190919063ffffffff16565b81526020016009600c60099054906101000a900460ff1660ff1681548110611845577f4e487b7100000000000000000000000000000000000000000000000000000000600052603260045260246000fd5b90600052602060002090602091828204019190069054906101000a900460ff1660ff16815260200161190360646118f56009600c60099054906101000a900460ff1660ff16815481106118c1577f4e487b7100000000000000000000000000000000000000000000000000000000600052603260045260246000fd5b90600052602060002090602091828204019190069054906101000a900460ff1660ff166001546124cb90919063ffffffff16565b6124e190919063ffffffff16565b815260200160135481526020016014548152602001600a600c60099054906101000a900460ff1660ff1681548110611964577f4e487b7100000000000000000000000000000000000000000000000000000000600052603260045260246000fd5b90600052602060002090602091828204019190069054906101000a900460ff1660ff168152602001600b600c60099054906101000a900460ff1660ff16815481106119d8577f4e487b7100000000000000000000000000000000000000000000000000000000600052603260045260246000fd5b90600052602060002090602091828204019190069054906101000a900460ff1660ff168152602001601560009054906101000a900463ffffffff1663ffffffff16815250905090565b600660009054906101000a900473ffffffffffffffffffffffffffffffffffffffff1681565b6000600580549050905090565b601560009054906101000a900463ffffffff1681565b60105481565b60008060009054906101000a900473ffffffffffffffffffffffffffffffffffffffff168073ffffffffffffffffffffffffffffffffffffffff163373ffffffffffffffffffffffffffffffffffffffff1614611af9576040517f82b4290000000000000000000000000000000000000000000000000000000000815260040160405180910390fd5b6000601560049054906101000a900460ff1660ff1614611b1c5760009150611df5565b86601181905550876010819055508560079080519060200190611b409291906132ce565b5083600b9080519060200190611b579291906132ce565b508460099080519060200190611b6e9291906132ce565b5082601260006101000a81548167ffffffffffffffff021916908367ffffffffffffffff1602179055506001600c60086101000a81548160ff021916908315150217905550600060018190555060005b600580549050811015611dd3576003600060058381548110611c09577f4e487b7100000000000000000000000000000000000000000000000000000000600052603260045260246000fd5b9060005260206000200160009054906101000a900473ffffffffffffffffffffffffffffffffffffffff1673ffffffffffffffffffffffffffffffffffffffff1673ffffffffffffffffffffffffffffffffffffffff16815260200190815260200160002054600e600060058481548110611cad577f4e487b7100000000000000000000000000000000000000000000000000000000600052603260045260246000fd5b9060005260206000200160009054906101000a900473ffffffffffffffffffffffffffffffffffffffff1673ffffffffffffffffffffffffffffffffffffffff1673ffffffffffffffffffffffffffffffffffffffff1681526020019081526020016000208190555060006003600060058481548110611d56577f4e487b7100000000000000000000000000000000000000000000000000000000600052603260045260246000fd5b9060005260206000200160009054906101000a900473ffffffffffffffffffffffffffffffffffffffff1673ffffffffffffffffffffffffffffffffffffffff1673ffffffffffffffffffffffffffffffffffffffff16815260200190815260200160002081905550600181611dcc9190613ca4565b9050611bbe565b506001601560046101000a81548160ff021916908360ff160217905550600191505b509695505050505050565b60008060009054906101000a900473ffffffffffffffffffffffffffffffffffffffff168073ffffffffffffffffffffffffffffffffffffffff163373ffffffffffffffffffffffffffffffffffffffff1614611e89576040517f82b4290000000000000000000000000000000000000000000000000000000000815260040160405180910390fd5b6000611e9361266b565b905060008160ff1614611eef57600060018260ff161415611ebd57611eb6612742565b9050611ed5565b60028260ff161415611ed457611ed1612a2c565b90505b5b8015611ee557611ee3612bfc565b505b8093505050611ef1565b505b5090565b60046020528060005260406000206000915090505481565b6000600f60009054906101000a900467ffffffffffffffff168067ffffffffffffffff16421115611f6a576040517fecdd1c2900000000000000000000000000000000000000000000000000000000815260040160405180910390fd5b604051611f76906139b7565b60405180910390207f7cdb51e9dbbc205231228146c3246e7f914aa6d4a33170e43ecc8e3593481d1a60405160405180910390a26000341415611fe5576040517f995a2dae00000000000000000000000000000000000000000000000000000000815260040160405180910390fd5b601054343073ffffffffffffffffffffffffffffffffffffffff163161200b9190613ca4565b10612042576040517f77d09e5000000000000000000000000000000000000000000000000000000000815260040160405180910390fd5b6000600360003373ffffffffffffffffffffffffffffffffffffffff1673ffffffffffffffffffffffffffffffffffffffff168152602001908152602001600020541480156120d057506000600e60003373ffffffffffffffffffffffffffffffffffffffff1673ffffffffffffffffffffffffffffffffffffffff16815260200190815260200160002054145b1561230c576000606490506000600580549050111561219e57600260006005600081548110612128577f4e487b7100000000000000000000000000000000000000000000000000000000600052603260045260246000fd5b9060005260206000200160009054906101000a900473ffffffffffffffffffffffffffffffffffffffff1673ffffffffffffffffffffffffffffffffffffffff1673ffffffffffffffffffffffffffffffffffffffff16815260200190815260200160002060009054906101000a900460ff1690505b60648160ff161461224f5760006121e260646121d48460646121c09190613e2a565b60ff166001546124cb90919063ffffffff16565b6124e190919063ffffffff16565b9050600660009054906101000a900473ffffffffffffffffffffffffffffffffffffffff1673ffffffffffffffffffffffffffffffffffffffff166108fc829081150290604051600060405180830381858888f1935050505015801561224c573d6000803e3d6000fd5b50505b6005339080600181540180825580915050600190039060005260206000200160009091909190916101000a81548173ffffffffffffffffffffffffffffffffffffffff021916908373ffffffffffffffffffffffffffffffffffffffff16021790555080600260003373ffffffffffffffffffffffffffffffffffffffff1673ffffffffffffffffffffffffffffffffffffffff16815260200190815260200160002060006101000a81548160ff021916908360ff160217905550505b34600360003373ffffffffffffffffffffffffffffffffffffffff1673ffffffffffffffffffffffffffffffffffffffff168152602001908152602001600020600082825461235b9190613ca4565b9250508190555034600160008282546123749190613ca4565b92505081905550612383612d17565b50600191505090565b601260009054906101000a900467ffffffffffffffff1681565b600b81815481106123b657600080fd5b9060005260206000209060209182820401919006915054906101000a900460ff1681565b600a81815481106123ea57600080fd5b9060005260206000209060209182820401919006915054906101000a900460ff1681565b60115481565b6000600360008373ffffffffffffffffffffffffffffffffffffffff1673ffffffffffffffffffffffffffffffffffffffff168152602001908152602001600020549050919050565b60135481565b60145481565b612471613375565b6000600c60089054906101000a900460ff1661248e576000612491565b60015b60ff16905060405180606001604052806001548152602001828152602001601560049054906101000a900460ff1660ff1681525091505090565b600081836124d99190613d9c565b905092915050565b600081836124ef9190613d6b565b905092915050565b600060405161250590613a35565b60405180910390207f7cdb51e9dbbc205231228146c3246e7f914aa6d4a33170e43ecc8e3593481d1a60405160405180910390a260006125636001546125556064866124cb90919063ffffffff16565b6124e190919063ffffffff16565b905060005b600580549050811015612660578160026000600584815481106125b4577f4e487b7100000000000000000000000000000000000000000000000000000000600052603260045260246000fd5b9060005260206000200160009054906101000a900473ffffffffffffffffffffffffffffffffffffffff1673ffffffffffffffffffffffffffffffffffffffff1673ffffffffffffffffffffffffffffffffffffffff16815260200190815260200160002060008282829054906101000a900460ff166126349190613e2a565b92506101000a81548160ff021916908360ff1602179055506001816126599190613ca4565b9050612568565b506001915050919050565b60008061270460646126f66009600c60099054906101000a900460ff1660ff16815481106126c2577f4e487b7100000000000000000000000000000000000000000000000000000000600052603260045260246000fd5b90600052602060002090602091828204019190069054906101000a900460ff1660ff166001546124cb90919063ffffffff16565b6124e190919063ffffffff16565b9050806013541061271957600191505061273f565b806001546127279190613df6565b6014541061273957600291505061273f565b60009150505b90565b600060405161275090613a20565b60405180910390207f7cdb51e9dbbc205231228146c3246e7f914aa6d4a33170e43ecc8e3593481d1a60405160405180910390a260006007600c60099054906101000a900460ff1660ff16815481106127d2577f4e487b7100000000000000000000000000000000000000000000000000000000600052603260045260246000fd5b90600052602060002090602091828204019190069054906101000a900460ff1660ff16141561282d576040517fd70a0e3000000000000000000000000000000000000000000000000000000000815260040160405180910390fd5b60006128c560646128b76007600c60099054906101000a900460ff1660ff1681548110612883577f4e487b7100000000000000000000000000000000000000000000000000000000600052603260045260246000fd5b90600052602060002090602091828204019190069054906101000a900460ff1660ff166001546124cb90919063ffffffff16565b6124e190919063ffffffff16565b9050600660009054906101000a900473ffffffffffffffffffffffffffffffffffffffff1673ffffffffffffffffffffffffffffffffffffffff166108fc829081150290604051600060405180830381858888f1935050505015801561292f573d6000803e3d6000fd5b5060006007600c60099054906101000a900460ff1660ff168154811061297e577f4e487b7100000000000000000000000000000000000000000000000000000000600052603260045260246000fd5b90600052602060002090602091828204019190066101000a81548160ff021916908360ff1602179055506129b1816124f7565b507f0e45f244d89cea5099c0a6f24efd8cfde53e85de3cbf08c24acc387c1160ccc3600c60099054906101000a900460ff1682600660009054906101000a900473ffffffffffffffffffffffffffffffffffffffff16604051612a1693929190613b59565b60405180910390a1612a26612ede565b91505090565b6000604051612a3a906139f6565b60405180910390207f7cdb51e9dbbc205231228146c3246e7f914aa6d4a33170e43ecc8e3593481d1a60405160405180910390a26001600a600c60099054906101000a900460ff1660ff1681548110612abc577f4e487b7100000000000000000000000000000000000000000000000000000000600052603260045260246000fd5b90600052602060002090602091828204019190068282829054906101000a900460ff16612ae99190613d34565b92506101000a81548160ff021916908360ff160217905550600b600c60099054906101000a900460ff1660ff1681548110612b4d577f4e487b7100000000000000000000000000000000000000000000000000000000600052603260045260246000fd5b90600052602060002090602091828204019190069054906101000a900460ff1660ff16600a600c60099054906101000a900460ff1660ff1681548110612bbc577f4e487b7100000000000000000000000000000000000000000000000000000000600052603260045260246000fd5b90600052602060002090602091828204019190069054906101000a900460ff1660ff161415612bf457612bed612f8a565b9050612bf9565b600190505b90565b60008060138190555060006014819055506000601560006101000a81548163ffffffff021916908363ffffffff16021790555060005b600580549050811015612d0f576000600d600060058481548110612c7f577f4e487b7100000000000000000000000000000000000000000000000000000000600052603260045260246000fd5b9060005260206000200160009054906101000a900473ffffffffffffffffffffffffffffffffffffffff1673ffffffffffffffffffffffffffffffffffffffff1673ffffffffffffffffffffffffffffffffffffffff16815260200190815260200160002060006101000a81548160ff021916908315150217905550600181612d089190613ca4565b9050612c32565b506001905090565b60006001601560049054906101000a900460ff1660ff16148015612d3f575060115460015410155b15612d5357612d4c612d74565b9050612d58565b600090505b90565b6000818310612d6a5781612d6c565b825b905092915050565b60006002601560049054906101000a900460ff1660ff1610612d995760009050612edb565b601260009054906101000a900467ffffffffffffffff1667ffffffffffffffff1642612dc59190613ca4565b600c60006101000a81548167ffffffffffffffff021916908367ffffffffffffffff1602179055506000600c60086101000a81548160ff0219169083151502179055506002601560046101000a81548160ff021916908360ff1602179055506000612e606064612e52600660149054906101000a900460ff1660ff166001546124cb90919063ffffffff16565b6124e190919063ffffffff16565b9050600660009054906101000a900473ffffffffffffffffffffffffffffffffffffffff1673ffffffffffffffffffffffffffffffffffffffff166108fc829081150290604051600060405180830381858888f19350505050158015612eca573d6000803e3d6000fd5b50612ed4816124f7565b5060019150505b90565b6000604051612eec906139cc565b60405180910390207f7cdb51e9dbbc205231228146c3246e7f914aa6d4a33170e43ecc8e3593481d1a60405160405180910390a26001600780549050612f329190613df6565b600c60099054906101000a900460ff1660ff161015612f83576001600c60098282829054906101000a900460ff16612f6a9190613d34565b92506101000a81548160ff021916908360ff1602179055505b6001905090565b6000604051612f98906139e1565b60405180910390207f7cdb51e9dbbc205231228146c3246e7f914aa6d4a33170e43ecc8e3593481d1a60405160405180910390a2600061306460646130566007600c60099054906101000a900460ff1660ff1681548110613022577f4e487b7100000000000000000000000000000000000000000000000000000000600052603260045260246000fd5b90600052602060002090602091828204019190069054906101000a900460ff1660ff166001546124cb90919063ffffffff16565b6124e190919063ffffffff16565b905060005b60058054905081101561322a576000613143600154613135606460036000600588815481106130c1577f4e487b7100000000000000000000000000000000000000000000000000000000600052603260045260246000fd5b9060005260206000200160009054906101000a900473ffffffffffffffffffffffffffffffffffffffff1673ffffffffffffffffffffffffffffffffffffffff1673ffffffffffffffffffffffffffffffffffffffff168152602001908152602001600020546124cb90919063ffffffff16565b6124e190919063ffffffff16565b90506005828154811061317f577f4e487b7100000000000000000000000000000000000000000000000000000000600052603260045260246000fd5b9060005260206000200160009054906101000a900473ffffffffffffffffffffffffffffffffffffffff1673ffffffffffffffffffffffffffffffffffffffff166108fc6131e960646131db85886124cb90919063ffffffff16565b6124e190919063ffffffff16565b9081150290604051600060405180830381858888f19350505050158015613214573d6000803e3d6000fd5b50506001816132239190613ca4565b9050613069565b50613234816124f7565b507f230739317a7f90b018762e0570d567293eac14d67441b810f714879dd6aed0bf600c60099054906101000a900460ff166040516132739190613b3e565b60405180910390a1613283612ede565b91505090565b6040518060400160405280600290602082028036833780820191505090505090565b604051806101400160405280600a90602082028036833780820191505090505090565b82805482825590600052602060002090601f016020900481019282156133645791602002820160005b8382111561333557835183826101000a81548160ff021916908360ff16021790555092602001926001016020816000010492830192600103026132f7565b80156133625782816101000a81549060ff0219169055600101602081600001049283019260010302613335565b505b5090506133719190613397565b5090565b6040518060600160405280600390602082028036833780820191505090505090565b5b808211156133b0576000816000905550600101613398565b5090565b60006133c76133c284613bb5565b613b90565b905080838252602082019050828560208602820111156133e657600080fd5b60005b8581101561341657816133fc8882613506565b8452602084019350602083019250506001810190506133e9565b5050509392505050565b600061343361342e84613be1565b613b90565b90508281526020810184848401111561344b57600080fd5b613456848285613f4b565b509392505050565b60008135905061346d81614148565b92915050565b600082601f83011261348457600080fd5b81356134948482602086016133b4565b91505092915050565b6000813590506134ac8161415f565b92915050565b600082601f8301126134c357600080fd5b81356134d3848260208601613420565b91505092915050565b6000813590506134eb81614176565b92915050565b6000813590506135008161418d565b92915050565b600081359050613515816141a4565b92915050565b60006020828403121561352d57600080fd5b600061353b8482850161345e565b91505092915050565b6000806000806080858703121561355a57600080fd5b60006135688782880161345e565b94505060206135798782880161345e565b935050604061358a878288016134dc565b925050606085013567ffffffffffffffff8111156135a757600080fd5b6135b3878288016134b2565b91505092959194509250565b6000602082840312156135d157600080fd5b60006135df8482850161349d565b91505092915050565b6000602082840312156135fa57600080fd5b6000613608848285016134dc565b91505092915050565b60008060008060008060c0878903121561362a57600080fd5b600061363889828a016134dc565b965050602061364989828a016134dc565b955050604087013567ffffffffffffffff81111561366657600080fd5b61367289828a01613473565b945050606087013567ffffffffffffffff81111561368f57600080fd5b61369b89828a01613473565b935050608087013567ffffffffffffffff8111156136b857600080fd5b6136c489828a01613473565b92505060a06136d589828a016134f1565b9150509295509295509295565b600080604083850312156136f557600080fd5b600061370385828601613506565b92505060206137148582860161349d565b9150509250929050565b600061372a838361396c565b60208301905092915050565b61373f81613f15565b82525050565b61374e81613e70565b82525050565b61375d81613c30565b6137678184613c78565b925061377282613c12565b8060005b838110156137a357815161378a878261371e565b965061379583613c51565b925050600181019050613776565b505050505050565b6137b481613c3b565b6137be8184613c83565b92506137c982613c1c565b8060005b838110156137fa5781516137e1878261371e565b96506137ec83613c5e565b9250506001810190506137cd565b505050505050565b61380b81613c46565b6138158184613c8e565b925061382082613c26565b8060005b83811015613851578151613838878261371e565b965061384383613c6b565b925050600181019050613824565b505050505050565b61386281613e82565b82525050565b61387181613e8e565b82525050565b6000613884600b83613c99565b915061388f82614029565b600b82019050919050565b60006138a7600d83613c99565b91506138b282614052565b600d82019050919050565b60006138ca600f83613c99565b91506138d58261407b565b600f82019050919050565b60006138ed600d83613c99565b91506138f8826140a4565b600d82019050919050565b6000613910600b83613c99565b915061391b826140cd565b600b82019050919050565b6000613933600d83613c99565b915061393e826140f6565b600d82019050919050565b6000613956600e83613c99565b91506139618261411f565b600e82019050919050565b61397581613eda565b82525050565b61398481613eda565b82525050565b61399381613ee4565b82525050565b6139a281613ef4565b82525050565b6139b181613f08565b82525050565b60006139c282613877565b9150819050919050565b60006139d78261389a565b9150819050919050565b60006139ec826138bd565b9150819050919050565b6000613a01826138e0565b9150819050919050565b6000613a1682613903565b9150819050919050565b6000613a2b82613926565b9150819050919050565b6000613a4082613949565b9150819050919050565b6000602082019050613a5f6000830184613745565b92915050565b600061014082019050613a7b6000830184613754565b92915050565b6000604082019050613a9660008301846137ab565b92915050565b6000606082019050613ab16000830184613802565b92915050565b6000602082019050613acc6000830184613859565b92915050565b6000602082019050613ae76000830184613868565b92915050565b6000602082019050613b02600083018461397b565b92915050565b6000602082019050613b1d600083018461398a565b92915050565b6000602082019050613b386000830184613999565b92915050565b6000602082019050613b5360008301846139a8565b92915050565b6000606082019050613b6e60008301866139a8565b613b7b602083018561397b565b613b886040830184613736565b949350505050565b6000613b9a613bab565b9050613ba68282613f5a565b919050565b6000604051905090565b600067ffffffffffffffff821115613bd057613bcf613fe9565b5b602082029050602081019050919050565b600067ffffffffffffffff821115613bfc57613bfb613fe9565b5b613c0582614018565b9050602081019050919050565b6000819050919050565b6000819050919050565b6000819050919050565b6000600a9050919050565b600060029050919050565b600060039050919050565b6000602082019050919050565b6000602082019050919050565b6000602082019050919050565b600081905092915050565b600081905092915050565b600081905092915050565b600081905092915050565b6000613caf82613eda565b9150613cba83613eda565b9250827fffffffffffffffffffffffffffffffffffffffffffffffffffffffffffffffff03821115613cef57613cee613f8b565b5b828201905092915050565b6000613d0582613ee4565b9150613d1083613ee4565b92508263ffffffff03821115613d2957613d28613f8b565b5b828201905092915050565b6000613d3f82613f08565b9150613d4a83613f08565b92508260ff03821115613d6057613d5f613f8b565b5b828201905092915050565b6000613d7682613eda565b9150613d8183613eda565b925082613d9157613d90613fba565b5b828204905092915050565b6000613da782613eda565b9150613db283613eda565b9250817fffffffffffffffffffffffffffffffffffffffffffffffffffffffffffffffff0483118215151615613deb57613dea613f8b565b5b828202905092915050565b6000613e0182613eda565b9150613e0c83613eda565b925082821015613e1f57613e1e613f8b565b5b828203905092915050565b6000613e3582613f08565b9150613e4083613f08565b925082821015613e5357613e52613f8b565b5b828203905092915050565b6000613e6982613eba565b9050919050565b6000613e7b82613eba565b9050919050565b60008115159050919050565b60007fffffffff0000000000000000000000000000000000000000000000000000000082169050919050565b600073ffffffffffffffffffffffffffffffffffffffff82169050919050565b6000819050919050565b600063ffffffff82169050919050565b600067ffffffffffffffff82169050919050565b600060ff82169050919050565b6000613f2082613f27565b9050919050565b6000613f3282613f39565b9050919050565b6000613f4482613eba565b9050919050565b82818337600083830152505050565b613f6382614018565b810181811067ffffffffffffffff82111715613f8257613f81613fe9565b5b80604052505050565b7f4e487b7100000000000000000000000000000000000000000000000000000000600052601160045260246000fd5b7f4e487b7100000000000000000000000000000000000000000000000000000000600052601260045260246000fd5b7f4e487b7100000000000000000000000000000000000000000000000000000000600052604160045260246000fd5b6000601f19601f8301169050919050565b7f6a6f696e2063616c6c6564000000000000000000000000000000000000000000600082015250565b7f6e6578744d696c6573746f6e6500000000000000000000000000000000000000600082015250565b7f6661696c416e6457697468647261770000000000000000000000000000000000600082015250565b7f6661696c4d696c6573746f6e6500000000000000000000000000000000000000600082015250565b7f766f74652063616c6c6564000000000000000000000000000000000000000000600082015250565b7f617070726f7665416e6450617900000000000000000000000000000000000000600082015250565b7f61646a75737442616c616e636573000000000000000000000000000000000000600082015250565b61415181613e5e565b811461415c57600080fd5b50565b61416881613e82565b811461417357600080fd5b50565b61417f81613eda565b811461418a57600080fd5b50565b61419681613ef4565b81146141a157600080fd5b50565b6141ad81613f08565b81146141b857600080fd5b5056fea26469706673582212206e61ae52ac59c59d45d33097a6222ae6a6eca2e22ab9727f1699102cf5b7b52764736f6c63430008040033",
  "immutableReferences": {},
  "source": "pragma solidity ^0.8.0;\r\nimport \"@openzeppelin/contracts/utils/math/SafeMath.sol\";\r\nimport \"@openzeppelin/contracts/utils/math/Math.sol\";\r\nimport \"@openzeppelin/contracts/token/ERC721/IERC721Receiver.sol\";\r\n\r\nabstract contract Treasury {\r\n    using SafeMath for uint256;\r\n    address payable owner;\r\n\r\n    // the total balance in this treasury\r\n    // recorded at the time of vote and used to calculate equity share\r\n    uint256 totalContribution;\r\n\r\n    mapping(address => uint8) pctBalanceRemaining; // fan address => pct equity remaining\r\n    mapping(address => uint256) public equity; // fan address => contribution\r\n    mapping(address => uint256) public votingEquity; // fan address => voting rights\r\n    address payable[] public fans; // fan address to withdraw to, mirrors equity\r\n    address payable public creatorWallet;\r\n\r\n    // NOTE: the below pcts MUST ADD UP TO 100 or the constructor will reject\r\n    uint8 pctCreatorInitialDisbursement;\r\n    uint8 pctCreatorFinalDisbursement;\r\n    uint8[] public bonusTargets; // the payout percentages (out of 100) for bonus targets 0,1,2,..\r\n\r\n    uint64[] public bonusDeadlines; // the time that bonus[i] expires defaulting to NO\r\n    uint8[] public bonusPctYeasNeeded; // pct yeas needed to pass bonus[i]\r\n    uint8[] public bonusFailures; // how many times bonus[i] has failed a vote\r\n    uint8[] public bonusFailureThresholds; // how many times bonus[i] can fail before automatic withdrawal\r\n\r\n    uint64 public endTime; // the time that this contract expires and mints automatically\r\n    bool isPrecipitatingEvent; // IFF true, withdrawals can take place\r\n\r\n    uint8 public votingOn; // the current milestone that votes are tallied towards\r\n\r\n    error IncorrectPercentages();\r\n    error Unauthorized();\r\n    error TooLate();\r\n    error AlreadyPaid();\r\n    error NoEquity();\r\n    error MaxValueReached();\r\n\r\n    modifier onlyBy(address _account) {\r\n        if (msg.sender != _account) revert Unauthorized();\r\n        _;\r\n    }\r\n    modifier onlyBefore(uint64 _time) {\r\n        if (block.timestamp > _time) revert TooLate();\r\n        _;\r\n    }\r\n    modifier onlyWithEquity() {\r\n        if (equity[msg.sender] == 0) revert NoEquity();\r\n        _;\r\n    }\r\n\r\n    function balanceOf(address _owner) public view returns (uint256 balance) {\r\n        return equity[_owner].mul(pctBalanceRemaining[_owner]).div(100);\r\n    }\r\n\r\n    function equityOf(address _owner) public view returns (uint256 balance) {\r\n        return equity[_owner];\r\n    }\r\n\r\n    function withdraw() public onlyWithEquity returns (bool success) {\r\n        if (!isPrecipitatingEvent) {\r\n            return false;\r\n        }\r\n        uint256 amount = balanceOf(msg.sender);\r\n        payable(msg.sender).transfer(Math.min(amount, address(this).balance));\r\n        // Wipe balance and equity from this user\r\n        pctBalanceRemaining[msg.sender] = 0;\r\n        equity[msg.sender] = 0;\r\n        votingEquity[msg.sender] = 0;\r\n        // Subtract from total so that all other %s are correct\r\n        totalContribution -= amount;\r\n\r\n        emit Withdraw(msg.sender, amount);\r\n        return true;\r\n    }\r\n\r\n    function precipitatingEvent(bool onOff)\r\n        public\r\n        onlyBy(owner)\r\n        returns (bool success)\r\n    {\r\n        isPrecipitatingEvent = onOff;\r\n        return true;\r\n    }\r\n\r\n    function nextMilestone() private returns (bool success) {\r\n        emit Debug(\"nextMilestone\");\r\n        if (votingOn < bonusTargets.length - 1) {\r\n            votingOn += 1;\r\n        }\r\n        return true;\r\n    }\r\n\r\n    // Called by server at time of expiry - should check whether this vote\r\n    // actually succeeded and auto fail/withdraw/move on otherwise\r\n    function failMilestone() internal returns (bool success) {\r\n        emit Debug(\"failMilestone\");\r\n        bonusFailures[votingOn] += 1;\r\n        if (bonusFailures[votingOn] == bonusFailureThresholds[votingOn]) {\r\n            return failAndWithdraw();\r\n        }\r\n        return true;\r\n    }\r\n\r\n    function failAndWithdraw() internal returns (bool success) {\r\n        emit Debug(\"failAndWithdraw\");\r\n        // the amount about to be disbursed among all equity holders\r\n        uint256 disbursement = totalContribution\r\n            .mul(bonusTargets[votingOn])\r\n            .div(100);\r\n        for (uint256 i = 0; i < fans.length; i += 1) {\r\n            // calculate the equity % from totalContribution vs equity\r\n            uint256 pctContrib = equity[fans[i]].mul(100).div(\r\n                totalContribution\r\n            ); // percent * 100\r\n            fans[i].transfer(disbursement.mul(pctContrib).div(100));\r\n        }\r\n        // adjust all balances downward\r\n        adjustBalances(disbursement);\r\n\r\n        emit Failure(votingOn);\r\n        return nextMilestone();\r\n    }\r\n\r\n    function approveAndPay() internal returns (bool success) {\r\n        emit Debug(\"approveAndPay\");\r\n        if (bonusTargets[votingOn] == 0) {\r\n            revert AlreadyPaid();\r\n        }\r\n        uint256 disbursement = totalContribution\r\n            .mul(bonusTargets[votingOn])\r\n            .div(100);\r\n        creatorWallet.transfer(disbursement);\r\n        bonusTargets[votingOn] = 0;\r\n        // adjust all balances downward\r\n        adjustBalances(disbursement);\r\n\r\n        emit Approval(votingOn, disbursement, creatorWallet);\r\n        return nextMilestone();\r\n    }\r\n\r\n    function adjustBalances(uint256 disbursement)\r\n        internal\r\n        returns (bool success)\r\n    {\r\n        emit Debug(\"adjustBalances\");\r\n        // calc the % to adjust downward\r\n        uint256 pctAdjust = disbursement.mul(100).div(totalContribution);\r\n        for (uint256 i = 0; i < fans.length; i += 1) {\r\n            pctBalanceRemaining[fans[i]] -= uint8(pctAdjust);\r\n        }\r\n        return true;\r\n    }\r\n\r\n    event Withdraw(address indexed _to, uint256 _amount);\r\n    event Approval(uint8 _milestone, uint256 _amount, address _creatorWallet);\r\n    event Failure(uint8 _milestone);\r\n    event Debug(string indexed msg);\r\n}\r\n\r\ncontract Bounty is Treasury, IERC721Receiver {\r\n    using SafeMath for uint256;\r\n\r\n    mapping(address => bool) votedThisRound; // whether this address has already voted\r\n    // snapshot of funders at time of negotiation, can be withdrawn from always\r\n    mapping(address => uint256) mustRejoinTreasury;\r\n    uint64 public mustBeClaimedTime; // the time epoch at which this bounty expires if unclaimed\r\n    uint256 public maxValue; // the max value this bounty could be\r\n    uint256 public reservePrice; // the lowest value that this bounty can be, otherwise it expires\r\n    uint64 public timeLimit; // the time limit in seconds that this bounty must be completed in\r\n    uint256 public currentYeas; // yea vote weight for the current bonus\r\n    uint256 public currentNays; // nay vote weight for the current bonus\r\n    uint32 public currentVotesCast; // number of discrete votes cast for the current bonus\r\n    uint8 public status; // [UNCLAIMED, NEGOTIATING, CLAIMED, SUCCESS, FAILURE]\r\n\r\n    error VoteOver();\r\n    error AlreadyVoted();\r\n\r\n    constructor(\r\n        address payable _creatorWallet,\r\n        uint256 _maxValue,\r\n        uint256 _reservePrice,\r\n        uint8 _pctCreatorInitialDisbursement,\r\n        uint8 _pctCreatorFinalDisbursement,\r\n        uint8[] memory _bonusTargets,\r\n        uint8[] memory _bonusPctYeasNeeded,\r\n        uint8[] memory _bonusFailureThresholds,\r\n        uint64 _mustBeClaimedTime,\r\n        uint64 _timeLimit,\r\n        address payable _owner\r\n    ) {\r\n        uint8 sum = _pctCreatorInitialDisbursement +\r\n            _pctCreatorFinalDisbursement;\r\n        for (uint8 i = 0; i < _bonusTargets.length; i++) {\r\n            sum += _bonusTargets[i];\r\n        }\r\n        if (sum != 100) {\r\n            revert IncorrectPercentages();\r\n        }\r\n        creatorWallet = _creatorWallet;\r\n        maxValue = _maxValue;\r\n        reservePrice = _reservePrice;\r\n        pctCreatorInitialDisbursement = _pctCreatorInitialDisbursement;\r\n        pctCreatorFinalDisbursement = _pctCreatorFinalDisbursement;\r\n        bonusTargets = _bonusTargets;\r\n        bonusPctYeasNeeded = _bonusPctYeasNeeded;\r\n        bonusFailureThresholds = _bonusFailureThresholds;\r\n        mustBeClaimedTime = _mustBeClaimedTime;\r\n        owner = _owner;\r\n        isPrecipitatingEvent = false;\r\n        timeLimit = _timeLimit;\r\n        bonusFailures = new uint8[](bonusTargets.length);\r\n    }\r\n\r\n    function uniqueFans() public view returns (uint8 num) {\r\n        return uint8(fans.length);\r\n    }\r\n\r\n    // Returns [totalContribution, isPrecipitatingEvent, status]\r\n    function bountyStatus() public view returns (uint256[3] memory stats) {\r\n        uint256 isPrecipitatingEventNum = isPrecipitatingEvent ? 1 : 0;\r\n        return [totalContribution, isPrecipitatingEventNum, uint256(status)];\r\n    }\r\n\r\n    // Returns [milestone, bonusTargetPct, bonusTargetEth, pctYeas, yeasNeeded, yeas, nays, timesFailed, failureThreshold, totalVoters]\r\n    function voteStatus() public view returns (uint256[10] memory stats) {\r\n        return [\r\n            votingOn,\r\n            bonusTargets[votingOn],\r\n            totalContribution.mul(bonusTargets[votingOn]).div(100),\r\n            bonusPctYeasNeeded[votingOn],\r\n            totalContribution.mul(bonusPctYeasNeeded[votingOn]).div(100),\r\n            currentYeas,\r\n            currentNays,\r\n            uint256(bonusFailures[votingOn]),\r\n            bonusFailureThresholds[votingOn],\r\n            currentVotesCast\r\n        ];\r\n    }\r\n\r\n    function join()\r\n        public\r\n        payable\r\n        onlyBefore(mustBeClaimedTime)\r\n        returns (bool success)\r\n    {\r\n        emit Debug(\"join called\");\r\n        if (msg.value == 0) {\r\n            revert NoEquity();\r\n        }\r\n        if (address(this).balance + msg.value >= maxValue) {\r\n            revert MaxValueReached();\r\n        }\r\n        if (equity[msg.sender] == 0 && mustRejoinTreasury[msg.sender] == 0) {\r\n            // how much have other fans paid already? disburse this % from the new number\r\n            uint8 pctRemaining = 100;\r\n            if (fans.length > 0) {\r\n                pctRemaining = pctBalanceRemaining[fans[0]];\r\n            }\r\n            if (pctRemaining != 100) {\r\n                // disburse funds to creator immediately here\r\n                uint256 disbursement = totalContribution\r\n                    .mul(100 - pctRemaining)\r\n                    .div(100);\r\n                creatorWallet.transfer(disbursement);\r\n            }\r\n            // fan not added yet\r\n            fans.push(payable(msg.sender));\r\n            pctBalanceRemaining[msg.sender] = pctRemaining;\r\n        }\r\n        equity[msg.sender] += msg.value;\r\n        totalContribution += msg.value;\r\n\r\n        checkReserveMetAndClaim();\r\n        return true;\r\n    }\r\n\r\n    function checkVote() public onlyBy(owner) returns (bool success) {\r\n        uint8 voteStat = checkVoteMarginMet();\r\n        if (voteStat != 0) {\r\n            bool result;\r\n            if (voteStat == 1) {\r\n                result = approveAndPay();\r\n            } else if (voteStat == 2) {\r\n                result = failMilestone();\r\n            }\r\n            // result is true if we took a step forward, otherwise false\r\n            if (result) {\r\n                // Wipe the state if either of these things happens\r\n                wipeStateForBonus();\r\n            }\r\n            return result;\r\n        }\r\n    }\r\n\r\n    // Returns 0 if not a done vote yet, 1 if passed, 2 if failed\r\n    function checkVoteMarginMet() private view returns (uint8 met) {\r\n        uint256 yeasNeeded = totalContribution\r\n            .mul(bonusPctYeasNeeded[votingOn])\r\n            .div(100);\r\n        if (currentYeas >= yeasNeeded) {\r\n            return 1;\r\n        } else if (currentNays >= totalContribution - yeasNeeded) {\r\n            return 2;\r\n        }\r\n        return 0;\r\n    }\r\n\r\n    function vote(uint8 _milestone, bool _vote)\r\n        public\r\n        onlyWithEquity\r\n        returns (bool success)\r\n    {\r\n        emit Debug(\"vote called\");\r\n        // Not yet claimed\r\n        if (status != 2 || _milestone != votingOn) {\r\n            revert VoteOver();\r\n        }\r\n        if (votedThisRound[msg.sender]) {\r\n            revert AlreadyVoted();\r\n        }\r\n        uint256 amount = equityOf(msg.sender);\r\n        if (_vote) {\r\n            currentYeas += amount;\r\n        } else {\r\n            currentNays += amount;\r\n        }\r\n        currentVotesCast += 1;\r\n        votedThisRound[msg.sender] = true;\r\n\r\n        emit Vote(msg.sender, _vote);\r\n\r\n        uint8 _status = checkVoteMarginMet();\r\n        if (_status != 0) {\r\n            bool result;\r\n            if (_status == 1) {\r\n                result = approveAndPay();\r\n            } else if (_status == 2) {\r\n                result = failMilestone();\r\n            }\r\n            // result is true if we took a step forward, otherwise false\r\n            if (result) {\r\n                // Wipe the state if either of these things happens\r\n                wipeStateForBonus();\r\n            }\r\n            return result;\r\n        }\r\n        return true;\r\n    }\r\n\r\n    function negotiate(\r\n        uint256 _maxValue,\r\n        uint256 _reservePrice,\r\n        uint8[] memory _bonusTargets,\r\n        uint8[] memory _bonusPctYeasNeeded,\r\n        uint8[] memory _bonusFailureThresholds,\r\n        uint64 _timeLimit\r\n    ) public onlyBy(owner) returns (bool success) {\r\n        if (status != 0) {\r\n            return false;\r\n        }\r\n        reservePrice = _reservePrice;\r\n        maxValue = _maxValue;\r\n        bonusTargets = _bonusTargets;\r\n        bonusFailureThresholds = _bonusFailureThresholds;\r\n        bonusPctYeasNeeded = _bonusPctYeasNeeded;\r\n        timeLimit = _timeLimit;\r\n        isPrecipitatingEvent = true;\r\n\r\n        // MAKE A SNAPSHOT OF THE TREASURY AND RESET\r\n        totalContribution = 0;\r\n        for (uint256 i = 0; i < fans.length; i += 1) {\r\n            mustRejoinTreasury[fans[i]] = equity[fans[i]];\r\n            equity[fans[i]] = 0;\r\n        }\r\n        status = 1; // NEGOTIATING\r\n        return true;\r\n    }\r\n\r\n    function amountRejoinTreasury(address _addr)\r\n        public\r\n        view\r\n        returns (uint256 canRejoin)\r\n    {\r\n        return mustRejoinTreasury[_addr];\r\n    }\r\n\r\n    function negotiateRejoin(address _addr)\r\n        public\r\n        onlyBy(owner)\r\n        returns (bool success)\r\n    {\r\n        equity[_addr] += mustRejoinTreasury[_addr];\r\n        totalContribution += mustRejoinTreasury[_addr];\r\n        mustRejoinTreasury[_addr] = 0;\r\n        checkReserveMetAndClaim();\r\n        return true;\r\n    }\r\n\r\n    function negotiateLeave() public returns (bool success) {\r\n        payable(msg.sender).transfer(mustRejoinTreasury[msg.sender]);\r\n        mustRejoinTreasury[msg.sender] = 0;\r\n        return true;\r\n    }\r\n\r\n    function checkReserveMetAndClaim() private returns (bool success) {\r\n        if (status == 1 && totalContribution >= reservePrice) {\r\n            return claimInternal();\r\n        }\r\n        return false;\r\n    }\r\n\r\n    function negotiationStatus() public view returns (uint256[2] memory data) {\r\n        return [reservePrice, totalContribution];\r\n    }\r\n\r\n    // Async set initial state and sets the end time of this bounty according to config\r\n    function claim() public onlyBy(owner) returns (bool success) {\r\n        return claimInternal();\r\n    }\r\n\r\n    function claimInternal() private returns (bool success) {\r\n        // Already claimed\r\n        if (status >= 2) {\r\n            return false;\r\n        }\r\n        endTime = uint64(block.timestamp + timeLimit);\r\n        isPrecipitatingEvent = false;\r\n        status = 2; // CLAIMED\r\n\r\n        uint256 disbursement = totalContribution\r\n            .mul(pctCreatorInitialDisbursement)\r\n            .div(100);\r\n        creatorWallet.transfer(disbursement);\r\n        // adjust all existing balances downward\r\n        adjustBalances(disbursement);\r\n\r\n        return true;\r\n    }\r\n\r\n    function wipeStateForBonus() private returns (bool success) {\r\n        currentYeas = 0;\r\n        currentNays = 0;\r\n        currentVotesCast = 0;\r\n        for (uint256 i = 0; i < fans.length; i += 1) {\r\n            votedThisRound[fans[i]] = false;\r\n        }\r\n        return true;\r\n    }\r\n\r\n    function onERC721Received(\r\n        address _operator,\r\n        address,\r\n        uint256,\r\n        bytes memory\r\n    ) public virtual override returns (bytes4) {\r\n        if (_operator == owner) {\r\n            // COMPLETE THE BOUNTY HERE\r\n            uint256 disbursement = totalContribution\r\n                .mul(pctCreatorFinalDisbursement)\r\n                .div(100);\r\n            creatorWallet.transfer(disbursement);\r\n            // adjust all existing balances downward\r\n            adjustBalances(disbursement);\r\n            status = 3;\r\n        }\r\n        return this.onERC721Received.selector;\r\n    }\r\n\r\n    // _vote is false for nay, true for yea\r\n    event Vote(address indexed _voter, bool _vote);\r\n}\r\n",
  "sourcePath": "C:\\Users\\kumquatexpress\\projects\\polygon-hack\\web3\\contracts\\polygon\\Bounty.sol",
  "compiler": {
    "name": "solc",
    "version": "0.8.4+commit.c7e474f2.Emscripten.clang"
  },
  "schemaVersion": "3.4.4",
  "updatedAt": "2022-02-06T19:44:03.271Z",
  "devdoc": {
    "kind": "dev",
    "methods": {},
    "version": 1
  },
  "userdoc": {
    "kind": "user",
    "methods": {},
    "version": 1
  },
  "db": {
    "callBytecode": {
      "id": "0x487ada08f88f61698c1defff105c2d4b012d73ad8d197e71418600967eb3d2a1"
    },
    "createBytecode": {
      "id": "0xacb445746c38909ccc479fab7a00b5efa77289bd5aecf94d5f8b99f5c40a1bdc"
    },
    "contract": {
      "id": "0x673482be9b0c2c48b5b0ce1d5f1b5be9c97716cf7bb6110957d7831c8239cf7c"
    }
  }
}