{
  "contractName": "Bounty",
  "abi": [
    {
      "inputs": [
        {
          "internalType": "address payable",
          "name": "_creatorWallet",
          "type": "address"
        },
        {
          "internalType": "uint256",
          "name": "_maxValue",
          "type": "uint256"
        },
        {
          "internalType": "uint256",
          "name": "_reservePrice",
          "type": "uint256"
        },
        {
          "internalType": "uint8",
          "name": "_pctCreatorInitialDisbursement",
          "type": "uint8"
        },
        {
          "internalType": "uint8",
          "name": "_pctCreatorFinalDisbursement",
          "type": "uint8"
        },
        {
          "internalType": "uint8[]",
          "name": "_bonusTargets",
          "type": "uint8[]"
        },
        {
          "internalType": "uint8[]",
          "name": "_bonusPctYeasNeeded",
          "type": "uint8[]"
        },
        {
          "internalType": "uint8[]",
          "name": "_bonusFailureThresholds",
          "type": "uint8[]"
        },
        {
          "internalType": "uint64",
          "name": "_mustBeClaimedTime",
          "type": "uint64"
        },
        {
          "internalType": "uint64",
          "name": "_timeLimit",
          "type": "uint64"
        },
        {
          "internalType": "address payable",
          "name": "_owner",
          "type": "address"
        }
      ],
      "stateMutability": "nonpayable",
      "type": "constructor"
    },
    {
      "inputs": [],
      "name": "AlreadyPaid",
      "type": "error"
    },
    {
      "inputs": [],
      "name": "AlreadyVoted",
      "type": "error"
    },
    {
      "inputs": [],
      "name": "IncorrectPercentages",
      "type": "error"
    },
    {
      "inputs": [],
      "name": "MaxValueReached",
      "type": "error"
    },
    {
      "inputs": [],
      "name": "NoEquity",
      "type": "error"
    },
    {
      "inputs": [],
      "name": "TooLate",
      "type": "error"
    },
    {
      "inputs": [],
      "name": "Unauthorized",
      "type": "error"
    },
    {
      "inputs": [],
      "name": "VoteOver",
      "type": "error"
    },
    {
      "anonymous": false,
      "inputs": [
        {
          "indexed": false,
          "internalType": "uint8",
          "name": "_milestone",
          "type": "uint8"
        },
        {
          "indexed": false,
          "internalType": "uint256",
          "name": "_amount",
          "type": "uint256"
        },
        {
          "indexed": false,
          "internalType": "address",
          "name": "_creatorWallet",
          "type": "address"
        }
      ],
      "name": "Approval",
      "type": "event"
    },
    {
      "anonymous": false,
      "inputs": [
        {
          "indexed": true,
          "internalType": "string",
          "name": "msg",
          "type": "string"
        }
      ],
      "name": "Debug",
      "type": "event"
    },
    {
      "anonymous": false,
      "inputs": [
        {
          "indexed": false,
          "internalType": "uint8",
          "name": "_milestone",
          "type": "uint8"
        }
      ],
      "name": "Failure",
      "type": "event"
    },
    {
      "anonymous": false,
      "inputs": [
        {
          "indexed": true,
          "internalType": "address",
          "name": "_voter",
          "type": "address"
        },
        {
          "indexed": false,
          "internalType": "bool",
          "name": "_vote",
          "type": "bool"
        }
      ],
      "name": "Vote",
      "type": "event"
    },
    {
      "anonymous": false,
      "inputs": [
        {
          "indexed": true,
          "internalType": "address",
          "name": "_to",
          "type": "address"
        },
        {
          "indexed": false,
          "internalType": "uint256",
          "name": "_amount",
          "type": "uint256"
        }
      ],
      "name": "Withdraw",
      "type": "event"
    },
    {
      "inputs": [
        {
          "internalType": "address",
          "name": "_owner",
          "type": "address"
        }
      ],
      "name": "balanceOf",
      "outputs": [
        {
          "internalType": "uint256",
          "name": "balance",
          "type": "uint256"
        }
      ],
      "stateMutability": "view",
      "type": "function"
    },
    {
      "inputs": [
        {
          "internalType": "uint256",
          "name": "",
          "type": "uint256"
        }
      ],
      "name": "bonusDeadlines",
      "outputs": [
        {
          "internalType": "uint64",
          "name": "",
          "type": "uint64"
        }
      ],
      "stateMutability": "view",
      "type": "function"
    },
    {
      "inputs": [
        {
          "internalType": "uint256",
          "name": "",
          "type": "uint256"
        }
      ],
      "name": "bonusFailureThresholds",
      "outputs": [
        {
          "internalType": "uint8",
          "name": "",
          "type": "uint8"
        }
      ],
      "stateMutability": "view",
      "type": "function"
    },
    {
      "inputs": [
        {
          "internalType": "uint256",
          "name": "",
          "type": "uint256"
        }
      ],
      "name": "bonusFailures",
      "outputs": [
        {
          "internalType": "uint8",
          "name": "",
          "type": "uint8"
        }
      ],
      "stateMutability": "view",
      "type": "function"
    },
    {
      "inputs": [
        {
          "internalType": "uint256",
          "name": "",
          "type": "uint256"
        }
      ],
      "name": "bonusPctYeasNeeded",
      "outputs": [
        {
          "internalType": "uint8",
          "name": "",
          "type": "uint8"
        }
      ],
      "stateMutability": "view",
      "type": "function"
    },
    {
      "inputs": [
        {
          "internalType": "uint256",
          "name": "",
          "type": "uint256"
        }
      ],
      "name": "bonusTargets",
      "outputs": [
        {
          "internalType": "uint8",
          "name": "",
          "type": "uint8"
        }
      ],
      "stateMutability": "view",
      "type": "function"
    },
    {
      "inputs": [],
      "name": "creatorWallet",
      "outputs": [
        {
          "internalType": "address payable",
          "name": "",
          "type": "address"
        }
      ],
      "stateMutability": "view",
      "type": "function"
    },
    {
      "inputs": [],
      "name": "currentNays",
      "outputs": [
        {
          "internalType": "uint256",
          "name": "",
          "type": "uint256"
        }
      ],
      "stateMutability": "view",
      "type": "function"
    },
    {
      "inputs": [],
      "name": "currentVotesCast",
      "outputs": [
        {
          "internalType": "uint32",
          "name": "",
          "type": "uint32"
        }
      ],
      "stateMutability": "view",
      "type": "function"
    },
    {
      "inputs": [],
      "name": "currentYeas",
      "outputs": [
        {
          "internalType": "uint256",
          "name": "",
          "type": "uint256"
        }
      ],
      "stateMutability": "view",
      "type": "function"
    },
    {
      "inputs": [],
      "name": "endTime",
      "outputs": [
        {
          "internalType": "uint64",
          "name": "",
          "type": "uint64"
        }
      ],
      "stateMutability": "view",
      "type": "function"
    },
    {
      "inputs": [
        {
          "internalType": "address",
          "name": "",
          "type": "address"
        }
      ],
      "name": "equity",
      "outputs": [
        {
          "internalType": "uint256",
          "name": "",
          "type": "uint256"
        }
      ],
      "stateMutability": "view",
      "type": "function"
    },
    {
      "inputs": [
        {
          "internalType": "address",
          "name": "_owner",
          "type": "address"
        }
      ],
      "name": "equityOf",
      "outputs": [
        {
          "internalType": "uint256",
          "name": "balance",
          "type": "uint256"
        }
      ],
      "stateMutability": "view",
      "type": "function"
    },
    {
      "inputs": [
        {
          "internalType": "uint256",
          "name": "",
          "type": "uint256"
        }
      ],
      "name": "fans",
      "outputs": [
        {
          "internalType": "address payable",
          "name": "",
          "type": "address"
        }
      ],
      "stateMutability": "view",
      "type": "function"
    },
    {
      "inputs": [],
      "name": "maxValue",
      "outputs": [
        {
          "internalType": "uint256",
          "name": "",
          "type": "uint256"
        }
      ],
      "stateMutability": "view",
      "type": "function"
    },
    {
      "inputs": [],
      "name": "mustBeClaimedTime",
      "outputs": [
        {
          "internalType": "uint64",
          "name": "",
          "type": "uint64"
        }
      ],
      "stateMutability": "view",
      "type": "function"
    },
    {
      "inputs": [
        {
          "internalType": "bool",
          "name": "onOff",
          "type": "bool"
        }
      ],
      "name": "precipitatingEvent",
      "outputs": [
        {
          "internalType": "bool",
          "name": "success",
          "type": "bool"
        }
      ],
      "stateMutability": "nonpayable",
      "type": "function"
    },
    {
      "inputs": [],
      "name": "reservePrice",
      "outputs": [
        {
          "internalType": "uint256",
          "name": "",
          "type": "uint256"
        }
      ],
      "stateMutability": "view",
      "type": "function"
    },
    {
      "inputs": [],
      "name": "status",
      "outputs": [
        {
          "internalType": "uint8",
          "name": "",
          "type": "uint8"
        }
      ],
      "stateMutability": "view",
      "type": "function"
    },
    {
      "inputs": [],
      "name": "timeLimit",
      "outputs": [
        {
          "internalType": "uint64",
          "name": "",
          "type": "uint64"
        }
      ],
      "stateMutability": "view",
      "type": "function"
    },
    {
      "inputs": [
        {
          "internalType": "address",
          "name": "",
          "type": "address"
        }
      ],
      "name": "votingEquity",
      "outputs": [
        {
          "internalType": "uint256",
          "name": "",
          "type": "uint256"
        }
      ],
      "stateMutability": "view",
      "type": "function"
    },
    {
      "inputs": [],
      "name": "votingOn",
      "outputs": [
        {
          "internalType": "uint8",
          "name": "",
          "type": "uint8"
        }
      ],
      "stateMutability": "view",
      "type": "function"
    },
    {
      "inputs": [],
      "name": "withdraw",
      "outputs": [
        {
          "internalType": "bool",
          "name": "success",
          "type": "bool"
        }
      ],
      "stateMutability": "nonpayable",
      "type": "function"
    },
    {
      "inputs": [],
      "name": "uniqueFans",
      "outputs": [
        {
          "internalType": "uint8",
          "name": "num",
          "type": "uint8"
        }
      ],
      "stateMutability": "view",
      "type": "function"
    },
    {
      "inputs": [],
      "name": "bountyStatus",
      "outputs": [
        {
          "internalType": "uint256[3]",
          "name": "stats",
          "type": "uint256[3]"
        }
      ],
      "stateMutability": "view",
      "type": "function"
    },
    {
      "inputs": [],
      "name": "voteStatus",
      "outputs": [
        {
          "internalType": "uint256[10]",
          "name": "stats",
          "type": "uint256[10]"
        }
      ],
      "stateMutability": "view",
      "type": "function"
    },
    {
      "inputs": [],
      "name": "join",
      "outputs": [
        {
          "internalType": "bool",
          "name": "success",
          "type": "bool"
        }
      ],
      "stateMutability": "payable",
      "type": "function"
    },
    {
      "inputs": [],
      "name": "checkVote",
      "outputs": [
        {
          "internalType": "bool",
          "name": "success",
          "type": "bool"
        }
      ],
      "stateMutability": "nonpayable",
      "type": "function"
    },
    {
      "inputs": [
        {
          "internalType": "uint8",
          "name": "_milestone",
          "type": "uint8"
        },
        {
          "internalType": "bool",
          "name": "_vote",
          "type": "bool"
        }
      ],
      "name": "vote",
      "outputs": [
        {
          "internalType": "bool",
          "name": "success",
          "type": "bool"
        }
      ],
      "stateMutability": "nonpayable",
      "type": "function"
    },
    {
      "inputs": [
        {
          "internalType": "uint256",
          "name": "_maxValue",
          "type": "uint256"
        },
        {
          "internalType": "uint256",
          "name": "_reservePrice",
          "type": "uint256"
        },
        {
          "internalType": "uint8[]",
          "name": "_bonusTargets",
          "type": "uint8[]"
        },
        {
          "internalType": "uint8[]",
          "name": "_bonusPctYeasNeeded",
          "type": "uint8[]"
        },
        {
          "internalType": "uint8[]",
          "name": "_bonusFailureThresholds",
          "type": "uint8[]"
        },
        {
          "internalType": "uint64",
          "name": "_timeLimit",
          "type": "uint64"
        }
      ],
      "name": "negotiate",
      "outputs": [
        {
          "internalType": "bool",
          "name": "success",
          "type": "bool"
        }
      ],
      "stateMutability": "nonpayable",
      "type": "function"
    },
    {
      "inputs": [
        {
          "internalType": "address",
          "name": "_addr",
          "type": "address"
        }
      ],
      "name": "amountRejoinTreasury",
      "outputs": [
        {
          "internalType": "uint256",
          "name": "canRejoin",
          "type": "uint256"
        }
      ],
      "stateMutability": "view",
      "type": "function"
    },
    {
      "inputs": [
        {
          "internalType": "address",
          "name": "_addr",
          "type": "address"
        }
      ],
      "name": "negotiateRejoin",
      "outputs": [
        {
          "internalType": "bool",
          "name": "success",
          "type": "bool"
        }
      ],
      "stateMutability": "nonpayable",
      "type": "function"
    },
    {
      "inputs": [],
      "name": "negotiateLeave",
      "outputs": [
        {
          "internalType": "bool",
          "name": "success",
          "type": "bool"
        }
      ],
      "stateMutability": "nonpayable",
      "type": "function"
    },
    {
      "inputs": [],
      "name": "negotiationStatus",
      "outputs": [
        {
          "internalType": "uint256[2]",
          "name": "data",
          "type": "uint256[2]"
        }
      ],
      "stateMutability": "view",
      "type": "function"
    },
    {
      "inputs": [],
      "name": "claim",
      "outputs": [
        {
          "internalType": "bool",
          "name": "success",
          "type": "bool"
        }
      ],
      "stateMutability": "nonpayable",
      "type": "function"
    },
    {
      "inputs": [
        {
          "internalType": "address",
          "name": "_operator",
          "type": "address"
        },
        {
          "internalType": "address",
          "name": "",
          "type": "address"
        },
        {
          "internalType": "uint256",
          "name": "",
          "type": "uint256"
        },
        {
          "internalType": "bytes",
          "name": "",
          "type": "bytes"
        }
      ],
      "name": "onERC721Received",
      "outputs": [
        {
          "internalType": "bytes4",
          "name": "",
          "type": "bytes4"
        }
      ],
      "stateMutability": "nonpayable",
      "type": "function"
    }
  ],
  "bytecode": "0x60806040523480156200001157600080fd5b5060405162004b8838038062004b888339818101604052810190620000379190620004ea565b6000878962000047919062000694565b905060005b87518160ff161015620000c357878160ff168151811062000096577f4e487b7100000000000000000000000000000000000000000000000000000000600052603260045260246000fd5b602002602001015182620000ab919062000694565b91508080620000ba9062000767565b9150506200004c565b5060648160ff161462000102576040517fe90c19eb00000000000000000000000000000000000000000000000000000000815260040160405180910390fd5b8b600660006101000a81548173ffffffffffffffffffffffffffffffffffffffff021916908373ffffffffffffffffffffffffffffffffffffffff1602179055508a6010819055508960118190555088600660146101000a81548160ff021916908360ff16021790555087600660156101000a81548160ff021916908360ff16021790555086600790805190602001906200019f9291906200031f565b508560099080519060200190620001b89291906200031f565b5084600b9080519060200190620001d19291906200031f565b5083600f60006101000a81548167ffffffffffffffff021916908367ffffffffffffffff160217905550816000806101000a81548173ffffffffffffffffffffffffffffffffffffffff021916908373ffffffffffffffffffffffffffffffffffffffff1602179055506000600c60086101000a81548160ff02191690831515021790555082601260006101000a81548167ffffffffffffffff021916908367ffffffffffffffff16021790555060078054905067ffffffffffffffff811115620002c5577f4e487b7100000000000000000000000000000000000000000000000000000000600052604160045260246000fd5b604051908082528060200260200182016040528015620002f45781602001602082028036833780820191505090505b50600a90805190602001906200030c9291906200031f565b505050505050505050505050506200086d565b82805482825590600052602060002090601f01602090048101928215620003ba5791602002820160005b838211156200038957835183826101000a81548160ff021916908360ff160217905550926020019260010160208160000104928301926001030262000349565b8015620003b85782816101000a81549060ff021916905560010160208160000104928301926001030262000389565b505b509050620003c99190620003cd565b5090565b5b80821115620003e8576000816000905550600101620003ce565b5090565b600062000403620003fd8462000665565b6200063c565b905080838252602082019050828560208602820111156200042357600080fd5b60005b858110156200045757816200043c8882620004d3565b84526020840193506020830192505060018101905062000426565b5050509392505050565b600081519050620004728162000805565b92915050565b600082601f8301126200048a57600080fd5b81516200049c848260208601620003ec565b91505092915050565b600081519050620004b6816200081f565b92915050565b600081519050620004cd8162000839565b92915050565b600081519050620004e48162000853565b92915050565b60008060008060008060008060008060006101608c8e0312156200050d57600080fd5b60006200051d8e828f0162000461565b9b50506020620005308e828f01620004a5565b9a50506040620005438e828f01620004a5565b9950506060620005568e828f01620004d3565b9850506080620005698e828f01620004d3565b97505060a08c015167ffffffffffffffff8111156200058757600080fd5b620005958e828f0162000478565b96505060c08c015167ffffffffffffffff811115620005b357600080fd5b620005c18e828f0162000478565b95505060e08c015167ffffffffffffffff811115620005df57600080fd5b620005ed8e828f0162000478565b945050610100620006018e828f01620004bc565b935050610120620006158e828f01620004bc565b925050610140620006298e828f0162000461565b9150509295989b509295989b9093969950565b6000620006486200065b565b905062000656828262000731565b919050565b6000604051905090565b600067ffffffffffffffff821115620006835762000682620007c5565b5b602082029050602081019050919050565b6000620006a18262000724565b9150620006ae8362000724565b92508260ff03821115620006c757620006c662000796565b5b828201905092915050565b6000620006df82620006e6565b9050919050565b600073ffffffffffffffffffffffffffffffffffffffff82169050919050565b6000819050919050565b600067ffffffffffffffff82169050919050565b600060ff82169050919050565b6200073c82620007f4565b810181811067ffffffffffffffff821117156200075e576200075d620007c5565b5b80604052505050565b6000620007748262000724565b915060ff8214156200078b576200078a62000796565b5b600182019050919050565b7f4e487b7100000000000000000000000000000000000000000000000000000000600052601160045260246000fd5b7f4e487b7100000000000000000000000000000000000000000000000000000000600052604160045260246000fd5b6000601f19601f8301169050919050565b6200081081620006d2565b81146200081c57600080fd5b50565b6200082a8162000706565b81146200083657600080fd5b50565b620008448162000710565b81146200085057600080fd5b50565b6200085e8162000724565b81146200086a57600080fd5b50565b61430b806200087d6000396000f3fe60806040526004361061022c576000357c01000000000000000000000000000000000000000000000000000000009004806370a0823111610135578063b688a363116100bd578063db2e1eed1161008c578063db2e1eed14610867578063e2fd21e814610892578063e885f76b146108cf578063f541c60f146108fa578063f6432402146109255761022c565b8063b688a363146107a4578063c08d1fe5146107c2578063cb0cd6b5146107ed578063d553ed131461082a5761022c565b806393d181131161010457806393d18113146106a957806394a5c2e4146106d4578063a064c9d8146106ff578063b0417e981461073c578063b4bd497a146107675761022c565b806370a08231146105eb5780637ae6ee32146106285780637cdc65f2146106535780637f698dad1461067e5761022c565b8063379ae047116101b85780634bd1d75c116101875780634bd1d75c146104f05780634ce2cdc71461051b5780634e71d92d146105585780635d7c58ea14610583578063688594b3146105ae5761022c565b8063379ae0471461040e5780633ccfd60b1461044b5780633dad5c701461047657806342bbec59146104b35761022c565b806320949bb4116101ff57806320949bb4146103015780632808241e1461032c578063292d0c88146103695780632e8a498c146103a65780633197cbb6146103e35761022c565b8063150b7a02146102315780631b5351351461026e5780631b5a3cc914610299578063200d2ed2146102d6575b600080fd5b34801561023d57600080fd5b5061025860048036038101906102539190613634565b610950565b6040516102659190613bc2565b60405180910390f35b34801561027a57600080fd5b50610283610aa4565b6040516102909190613b71565b60405180910390f35b3480156102a557600080fd5b506102c060048036038101906102bb91906136af565b610aca565b6040516102cd9190613ba7565b60405180910390f35b3480156102e257600080fd5b506102eb610b77565b6040516102f89190613c2e565b60405180910390f35b34801561030d57600080fd5b50610316610b8a565b6040516103239190613c2e565b60405180910390f35b34801561033857600080fd5b50610353600480360381019061034e91906137d2565b610b9d565b6040516103609190613ba7565b60405180910390f35b34801561037557600080fd5b50610390600480360381019061038b919061360b565b610eef565b60405161039d9190613bdd565b60405180910390f35b3480156103b257600080fd5b506103cd60048036038101906103c8919061360b565b610f38565b6040516103da9190613bdd565b60405180910390f35b3480156103ef57600080fd5b506103f8610f50565b6040516104059190613c13565b60405180910390f35b34801561041a57600080fd5b506104356004803603810190610430919061360b565b610f6a565b6040516104429190613ba7565b60405180910390f35b34801561045757600080fd5b50610460611138565b60405161046d9190613ba7565b60405180910390f35b34801561048257600080fd5b5061049d600480360381019061049891906136d8565b611397565b6040516104aa9190613c13565b60405180910390f35b3480156104bf57600080fd5b506104da60048036038101906104d591906136d8565b6113d5565b6040516104e79190613c2e565b60405180910390f35b3480156104fc57600080fd5b50610505611409565b6040516105129190613ba7565b60405180910390f35b34801561052757600080fd5b50610542600480360381019061053d91906136d8565b6114dd565b60405161054f9190613c2e565b60405180910390f35b34801561056457600080fd5b5061056d611511565b60405161057a9190613ba7565b60405180910390f35b34801561058f57600080fd5b506105986115a8565b6040516105a59190613c13565b60405180910390f35b3480156105ba57600080fd5b506105d560048036038101906105d091906136d8565b6115c2565b6040516105e29190613b3a565b60405180910390f35b3480156105f757600080fd5b50610612600480360381019061060d919061360b565b611601565b60405161061f9190613bdd565b60405180910390f35b34801561063457600080fd5b5061063d6116be565b60405161064a9190613b55565b60405180910390f35b34801561065f57600080fd5b50610668611a21565b6040516106759190613b3a565b60405180910390f35b34801561068a57600080fd5b50610693611a47565b6040516106a09190613c2e565b60405180910390f35b3480156106b557600080fd5b506106be611a54565b6040516106cb9190613bf8565b60405180910390f35b3480156106e057600080fd5b506106e9611a6a565b6040516106f69190613bdd565b60405180910390f35b34801561070b57600080fd5b5061072660048036038101906107219190613701565b611a70565b6040516107339190613ba7565b60405180910390f35b34801561074857600080fd5b50610751611e00565b60405161075e9190613ba7565b60405180910390f35b34801561077357600080fd5b5061078e6004803603810190610789919061360b565b611ef5565b60405161079b9190613bdd565b60405180910390f35b6107ac611f0d565b6040516107b99190613ba7565b60405180910390f35b3480156107ce57600080fd5b506107d761245b565b6040516107e49190613c13565b60405180910390f35b3480156107f957600080fd5b50610814600480360381019061080f91906136d8565b612475565b6040516108219190613c2e565b60405180910390f35b34801561083657600080fd5b50610851600480360381019061084c91906136d8565b6124a9565b60405161085e9190613c2e565b60405180910390f35b34801561087357600080fd5b5061087c6124dd565b6040516108899190613bdd565b60405180910390f35b34801561089e57600080fd5b506108b960048036038101906108b4919061360b565b6124e3565b6040516108c69190613bdd565b60405180910390f35b3480156108db57600080fd5b506108e461252c565b6040516108f19190613bdd565b60405180910390f35b34801561090657600080fd5b5061090f612532565b60405161091c9190613bdd565b60405180910390f35b34801561093157600080fd5b5061093a612538565b6040516109479190613b8c565b60405180910390f35b60008060009054906101000a900473ffffffffffffffffffffffffffffffffffffffff1673ffffffffffffffffffffffffffffffffffffffff168573ffffffffffffffffffffffffffffffffffffffff161415610a765760006109e360646109d5600660159054906101000a900460ff1660ff1660015461259a90919063ffffffff16565b6125b090919063ffffffff16565b9050600660009054906101000a900473ffffffffffffffffffffffffffffffffffffffff1673ffffffffffffffffffffffffffffffffffffffff166108fc829081150290604051600060405180830381858888f19350505050158015610a4d573d6000803e3d6000fd5b50610a57816125c6565b506004600c600a6101000a81548160ff021916908360ff160217905550505b63150b7a027c0100000000000000000000000000000000000000000000000000000000029050949350505050565b610aac613379565b60405180604001604052806011548152602001600154815250905090565b60008060009054906101000a900473ffffffffffffffffffffffffffffffffffffffff168073ffffffffffffffffffffffffffffffffffffffff163373ffffffffffffffffffffffffffffffffffffffff1614610b53576040517f82b4290000000000000000000000000000000000000000000000000000000000815260040160405180910390fd5b82600c60086101000a81548160ff0219169083151502179055506001915050919050565b600c600a9054906101000a900460ff1681565b600c60099054906101000a900460ff1681565b600080600360003373ffffffffffffffffffffffffffffffffffffffff1673ffffffffffffffffffffffffffffffffffffffff168152602001908152602001600020541415610c18576040517f995a2dae00000000000000000000000000000000000000000000000000000000815260040160405180910390fd5b604051610c2490613afb565b60405180910390207f7cdb51e9dbbc205231228146c3246e7f914aa6d4a33170e43ecc8e3593481d1a60405160405180910390a26002600c600a9054906101000a900460ff1660ff16141580610c8f5750600c60099054906101000a900460ff1660ff168360ff1614155b15610cc6576040517f4733210000000000000000000000000000000000000000000000000000000000815260040160405180910390fd5b600d60003373ffffffffffffffffffffffffffffffffffffffff1673ffffffffffffffffffffffffffffffffffffffff16815260200190815260200160002060009054906101000a900460ff1615610d4a576040517f7c9a1cf900000000000000000000000000000000000000000000000000000000815260040160405180910390fd5b6000610d55336124e3565b90508215610d7b578060136000828254610d6f9190613d94565b92505081905550610d95565b8060146000828254610d8d9190613d94565b925050819055505b6001601560008282829054906101000a900463ffffffff16610db79190613dea565b92506101000a81548163ffffffff021916908363ffffffff1602179055506001600d60003373ffffffffffffffffffffffffffffffffffffffff1673ffffffffffffffffffffffffffffffffffffffff16815260200190815260200160002060006101000a81548160ff0219169083151502179055503373ffffffffffffffffffffffffffffffffffffffff167fa635d31e67484fd1d93ba01ab0ef882e4440a78aa40d0e2771e8a2aace45986984604051610e739190613ba7565b60405180910390a26000610e8561273a565b905060008160ff1614610ee257600060018260ff161415610eaf57610ea8612811565b9050610ec7565b60028260ff161415610ec657610ec3612afb565b90505b5b8015610ed757610ed5612ccb565b505b809350505050610ee9565b6001925050505b92915050565b6000600e60008373ffffffffffffffffffffffffffffffffffffffff1673ffffffffffffffffffffffffffffffffffffffff168152602001908152602001600020549050919050565b60036020528060005260406000206000915090505481565b600c60009054906101000a900467ffffffffffffffff1681565b60008060009054906101000a900473ffffffffffffffffffffffffffffffffffffffff168073ffffffffffffffffffffffffffffffffffffffff163373ffffffffffffffffffffffffffffffffffffffff1614610ff3576040517f82b4290000000000000000000000000000000000000000000000000000000000815260040160405180910390fd5b600e60008473ffffffffffffffffffffffffffffffffffffffff1673ffffffffffffffffffffffffffffffffffffffff16815260200190815260200160002054600360008573ffffffffffffffffffffffffffffffffffffffff1673ffffffffffffffffffffffffffffffffffffffff16815260200190815260200160002060008282546110819190613d94565b92505081905550600e60008473ffffffffffffffffffffffffffffffffffffffff1673ffffffffffffffffffffffffffffffffffffffff16815260200190815260200160002054600160008282546110d99190613d94565b925050819055506000600e60008573ffffffffffffffffffffffffffffffffffffffff1673ffffffffffffffffffffffffffffffffffffffff1681526020019081526020016000208190555061112d612de6565b506001915050919050565b600080600360003373ffffffffffffffffffffffffffffffffffffffff1673ffffffffffffffffffffffffffffffffffffffff1681526020019081526020016000205414156111b3576040517f995a2dae00000000000000000000000000000000000000000000000000000000815260040160405180910390fd5b600c60089054906101000a900460ff166111d05760009050611394565b60006111db33611601565b90503373ffffffffffffffffffffffffffffffffffffffff166108fc611218833073ffffffffffffffffffffffffffffffffffffffff1631612e2a565b9081150290604051600060405180830381858888f19350505050158015611243573d6000803e3d6000fd5b506000600260003373ffffffffffffffffffffffffffffffffffffffff1673ffffffffffffffffffffffffffffffffffffffff16815260200190815260200160002060006101000a81548160ff021916908360ff1602179055506000600360003373ffffffffffffffffffffffffffffffffffffffff1673ffffffffffffffffffffffffffffffffffffffff168152602001908152602001600020819055506000600460003373ffffffffffffffffffffffffffffffffffffffff1673ffffffffffffffffffffffffffffffffffffffff1681526020019081526020016000208190555080600160008282546113399190613ee6565b925050819055503373ffffffffffffffffffffffffffffffffffffffff167f884edad9ce6fa2440d8a54cc123490eb96d2768479d49ff9c7366125a9424364826040516113869190613bdd565b60405180910390a260019150505b90565b600881815481106113a757600080fd5b9060005260206000209060049182820401919006600802915054906101000a900467ffffffffffffffff1681565b600781815481106113e557600080fd5b9060005260206000209060209182820401919006915054906101000a900460ff1681565b60003373ffffffffffffffffffffffffffffffffffffffff166108fc600e60003373ffffffffffffffffffffffffffffffffffffffff1673ffffffffffffffffffffffffffffffffffffffff168152602001908152602001600020549081150290604051600060405180830381858888f19350505050158015611490573d6000803e3d6000fd5b506000600e60003373ffffffffffffffffffffffffffffffffffffffff1673ffffffffffffffffffffffffffffffffffffffff168152602001908152602001600020819055506001905090565b600981815481106114ed57600080fd5b9060005260206000209060209182820401919006915054906101000a900460ff1681565b60008060009054906101000a900473ffffffffffffffffffffffffffffffffffffffff168073ffffffffffffffffffffffffffffffffffffffff163373ffffffffffffffffffffffffffffffffffffffff161461159a576040517f82b4290000000000000000000000000000000000000000000000000000000000815260040160405180910390fd5b6115a2612e43565b91505090565b600f60009054906101000a900467ffffffffffffffff1681565b600581815481106115d257600080fd5b906000526020600020016000915054906101000a900473ffffffffffffffffffffffffffffffffffffffff1681565b60006116b760646116a9600260008673ffffffffffffffffffffffffffffffffffffffff1673ffffffffffffffffffffffffffffffffffffffff16815260200190815260200160002060009054906101000a900460ff1660ff16600360008773ffffffffffffffffffffffffffffffffffffffff1673ffffffffffffffffffffffffffffffffffffffff1681526020019081526020016000205461259a90919063ffffffff16565b6125b090919063ffffffff16565b9050919050565b6116c661339b565b604051806101400160405280600c60099054906101000a900460ff1660ff1681526020016007600c60099054906101000a900460ff1660ff1681548110611736577f4e487b7100000000000000000000000000000000000000000000000000000000600052603260045260246000fd5b90600052602060002090602091828204019190069054906101000a900460ff1660ff1681526020016117f460646117e66007600c60099054906101000a900460ff1660ff16815481106117b2577f4e487b7100000000000000000000000000000000000000000000000000000000600052603260045260246000fd5b90600052602060002090602091828204019190069054906101000a900460ff1660ff1660015461259a90919063ffffffff16565b6125b090919063ffffffff16565b81526020016009600c60099054906101000a900460ff1660ff1681548110611845577f4e487b7100000000000000000000000000000000000000000000000000000000600052603260045260246000fd5b90600052602060002090602091828204019190069054906101000a900460ff1660ff16815260200161190360646118f56009600c60099054906101000a900460ff1660ff16815481106118c1577f4e487b7100000000000000000000000000000000000000000000000000000000600052603260045260246000fd5b90600052602060002090602091828204019190069054906101000a900460ff1660ff1660015461259a90919063ffffffff16565b6125b090919063ffffffff16565b815260200160135481526020016014548152602001600a600c60099054906101000a900460ff1660ff1681548110611964577f4e487b7100000000000000000000000000000000000000000000000000000000600052603260045260246000fd5b90600052602060002090602091828204019190069054906101000a900460ff1660ff168152602001600b600c60099054906101000a900460ff1660ff16815481106119d8577f4e487b7100000000000000000000000000000000000000000000000000000000600052603260045260246000fd5b90600052602060002090602091828204019190069054906101000a900460ff1660ff168152602001601560009054906101000a900463ffffffff1663ffffffff16815250905090565b600660009054906101000a900473ffffffffffffffffffffffffffffffffffffffff1681565b6000600580549050905090565b601560009054906101000a900463ffffffff1681565b60105481565b60008060009054906101000a900473ffffffffffffffffffffffffffffffffffffffff168073ffffffffffffffffffffffffffffffffffffffff163373ffffffffffffffffffffffffffffffffffffffff1614611af9576040517f82b4290000000000000000000000000000000000000000000000000000000000815260040160405180910390fd5b6000600c600a9054906101000a900460ff1660ff1614611b1c5760009150611df5565b86601181905550876010819055508560079080519060200190611b409291906133be565b5083600b9080519060200190611b579291906133be565b508460099080519060200190611b6e9291906133be565b5082601260006101000a81548167ffffffffffffffff021916908367ffffffffffffffff1602179055506001600c60086101000a81548160ff021916908315150217905550600060018190555060005b600580549050811015611dd3576003600060058381548110611c09577f4e487b7100000000000000000000000000000000000000000000000000000000600052603260045260246000fd5b9060005260206000200160009054906101000a900473ffffffffffffffffffffffffffffffffffffffff1673ffffffffffffffffffffffffffffffffffffffff1673ffffffffffffffffffffffffffffffffffffffff16815260200190815260200160002054600e600060058481548110611cad577f4e487b7100000000000000000000000000000000000000000000000000000000600052603260045260246000fd5b9060005260206000200160009054906101000a900473ffffffffffffffffffffffffffffffffffffffff1673ffffffffffffffffffffffffffffffffffffffff1673ffffffffffffffffffffffffffffffffffffffff1681526020019081526020016000208190555060006003600060058481548110611d56577f4e487b7100000000000000000000000000000000000000000000000000000000600052603260045260246000fd5b9060005260206000200160009054906101000a900473ffffffffffffffffffffffffffffffffffffffff1673ffffffffffffffffffffffffffffffffffffffff1673ffffffffffffffffffffffffffffffffffffffff16815260200190815260200160002081905550600181611dcc9190613d94565b9050611bbe565b506001600c600a6101000a81548160ff021916908360ff160217905550600191505b509695505050505050565b60008060009054906101000a900473ffffffffffffffffffffffffffffffffffffffff168073ffffffffffffffffffffffffffffffffffffffff163373ffffffffffffffffffffffffffffffffffffffff1614611e89576040517f82b4290000000000000000000000000000000000000000000000000000000000815260040160405180910390fd5b6000611e9361273a565b905060008160ff1614611eef57600060018260ff161415611ebd57611eb6612811565b9050611ed5565b60028260ff161415611ed457611ed1612afb565b90505b5b8015611ee557611ee3612ccb565b505b8093505050611ef1565b505b5090565b60046020528060005260406000206000915090505481565b6000600f60009054906101000a900467ffffffffffffffff168067ffffffffffffffff16421115611f6a576040517fecdd1c2900000000000000000000000000000000000000000000000000000000815260040160405180910390fd5b604051611f7690613aa7565b60405180910390207f7cdb51e9dbbc205231228146c3246e7f914aa6d4a33170e43ecc8e3593481d1a60405160405180910390a26000341415611fe5576040517f995a2dae00000000000000000000000000000000000000000000000000000000815260040160405180910390fd5b601054343073ffffffffffffffffffffffffffffffffffffffff163161200b9190613d94565b10612042576040517f77d09e5000000000000000000000000000000000000000000000000000000000815260040160405180910390fd5b6000600360003373ffffffffffffffffffffffffffffffffffffffff1673ffffffffffffffffffffffffffffffffffffffff168152602001908152602001600020541480156120d057506000600e60003373ffffffffffffffffffffffffffffffffffffffff1673ffffffffffffffffffffffffffffffffffffffff16815260200190815260200160002054145b156123db576000606490506000600580549050111561219e57600260006005600081548110612128577f4e487b7100000000000000000000000000000000000000000000000000000000600052603260045260246000fd5b9060005260206000200160009054906101000a900473ffffffffffffffffffffffffffffffffffffffff1673ffffffffffffffffffffffffffffffffffffffff1673ffffffffffffffffffffffffffffffffffffffff16815260200190815260200160002060009054906101000a900460ff1690505b60648160ff161461224f5760006121e260646121d48460646121c09190613f1a565b60ff1660015461259a90919063ffffffff16565b6125b090919063ffffffff16565b9050600660009054906101000a900473ffffffffffffffffffffffffffffffffffffffff1673ffffffffffffffffffffffffffffffffffffffff166108fc829081150290604051600060405180830381858888f1935050505015801561224c573d6000803e3d6000fd5b50505b6000805b6005805490508160ff161015612316573373ffffffffffffffffffffffffffffffffffffffff1660058260ff16815481106122b7577f4e487b7100000000000000000000000000000000000000000000000000000000600052603260045260246000fd5b9060005260206000200160009054906101000a900473ffffffffffffffffffffffffffffffffffffffff1673ffffffffffffffffffffffffffffffffffffffff16141561230357600191505b808061230e9061407b565b915050612253565b5080612380576005339080600181540180825580915050600190039060005260206000200160009091909190916101000a81548173ffffffffffffffffffffffffffffffffffffffff021916908373ffffffffffffffffffffffffffffffffffffffff1602179055505b81600260003373ffffffffffffffffffffffffffffffffffffffff1673ffffffffffffffffffffffffffffffffffffffff16815260200190815260200160002060006101000a81548160ff021916908360ff16021790555050505b34600360003373ffffffffffffffffffffffffffffffffffffffff1673ffffffffffffffffffffffffffffffffffffffff168152602001908152602001600020600082825461242a9190613d94565b9250508190555034600160008282546124439190613d94565b92505081905550612452612de6565b50600191505090565b601260009054906101000a900467ffffffffffffffff1681565b600b818154811061248557600080fd5b9060005260206000209060209182820401919006915054906101000a900460ff1681565b600a81815481106124b957600080fd5b9060005260206000209060209182820401919006915054906101000a900460ff1681565b60115481565b6000600360008373ffffffffffffffffffffffffffffffffffffffff1673ffffffffffffffffffffffffffffffffffffffff168152602001908152602001600020549050919050565b60135481565b60145481565b612540613465565b6000600c60089054906101000a900460ff1661255d576000612560565b60015b60ff16905060405180606001604052806001548152602001828152602001600c600a9054906101000a900460ff1660ff1681525091505090565b600081836125a89190613e8c565b905092915050565b600081836125be9190613e5b565b905092915050565b60006040516125d490613b25565b60405180910390207f7cdb51e9dbbc205231228146c3246e7f914aa6d4a33170e43ecc8e3593481d1a60405160405180910390a2600061263260015461262460648661259a90919063ffffffff16565b6125b090919063ffffffff16565b905060005b60058054905081101561272f57816002600060058481548110612683577f4e487b7100000000000000000000000000000000000000000000000000000000600052603260045260246000fd5b9060005260206000200160009054906101000a900473ffffffffffffffffffffffffffffffffffffffff1673ffffffffffffffffffffffffffffffffffffffff1673ffffffffffffffffffffffffffffffffffffffff16815260200190815260200160002060008282829054906101000a900460ff166127039190613f1a565b92506101000a81548160ff021916908360ff1602179055506001816127289190613d94565b9050612637565b506001915050919050565b6000806127d360646127c56009600c60099054906101000a900460ff1660ff1681548110612791577f4e487b7100000000000000000000000000000000000000000000000000000000600052603260045260246000fd5b90600052602060002090602091828204019190069054906101000a900460ff1660ff1660015461259a90919063ffffffff16565b6125b090919063ffffffff16565b905080601354106127e857600191505061280e565b806001546127f69190613ee6565b6014541061280857600291505061280e565b60009150505b90565b600060405161281f90613b10565b60405180910390207f7cdb51e9dbbc205231228146c3246e7f914aa6d4a33170e43ecc8e3593481d1a60405160405180910390a260006007600c60099054906101000a900460ff1660ff16815481106128a1577f4e487b7100000000000000000000000000000000000000000000000000000000600052603260045260246000fd5b90600052602060002090602091828204019190069054906101000a900460ff1660ff1614156128fc576040517fd70a0e3000000000000000000000000000000000000000000000000000000000815260040160405180910390fd5b600061299460646129866007600c60099054906101000a900460ff1660ff1681548110612952577f4e487b7100000000000000000000000000000000000000000000000000000000600052603260045260246000fd5b90600052602060002090602091828204019190069054906101000a900460ff1660ff1660015461259a90919063ffffffff16565b6125b090919063ffffffff16565b9050600660009054906101000a900473ffffffffffffffffffffffffffffffffffffffff1673ffffffffffffffffffffffffffffffffffffffff166108fc829081150290604051600060405180830381858888f193505050501580156129fe573d6000803e3d6000fd5b5060006007600c60099054906101000a900460ff1660ff1681548110612a4d577f4e487b7100000000000000000000000000000000000000000000000000000000600052603260045260246000fd5b90600052602060002090602091828204019190066101000a81548160ff021916908360ff160217905550612a80816125c6565b507f0e45f244d89cea5099c0a6f24efd8cfde53e85de3cbf08c24acc387c1160ccc3600c60099054906101000a900460ff1682600660009054906101000a900473ffffffffffffffffffffffffffffffffffffffff16604051612ae593929190613c49565b60405180910390a1612af5612fad565b91505090565b6000604051612b0990613ae6565b60405180910390207f7cdb51e9dbbc205231228146c3246e7f914aa6d4a33170e43ecc8e3593481d1a60405160405180910390a26001600a600c60099054906101000a900460ff1660ff1681548110612b8b577f4e487b7100000000000000000000000000000000000000000000000000000000600052603260045260246000fd5b90600052602060002090602091828204019190068282829054906101000a900460ff16612bb89190613e24565b92506101000a81548160ff021916908360ff160217905550600b600c60099054906101000a900460ff1660ff1681548110612c1c577f4e487b7100000000000000000000000000000000000000000000000000000000600052603260045260246000fd5b90600052602060002090602091828204019190069054906101000a900460ff1660ff16600a600c60099054906101000a900460ff1660ff1681548110612c8b577f4e487b7100000000000000000000000000000000000000000000000000000000600052603260045260246000fd5b90600052602060002090602091828204019190069054906101000a900460ff1660ff161415612cc357612cbc61307a565b9050612cc8565b600190505b90565b60008060138190555060006014819055506000601560006101000a81548163ffffffff021916908363ffffffff16021790555060005b600580549050811015612dde576000600d600060058481548110612d4e577f4e487b7100000000000000000000000000000000000000000000000000000000600052603260045260246000fd5b9060005260206000200160009054906101000a900473ffffffffffffffffffffffffffffffffffffffff1673ffffffffffffffffffffffffffffffffffffffff1673ffffffffffffffffffffffffffffffffffffffff16815260200190815260200160002060006101000a81548160ff021916908315150217905550600181612dd79190613d94565b9050612d01565b506001905090565b60006001600c600a9054906101000a900460ff1660ff16148015612e0e575060115460015410155b15612e2257612e1b612e43565b9050612e27565b600090505b90565b6000818310612e395781612e3b565b825b905092915050565b60006002600c600a9054906101000a900460ff1660ff1610612e685760009050612faa565b601260009054906101000a900467ffffffffffffffff1667ffffffffffffffff1642612e949190613d94565b600c60006101000a81548167ffffffffffffffff021916908367ffffffffffffffff1602179055506000600c60086101000a81548160ff0219169083151502179055506002600c600a6101000a81548160ff021916908360ff1602179055506000612f2f6064612f21600660149054906101000a900460ff1660ff1660015461259a90919063ffffffff16565b6125b090919063ffffffff16565b9050600660009054906101000a900473ffffffffffffffffffffffffffffffffffffffff1673ffffffffffffffffffffffffffffffffffffffff166108fc829081150290604051600060405180830381858888f19350505050158015612f99573d6000803e3d6000fd5b50612fa3816125c6565b5060019150505b90565b6000604051612fbb90613abc565b60405180910390207f7cdb51e9dbbc205231228146c3246e7f914aa6d4a33170e43ecc8e3593481d1a60405160405180910390a260016007805490506130019190613ee6565b600c60099054906101000a900460ff1660ff161015613056576001600c60098282829054906101000a900460ff166130399190613e24565b92506101000a81548160ff021916908360ff160217905550613073565b6003600c600a6101000a81548160ff021916908360ff1602179055505b6001905090565b600060405161308890613ad1565b60405180910390207f7cdb51e9dbbc205231228146c3246e7f914aa6d4a33170e43ecc8e3593481d1a60405160405180910390a2600061315460646131466007600c60099054906101000a900460ff1660ff1681548110613112577f4e487b7100000000000000000000000000000000000000000000000000000000600052603260045260246000fd5b90600052602060002090602091828204019190069054906101000a900460ff1660ff1660015461259a90919063ffffffff16565b6125b090919063ffffffff16565b905060005b60058054905081101561331a576000613233600154613225606460036000600588815481106131b1577f4e487b7100000000000000000000000000000000000000000000000000000000600052603260045260246000fd5b9060005260206000200160009054906101000a900473ffffffffffffffffffffffffffffffffffffffff1673ffffffffffffffffffffffffffffffffffffffff1673ffffffffffffffffffffffffffffffffffffffff1681526020019081526020016000205461259a90919063ffffffff16565b6125b090919063ffffffff16565b90506005828154811061326f577f4e487b7100000000000000000000000000000000000000000000000000000000600052603260045260246000fd5b9060005260206000200160009054906101000a900473ffffffffffffffffffffffffffffffffffffffff1673ffffffffffffffffffffffffffffffffffffffff166108fc6132d960646132cb858861259a90919063ffffffff16565b6125b090919063ffffffff16565b9081150290604051600060405180830381858888f19350505050158015613304573d6000803e3d6000fd5b50506001816133139190613d94565b9050613159565b50613324816125c6565b507f230739317a7f90b018762e0570d567293eac14d67441b810f714879dd6aed0bf600c60099054906101000a900460ff166040516133639190613c2e565b60405180910390a1613373612fad565b91505090565b6040518060400160405280600290602082028036833780820191505090505090565b604051806101400160405280600a90602082028036833780820191505090505090565b82805482825590600052602060002090601f016020900481019282156134545791602002820160005b8382111561342557835183826101000a81548160ff021916908360ff16021790555092602001926001016020816000010492830192600103026133e7565b80156134525782816101000a81549060ff0219169055600101602081600001049283019260010302613425565b505b5090506134619190613487565b5090565b6040518060600160405280600390602082028036833780820191505090505090565b5b808211156134a0576000816000905550600101613488565b5090565b60006134b76134b284613ca5565b613c80565b905080838252602082019050828560208602820111156134d657600080fd5b60005b8581101561350657816134ec88826135f6565b8452602084019350602083019250506001810190506134d9565b5050509392505050565b600061352361351e84613cd1565b613c80565b90508281526020810184848401111561353b57600080fd5b61354684828561403b565b509392505050565b60008135905061355d81614262565b92915050565b600082601f83011261357457600080fd5b81356135848482602086016134a4565b91505092915050565b60008135905061359c81614279565b92915050565b600082601f8301126135b357600080fd5b81356135c3848260208601613510565b91505092915050565b6000813590506135db81614290565b92915050565b6000813590506135f0816142a7565b92915050565b600081359050613605816142be565b92915050565b60006020828403121561361d57600080fd5b600061362b8482850161354e565b91505092915050565b6000806000806080858703121561364a57600080fd5b60006136588782880161354e565b94505060206136698782880161354e565b935050604061367a878288016135cc565b925050606085013567ffffffffffffffff81111561369757600080fd5b6136a3878288016135a2565b91505092959194509250565b6000602082840312156136c157600080fd5b60006136cf8482850161358d565b91505092915050565b6000602082840312156136ea57600080fd5b60006136f8848285016135cc565b91505092915050565b60008060008060008060c0878903121561371a57600080fd5b600061372889828a016135cc565b965050602061373989828a016135cc565b955050604087013567ffffffffffffffff81111561375657600080fd5b61376289828a01613563565b945050606087013567ffffffffffffffff81111561377f57600080fd5b61378b89828a01613563565b935050608087013567ffffffffffffffff8111156137a857600080fd5b6137b489828a01613563565b92505060a06137c589828a016135e1565b9150509295509295509295565b600080604083850312156137e557600080fd5b60006137f3858286016135f6565b92505060206138048582860161358d565b9150509250929050565b600061381a8383613a5c565b60208301905092915050565b61382f81614005565b82525050565b61383e81613f60565b82525050565b61384d81613d20565b6138578184613d68565b925061386282613d02565b8060005b8381101561389357815161387a878261380e565b965061388583613d41565b925050600181019050613866565b505050505050565b6138a481613d2b565b6138ae8184613d73565b92506138b982613d0c565b8060005b838110156138ea5781516138d1878261380e565b96506138dc83613d4e565b9250506001810190506138bd565b505050505050565b6138fb81613d36565b6139058184613d7e565b925061391082613d16565b8060005b83811015613941578151613928878261380e565b965061393383613d5b565b925050600181019050613914565b505050505050565b61395281613f72565b82525050565b61396181613f7e565b82525050565b6000613974600b83613d89565b915061397f82614143565b600b82019050919050565b6000613997600d83613d89565b91506139a28261416c565b600d82019050919050565b60006139ba600f83613d89565b91506139c582614195565b600f82019050919050565b60006139dd600d83613d89565b91506139e8826141be565b600d82019050919050565b6000613a00600b83613d89565b9150613a0b826141e7565b600b82019050919050565b6000613a23600d83613d89565b9150613a2e82614210565b600d82019050919050565b6000613a46600e83613d89565b9150613a5182614239565b600e82019050919050565b613a6581613fca565b82525050565b613a7481613fca565b82525050565b613a8381613fd4565b82525050565b613a9281613fe4565b82525050565b613aa181613ff8565b82525050565b6000613ab282613967565b9150819050919050565b6000613ac78261398a565b9150819050919050565b6000613adc826139ad565b9150819050919050565b6000613af1826139d0565b9150819050919050565b6000613b06826139f3565b9150819050919050565b6000613b1b82613a16565b9150819050919050565b6000613b3082613a39565b9150819050919050565b6000602082019050613b4f6000830184613835565b92915050565b600061014082019050613b6b6000830184613844565b92915050565b6000604082019050613b86600083018461389b565b92915050565b6000606082019050613ba160008301846138f2565b92915050565b6000602082019050613bbc6000830184613949565b92915050565b6000602082019050613bd76000830184613958565b92915050565b6000602082019050613bf26000830184613a6b565b92915050565b6000602082019050613c0d6000830184613a7a565b92915050565b6000602082019050613c286000830184613a89565b92915050565b6000602082019050613c436000830184613a98565b92915050565b6000606082019050613c5e6000830186613a98565b613c6b6020830185613a6b565b613c786040830184613826565b949350505050565b6000613c8a613c9b565b9050613c96828261404a565b919050565b6000604051905090565b600067ffffffffffffffff821115613cc057613cbf614103565b5b602082029050602081019050919050565b600067ffffffffffffffff821115613cec57613ceb614103565b5b613cf582614132565b9050602081019050919050565b6000819050919050565b6000819050919050565b6000819050919050565b6000600a9050919050565b600060029050919050565b600060039050919050565b6000602082019050919050565b6000602082019050919050565b6000602082019050919050565b600081905092915050565b600081905092915050565b600081905092915050565b600081905092915050565b6000613d9f82613fca565b9150613daa83613fca565b9250827fffffffffffffffffffffffffffffffffffffffffffffffffffffffffffffffff03821115613ddf57613dde6140a5565b5b828201905092915050565b6000613df582613fd4565b9150613e0083613fd4565b92508263ffffffff03821115613e1957613e186140a5565b5b828201905092915050565b6000613e2f82613ff8565b9150613e3a83613ff8565b92508260ff03821115613e5057613e4f6140a5565b5b828201905092915050565b6000613e6682613fca565b9150613e7183613fca565b925082613e8157613e806140d4565b5b828204905092915050565b6000613e9782613fca565b9150613ea283613fca565b9250817fffffffffffffffffffffffffffffffffffffffffffffffffffffffffffffffff0483118215151615613edb57613eda6140a5565b5b828202905092915050565b6000613ef182613fca565b9150613efc83613fca565b925082821015613f0f57613f0e6140a5565b5b828203905092915050565b6000613f2582613ff8565b9150613f3083613ff8565b925082821015613f4357613f426140a5565b5b828203905092915050565b6000613f5982613faa565b9050919050565b6000613f6b82613faa565b9050919050565b60008115159050919050565b60007fffffffff0000000000000000000000000000000000000000000000000000000082169050919050565b600073ffffffffffffffffffffffffffffffffffffffff82169050919050565b6000819050919050565b600063ffffffff82169050919050565b600067ffffffffffffffff82169050919050565b600060ff82169050919050565b600061401082614017565b9050919050565b600061402282614029565b9050919050565b600061403482613faa565b9050919050565b82818337600083830152505050565b61405382614132565b810181811067ffffffffffffffff8211171561407257614071614103565b5b80604052505050565b600061408682613ff8565b915060ff82141561409a576140996140a5565b5b600182019050919050565b7f4e487b7100000000000000000000000000000000000000000000000000000000600052601160045260246000fd5b7f4e487b7100000000000000000000000000000000000000000000000000000000600052601260045260246000fd5b7f4e487b7100000000000000000000000000000000000000000000000000000000600052604160045260246000fd5b6000601f19601f8301169050919050565b7f6a6f696e2063616c6c6564000000000000000000000000000000000000000000600082015250565b7f6e6578744d696c6573746f6e6500000000000000000000000000000000000000600082015250565b7f6661696c416e6457697468647261770000000000000000000000000000000000600082015250565b7f6661696c4d696c6573746f6e6500000000000000000000000000000000000000600082015250565b7f766f74652063616c6c6564000000000000000000000000000000000000000000600082015250565b7f617070726f7665416e6450617900000000000000000000000000000000000000600082015250565b7f61646a75737442616c616e636573000000000000000000000000000000000000600082015250565b61426b81613f4e565b811461427657600080fd5b50565b61428281613f72565b811461428d57600080fd5b50565b61429981613fca565b81146142a457600080fd5b50565b6142b081613fe4565b81146142bb57600080fd5b50565b6142c781613ff8565b81146142d257600080fd5b5056fea2646970667358221220335640248184f82a2d15169dcf24136bdcc3cbf3f9aa89d24e1a5462ca3dad9e64736f6c63430008040033",
  "immutableReferences": {},
  "source": "pragma solidity ^0.8.0;\r\nimport \"@openzeppelin/contracts/utils/math/SafeMath.sol\";\r\nimport \"@openzeppelin/contracts/utils/math/Math.sol\";\r\nimport \"@openzeppelin/contracts/token/ERC721/IERC721Receiver.sol\";\r\n\r\nabstract contract Treasury {\r\n    using SafeMath for uint256;\r\n    address payable owner;\r\n\r\n    // the total balance in this treasury\r\n    // recorded at the time of vote and used to calculate equity share\r\n    uint256 totalContribution;\r\n\r\n    mapping(address => uint8) pctBalanceRemaining; // fan address => pct equity remaining\r\n    mapping(address => uint256) public equity; // fan address => contribution\r\n    mapping(address => uint256) public votingEquity; // fan address => voting rights\r\n    address payable[] public fans; // fan address to withdraw to, mirrors equity\r\n    address payable public creatorWallet;\r\n\r\n    // NOTE: the below pcts MUST ADD UP TO 100 or the constructor will reject\r\n    uint8 pctCreatorInitialDisbursement;\r\n    uint8 pctCreatorFinalDisbursement;\r\n    uint8[] public bonusTargets; // the payout percentages (out of 100) for bonus targets 0,1,2,..\r\n\r\n    uint64[] public bonusDeadlines; // the time that bonus[i] expires defaulting to NO\r\n    uint8[] public bonusPctYeasNeeded; // pct yeas needed to pass bonus[i]\r\n    uint8[] public bonusFailures; // how many times bonus[i] has failed a vote\r\n    uint8[] public bonusFailureThresholds; // how many times bonus[i] can fail before automatic withdrawal\r\n\r\n    uint64 public endTime; // the time that this contract expires and mints automatically\r\n    bool isPrecipitatingEvent; // IFF true, withdrawals can take place\r\n\r\n    uint8 public votingOn; // the current milestone that votes are tallied towards\r\n    uint8 public status; // [UNCLAIMED, NEGOTIATING, CLAIMED, WAITING_FOR_MINT, SUCCESS, FAILURE]\r\n\r\n    error IncorrectPercentages();\r\n    error Unauthorized();\r\n    error TooLate();\r\n    error AlreadyPaid();\r\n    error NoEquity();\r\n    error MaxValueReached();\r\n\r\n    modifier onlyBy(address _account) {\r\n        if (msg.sender != _account) revert Unauthorized();\r\n        _;\r\n    }\r\n    modifier onlyBefore(uint64 _time) {\r\n        if (block.timestamp > _time) revert TooLate();\r\n        _;\r\n    }\r\n    modifier onlyWithEquity() {\r\n        if (equity[msg.sender] == 0) revert NoEquity();\r\n        _;\r\n    }\r\n\r\n    function balanceOf(address _owner) public view returns (uint256 balance) {\r\n        return equity[_owner].mul(pctBalanceRemaining[_owner]).div(100);\r\n    }\r\n\r\n    function equityOf(address _owner) public view returns (uint256 balance) {\r\n        return equity[_owner];\r\n    }\r\n\r\n    function withdraw() public onlyWithEquity returns (bool success) {\r\n        if (!isPrecipitatingEvent) {\r\n            return false;\r\n        }\r\n        uint256 amount = balanceOf(msg.sender);\r\n        payable(msg.sender).transfer(Math.min(amount, address(this).balance));\r\n        // Wipe balance and equity from this user\r\n        pctBalanceRemaining[msg.sender] = 0;\r\n        equity[msg.sender] = 0;\r\n        votingEquity[msg.sender] = 0;\r\n        // Subtract from total so that all other %s are correct\r\n        totalContribution -= amount;\r\n\r\n        emit Withdraw(msg.sender, amount);\r\n        return true;\r\n    }\r\n\r\n    function precipitatingEvent(bool onOff)\r\n        public\r\n        onlyBy(owner)\r\n        returns (bool success)\r\n    {\r\n        isPrecipitatingEvent = onOff;\r\n        return true;\r\n    }\r\n\r\n    function nextMilestone() private returns (bool success) {\r\n        emit Debug(\"nextMilestone\");\r\n        if (votingOn < bonusTargets.length - 1) {\r\n            votingOn += 1;\r\n        } else {\r\n            status = 3; // WAITING FOR MINT\r\n        }\r\n        return true;\r\n    }\r\n\r\n    // Called by server at time of expiry - should check whether this vote\r\n    // actually succeeded and auto fail/withdraw/move on otherwise\r\n    function failMilestone() internal returns (bool success) {\r\n        emit Debug(\"failMilestone\");\r\n        bonusFailures[votingOn] += 1;\r\n        if (bonusFailures[votingOn] == bonusFailureThresholds[votingOn]) {\r\n            return failAndWithdraw();\r\n        }\r\n        return true;\r\n    }\r\n\r\n    function failAndWithdraw() internal returns (bool success) {\r\n        emit Debug(\"failAndWithdraw\");\r\n        // the amount about to be disbursed among all equity holders\r\n        uint256 disbursement = totalContribution\r\n            .mul(bonusTargets[votingOn])\r\n            .div(100);\r\n        for (uint256 i = 0; i < fans.length; i += 1) {\r\n            // calculate the equity % from totalContribution vs equity\r\n            uint256 pctContrib = equity[fans[i]].mul(100).div(\r\n                totalContribution\r\n            ); // percent * 100\r\n            fans[i].transfer(disbursement.mul(pctContrib).div(100));\r\n        }\r\n        // adjust all balances downward\r\n        adjustBalances(disbursement);\r\n\r\n        emit Failure(votingOn);\r\n        return nextMilestone();\r\n    }\r\n\r\n    function approveAndPay() internal returns (bool success) {\r\n        emit Debug(\"approveAndPay\");\r\n        if (bonusTargets[votingOn] == 0) {\r\n            revert AlreadyPaid();\r\n        }\r\n        uint256 disbursement = totalContribution\r\n            .mul(bonusTargets[votingOn])\r\n            .div(100);\r\n        creatorWallet.transfer(disbursement);\r\n        bonusTargets[votingOn] = 0;\r\n        // adjust all balances downward\r\n        adjustBalances(disbursement);\r\n\r\n        emit Approval(votingOn, disbursement, creatorWallet);\r\n        return nextMilestone();\r\n    }\r\n\r\n    function adjustBalances(uint256 disbursement)\r\n        internal\r\n        returns (bool success)\r\n    {\r\n        emit Debug(\"adjustBalances\");\r\n        // calc the % to adjust downward\r\n        uint256 pctAdjust = disbursement.mul(100).div(totalContribution);\r\n        for (uint256 i = 0; i < fans.length; i += 1) {\r\n            pctBalanceRemaining[fans[i]] -= uint8(pctAdjust);\r\n        }\r\n        return true;\r\n    }\r\n\r\n    event Withdraw(address indexed _to, uint256 _amount);\r\n    event Approval(uint8 _milestone, uint256 _amount, address _creatorWallet);\r\n    event Failure(uint8 _milestone);\r\n    event Debug(string indexed msg);\r\n}\r\n\r\ncontract Bounty is Treasury, IERC721Receiver {\r\n    using SafeMath for uint256;\r\n\r\n    mapping(address => bool) votedThisRound; // whether this address has already voted\r\n    // snapshot of funders at time of negotiation, can be withdrawn from always\r\n    mapping(address => uint256) mustRejoinTreasury;\r\n    uint64 public mustBeClaimedTime; // the time epoch at which this bounty expires if unclaimed\r\n    uint256 public maxValue; // the max value this bounty could be\r\n    uint256 public reservePrice; // the lowest value that this bounty can be, otherwise it expires\r\n    uint64 public timeLimit; // the time limit in seconds that this bounty must be completed in\r\n    uint256 public currentYeas; // yea vote weight for the current bonus\r\n    uint256 public currentNays; // nay vote weight for the current bonus\r\n    uint32 public currentVotesCast; // number of discrete votes cast for the current bonus\r\n\r\n    error VoteOver();\r\n    error AlreadyVoted();\r\n\r\n    constructor(\r\n        address payable _creatorWallet,\r\n        uint256 _maxValue,\r\n        uint256 _reservePrice,\r\n        uint8 _pctCreatorInitialDisbursement,\r\n        uint8 _pctCreatorFinalDisbursement,\r\n        uint8[] memory _bonusTargets,\r\n        uint8[] memory _bonusPctYeasNeeded,\r\n        uint8[] memory _bonusFailureThresholds,\r\n        uint64 _mustBeClaimedTime,\r\n        uint64 _timeLimit,\r\n        address payable _owner\r\n    ) {\r\n        uint8 sum = _pctCreatorInitialDisbursement +\r\n            _pctCreatorFinalDisbursement;\r\n        for (uint8 i = 0; i < _bonusTargets.length; i++) {\r\n            sum += _bonusTargets[i];\r\n        }\r\n        if (sum != 100) {\r\n            revert IncorrectPercentages();\r\n        }\r\n        creatorWallet = _creatorWallet;\r\n        maxValue = _maxValue;\r\n        reservePrice = _reservePrice;\r\n        pctCreatorInitialDisbursement = _pctCreatorInitialDisbursement;\r\n        pctCreatorFinalDisbursement = _pctCreatorFinalDisbursement;\r\n        bonusTargets = _bonusTargets;\r\n        bonusPctYeasNeeded = _bonusPctYeasNeeded;\r\n        bonusFailureThresholds = _bonusFailureThresholds;\r\n        mustBeClaimedTime = _mustBeClaimedTime;\r\n        owner = _owner;\r\n        isPrecipitatingEvent = false;\r\n        timeLimit = _timeLimit;\r\n        bonusFailures = new uint8[](bonusTargets.length);\r\n    }\r\n\r\n    function uniqueFans() public view returns (uint8 num) {\r\n        return uint8(fans.length);\r\n    }\r\n\r\n    // Returns [totalContribution, isPrecipitatingEvent, status]\r\n    function bountyStatus() public view returns (uint256[3] memory stats) {\r\n        uint256 isPrecipitatingEventNum = isPrecipitatingEvent ? 1 : 0;\r\n        return [totalContribution, isPrecipitatingEventNum, uint256(status)];\r\n    }\r\n\r\n    // Returns [milestone, bonusTargetPct, bonusTargetEth, pctYeas, yeasNeeded, yeas, nays, timesFailed, failureThreshold, totalVoters]\r\n    function voteStatus() public view returns (uint256[10] memory stats) {\r\n        return [\r\n            votingOn,\r\n            bonusTargets[votingOn],\r\n            totalContribution.mul(bonusTargets[votingOn]).div(100),\r\n            bonusPctYeasNeeded[votingOn],\r\n            totalContribution.mul(bonusPctYeasNeeded[votingOn]).div(100),\r\n            currentYeas,\r\n            currentNays,\r\n            uint256(bonusFailures[votingOn]),\r\n            bonusFailureThresholds[votingOn],\r\n            currentVotesCast\r\n        ];\r\n    }\r\n\r\n    function join()\r\n        public\r\n        payable\r\n        onlyBefore(mustBeClaimedTime)\r\n        returns (bool success)\r\n    {\r\n        emit Debug(\"join called\");\r\n        if (msg.value == 0) {\r\n            revert NoEquity();\r\n        }\r\n        if (address(this).balance + msg.value >= maxValue) {\r\n            revert MaxValueReached();\r\n        }\r\n        if (equity[msg.sender] == 0 && mustRejoinTreasury[msg.sender] == 0) {\r\n            // how much have other fans paid already? disburse this % from the new number\r\n            uint8 pctRemaining = 100;\r\n            if (fans.length > 0) {\r\n                pctRemaining = pctBalanceRemaining[fans[0]];\r\n            }\r\n            if (pctRemaining != 100) {\r\n                // disburse funds to creator immediately here\r\n                uint256 disbursement = totalContribution\r\n                    .mul(100 - pctRemaining)\r\n                    .div(100);\r\n                creatorWallet.transfer(disbursement);\r\n            }\r\n            // fan not added yet\r\n            bool fanExists = false;\r\n            for (uint8 i = 0; i < fans.length; i++) {\r\n                if (fans[i] == payable(msg.sender)) {\r\n                    fanExists = true;\r\n                }\r\n            }\r\n            if (!fanExists) {\r\n                fans.push(payable(msg.sender));\r\n            }\r\n            pctBalanceRemaining[msg.sender] = pctRemaining;\r\n        }\r\n        equity[msg.sender] += msg.value;\r\n        totalContribution += msg.value;\r\n\r\n        checkReserveMetAndClaim();\r\n        return true;\r\n    }\r\n\r\n    function checkVote() public onlyBy(owner) returns (bool success) {\r\n        uint8 voteStat = checkVoteMarginMet();\r\n        if (voteStat != 0) {\r\n            bool result;\r\n            if (voteStat == 1) {\r\n                result = approveAndPay();\r\n            } else if (voteStat == 2) {\r\n                result = failMilestone();\r\n            }\r\n            // result is true if we took a step forward, otherwise false\r\n            if (result) {\r\n                // Wipe the state if either of these things happens\r\n                wipeStateForBonus();\r\n            }\r\n            return result;\r\n        }\r\n    }\r\n\r\n    // Returns 0 if not a done vote yet, 1 if passed, 2 if failed\r\n    function checkVoteMarginMet() private view returns (uint8 met) {\r\n        uint256 yeasNeeded = totalContribution\r\n            .mul(bonusPctYeasNeeded[votingOn])\r\n            .div(100);\r\n        if (currentYeas >= yeasNeeded) {\r\n            return 1;\r\n        } else if (currentNays >= totalContribution - yeasNeeded) {\r\n            return 2;\r\n        }\r\n        return 0;\r\n    }\r\n\r\n    function vote(uint8 _milestone, bool _vote)\r\n        public\r\n        onlyWithEquity\r\n        returns (bool success)\r\n    {\r\n        emit Debug(\"vote called\");\r\n        // Not yet claimed\r\n        if (status != 2 || _milestone != votingOn) {\r\n            revert VoteOver();\r\n        }\r\n        if (votedThisRound[msg.sender]) {\r\n            revert AlreadyVoted();\r\n        }\r\n        uint256 amount = equityOf(msg.sender);\r\n        if (_vote) {\r\n            currentYeas += amount;\r\n        } else {\r\n            currentNays += amount;\r\n        }\r\n        currentVotesCast += 1;\r\n        votedThisRound[msg.sender] = true;\r\n\r\n        emit Vote(msg.sender, _vote);\r\n\r\n        uint8 _status = checkVoteMarginMet();\r\n        if (_status != 0) {\r\n            bool result;\r\n            if (_status == 1) {\r\n                result = approveAndPay();\r\n            } else if (_status == 2) {\r\n                result = failMilestone();\r\n            }\r\n            // result is true if we took a step forward, otherwise false\r\n            if (result) {\r\n                // Wipe the state if either of these things happens\r\n                wipeStateForBonus();\r\n            }\r\n            return result;\r\n        }\r\n        return true;\r\n    }\r\n\r\n    function negotiate(\r\n        uint256 _maxValue,\r\n        uint256 _reservePrice,\r\n        uint8[] memory _bonusTargets,\r\n        uint8[] memory _bonusPctYeasNeeded,\r\n        uint8[] memory _bonusFailureThresholds,\r\n        uint64 _timeLimit\r\n    ) public onlyBy(owner) returns (bool success) {\r\n        if (status != 0) {\r\n            return false;\r\n        }\r\n        reservePrice = _reservePrice;\r\n        maxValue = _maxValue;\r\n        bonusTargets = _bonusTargets;\r\n        bonusFailureThresholds = _bonusFailureThresholds;\r\n        bonusPctYeasNeeded = _bonusPctYeasNeeded;\r\n        timeLimit = _timeLimit;\r\n        isPrecipitatingEvent = true;\r\n\r\n        // MAKE A SNAPSHOT OF THE TREASURY AND RESET\r\n        totalContribution = 0;\r\n        for (uint256 i = 0; i < fans.length; i += 1) {\r\n            mustRejoinTreasury[fans[i]] = equity[fans[i]];\r\n            equity[fans[i]] = 0;\r\n        }\r\n        status = 1; // NEGOTIATING\r\n        return true;\r\n    }\r\n\r\n    function amountRejoinTreasury(address _addr)\r\n        public\r\n        view\r\n        returns (uint256 canRejoin)\r\n    {\r\n        return mustRejoinTreasury[_addr];\r\n    }\r\n\r\n    function negotiateRejoin(address _addr)\r\n        public\r\n        onlyBy(owner)\r\n        returns (bool success)\r\n    {\r\n        equity[_addr] += mustRejoinTreasury[_addr];\r\n        totalContribution += mustRejoinTreasury[_addr];\r\n        mustRejoinTreasury[_addr] = 0;\r\n        checkReserveMetAndClaim();\r\n        return true;\r\n    }\r\n\r\n    function negotiateLeave() public returns (bool success) {\r\n        payable(msg.sender).transfer(mustRejoinTreasury[msg.sender]);\r\n        mustRejoinTreasury[msg.sender] = 0;\r\n        return true;\r\n    }\r\n\r\n    function checkReserveMetAndClaim() private returns (bool success) {\r\n        if (status == 1 && totalContribution >= reservePrice) {\r\n            return claimInternal();\r\n        }\r\n        return false;\r\n    }\r\n\r\n    function negotiationStatus() public view returns (uint256[2] memory data) {\r\n        return [reservePrice, totalContribution];\r\n    }\r\n\r\n    // Async set initial state and sets the end time of this bounty according to config\r\n    function claim() public onlyBy(owner) returns (bool success) {\r\n        return claimInternal();\r\n    }\r\n\r\n    function claimInternal() private returns (bool success) {\r\n        // Already claimed\r\n        if (status >= 2) {\r\n            return false;\r\n        }\r\n        endTime = uint64(block.timestamp + timeLimit);\r\n        isPrecipitatingEvent = false;\r\n        status = 2; // CLAIMED\r\n\r\n        uint256 disbursement = totalContribution\r\n            .mul(pctCreatorInitialDisbursement)\r\n            .div(100);\r\n        creatorWallet.transfer(disbursement);\r\n        // adjust all existing balances downward\r\n        adjustBalances(disbursement);\r\n\r\n        return true;\r\n    }\r\n\r\n    function wipeStateForBonus() private returns (bool success) {\r\n        currentYeas = 0;\r\n        currentNays = 0;\r\n        currentVotesCast = 0;\r\n        for (uint256 i = 0; i < fans.length; i += 1) {\r\n            votedThisRound[fans[i]] = false;\r\n        }\r\n        return true;\r\n    }\r\n\r\n    function onERC721Received(\r\n        address _operator,\r\n        address,\r\n        uint256,\r\n        bytes memory\r\n    ) public virtual override returns (bytes4) {\r\n        if (_operator == owner) {\r\n            // COMPLETE THE BOUNTY HERE\r\n            uint256 disbursement = totalContribution\r\n                .mul(pctCreatorFinalDisbursement)\r\n                .div(100);\r\n            creatorWallet.transfer(disbursement);\r\n            // adjust all existing balances downward\r\n            adjustBalances(disbursement);\r\n            status = 4; // SUCCESS\r\n        }\r\n        return this.onERC721Received.selector;\r\n    }\r\n\r\n    // _vote is false for nay, true for yea\r\n    event Vote(address indexed _voter, bool _vote);\r\n}\r\n",
  "sourcePath": "C:\\Users\\kumquatexpress\\projects\\polygon-hack\\web3\\contracts\\polygon\\Bounty.sol",
  "compiler": {
    "name": "solc",
    "version": "0.8.4+commit.c7e474f2.Emscripten.clang"
  },
  "schemaVersion": "3.4.4",
  "updatedAt": "2022-02-08T07:06:21.792Z",
  "devdoc": {
    "kind": "dev",
    "methods": {},
    "version": 1
  },
  "userdoc": {
    "kind": "user",
    "methods": {},
    "version": 1
  },
  "db": {
    "callBytecode": {
      "id": "0x7a7e5ee736628de7f99e1a21ca2f19e82cc820c58041f724f051b9fd0e676539"
    },
    "createBytecode": {
      "id": "0xf19e39a50e429c626073a5ee434434a2172457ea184cf1080f742602e5ddb3a5"
    },
    "contract": {
      "id": "0x0f0e972bc97054af8d4294ce0a9e82803e15042000c4099419c2aa74db598ee8"
    }
  }
}