{
  "contractName": "Machine",
  "abi": [
    {
      "anonymous": false,
      "inputs": [
        {
          "indexed": true,
          "internalType": "address",
          "name": "configAddress",
          "type": "address"
        },
        {
          "indexed": true,
          "internalType": "address",
          "name": "sender",
          "type": "address"
        }
      ],
      "name": "Create",
      "type": "event"
    },
    {
      "inputs": [],
      "name": "owner",
      "outputs": [
        {
          "internalType": "address",
          "name": "",
          "type": "address"
        }
      ],
      "stateMutability": "view",
      "type": "function",
      "constant": true
    },
    {
      "inputs": [
        {
          "internalType": "address payable",
          "name": "_creatorWallet",
          "type": "address"
        },
        {
          "internalType": "uint256",
          "name": "_maxValue",
          "type": "uint256"
        },
        {
          "internalType": "uint256",
          "name": "_reservePrice",
          "type": "uint256"
        },
        {
          "internalType": "uint8[]",
          "name": "_bonusTargets",
          "type": "uint8[]"
        },
        {
          "internalType": "uint8[]",
          "name": "_bonusPctYeasNeeded",
          "type": "uint8[]"
        },
        {
          "internalType": "uint8[]",
          "name": "_bonusFailureThresholds",
          "type": "uint8[]"
        },
        {
          "internalType": "uint64",
          "name": "_mustBeClaimedTime",
          "type": "uint64"
        },
        {
          "internalType": "uint64",
          "name": "_timeLimit",
          "type": "uint64"
        }
      ],
      "name": "create",
      "outputs": [
        {
          "internalType": "address",
          "name": "configAddress",
          "type": "address"
        }
      ],
      "stateMutability": "nonpayable",
      "type": "function"
    }
  ],
  "bytecode": "0x6080604052336000806101000a81548173ffffffffffffffffffffffffffffffffffffffff021916908373ffffffffffffffffffffffffffffffffffffffff16021790555034801561005057600080fd5b506148fc806100606000396000f3fe60806040523480156200001157600080fd5b506004361062000057576000357c0100000000000000000000000000000000000000000000000000000000900480635b064775146200005c5780638da5cb5b1462000092575b600080fd5b6200007a6004803603810190620000749190620002bc565b620000b4565b604051620000899190620004a3565b60405180910390f35b6200009c6200018c565b604051620000ab9190620004a3565b60405180910390f35b600080898989898989898960008054906101000a900473ffffffffffffffffffffffffffffffffffffffff16604051620000ee90620001b0565b6200010299989796959493929190620004c0565b604051809103906000f0801580156200011f573d6000803e3d6000fd5b5090503373ffffffffffffffffffffffffffffffffffffffff168173ffffffffffffffffffffffffffffffffffffffff167f96b5b9b8a7193304150caccf9b80d150675fa3d6af57761d8d8ef1d6f9a1a90960405160405180910390a38091505098975050505050505050565b60008054906101000a900473ffffffffffffffffffffffffffffffffffffffff1681565b614170806200075783390190565b6000620001d5620001cf846200059d565b62000574565b90508083825260208201905082856020860282011115620001f557600080fd5b60005b858110156200022957816200020e8882620002a5565b845260208401935060208301925050600181019050620001f8565b5050509392505050565b6000813590506200024481620006ee565b92915050565b600082601f8301126200025c57600080fd5b81356200026e848260208601620001be565b91505092915050565b600081359050620002888162000708565b92915050565b6000813590506200029f8162000722565b92915050565b600081359050620002b6816200073c565b92915050565b600080600080600080600080610100898b031215620002da57600080fd5b6000620002ea8b828c0162000233565b9850506020620002fd8b828c0162000277565b9750506040620003108b828c0162000277565b965050606089013567ffffffffffffffff8111156200032e57600080fd5b6200033c8b828c016200024a565b955050608089013567ffffffffffffffff8111156200035a57600080fd5b620003688b828c016200024a565b94505060a089013567ffffffffffffffff8111156200038657600080fd5b620003948b828c016200024a565b93505060c0620003a78b828c016200028e565b92505060e0620003ba8b828c016200028e565b9150509295985092959890939650565b6000620003d8838362000492565b60208301905092915050565b620003ef8162000619565b82525050565b620004008162000605565b82525050565b60006200041382620005dc565b6200041f8185620005f4565b93506200042c83620005cc565b8060005b8381101562000463578151620004478882620003ca565b97506200045483620005e7565b92505060018101905062000430565b5085935050505092915050565b6200047b816200064d565b82525050565b6200048c8162000657565b82525050565b6200049d816200066b565b82525050565b6000602082019050620004ba6000830184620003f5565b92915050565b600061012082019050620004d8600083018c620003e4565b620004e7602083018b62000470565b620004f6604083018a62000470565b81810360608301526200050a818962000406565b9050818103608083015262000520818862000406565b905081810360a083015262000536818762000406565b90506200054760c083018662000481565b6200055660e083018562000481565b62000566610100830184620003e4565b9a9950505050505050505050565b60006200058062000593565b90506200058e828262000678565b919050565b6000604051905090565b600067ffffffffffffffff821115620005bb57620005ba620006ae565b5b602082029050602081019050919050565b6000819050602082019050919050565b600081519050919050565b6000602082019050919050565b600082825260208201905092915050565b600062000612826200062d565b9050919050565b600062000626826200062d565b9050919050565b600073ffffffffffffffffffffffffffffffffffffffff82169050919050565b6000819050919050565b600067ffffffffffffffff82169050919050565b600060ff82169050919050565b6200068382620006dd565b810181811067ffffffffffffffff82111715620006a557620006a4620006ae565b5b80604052505050565b7f4e487b7100000000000000000000000000000000000000000000000000000000600052604160045260246000fd5b6000601f19601f8301169050919050565b620006f98162000619565b81146200070557600080fd5b50565b62000713816200064d565b81146200071f57600080fd5b50565b6200072d8162000657565b81146200073957600080fd5b50565b62000747816200066b565b81146200075357600080fd5b5056fe60806040523480156200001157600080fd5b5060405162004170380380620041708339818101604052810190620000379190620003e6565b88600660006101000a81548173ffffffffffffffffffffffffffffffffffffffff021916908373ffffffffffffffffffffffffffffffffffffffff160217905550876010819055508660118190555085600790805190602001906200009e9291906200021b565b508460099080519060200190620000b79291906200021b565b5083600b9080519060200190620000d09291906200021b565b5082600f60006101000a81548167ffffffffffffffff021916908367ffffffffffffffff160217905550806000806101000a81548173ffffffffffffffffffffffffffffffffffffffff021916908373ffffffffffffffffffffffffffffffffffffffff1602179055506000600c60086101000a81548160ff02191690831515021790555081601260006101000a81548167ffffffffffffffff021916908367ffffffffffffffff16021790555060078054905067ffffffffffffffff811115620001c4577f4e487b7100000000000000000000000000000000000000000000000000000000600052604160045260246000fd5b604051908082528060200260200182016040528015620001f35781602001602082028036833780820191505090505b50600a90805190602001906200020b9291906200021b565b505050505050505050506200069f565b82805482825590600052602060002090601f01602090048101928215620002b65791602002820160005b838211156200028557835183826101000a81548160ff021916908360ff160217905550926020019260010160208160000104928301926001030262000245565b8015620002b45782816101000a81549060ff021916905560010160208160000104928301926001030262000285565b505b509050620002c59190620002c9565b5090565b5b80821115620002e4576000816000905550600101620002ca565b5090565b6000620002ff620002f98462000533565b6200050a565b905080838252602082019050828560208602820111156200031f57600080fd5b60005b85811015620003535781620003388882620003cf565b84526020840193506020830192505060018101905062000322565b5050509392505050565b6000815190506200036e8162000637565b92915050565b600082601f8301126200038657600080fd5b815162000398848260208601620002e8565b91505092915050565b600081519050620003b28162000651565b92915050565b600081519050620003c9816200066b565b92915050565b600081519050620003e08162000685565b92915050565b60008060008060008060008060006101208a8c0312156200040657600080fd5b6000620004168c828d016200035d565b9950506020620004298c828d01620003a1565b98505060406200043c8c828d01620003a1565b97505060608a015167ffffffffffffffff8111156200045a57600080fd5b620004688c828d0162000374565b96505060808a015167ffffffffffffffff8111156200048657600080fd5b620004948c828d0162000374565b95505060a08a015167ffffffffffffffff811115620004b257600080fd5b620004c08c828d0162000374565b94505060c0620004d38c828d01620003b8565b93505060e0620004e68c828d01620003b8565b925050610100620004fa8c828d016200035d565b9150509295985092959850929598565b60006200051662000529565b9050620005248282620005c1565b919050565b6000604051905090565b600067ffffffffffffffff821115620005515762000550620005f7565b5b602082029050602081019050919050565b60006200056f8262000576565b9050919050565b600073ffffffffffffffffffffffffffffffffffffffff82169050919050565b6000819050919050565b600067ffffffffffffffff82169050919050565b600060ff82169050919050565b620005cc8262000626565b810181811067ffffffffffffffff82111715620005ee57620005ed620005f7565b5b80604052505050565b7f4e487b7100000000000000000000000000000000000000000000000000000000600052604160045260246000fd5b6000601f19601f8301169050919050565b620006428162000562565b81146200064e57600080fd5b50565b6200065c8162000596565b81146200066857600080fd5b50565b6200067681620005a0565b81146200068257600080fd5b50565b6200069081620005b4565b81146200069c57600080fd5b50565b613ac180620006af6000396000f3fe608060405260043610610221576000357c01000000000000000000000000000000000000000000000000000000009004806370a0823111610135578063b688a363116100bd578063db2e1eed1161008c578063db2e1eed1461081f578063e2fd21e81461084a578063e885f76b14610887578063f541c60f146108b2578063f6432402146108dd57610221565b8063b688a3631461075c578063c08d1fe51461077a578063cb0cd6b5146107a5578063d553ed13146107e257610221565b806393d181131161010457806393d181131461066157806394a5c2e41461068c578063a064c9d8146106b7578063b0417e98146106f4578063b4bd497a1461071f57610221565b806370a08231146105a35780637ae6ee32146105e05780637cdc65f21461060b5780637f698dad1461063657610221565b80633ccfd60b116101b85780634ce2cdc7116101875780634ce2cdc7146104965780634e71d92d146104d35780635d7c58ea146104fe5780636650e24914610529578063688594b31461056657610221565b80633ccfd60b146103c65780633dad5c70146103f157806342bbec591461042e5780634bd1d75c1461046b57610221565b80632808241e116101f45780632808241e146102e45780632e8a498c146103215780633197cbb61461035e578063379ae0471461038957610221565b80631b535135146102265780631b5a3cc914610251578063200d2ed21461028e57806320949bb4146102b9575b600080fd5b34801561023257600080fd5b5061023b610908565b60405161024891906133bd565b60405180910390f35b34801561025d57600080fd5b5061027860048036038101906102739190612f26565b61092e565b604051610285919061340e565b60405180910390f35b34801561029a57600080fd5b506102a36109db565b6040516102b0919061347a565b60405180910390f35b3480156102c557600080fd5b506102ce6109ee565b6040516102db919061347a565b60405180910390f35b3480156102f057600080fd5b5061030b60048036038101906103069190613049565b610a01565b604051610318919061340e565b60405180910390f35b34801561032d57600080fd5b5061034860048036038101906103439190612efd565b610d53565b6040516103559190613429565b60405180910390f35b34801561036a57600080fd5b50610373610d6b565b604051610380919061345f565b60405180910390f35b34801561039557600080fd5b506103b060048036038101906103ab9190612efd565b610d85565b6040516103bd919061340e565b60405180910390f35b3480156103d257600080fd5b506103db610f53565b6040516103e8919061340e565b60405180910390f35b3480156103fd57600080fd5b5061041860048036038101906104139190612f4f565b6111b2565b604051610425919061345f565b60405180910390f35b34801561043a57600080fd5b5061045560048036038101906104509190612f4f565b6111f0565b604051610462919061347a565b60405180910390f35b34801561047757600080fd5b50610480611224565b60405161048d919061340e565b60405180910390f35b3480156104a257600080fd5b506104bd60048036038101906104b89190612f4f565b6112b3565b6040516104ca919061347a565b60405180910390f35b3480156104df57600080fd5b506104e86112e7565b6040516104f5919061340e565b60405180910390f35b34801561050a57600080fd5b5061051361137e565b604051610520919061345f565b60405180910390f35b34801561053557600080fd5b50610550600480360381019061054b9190612efd565b611398565b60405161055d919061340e565b60405180910390f35b34801561057257600080fd5b5061058d60048036038101906105889190612f4f565b6113e4565b60405161059a91906133a2565b60405180910390f35b3480156105af57600080fd5b506105ca60048036038101906105c59190612efd565b611423565b6040516105d79190613429565b60405180910390f35b3480156105ec57600080fd5b506105f56114e0565b60405161060291906133f3565b60405180910390f35b34801561061757600080fd5b50610620611698565b60405161062d91906133a2565b60405180910390f35b34801561064257600080fd5b5061064b6116be565b604051610658919061347a565b60405180910390f35b34801561066d57600080fd5b506106766116cb565b6040516106839190613444565b60405180910390f35b34801561069857600080fd5b506106a16116e1565b6040516106ae9190613429565b60405180910390f35b3480156106c357600080fd5b506106de60048036038101906106d99190612f78565b6116e7565b6040516106eb919061340e565b60405180910390f35b34801561070057600080fd5b50610709611a77565b604051610716919061340e565b60405180910390f35b34801561072b57600080fd5b5061074660048036038101906107419190612efd565b611b6c565b6040516107539190613429565b60405180910390f35b610764611b84565b604051610771919061340e565b60405180910390f35b34801561078657600080fd5b5061078f611e89565b60405161079c919061345f565b60405180910390f35b3480156107b157600080fd5b506107cc60048036038101906107c79190612f4f565b611ea3565b6040516107d9919061347a565b60405180910390f35b3480156107ee57600080fd5b5061080960048036038101906108049190612f4f565b611ed7565b604051610816919061347a565b60405180910390f35b34801561082b57600080fd5b50610834611f0b565b6040516108419190613429565b60405180910390f35b34801561085657600080fd5b50610871600480360381019061086c9190612efd565b611f11565b60405161087e9190613429565b60405180910390f35b34801561089357600080fd5b5061089c611f5a565b6040516108a99190613429565b60405180910390f35b3480156108be57600080fd5b506108c7611f60565b6040516108d49190613429565b60405180910390f35b3480156108e957600080fd5b506108f2611f66565b6040516108ff91906133d8565b60405180910390f35b610910612cd4565b60405180604001604052806011548152602001600154815250905090565b60008060009054906101000a900473ffffffffffffffffffffffffffffffffffffffff168073ffffffffffffffffffffffffffffffffffffffff163373ffffffffffffffffffffffffffffffffffffffff16146109b7576040517f82b4290000000000000000000000000000000000000000000000000000000000815260040160405180910390fd5b82600c60086101000a81548160ff0219169083151502179055506001915050919050565b601560049054906101000a900460ff1681565b600c60099054906101000a900460ff1681565b600080600360003373ffffffffffffffffffffffffffffffffffffffff1673ffffffffffffffffffffffffffffffffffffffff168152602001908152602001600020541415610a7c576040517f995a2dae00000000000000000000000000000000000000000000000000000000815260040160405180910390fd5b604051610a8890613363565b60405180910390207f7cdb51e9dbbc205231228146c3246e7f914aa6d4a33170e43ecc8e3593481d1a60405160405180910390a26002601560049054906101000a900460ff1660ff16141580610af35750600c60099054906101000a900460ff1660ff168360ff1614155b15610b2a576040517f4733210000000000000000000000000000000000000000000000000000000000815260040160405180910390fd5b600d60003373ffffffffffffffffffffffffffffffffffffffff1673ffffffffffffffffffffffffffffffffffffffff16815260200190815260200160002060009054906101000a900460ff1615610bae576040517f7c9a1cf900000000000000000000000000000000000000000000000000000000815260040160405180910390fd5b6000610bb933611f11565b90508215610bdf578060136000828254610bd391906135af565b92505081905550610bf9565b8060146000828254610bf191906135af565b925050819055505b6001601560008282829054906101000a900463ffffffff16610c1b9190613605565b92506101000a81548163ffffffff021916908363ffffffff1602179055506001600d60003373ffffffffffffffffffffffffffffffffffffffff1673ffffffffffffffffffffffffffffffffffffffff16815260200190815260200160002060006101000a81548160ff0219169083151502179055503373ffffffffffffffffffffffffffffffffffffffff167fa635d31e67484fd1d93ba01ab0ef882e4440a78aa40d0e2771e8a2aace45986984604051610cd7919061340e565b60405180910390a26000610ce9611fc8565b905060008160ff1614610d4657600060018260ff161415610d1357610d0c61209f565b9050610d2b565b60028260ff161415610d2a57610d27612389565b90505b5b8015610d3b57610d39612559565b505b809350505050610d4d565b6001925050505b92915050565b60036020528060005260406000206000915090505481565b600c60009054906101000a900467ffffffffffffffff1681565b60008060009054906101000a900473ffffffffffffffffffffffffffffffffffffffff168073ffffffffffffffffffffffffffffffffffffffff163373ffffffffffffffffffffffffffffffffffffffff1614610e0e576040517f82b4290000000000000000000000000000000000000000000000000000000000815260040160405180910390fd5b600e60008473ffffffffffffffffffffffffffffffffffffffff1673ffffffffffffffffffffffffffffffffffffffff16815260200190815260200160002054600360008573ffffffffffffffffffffffffffffffffffffffff1673ffffffffffffffffffffffffffffffffffffffff1681526020019081526020016000206000828254610e9c91906135af565b92505081905550600e60008473ffffffffffffffffffffffffffffffffffffffff1673ffffffffffffffffffffffffffffffffffffffff1681526020019081526020016000205460016000828254610ef491906135af565b925050819055506000600e60008573ffffffffffffffffffffffffffffffffffffffff1673ffffffffffffffffffffffffffffffffffffffff16815260200190815260200160002081905550610f48612674565b506001915050919050565b600080600360003373ffffffffffffffffffffffffffffffffffffffff1673ffffffffffffffffffffffffffffffffffffffff168152602001908152602001600020541415610fce576040517f995a2dae00000000000000000000000000000000000000000000000000000000815260040160405180910390fd5b600c60089054906101000a900460ff16610feb57600090506111af565b6000610ff633611423565b90503373ffffffffffffffffffffffffffffffffffffffff166108fc611033833073ffffffffffffffffffffffffffffffffffffffff16316126b8565b9081150290604051600060405180830381858888f1935050505015801561105e573d6000803e3d6000fd5b506000600260003373ffffffffffffffffffffffffffffffffffffffff1673ffffffffffffffffffffffffffffffffffffffff16815260200190815260200160002060006101000a81548160ff021916908360ff1602179055506000600360003373ffffffffffffffffffffffffffffffffffffffff1673ffffffffffffffffffffffffffffffffffffffff168152602001908152602001600020819055506000600460003373ffffffffffffffffffffffffffffffffffffffff1673ffffffffffffffffffffffffffffffffffffffff1681526020019081526020016000208190555080600160008282546111549190613701565b925050819055503373ffffffffffffffffffffffffffffffffffffffff167f884edad9ce6fa2440d8a54cc123490eb96d2768479d49ff9c7366125a9424364826040516111a19190613429565b60405180910390a260019150505b90565b600881815481106111c257600080fd5b9060005260206000209060049182820401919006600802915054906101000a900467ffffffffffffffff1681565b6007818154811061120057600080fd5b9060005260206000209060209182820401919006915054906101000a900460ff1681565b60003373ffffffffffffffffffffffffffffffffffffffff166108fc600e60003373ffffffffffffffffffffffffffffffffffffffff1673ffffffffffffffffffffffffffffffffffffffff168152602001908152602001600020549081150290604051600060405180830381858888f193505050501580156112ab573d6000803e3d6000fd5b506001905090565b600981815481106112c357600080fd5b9060005260206000209060209182820401919006915054906101000a900460ff1681565b60008060009054906101000a900473ffffffffffffffffffffffffffffffffffffffff168073ffffffffffffffffffffffffffffffffffffffff163373ffffffffffffffffffffffffffffffffffffffff1614611370576040517f82b4290000000000000000000000000000000000000000000000000000000000815260040160405180910390fd5b6113786126d1565b91505090565b600f60009054906101000a900467ffffffffffffffff1681565b600080600e60008473ffffffffffffffffffffffffffffffffffffffff1673ffffffffffffffffffffffffffffffffffffffff1681526020019081526020016000205414159050919050565b600581815481106113f457600080fd5b906000526020600020016000915054906101000a900473ffffffffffffffffffffffffffffffffffffffff1681565b60006114d960646114cb600260008673ffffffffffffffffffffffffffffffffffffffff1673ffffffffffffffffffffffffffffffffffffffff16815260200190815260200160002060009054906101000a900460ff1660ff16600360008773ffffffffffffffffffffffffffffffffffffffff1673ffffffffffffffffffffffffffffffffffffffff1681526020019081526020016000205461278990919063ffffffff16565b61279f90919063ffffffff16565b9050919050565b6114e8612cf6565b6040518060e00160405280600c60099054906101000a900460ff1660ff1681526020016009600c60099054906101000a900460ff1660ff1681548110611557577f4e487b7100000000000000000000000000000000000000000000000000000000600052603260045260246000fd5b90600052602060002090602091828204019190069054906101000a900460ff1660ff16815260200160135481526020016014548152602001600a600c60099054906101000a900460ff1660ff16815481106115db577f4e487b7100000000000000000000000000000000000000000000000000000000600052603260045260246000fd5b90600052602060002090602091828204019190069054906101000a900460ff1660ff168152602001600b600c60099054906101000a900460ff1660ff168154811061164f577f4e487b7100000000000000000000000000000000000000000000000000000000600052603260045260246000fd5b90600052602060002090602091828204019190069054906101000a900460ff1660ff168152602001601560009054906101000a900463ffffffff1663ffffffff16815250905090565b600660009054906101000a900473ffffffffffffffffffffffffffffffffffffffff1681565b6000600580549050905090565b601560009054906101000a900463ffffffff1681565b60105481565b60008060009054906101000a900473ffffffffffffffffffffffffffffffffffffffff168073ffffffffffffffffffffffffffffffffffffffff163373ffffffffffffffffffffffffffffffffffffffff1614611770576040517f82b4290000000000000000000000000000000000000000000000000000000000815260040160405180910390fd5b6000601560049054906101000a900460ff1660ff16146117935760009150611a6c565b866011819055508760108190555085600790805190602001906117b7929190612d18565b5083600b90805190602001906117ce929190612d18565b5084600990805190602001906117e5929190612d18565b5082601260006101000a81548167ffffffffffffffff021916908367ffffffffffffffff1602179055506001600c60086101000a81548160ff021916908315150217905550600060018190555060005b600580549050811015611a4a576003600060058381548110611880577f4e487b7100000000000000000000000000000000000000000000000000000000600052603260045260246000fd5b9060005260206000200160009054906101000a900473ffffffffffffffffffffffffffffffffffffffff1673ffffffffffffffffffffffffffffffffffffffff1673ffffffffffffffffffffffffffffffffffffffff16815260200190815260200160002054600e600060058481548110611924577f4e487b7100000000000000000000000000000000000000000000000000000000600052603260045260246000fd5b9060005260206000200160009054906101000a900473ffffffffffffffffffffffffffffffffffffffff1673ffffffffffffffffffffffffffffffffffffffff1673ffffffffffffffffffffffffffffffffffffffff16815260200190815260200160002081905550600060036000600584815481106119cd577f4e487b7100000000000000000000000000000000000000000000000000000000600052603260045260246000fd5b9060005260206000200160009054906101000a900473ffffffffffffffffffffffffffffffffffffffff1673ffffffffffffffffffffffffffffffffffffffff1673ffffffffffffffffffffffffffffffffffffffff16815260200190815260200160002081905550600181611a4391906135af565b9050611835565b506001601560046101000a81548160ff021916908360ff160217905550600191505b509695505050505050565b60008060009054906101000a900473ffffffffffffffffffffffffffffffffffffffff168073ffffffffffffffffffffffffffffffffffffffff163373ffffffffffffffffffffffffffffffffffffffff1614611b00576040517f82b4290000000000000000000000000000000000000000000000000000000000815260040160405180910390fd5b6000611b0a611fc8565b905060008160ff1614611b6657600060018260ff161415611b3457611b2d61209f565b9050611b4c565b60028260ff161415611b4b57611b48612389565b90505b5b8015611b5c57611b5a612559565b505b8093505050611b68565b505b5090565b60046020528060005260406000206000915090505481565b6000600f60009054906101000a900467ffffffffffffffff168067ffffffffffffffff16421115611be1576040517fecdd1c2900000000000000000000000000000000000000000000000000000000815260040160405180910390fd5b604051611bed9061330f565b60405180910390207f7cdb51e9dbbc205231228146c3246e7f914aa6d4a33170e43ecc8e3593481d1a60405160405180910390a26000341415611c5c576040517f995a2dae00000000000000000000000000000000000000000000000000000000815260040160405180910390fd5b601054343073ffffffffffffffffffffffffffffffffffffffff1631611c8291906135af565b10611cb9576040517f77d09e5000000000000000000000000000000000000000000000000000000000815260040160405180910390fd5b6000600360003373ffffffffffffffffffffffffffffffffffffffff1673ffffffffffffffffffffffffffffffffffffffff16815260200190815260200160002054148015611d4757506000600e60003373ffffffffffffffffffffffffffffffffffffffff1673ffffffffffffffffffffffffffffffffffffffff16815260200190815260200160002054145b15611e09576005339080600181540180825580915050600190039060005260206000200160009091909190916101000a81548173ffffffffffffffffffffffffffffffffffffffff021916908373ffffffffffffffffffffffffffffffffffffffff1602179055506064600260003373ffffffffffffffffffffffffffffffffffffffff1673ffffffffffffffffffffffffffffffffffffffff16815260200190815260200160002060006101000a81548160ff021916908360ff1602179055505b34600360003373ffffffffffffffffffffffffffffffffffffffff1673ffffffffffffffffffffffffffffffffffffffff1681526020019081526020016000206000828254611e5891906135af565b925050819055503460016000828254611e7191906135af565b92505081905550611e80612674565b50600191505090565b601260009054906101000a900467ffffffffffffffff1681565b600b8181548110611eb357600080fd5b9060005260206000209060209182820401919006915054906101000a900460ff1681565b600a8181548110611ee757600080fd5b9060005260206000209060209182820401919006915054906101000a900460ff1681565b60115481565b6000600360008373ffffffffffffffffffffffffffffffffffffffff1673ffffffffffffffffffffffffffffffffffffffff168152602001908152602001600020549050919050565b60135481565b60145481565b611f6e612dbf565b6000600c60089054906101000a900460ff16611f8b576000611f8e565b60015b60ff16905060405180606001604052806001548152602001828152602001601560049054906101000a900460ff1660ff1681525091505090565b60008061206160646120536009600c60099054906101000a900460ff1660ff168154811061201f577f4e487b7100000000000000000000000000000000000000000000000000000000600052603260045260246000fd5b90600052602060002090602091828204019190069054906101000a900460ff1660ff1660015461278990919063ffffffff16565b61279f90919063ffffffff16565b9050806013541061207657600191505061209c565b806001546120849190613701565b6014541061209657600291505061209c565b60009150505b90565b60006040516120ad90613378565b60405180910390207f7cdb51e9dbbc205231228146c3246e7f914aa6d4a33170e43ecc8e3593481d1a60405160405180910390a260006007600c60099054906101000a900460ff1660ff168154811061212f577f4e487b7100000000000000000000000000000000000000000000000000000000600052603260045260246000fd5b90600052602060002090602091828204019190069054906101000a900460ff1660ff16141561218a576040517fd70a0e3000000000000000000000000000000000000000000000000000000000815260040160405180910390fd5b600061222260646122146007600c60099054906101000a900460ff1660ff16815481106121e0577f4e487b7100000000000000000000000000000000000000000000000000000000600052603260045260246000fd5b90600052602060002090602091828204019190069054906101000a900460ff1660ff1660015461278990919063ffffffff16565b61279f90919063ffffffff16565b9050600660009054906101000a900473ffffffffffffffffffffffffffffffffffffffff1673ffffffffffffffffffffffffffffffffffffffff166108fc829081150290604051600060405180830381858888f1935050505015801561228c573d6000803e3d6000fd5b5060006007600c60099054906101000a900460ff1660ff16815481106122db577f4e487b7100000000000000000000000000000000000000000000000000000000600052603260045260246000fd5b90600052602060002090602091828204019190066101000a81548160ff021916908360ff16021790555061230e816127b5565b507f0e45f244d89cea5099c0a6f24efd8cfde53e85de3cbf08c24acc387c1160ccc3600c60099054906101000a900460ff1682600660009054906101000a900473ffffffffffffffffffffffffffffffffffffffff1660405161237393929190613495565b60405180910390a1612383612929565b91505090565b60006040516123979061334e565b60405180910390207f7cdb51e9dbbc205231228146c3246e7f914aa6d4a33170e43ecc8e3593481d1a60405160405180910390a26001600a600c60099054906101000a900460ff1660ff1681548110612419577f4e487b7100000000000000000000000000000000000000000000000000000000600052603260045260246000fd5b90600052602060002090602091828204019190068282829054906101000a900460ff16612446919061363f565b92506101000a81548160ff021916908360ff160217905550600b600c60099054906101000a900460ff1660ff16815481106124aa577f4e487b7100000000000000000000000000000000000000000000000000000000600052603260045260246000fd5b90600052602060002090602091828204019190069054906101000a900460ff1660ff16600a600c60099054906101000a900460ff1660ff1681548110612519577f4e487b7100000000000000000000000000000000000000000000000000000000600052603260045260246000fd5b90600052602060002090602091828204019190069054906101000a900460ff1660ff1614156125515761254a6129d5565b9050612556565b600090505b90565b60008060138190555060006014819055506000601560006101000a81548163ffffffff021916908363ffffffff16021790555060005b60058054905081101561266c576000600d6000600584815481106125dc577f4e487b7100000000000000000000000000000000000000000000000000000000600052603260045260246000fd5b9060005260206000200160009054906101000a900473ffffffffffffffffffffffffffffffffffffffff1673ffffffffffffffffffffffffffffffffffffffff1673ffffffffffffffffffffffffffffffffffffffff16815260200190815260200160002060006101000a81548160ff02191690831515021790555060018161266591906135af565b905061258f565b506001905090565b60006001601560049054906101000a900460ff1660ff1614801561269c575060115460015410155b156126b0576126a96126d1565b90506126b5565b600090505b90565b60008183106126c757816126c9565b825b905092915050565b60006002601560049054906101000a900460ff1660ff16106126f65760009050612786565b601260009054906101000a900467ffffffffffffffff1667ffffffffffffffff164261272291906135af565b600c60006101000a81548167ffffffffffffffff021916908367ffffffffffffffff1602179055506000600c60086101000a81548160ff0219169083151502179055506002601560046101000a81548160ff021916908360ff160217905550600190505b90565b6000818361279791906136a7565b905092915050565b600081836127ad9190613676565b905092915050565b60006040516127c39061338d565b60405180910390207f7cdb51e9dbbc205231228146c3246e7f914aa6d4a33170e43ecc8e3593481d1a60405160405180910390a2600061282160015461281360648661278990919063ffffffff16565b61279f90919063ffffffff16565b905060005b60058054905081101561291e57816002600060058481548110612872577f4e487b7100000000000000000000000000000000000000000000000000000000600052603260045260246000fd5b9060005260206000200160009054906101000a900473ffffffffffffffffffffffffffffffffffffffff1673ffffffffffffffffffffffffffffffffffffffff1673ffffffffffffffffffffffffffffffffffffffff16815260200190815260200160002060008282829054906101000a900460ff166128f29190613735565b92506101000a81548160ff021916908360ff16021790555060018161291791906135af565b9050612826565b506001915050919050565b600060405161293790613324565b60405180910390207f7cdb51e9dbbc205231228146c3246e7f914aa6d4a33170e43ecc8e3593481d1a60405160405180910390a2600160078054905061297d9190613701565b600c60099054906101000a900460ff1660ff1610156129ce576001600c60098282829054906101000a900460ff166129b5919061363f565b92506101000a81548160ff021916908360ff1602179055505b6001905090565b60006040516129e390613339565b60405180910390207f7cdb51e9dbbc205231228146c3246e7f914aa6d4a33170e43ecc8e3593481d1a60405160405180910390a26000612aaf6064612aa16007600c60099054906101000a900460ff1660ff1681548110612a6d577f4e487b7100000000000000000000000000000000000000000000000000000000600052603260045260246000fd5b90600052602060002090602091828204019190069054906101000a900460ff1660ff1660015461278990919063ffffffff16565b61279f90919063ffffffff16565b905060005b600580549050811015612c75576000612b8e600154612b8060646003600060058881548110612b0c577f4e487b7100000000000000000000000000000000000000000000000000000000600052603260045260246000fd5b9060005260206000200160009054906101000a900473ffffffffffffffffffffffffffffffffffffffff1673ffffffffffffffffffffffffffffffffffffffff1673ffffffffffffffffffffffffffffffffffffffff1681526020019081526020016000205461278990919063ffffffff16565b61279f90919063ffffffff16565b905060058281548110612bca577f4e487b7100000000000000000000000000000000000000000000000000000000600052603260045260246000fd5b9060005260206000200160009054906101000a900473ffffffffffffffffffffffffffffffffffffffff1673ffffffffffffffffffffffffffffffffffffffff166108fc612c346064612c26858861278990919063ffffffff16565b61279f90919063ffffffff16565b9081150290604051600060405180830381858888f19350505050158015612c5f573d6000803e3d6000fd5b5050600181612c6e91906135af565b9050612ab4565b50612c7f816127b5565b507f230739317a7f90b018762e0570d567293eac14d67441b810f714879dd6aed0bf600c60099054906101000a900460ff16604051612cbe919061347a565b60405180910390a1612cce612929565b91505090565b6040518060400160405280600290602082028036833780820191505090505090565b6040518060e00160405280600790602082028036833780820191505090505090565b82805482825590600052602060002090601f01602090048101928215612dae5791602002820160005b83821115612d7f57835183826101000a81548160ff021916908360ff1602179055509260200192600101602081600001049283019260010302612d41565b8015612dac5782816101000a81549060ff0219169055600101602081600001049283019260010302612d7f565b505b509050612dbb9190612de1565b5090565b6040518060600160405280600390602082028036833780820191505090505090565b5b80821115612dfa576000816000905550600101612de2565b5090565b6000612e11612e0c846134f1565b6134cc565b90508083825260208201905082856020860282011115612e3057600080fd5b60005b85811015612e605781612e468882612ee8565b845260208401935060208301925050600181019050612e33565b5050509392505050565b600081359050612e7981613a18565b92915050565b600082601f830112612e9057600080fd5b8135612ea0848260208601612dfe565b91505092915050565b600081359050612eb881613a2f565b92915050565b600081359050612ecd81613a46565b92915050565b600081359050612ee281613a5d565b92915050565b600081359050612ef781613a74565b92915050565b600060208284031215612f0f57600080fd5b6000612f1d84828501612e6a565b91505092915050565b600060208284031215612f3857600080fd5b6000612f4684828501612ea9565b91505092915050565b600060208284031215612f6157600080fd5b6000612f6f84828501612ebe565b91505092915050565b60008060008060008060c08789031215612f9157600080fd5b6000612f9f89828a01612ebe565b9650506020612fb089828a01612ebe565b955050604087013567ffffffffffffffff811115612fcd57600080fd5b612fd989828a01612e7f565b945050606087013567ffffffffffffffff811115612ff657600080fd5b61300289828a01612e7f565b935050608087013567ffffffffffffffff81111561301f57600080fd5b61302b89828a01612e7f565b92505060a061303c89828a01612ed3565b9150509295509295509295565b6000806040838503121561305c57600080fd5b600061306a85828601612ee8565b925050602061307b85828601612ea9565b9150509250929050565b600061309183836132c4565b60208301905092915050565b6130a6816137f4565b82525050565b6130b58161377b565b82525050565b6130c48161353b565b6130ce8184613583565b92506130d98261351d565b8060005b8381101561310a5781516130f18782613085565b96506130fc8361355c565b9250506001810190506130dd565b505050505050565b61311b81613546565b613125818461358e565b925061313082613527565b8060005b838110156131615781516131488782613085565b965061315383613569565b925050600181019050613134565b505050505050565b61317281613551565b61317c8184613599565b925061318782613531565b8060005b838110156131b857815161319f8782613085565b96506131aa83613576565b92505060018101905061318b565b505050505050565b6131c98161378d565b82525050565b60006131dc600b836135a4565b91506131e7826138f9565b600b82019050919050565b60006131ff600d836135a4565b915061320a82613922565b600d82019050919050565b6000613222600f836135a4565b915061322d8261394b565b600f82019050919050565b6000613245600d836135a4565b915061325082613974565b600d82019050919050565b6000613268600b836135a4565b91506132738261399d565b600b82019050919050565b600061328b600d836135a4565b9150613296826139c6565b600d82019050919050565b60006132ae600e836135a4565b91506132b9826139ef565b600e82019050919050565b6132cd816137b9565b82525050565b6132dc816137b9565b82525050565b6132eb816137c3565b82525050565b6132fa816137d3565b82525050565b613309816137e7565b82525050565b600061331a826131cf565b9150819050919050565b600061332f826131f2565b9150819050919050565b600061334482613215565b9150819050919050565b600061335982613238565b9150819050919050565b600061336e8261325b565b9150819050919050565b60006133838261327e565b9150819050919050565b6000613398826132a1565b9150819050919050565b60006020820190506133b760008301846130ac565b92915050565b60006040820190506133d260008301846130bb565b92915050565b60006060820190506133ed6000830184613112565b92915050565b600060e0820190506134086000830184613169565b92915050565b600060208201905061342360008301846131c0565b92915050565b600060208201905061343e60008301846132d3565b92915050565b600060208201905061345960008301846132e2565b92915050565b600060208201905061347460008301846132f1565b92915050565b600060208201905061348f6000830184613300565b92915050565b60006060820190506134aa6000830186613300565b6134b760208301856132d3565b6134c4604083018461309d565b949350505050565b60006134d66134e7565b90506134e2828261382a565b919050565b6000604051905090565b600067ffffffffffffffff82111561350c5761350b6138b9565b5b602082029050602081019050919050565b6000819050919050565b6000819050919050565b6000819050919050565b600060029050919050565b600060039050919050565b600060079050919050565b6000602082019050919050565b6000602082019050919050565b6000602082019050919050565b600081905092915050565b600081905092915050565b600081905092915050565b600081905092915050565b60006135ba826137b9565b91506135c5836137b9565b9250827fffffffffffffffffffffffffffffffffffffffffffffffffffffffffffffffff038211156135fa576135f961385b565b5b828201905092915050565b6000613610826137c3565b915061361b836137c3565b92508263ffffffff038211156136345761363361385b565b5b828201905092915050565b600061364a826137e7565b9150613655836137e7565b92508260ff0382111561366b5761366a61385b565b5b828201905092915050565b6000613681826137b9565b915061368c836137b9565b92508261369c5761369b61388a565b5b828204905092915050565b60006136b2826137b9565b91506136bd836137b9565b9250817fffffffffffffffffffffffffffffffffffffffffffffffffffffffffffffffff04831182151516156136f6576136f561385b565b5b828202905092915050565b600061370c826137b9565b9150613717836137b9565b92508282101561372a5761372961385b565b5b828203905092915050565b6000613740826137e7565b915061374b836137e7565b92508282101561375e5761375d61385b565b5b828203905092915050565b600061377482613799565b9050919050565b600061378682613799565b9050919050565b60008115159050919050565b600073ffffffffffffffffffffffffffffffffffffffff82169050919050565b6000819050919050565b600063ffffffff82169050919050565b600067ffffffffffffffff82169050919050565b600060ff82169050919050565b60006137ff82613806565b9050919050565b600061381182613818565b9050919050565b600061382382613799565b9050919050565b613833826138e8565b810181811067ffffffffffffffff82111715613852576138516138b9565b5b80604052505050565b7f4e487b7100000000000000000000000000000000000000000000000000000000600052601160045260246000fd5b7f4e487b7100000000000000000000000000000000000000000000000000000000600052601260045260246000fd5b7f4e487b7100000000000000000000000000000000000000000000000000000000600052604160045260246000fd5b6000601f19601f8301169050919050565b7f6a6f696e2063616c6c6564000000000000000000000000000000000000000000600082015250565b7f6e6578744d696c6573746f6e6500000000000000000000000000000000000000600082015250565b7f6661696c416e6457697468647261770000000000000000000000000000000000600082015250565b7f6661696c4d696c6573746f6e6500000000000000000000000000000000000000600082015250565b7f766f74652063616c6c6564000000000000000000000000000000000000000000600082015250565b7f617070726f7665416e6450617900000000000000000000000000000000000000600082015250565b7f61646a75737442616c616e636573000000000000000000000000000000000000600082015250565b613a2181613769565b8114613a2c57600080fd5b50565b613a388161378d565b8114613a4357600080fd5b50565b613a4f816137b9565b8114613a5a57600080fd5b50565b613a66816137d3565b8114613a7157600080fd5b50565b613a7d816137e7565b8114613a8857600080fd5b5056fea264697066735822122053bae3e0b7f7a375dbe897510e001f0de91245caed3c14140429f897db9ae83064736f6c63430008040033a2646970667358221220edba572ad029bfd67240e25e6453887501ef0a8b670aa20f1f955fd2479421ae64736f6c63430008040033",
  "immutableReferences": {},
  "source": "// SPDX-License-Identifier: MIT\r\npragma solidity ^0.8.0;\r\n\r\nimport \"./Bounty.sol\";\r\n\r\ncontract Machine {\r\n    address public owner = msg.sender;\r\n\r\n    event Create(address indexed configAddress, address indexed sender);\r\n\r\n    function create(\r\n        address payable _creatorWallet,\r\n        uint256 _maxValue,\r\n        uint256 _reservePrice,\r\n        uint8[] memory _bonusTargets,\r\n        uint8[] memory _bonusPctYeasNeeded,\r\n        uint8[] memory _bonusFailureThresholds,\r\n        uint64 _mustBeClaimedTime,\r\n        uint64 _timeLimit\r\n    ) public returns (address configAddress) {\r\n        address config = address(\r\n            new Bounty(\r\n                _creatorWallet,\r\n                _maxValue,\r\n                _reservePrice,\r\n                _bonusTargets,\r\n                _bonusPctYeasNeeded,\r\n                _bonusFailureThresholds,\r\n                _mustBeClaimedTime,\r\n                _timeLimit,\r\n                payable(owner)\r\n            )\r\n        );\r\n        emit Create(config, msg.sender);\r\n        return config;\r\n    }\r\n}\r\n",
  "sourcePath": "C:\\Users\\kumquatexpress\\projects\\polygon-hack\\web3\\contracts\\polygon\\Machine.sol",
  "compiler": {
    "name": "solc",
    "version": "0.8.4+commit.c7e474f2.Emscripten.clang"
  },
  "schemaVersion": "3.4.4",
  "updatedAt": "2022-02-06T04:03:16.123Z",
  "networkType": "ethereum",
  "devdoc": {
    "kind": "dev",
    "methods": {},
    "version": 1
  },
  "userdoc": {
    "kind": "user",
    "methods": {},
    "version": 1
  },
  "db": {
    "callBytecode": {
      "id": "0xe2441adfcbc9805ff36c01d46bd6288df90c7dda31ed31531eef8bffdf16a0bc"
    },
    "createBytecode": {
      "id": "0x042f7431d9f0f7bae0dc5cb365dd11d4e864207ca285e4f486b80144f5bbd752"
    },
    "contract": {
      "id": "0x89f596f85f131a8a791628377461dac8153d56acf5a0e6e08252924685ab7817"
    }
  }
}