{
  "contractName": "Machine",
  "abi": [
    {
      "anonymous": false,
      "inputs": [
        {
          "indexed": true,
          "internalType": "address",
          "name": "configAddress",
          "type": "address"
        },
        {
          "indexed": true,
          "internalType": "address",
          "name": "sender",
          "type": "address"
        }
      ],
      "name": "Create",
      "type": "event"
    },
    {
      "inputs": [],
      "name": "owner",
      "outputs": [
        {
          "internalType": "address",
          "name": "",
          "type": "address"
        }
      ],
      "stateMutability": "view",
      "type": "function",
      "constant": true
    },
    {
      "inputs": [
        {
          "internalType": "address payable",
          "name": "_creatorWallet",
          "type": "address"
        },
        {
          "internalType": "uint256",
          "name": "_maxValue",
          "type": "uint256"
        },
        {
          "internalType": "uint8[]",
          "name": "_bonusTargets",
          "type": "uint8[]"
        },
        {
          "internalType": "uint8[]",
          "name": "_bonusPctYeasNeeded",
          "type": "uint8[]"
        },
        {
          "internalType": "uint8[]",
          "name": "_bonusFailureThresholds",
          "type": "uint8[]"
        },
        {
          "internalType": "uint64",
          "name": "_mustBeClaimedTime",
          "type": "uint64"
        },
        {
          "internalType": "uint64",
          "name": "_timeLimit",
          "type": "uint64"
        }
      ],
      "name": "create",
      "outputs": [
        {
          "internalType": "address",
          "name": "configAddress",
          "type": "address"
        }
      ],
      "stateMutability": "nonpayable",
      "type": "function"
    }
  ],
  "bytecode": "0x6080604052336000806101000a81548173ffffffffffffffffffffffffffffffffffffffff021916908373ffffffffffffffffffffffffffffffffffffffff16021790555034801561005057600080fd5b50613afa806100606000396000f3fe60806040523480156200001157600080fd5b506004361062000057576000357c01000000000000000000000000000000000000000000000000000000009004806351d7a7a5146200005c5780638da5cb5b1462000092575b600080fd5b6200007a6004803603810190620000749190620002b9565b620000b4565b6040516200008991906200048a565b60405180910390f35b6200009c62000189565b604051620000ab91906200048a565b60405180910390f35b6000808888888888888860008054906101000a900473ffffffffffffffffffffffffffffffffffffffff16604051620000ed90620001ad565b62000100989796959493929190620004a7565b604051809103906000f0801580156200011d573d6000803e3d6000fd5b5090503373ffffffffffffffffffffffffffffffffffffffff168173ffffffffffffffffffffffffffffffffffffffff167f96b5b9b8a7193304150caccf9b80d150675fa3d6af57761d8d8ef1d6f9a1a90960405160405180910390a380915050979650505050505050565b60008054906101000a900473ffffffffffffffffffffffffffffffffffffffff1681565b613398806200072d83390190565b6000620001d2620001cc8462000573565b6200054a565b90508083825260208201905082856020860282011115620001f257600080fd5b60005b858110156200022657816200020b8882620002a2565b845260208401935060208301925050600181019050620001f5565b5050509392505050565b6000813590506200024181620006c4565b92915050565b600082601f8301126200025957600080fd5b81356200026b848260208601620001bb565b91505092915050565b6000813590506200028581620006de565b92915050565b6000813590506200029c81620006f8565b92915050565b600081359050620002b38162000712565b92915050565b600080600080600080600060e0888a031215620002d557600080fd5b6000620002e58a828b0162000230565b9750506020620002f88a828b0162000274565b965050604088013567ffffffffffffffff8111156200031657600080fd5b620003248a828b0162000247565b955050606088013567ffffffffffffffff8111156200034257600080fd5b620003508a828b0162000247565b945050608088013567ffffffffffffffff8111156200036e57600080fd5b6200037c8a828b0162000247565b93505060a06200038f8a828b016200028b565b92505060c0620003a28a828b016200028b565b91505092959891949750929550565b6000620003bf838362000479565b60208301905092915050565b620003d681620005ef565b82525050565b620003e781620005db565b82525050565b6000620003fa82620005b2565b620004068185620005ca565b93506200041383620005a2565b8060005b838110156200044a5781516200042e8882620003b1565b97506200043b83620005bd565b92505060018101905062000417565b5085935050505092915050565b620004628162000623565b82525050565b62000473816200062d565b82525050565b620004848162000641565b82525050565b6000602082019050620004a16000830184620003dc565b92915050565b600061010082019050620004bf600083018b620003cb565b620004ce602083018a62000457565b8181036040830152620004e28189620003ed565b90508181036060830152620004f88188620003ed565b905081810360808301526200050e8187620003ed565b90506200051f60a083018662000468565b6200052e60c083018562000468565b6200053d60e0830184620003cb565b9998505050505050505050565b60006200055662000569565b90506200056482826200064e565b919050565b6000604051905090565b600067ffffffffffffffff82111562000591576200059062000684565b5b602082029050602081019050919050565b6000819050602082019050919050565b600081519050919050565b6000602082019050919050565b600082825260208201905092915050565b6000620005e88262000603565b9050919050565b6000620005fc8262000603565b9050919050565b600073ffffffffffffffffffffffffffffffffffffffff82169050919050565b6000819050919050565b600067ffffffffffffffff82169050919050565b600060ff82169050919050565b6200065982620006b3565b810181811067ffffffffffffffff821117156200067b576200067a62000684565b5b80604052505050565b7f4e487b7100000000000000000000000000000000000000000000000000000000600052604160045260246000fd5b6000601f19601f8301169050919050565b620006cf81620005ef565b8114620006db57600080fd5b50565b620006e98162000623565b8114620006f557600080fd5b50565b62000703816200062d565b81146200070f57600080fd5b50565b6200071d8162000641565b81146200072957600080fd5b5056fe60806040523480156200001157600080fd5b5060405162003398380380620033988339818101604052810190620000379190620003de565b87600660006101000a81548173ffffffffffffffffffffffffffffffffffffffff021916908373ffffffffffffffffffffffffffffffffffffffff16021790555086600f8190555085600790805190602001906200009792919062000213565b508460099080519060200190620000b092919062000213565b5083600b9080519060200190620000c992919062000213565b5082600e60006101000a81548167ffffffffffffffff021916908367ffffffffffffffff160217905550806000806101000a81548173ffffffffffffffffffffffffffffffffffffffff021916908373ffffffffffffffffffffffffffffffffffffffff1602179055506001600c60086101000a81548160ff02191690831515021790555081601060006101000a81548167ffffffffffffffff021916908367ffffffffffffffff16021790555060078054905067ffffffffffffffff811115620001bd577f4e487b7100000000000000000000000000000000000000000000000000000000600052604160045260246000fd5b604051908082528060200260200182016040528015620001ec5781602001602082028036833780820191505090505b50600a90805190602001906200020492919062000213565b50505050505050505062000681565b82805482825590600052602060002090601f01602090048101928215620002ae5791602002820160005b838211156200027d57835183826101000a81548160ff021916908360ff16021790555092602001926001016020816000010492830192600103026200023d565b8015620002ac5782816101000a81549060ff02191690556001016020816000010492830192600103026200027d565b505b509050620002bd9190620002c1565b5090565b5b80821115620002dc576000816000905550600101620002c2565b5090565b6000620002f7620002f18462000515565b620004ec565b905080838252602082019050828560208602820111156200031757600080fd5b60005b858110156200034b5781620003308882620003c7565b8452602084019350602083019250506001810190506200031a565b5050509392505050565b600081519050620003668162000619565b92915050565b600082601f8301126200037e57600080fd5b815162000390848260208601620002e0565b91505092915050565b600081519050620003aa8162000633565b92915050565b600081519050620003c1816200064d565b92915050565b600081519050620003d88162000667565b92915050565b600080600080600080600080610100898b031215620003fc57600080fd5b60006200040c8b828c0162000355565b98505060206200041f8b828c0162000399565b975050604089015167ffffffffffffffff8111156200043d57600080fd5b6200044b8b828c016200036c565b965050606089015167ffffffffffffffff8111156200046957600080fd5b620004778b828c016200036c565b955050608089015167ffffffffffffffff8111156200049557600080fd5b620004a38b828c016200036c565b94505060a0620004b68b828c01620003b0565b93505060c0620004c98b828c01620003b0565b92505060e0620004dc8b828c0162000355565b9150509295985092959890939650565b6000620004f86200050b565b9050620005068282620005a3565b919050565b6000604051905090565b600067ffffffffffffffff821115620005335762000532620005d9565b5b602082029050602081019050919050565b6000620005518262000558565b9050919050565b600073ffffffffffffffffffffffffffffffffffffffff82169050919050565b6000819050919050565b600067ffffffffffffffff82169050919050565b600060ff82169050919050565b620005ae8262000608565b810181811067ffffffffffffffff82111715620005d057620005cf620005d9565b5b80604052505050565b7f4e487b7100000000000000000000000000000000000000000000000000000000600052604160045260246000fd5b6000601f19601f8301169050919050565b620006248162000544565b81146200063057600080fd5b50565b6200063e8162000578565b81146200064a57600080fd5b50565b620006588162000582565b81146200066457600080fd5b50565b620006728162000596565b81146200067e57600080fd5b50565b612d0780620006916000396000f3fe6080604052600436106101d4576000357c0100000000000000000000000000000000000000000000000000000000900480637ae6ee3211610109578063b688a363116100a7578063d553ed1311610081578063d553ed1314610688578063e2fd21e8146106c5578063e885f76b14610702578063f541c60f1461072d576101d4565b8063b688a36314610602578063c08d1fe514610620578063cb0cd6b51461064b576101d4565b806393d18113116100e357806393d181131461054457806394a5c2e41461056f578063b0417e981461059a578063b4bd497a146105c5576101d4565b80637ae6ee32146104c35780637cdc65f2146104ee5780637f698dad14610519576101d4565b80633dad5c70116101765780634e71d92d116101505780634e71d92d146103f35780635d7c58ea1461041e578063688594b31461044957806370a0823114610486576101d4565b80633dad5c701461033c57806342bbec59146103795780634ce2cdc7146103b6576101d4565b80632808241e116101b25780632808241e1461026c5780632e8a498c146102a95780633197cbb6146102e65780633ccfd60b14610311576101d4565b80631b5a3cc9146101d9578063200d2ed21461021657806320949bb414610241575b600080fd5b3480156101e557600080fd5b5061020060048036038101906101fb9190612454565b610758565b60405161020d9190612787565b60405180910390f35b34801561022257600080fd5b5061022b610805565b60405161023891906127f3565b60405180910390f35b34801561024d57600080fd5b50610256610818565b60405161026391906127f3565b60405180910390f35b34801561027857600080fd5b50610293600480360381019061028e91906124a6565b61082b565b6040516102a09190612787565b60405180910390f35b3480156102b557600080fd5b506102d060048036038101906102cb919061242b565b610b7c565b6040516102dd91906127a2565b60405180910390f35b3480156102f257600080fd5b506102fb610b94565b60405161030891906127d8565b60405180910390f35b34801561031d57600080fd5b50610326610bae565b6040516103339190612787565b60405180910390f35b34801561034857600080fd5b50610363600480360381019061035e919061247d565b610e0d565b60405161037091906127d8565b60405180910390f35b34801561038557600080fd5b506103a0600480360381019061039b919061247d565b610e4b565b6040516103ad91906127f3565b60405180910390f35b3480156103c257600080fd5b506103dd60048036038101906103d8919061247d565b610e7f565b6040516103ea91906127f3565b60405180910390f35b3480156103ff57600080fd5b50610408610eb3565b6040516104159190612787565b60405180910390f35b34801561042a57600080fd5b50610433610ff3565b60405161044091906127d8565b60405180910390f35b34801561045557600080fd5b50610470600480360381019061046b919061247d565b61100d565b60405161047d9190612751565b60405180910390f35b34801561049257600080fd5b506104ad60048036038101906104a8919061242b565b61104c565b6040516104ba91906127a2565b60405180910390f35b3480156104cf57600080fd5b506104d8611109565b6040516104e5919061276c565b60405180910390f35b3480156104fa57600080fd5b506105036112c1565b6040516105109190612751565b60405180910390f35b34801561052557600080fd5b5061052e6112e7565b60405161053b91906127f3565b60405180910390f35b34801561055057600080fd5b506105596112f4565b60405161056691906127bd565b60405180910390f35b34801561057b57600080fd5b5061058461130a565b60405161059191906127a2565b60405180910390f35b3480156105a657600080fd5b506105af611310565b6040516105bc9190612787565b60405180910390f35b3480156105d157600080fd5b506105ec60048036038101906105e7919061242b565b611405565b6040516105f991906127a2565b60405180910390f35b61060a61141d565b6040516106179190612787565b60405180910390f35b34801561062c57600080fd5b506106356116ce565b60405161064291906127d8565b60405180910390f35b34801561065757600080fd5b50610672600480360381019061066d919061247d565b6116e8565b60405161067f91906127f3565b60405180910390f35b34801561069457600080fd5b506106af60048036038101906106aa919061247d565b61171c565b6040516106bc91906127f3565b60405180910390f35b3480156106d157600080fd5b506106ec60048036038101906106e7919061242b565b611750565b6040516106f991906127a2565b60405180910390f35b34801561070e57600080fd5b50610717611799565b60405161072491906127a2565b60405180910390f35b34801561073957600080fd5b5061074261179f565b60405161074f91906127a2565b60405180910390f35b60008060009054906101000a900473ffffffffffffffffffffffffffffffffffffffff168073ffffffffffffffffffffffffffffffffffffffff163373ffffffffffffffffffffffffffffffffffffffff16146107e1576040517f82b4290000000000000000000000000000000000000000000000000000000000815260040160405180910390fd5b82600c60086101000a81548160ff0219169083151502179055506001915050919050565b601360049054906101000a900460ff1681565b600c60099054906101000a900460ff1681565b600080600360003373ffffffffffffffffffffffffffffffffffffffff1673ffffffffffffffffffffffffffffffffffffffff1681526020019081526020016000205414156108a6576040517f995a2dae00000000000000000000000000000000000000000000000000000000815260040160405180910390fd5b6040516108b290612712565b60405180910390207f7cdb51e9dbbc205231228146c3246e7f914aa6d4a33170e43ecc8e3593481d1a60405160405180910390a26000601360049054906101000a900460ff1660ff16148061091c5750600c60099054906101000a900460ff1660ff168360ff1614155b15610953576040517f4733210000000000000000000000000000000000000000000000000000000000815260040160405180910390fd5b600d60003373ffffffffffffffffffffffffffffffffffffffff1673ffffffffffffffffffffffffffffffffffffffff16815260200190815260200160002060009054906101000a900460ff16156109d7576040517f7c9a1cf900000000000000000000000000000000000000000000000000000000815260040160405180910390fd5b60006109e233611750565b90508215610a085780601160008282546109fc919061287d565b92505081905550610a22565b8060126000828254610a1a919061287d565b925050819055505b6001601360008282829054906101000a900463ffffffff16610a4491906128d3565b92506101000a81548163ffffffff021916908363ffffffff1602179055506001600d60003373ffffffffffffffffffffffffffffffffffffffff1673ffffffffffffffffffffffffffffffffffffffff16815260200190815260200160002060006101000a81548160ff0219169083151502179055503373ffffffffffffffffffffffffffffffffffffffff167fa635d31e67484fd1d93ba01ab0ef882e4440a78aa40d0e2771e8a2aace45986984604051610b009190612787565b60405180910390a26000610b126117a5565b905060008160ff1614610b6f57600060018260ff161415610b3c57610b3561187c565b9050610b54565b60028260ff161415610b5357610b50611b66565b90505b5b8015610b6457610b62611d36565b505b809350505050610b76565b6001925050505b92915050565b60036020528060005260406000206000915090505481565b600c60009054906101000a900467ffffffffffffffff1681565b600080600360003373ffffffffffffffffffffffffffffffffffffffff1673ffffffffffffffffffffffffffffffffffffffff168152602001908152602001600020541415610c29576040517f995a2dae00000000000000000000000000000000000000000000000000000000815260040160405180910390fd5b600c60089054906101000a900460ff16610c465760009050610e0a565b6000610c513361104c565b90503373ffffffffffffffffffffffffffffffffffffffff166108fc610c8e833073ffffffffffffffffffffffffffffffffffffffff1631611e51565b9081150290604051600060405180830381858888f19350505050158015610cb9573d6000803e3d6000fd5b506000600260003373ffffffffffffffffffffffffffffffffffffffff1673ffffffffffffffffffffffffffffffffffffffff16815260200190815260200160002060006101000a81548160ff021916908360ff1602179055506000600360003373ffffffffffffffffffffffffffffffffffffffff1673ffffffffffffffffffffffffffffffffffffffff168152602001908152602001600020819055506000600460003373ffffffffffffffffffffffffffffffffffffffff1673ffffffffffffffffffffffffffffffffffffffff168152602001908152602001600020819055508060016000828254610daf91906129cf565b925050819055503373ffffffffffffffffffffffffffffffffffffffff167f884edad9ce6fa2440d8a54cc123490eb96d2768479d49ff9c7366125a942436482604051610dfc91906127a2565b60405180910390a260019150505b90565b60088181548110610e1d57600080fd5b9060005260206000209060049182820401919006600802915054906101000a900467ffffffffffffffff1681565b60078181548110610e5b57600080fd5b9060005260206000209060209182820401919006915054906101000a900460ff1681565b60098181548110610e8f57600080fd5b9060005260206000209060209182820401919006915054906101000a900460ff1681565b60008060009054906101000a900473ffffffffffffffffffffffffffffffffffffffff168073ffffffffffffffffffffffffffffffffffffffff163373ffffffffffffffffffffffffffffffffffffffff1614610f3c576040517f82b4290000000000000000000000000000000000000000000000000000000000815260040160405180910390fd5b6000601360049054906101000a900460ff1660ff1614610f5f5760009150610fef565b601060009054906101000a900467ffffffffffffffff1667ffffffffffffffff1642610f8b919061287d565b600c60006101000a81548167ffffffffffffffff021916908367ffffffffffffffff1602179055506000600c60086101000a81548160ff0219169083151502179055506001601360046101000a81548160ff021916908360ff160217905550600191505b5090565b600e60009054906101000a900467ffffffffffffffff1681565b6005818154811061101d57600080fd5b906000526020600020016000915054906101000a900473ffffffffffffffffffffffffffffffffffffffff1681565b600061110260646110f4600260008673ffffffffffffffffffffffffffffffffffffffff1673ffffffffffffffffffffffffffffffffffffffff16815260200190815260200160002060009054906101000a900460ff1660ff16600360008773ffffffffffffffffffffffffffffffffffffffff1673ffffffffffffffffffffffffffffffffffffffff16815260200190815260200160002054611e6a90919063ffffffff16565b611e8090919063ffffffff16565b9050919050565b6111116123b5565b6040518060e00160405280600c60099054906101000a900460ff1660ff1681526020016009600c60099054906101000a900460ff1660ff1681548110611180577f4e487b7100000000000000000000000000000000000000000000000000000000600052603260045260246000fd5b90600052602060002090602091828204019190069054906101000a900460ff1660ff16815260200160115481526020016012548152602001600a600c60099054906101000a900460ff1660ff1681548110611204577f4e487b7100000000000000000000000000000000000000000000000000000000600052603260045260246000fd5b90600052602060002090602091828204019190069054906101000a900460ff1660ff168152602001600b600c60099054906101000a900460ff1660ff1681548110611278577f4e487b7100000000000000000000000000000000000000000000000000000000600052603260045260246000fd5b90600052602060002090602091828204019190069054906101000a900460ff1660ff168152602001601360009054906101000a900463ffffffff1663ffffffff16815250905090565b600660009054906101000a900473ffffffffffffffffffffffffffffffffffffffff1681565b6000600580549050905090565b601360009054906101000a900463ffffffff1681565b600f5481565b60008060009054906101000a900473ffffffffffffffffffffffffffffffffffffffff168073ffffffffffffffffffffffffffffffffffffffff163373ffffffffffffffffffffffffffffffffffffffff1614611399576040517f82b4290000000000000000000000000000000000000000000000000000000000815260040160405180910390fd5b60006113a36117a5565b905060008160ff16146113ff57600060018260ff1614156113cd576113c661187c565b90506113e5565b60028260ff1614156113e4576113e1611b66565b90505b5b80156113f5576113f3611d36565b505b8093505050611401565b505b5090565b60046020528060005260406000206000915090505481565b6000600e60009054906101000a900467ffffffffffffffff168067ffffffffffffffff1642111561147a576040517fecdd1c2900000000000000000000000000000000000000000000000000000000815260040160405180910390fd5b604051611486906126be565b60405180910390207f7cdb51e9dbbc205231228146c3246e7f914aa6d4a33170e43ecc8e3593481d1a60405160405180910390a260003414156114f5576040517f995a2dae00000000000000000000000000000000000000000000000000000000815260040160405180910390fd5b600f54343073ffffffffffffffffffffffffffffffffffffffff163161151b919061287d565b10611552576040517f77d09e5000000000000000000000000000000000000000000000000000000000815260040160405180910390fd5b6000600360003373ffffffffffffffffffffffffffffffffffffffff1673ffffffffffffffffffffffffffffffffffffffff168152602001908152602001600020541415611657576005339080600181540180825580915050600190039060005260206000200160009091909190916101000a81548173ffffffffffffffffffffffffffffffffffffffff021916908373ffffffffffffffffffffffffffffffffffffffff1602179055506064600260003373ffffffffffffffffffffffffffffffffffffffff1673ffffffffffffffffffffffffffffffffffffffff16815260200190815260200160002060006101000a81548160ff021916908360ff1602179055505b34600360003373ffffffffffffffffffffffffffffffffffffffff1673ffffffffffffffffffffffffffffffffffffffff16815260200190815260200160002060008282546116a6919061287d565b9250508190555034600160008282546116bf919061287d565b92505081905550600191505090565b601060009054906101000a900467ffffffffffffffff1681565b600b81815481106116f857600080fd5b9060005260206000209060209182820401919006915054906101000a900460ff1681565b600a818154811061172c57600080fd5b9060005260206000209060209182820401919006915054906101000a900460ff1681565b6000600360008373ffffffffffffffffffffffffffffffffffffffff1673ffffffffffffffffffffffffffffffffffffffff168152602001908152602001600020549050919050565b60115481565b60125481565b60008061183e60646118306009600c60099054906101000a900460ff1660ff16815481106117fc577f4e487b7100000000000000000000000000000000000000000000000000000000600052603260045260246000fd5b90600052602060002090602091828204019190069054906101000a900460ff1660ff16600154611e6a90919063ffffffff16565b611e8090919063ffffffff16565b90508060115410611853576001915050611879565b8060015461186191906129cf565b60125410611873576002915050611879565b60009150505b90565b600060405161188a90612727565b60405180910390207f7cdb51e9dbbc205231228146c3246e7f914aa6d4a33170e43ecc8e3593481d1a60405160405180910390a260006007600c60099054906101000a900460ff1660ff168154811061190c577f4e487b7100000000000000000000000000000000000000000000000000000000600052603260045260246000fd5b90600052602060002090602091828204019190069054906101000a900460ff1660ff161415611967576040517fd70a0e3000000000000000000000000000000000000000000000000000000000815260040160405180910390fd5b60006119ff60646119f16007600c60099054906101000a900460ff1660ff16815481106119bd577f4e487b7100000000000000000000000000000000000000000000000000000000600052603260045260246000fd5b90600052602060002090602091828204019190069054906101000a900460ff1660ff16600154611e6a90919063ffffffff16565b611e8090919063ffffffff16565b9050600660009054906101000a900473ffffffffffffffffffffffffffffffffffffffff1673ffffffffffffffffffffffffffffffffffffffff166108fc829081150290604051600060405180830381858888f19350505050158015611a69573d6000803e3d6000fd5b5060006007600c60099054906101000a900460ff1660ff1681548110611ab8577f4e487b7100000000000000000000000000000000000000000000000000000000600052603260045260246000fd5b90600052602060002090602091828204019190066101000a81548160ff021916908360ff160217905550611aeb81611e96565b507f0e45f244d89cea5099c0a6f24efd8cfde53e85de3cbf08c24acc387c1160ccc3600c60099054906101000a900460ff1682600660009054906101000a900473ffffffffffffffffffffffffffffffffffffffff16604051611b509392919061280e565b60405180910390a1611b6061200a565b91505090565b6000604051611b74906126fd565b60405180910390207f7cdb51e9dbbc205231228146c3246e7f914aa6d4a33170e43ecc8e3593481d1a60405160405180910390a26001600a600c60099054906101000a900460ff1660ff1681548110611bf6577f4e487b7100000000000000000000000000000000000000000000000000000000600052603260045260246000fd5b90600052602060002090602091828204019190068282829054906101000a900460ff16611c23919061290d565b92506101000a81548160ff021916908360ff160217905550600b600c60099054906101000a900460ff1660ff1681548110611c87577f4e487b7100000000000000000000000000000000000000000000000000000000600052603260045260246000fd5b90600052602060002090602091828204019190069054906101000a900460ff1660ff16600a600c60099054906101000a900460ff1660ff1681548110611cf6577f4e487b7100000000000000000000000000000000000000000000000000000000600052603260045260246000fd5b90600052602060002090602091828204019190069054906101000a900460ff1660ff161415611d2e57611d276120b6565b9050611d33565b600090505b90565b60008060118190555060006012819055506000601360006101000a81548163ffffffff021916908363ffffffff16021790555060005b600580549050811015611e49576000600d600060058481548110611db9577f4e487b7100000000000000000000000000000000000000000000000000000000600052603260045260246000fd5b9060005260206000200160009054906101000a900473ffffffffffffffffffffffffffffffffffffffff1673ffffffffffffffffffffffffffffffffffffffff1673ffffffffffffffffffffffffffffffffffffffff16815260200190815260200160002060006101000a81548160ff021916908315150217905550600181611e42919061287d565b9050611d6c565b506001905090565b6000818310611e605781611e62565b825b905092915050565b60008183611e789190612975565b905092915050565b60008183611e8e9190612944565b905092915050565b6000604051611ea49061273c565b60405180910390207f7cdb51e9dbbc205231228146c3246e7f914aa6d4a33170e43ecc8e3593481d1a60405160405180910390a26000611f02600154611ef4606486611e6a90919063ffffffff16565b611e8090919063ffffffff16565b905060005b600580549050811015611fff57816002600060058481548110611f53577f4e487b7100000000000000000000000000000000000000000000000000000000600052603260045260246000fd5b9060005260206000200160009054906101000a900473ffffffffffffffffffffffffffffffffffffffff1673ffffffffffffffffffffffffffffffffffffffff1673ffffffffffffffffffffffffffffffffffffffff16815260200190815260200160002060008282829054906101000a900460ff16611fd39190612a03565b92506101000a81548160ff021916908360ff160217905550600181611ff8919061287d565b9050611f07565b506001915050919050565b6000604051612018906126d3565b60405180910390207f7cdb51e9dbbc205231228146c3246e7f914aa6d4a33170e43ecc8e3593481d1a60405160405180910390a2600160078054905061205e91906129cf565b600c60099054906101000a900460ff1660ff1610156120af576001600c60098282829054906101000a900460ff16612096919061290d565b92506101000a81548160ff021916908360ff1602179055505b6001905090565b60006040516120c4906126e8565b60405180910390207f7cdb51e9dbbc205231228146c3246e7f914aa6d4a33170e43ecc8e3593481d1a60405160405180910390a2600061219060646121826007600c60099054906101000a900460ff1660ff168154811061214e577f4e487b7100000000000000000000000000000000000000000000000000000000600052603260045260246000fd5b90600052602060002090602091828204019190069054906101000a900460ff1660ff16600154611e6a90919063ffffffff16565b611e8090919063ffffffff16565b905060005b60058054905081101561235657600061226f600154612261606460036000600588815481106121ed577f4e487b7100000000000000000000000000000000000000000000000000000000600052603260045260246000fd5b9060005260206000200160009054906101000a900473ffffffffffffffffffffffffffffffffffffffff1673ffffffffffffffffffffffffffffffffffffffff1673ffffffffffffffffffffffffffffffffffffffff16815260200190815260200160002054611e6a90919063ffffffff16565b611e8090919063ffffffff16565b9050600582815481106122ab577f4e487b7100000000000000000000000000000000000000000000000000000000600052603260045260246000fd5b9060005260206000200160009054906101000a900473ffffffffffffffffffffffffffffffffffffffff1673ffffffffffffffffffffffffffffffffffffffff166108fc61231560646123078588611e6a90919063ffffffff16565b611e8090919063ffffffff16565b9081150290604051600060405180830381858888f19350505050158015612340573d6000803e3d6000fd5b505060018161234f919061287d565b9050612195565b5061236081611e96565b507f230739317a7f90b018762e0570d567293eac14d67441b810f714879dd6aed0bf600c60099054906101000a900460ff1660405161239f91906127f3565b60405180910390a16123af61200a565b91505090565b6040518060e00160405280600790602082028036833780820191505090505090565b6000813590506123e681612c75565b92915050565b6000813590506123fb81612c8c565b92915050565b60008135905061241081612ca3565b92915050565b60008135905061242581612cba565b92915050565b60006020828403121561243d57600080fd5b600061244b848285016123d7565b91505092915050565b60006020828403121561246657600080fd5b6000612474848285016123ec565b91505092915050565b60006020828403121561248f57600080fd5b600061249d84828501612401565b91505092915050565b600080604083850312156124b957600080fd5b60006124c785828601612416565b92505060206124d8858286016123ec565b9150509250929050565b60006124ee8383612673565b60208301905092915050565b61250381612ac2565b82525050565b61251281612a49565b82525050565b6125218161284f565b61252b8184612867565b925061253682612845565b8060005b8381101561256757815161254e87826124e2565b96506125598361285a565b92505060018101905061253a565b505050505050565b61257881612a5b565b82525050565b600061258b600b83612872565b915061259682612b56565b600b82019050919050565b60006125ae600d83612872565b91506125b982612b7f565b600d82019050919050565b60006125d1600f83612872565b91506125dc82612ba8565b600f82019050919050565b60006125f4600d83612872565b91506125ff82612bd1565b600d82019050919050565b6000612617600b83612872565b915061262282612bfa565b600b82019050919050565b600061263a600d83612872565b915061264582612c23565b600d82019050919050565b600061265d600e83612872565b915061266882612c4c565b600e82019050919050565b61267c81612a87565b82525050565b61268b81612a87565b82525050565b61269a81612a91565b82525050565b6126a981612aa1565b82525050565b6126b881612ab5565b82525050565b60006126c98261257e565b9150819050919050565b60006126de826125a1565b9150819050919050565b60006126f3826125c4565b9150819050919050565b6000612708826125e7565b9150819050919050565b600061271d8261260a565b9150819050919050565b60006127328261262d565b9150819050919050565b600061274782612650565b9150819050919050565b60006020820190506127666000830184612509565b92915050565b600060e0820190506127816000830184612518565b92915050565b600060208201905061279c600083018461256f565b92915050565b60006020820190506127b76000830184612682565b92915050565b60006020820190506127d26000830184612691565b92915050565b60006020820190506127ed60008301846126a0565b92915050565b600060208201905061280860008301846126af565b92915050565b600060608201905061282360008301866126af565b6128306020830185612682565b61283d60408301846124fa565b949350505050565b6000819050919050565b600060079050919050565b6000602082019050919050565b600081905092915050565b600081905092915050565b600061288882612a87565b915061289383612a87565b9250827fffffffffffffffffffffffffffffffffffffffffffffffffffffffffffffffff038211156128c8576128c7612af8565b5b828201905092915050565b60006128de82612a91565b91506128e983612a91565b92508263ffffffff0382111561290257612901612af8565b5b828201905092915050565b600061291882612ab5565b915061292383612ab5565b92508260ff0382111561293957612938612af8565b5b828201905092915050565b600061294f82612a87565b915061295a83612a87565b92508261296a57612969612b27565b5b828204905092915050565b600061298082612a87565b915061298b83612a87565b9250817fffffffffffffffffffffffffffffffffffffffffffffffffffffffffffffffff04831182151516156129c4576129c3612af8565b5b828202905092915050565b60006129da82612a87565b91506129e583612a87565b9250828210156129f8576129f7612af8565b5b828203905092915050565b6000612a0e82612ab5565b9150612a1983612ab5565b925082821015612a2c57612a2b612af8565b5b828203905092915050565b6000612a4282612a67565b9050919050565b6000612a5482612a67565b9050919050565b60008115159050919050565b600073ffffffffffffffffffffffffffffffffffffffff82169050919050565b6000819050919050565b600063ffffffff82169050919050565b600067ffffffffffffffff82169050919050565b600060ff82169050919050565b6000612acd82612ad4565b9050919050565b6000612adf82612ae6565b9050919050565b6000612af182612a67565b9050919050565b7f4e487b7100000000000000000000000000000000000000000000000000000000600052601160045260246000fd5b7f4e487b7100000000000000000000000000000000000000000000000000000000600052601260045260246000fd5b7f6a6f696e2063616c6c6564000000000000000000000000000000000000000000600082015250565b7f6e6578744d696c6573746f6e6500000000000000000000000000000000000000600082015250565b7f6661696c416e6457697468647261770000000000000000000000000000000000600082015250565b7f6661696c4d696c6573746f6e6500000000000000000000000000000000000000600082015250565b7f766f74652063616c6c6564000000000000000000000000000000000000000000600082015250565b7f617070726f7665416e6450617900000000000000000000000000000000000000600082015250565b7f61646a75737442616c616e636573000000000000000000000000000000000000600082015250565b612c7e81612a37565b8114612c8957600080fd5b50565b612c9581612a5b565b8114612ca057600080fd5b50565b612cac81612a87565b8114612cb757600080fd5b50565b612cc381612ab5565b8114612cce57600080fd5b5056fea26469706673582212206fd7a59ac18d650a56b70202ac338fd929e6dacc1af7fa862d6360bce715435664736f6c63430008040033a26469706673582212201dfd0b8ef568838075f34631cafbfb31641fb695c0ea86671ff60bc4fc47498864736f6c63430008040033",
  "immutableReferences": {},
  "source": "// SPDX-License-Identifier: MIT\r\npragma solidity ^0.8.0;\r\n\r\nimport \"./Bounty.sol\";\r\n\r\ncontract Machine {\r\n    address public owner = msg.sender;\r\n\r\n    event Create(address indexed configAddress, address indexed sender);\r\n\r\n    function create(\r\n        address payable _creatorWallet,\r\n        uint256 _maxValue,\r\n        uint8[] memory _bonusTargets,\r\n        uint8[] memory _bonusPctYeasNeeded,\r\n        uint8[] memory _bonusFailureThresholds,\r\n        uint64 _mustBeClaimedTime,\r\n        uint64 _timeLimit\r\n    ) public returns (address configAddress) {\r\n        address config = address(\r\n            new Bounty(\r\n                _creatorWallet,\r\n                _maxValue,\r\n                _bonusTargets,\r\n                _bonusPctYeasNeeded,\r\n                _bonusFailureThresholds,\r\n                _mustBeClaimedTime,\r\n                _timeLimit,\r\n                payable(owner)\r\n            )\r\n        );\r\n        emit Create(config, msg.sender);\r\n        return config;\r\n    }\r\n}\r\n",
  "sourcePath": "C:\\Users\\kumquatexpress\\projects\\polygon-hack\\web3\\contracts\\polygon\\Machine.sol",
  "compiler": {
    "name": "solc",
    "version": "0.8.4+commit.c7e474f2.Emscripten.clang"
  },
  "schemaVersion": "3.4.4",
  "updatedAt": "2022-02-05T02:01:29.297Z",
  "networkType": "ethereum",
  "devdoc": {
    "kind": "dev",
    "methods": {},
    "version": 1
  },
  "userdoc": {
    "kind": "user",
    "methods": {},
    "version": 1
  },
  "db": {
    "callBytecode": {
      "id": "0xec65f2f508715d5d47f513c808ea728601c02984ea4b6ce68646e44bd77e8443"
    },
    "createBytecode": {
      "id": "0x7f14316584b8a934433228aae7babd39ff4e2f09e383bd4e6a6142e29a8ca9af"
    },
    "contract": {
      "id": "0x286913722b33291e73ca0f06945bf7208d1e60d5002d76f6c23f2041133c74ee"
    }
  }
}