{
  "contractName": "Machine",
  "abi": [
    {
      "anonymous": false,
      "inputs": [
        {
          "indexed": true,
          "internalType": "address",
          "name": "configAddress",
          "type": "address"
        },
        {
          "indexed": true,
          "internalType": "address",
          "name": "sender",
          "type": "address"
        }
      ],
      "name": "Create",
      "type": "event"
    },
    {
      "inputs": [],
      "name": "owner",
      "outputs": [
        {
          "internalType": "address",
          "name": "",
          "type": "address"
        }
      ],
      "stateMutability": "view",
      "type": "function",
      "constant": true
    },
    {
      "inputs": [
        {
          "internalType": "address payable",
          "name": "_creatorWallet",
          "type": "address"
        },
        {
          "internalType": "uint256",
          "name": "_maxValue",
          "type": "uint256"
        },
        {
          "internalType": "uint8[]",
          "name": "_bonusTargets",
          "type": "uint8[]"
        },
        {
          "internalType": "uint8[]",
          "name": "_bonusPctYeasNeeded",
          "type": "uint8[]"
        },
        {
          "internalType": "uint8[]",
          "name": "_bonusFailureThresholds",
          "type": "uint8[]"
        },
        {
          "internalType": "uint64",
          "name": "_mustBeClaimedTime",
          "type": "uint64"
        },
        {
          "internalType": "uint64",
          "name": "_timeLimit",
          "type": "uint64"
        }
      ],
      "name": "create",
      "outputs": [
        {
          "internalType": "address",
          "name": "configAddress",
          "type": "address"
        }
      ],
      "stateMutability": "nonpayable",
      "type": "function"
    }
  ],
  "bytecode": "0x6080604052336000806101000a81548173ffffffffffffffffffffffffffffffffffffffff021916908373ffffffffffffffffffffffffffffffffffffffff16021790555034801561005057600080fd5b50613f61806100606000396000f3fe60806040523480156200001157600080fd5b506004361062000057576000357c01000000000000000000000000000000000000000000000000000000009004806351d7a7a5146200005c5780638da5cb5b1462000092575b600080fd5b6200007a6004803603810190620000749190620002b9565b620000b4565b6040516200008991906200048a565b60405180910390f35b6200009c62000189565b604051620000ab91906200048a565b60405180910390f35b6000808888888888888860008054906101000a900473ffffffffffffffffffffffffffffffffffffffff16604051620000ed90620001ad565b62000100989796959493929190620004a7565b604051809103906000f0801580156200011d573d6000803e3d6000fd5b5090503373ffffffffffffffffffffffffffffffffffffffff168173ffffffffffffffffffffffffffffffffffffffff167f96b5b9b8a7193304150caccf9b80d150675fa3d6af57761d8d8ef1d6f9a1a90960405160405180910390a380915050979650505050505050565b60008054906101000a900473ffffffffffffffffffffffffffffffffffffffff1681565b6137ff806200072d83390190565b6000620001d2620001cc8462000573565b6200054a565b90508083825260208201905082856020860282011115620001f257600080fd5b60005b858110156200022657816200020b8882620002a2565b845260208401935060208301925050600181019050620001f5565b5050509392505050565b6000813590506200024181620006c4565b92915050565b600082601f8301126200025957600080fd5b81356200026b848260208601620001bb565b91505092915050565b6000813590506200028581620006de565b92915050565b6000813590506200029c81620006f8565b92915050565b600081359050620002b38162000712565b92915050565b600080600080600080600060e0888a031215620002d557600080fd5b6000620002e58a828b0162000230565b9750506020620002f88a828b0162000274565b965050604088013567ffffffffffffffff8111156200031657600080fd5b620003248a828b0162000247565b955050606088013567ffffffffffffffff8111156200034257600080fd5b620003508a828b0162000247565b945050608088013567ffffffffffffffff8111156200036e57600080fd5b6200037c8a828b0162000247565b93505060a06200038f8a828b016200028b565b92505060c0620003a28a828b016200028b565b91505092959891949750929550565b6000620003bf838362000479565b60208301905092915050565b620003d681620005ef565b82525050565b620003e781620005db565b82525050565b6000620003fa82620005b2565b620004068185620005ca565b93506200041383620005a2565b8060005b838110156200044a5781516200042e8882620003b1565b97506200043b83620005bd565b92505060018101905062000417565b5085935050505092915050565b620004628162000623565b82525050565b62000473816200062d565b82525050565b620004848162000641565b82525050565b6000602082019050620004a16000830184620003dc565b92915050565b600061010082019050620004bf600083018b620003cb565b620004ce602083018a62000457565b8181036040830152620004e28189620003ed565b90508181036060830152620004f88188620003ed565b905081810360808301526200050e8187620003ed565b90506200051f60a083018662000468565b6200052e60c083018562000468565b6200053d60e0830184620003cb565b9998505050505050505050565b60006200055662000569565b90506200056482826200064e565b919050565b6000604051905090565b600067ffffffffffffffff82111562000591576200059062000684565b5b602082029050602081019050919050565b6000819050602082019050919050565b600081519050919050565b6000602082019050919050565b600082825260208201905092915050565b6000620005e88262000603565b9050919050565b6000620005fc8262000603565b9050919050565b600073ffffffffffffffffffffffffffffffffffffffff82169050919050565b6000819050919050565b600067ffffffffffffffff82169050919050565b600060ff82169050919050565b6200065982620006b3565b810181811067ffffffffffffffff821117156200067b576200067a62000684565b5b80604052505050565b7f4e487b7100000000000000000000000000000000000000000000000000000000600052604160045260246000fd5b6000601f19601f8301169050919050565b620006cf81620005ef565b8114620006db57600080fd5b50565b620006e98162000623565b8114620006f557600080fd5b50565b62000703816200062d565b81146200070f57600080fd5b50565b6200071d8162000641565b81146200072957600080fd5b5056fe60806040523480156200001157600080fd5b50604051620037ff380380620037ff8339818101604052810190620000379190620003de565b87600660006101000a81548173ffffffffffffffffffffffffffffffffffffffff021916908373ffffffffffffffffffffffffffffffffffffffff16021790555086600f8190555085600790805190602001906200009792919062000213565b508460099080519060200190620000b092919062000213565b5083600b9080519060200190620000c992919062000213565b5082600e60006101000a81548167ffffffffffffffff021916908367ffffffffffffffff160217905550806000806101000a81548173ffffffffffffffffffffffffffffffffffffffff021916908373ffffffffffffffffffffffffffffffffffffffff1602179055506001600c60086101000a81548160ff02191690831515021790555081601060006101000a81548167ffffffffffffffff021916908367ffffffffffffffff16021790555060078054905067ffffffffffffffff811115620001bd577f4e487b7100000000000000000000000000000000000000000000000000000000600052604160045260246000fd5b604051908082528060200260200182016040528015620001ec5781602001602082028036833780820191505090505b50600a90805190602001906200020492919062000213565b50505050505050505062000681565b82805482825590600052602060002090601f01602090048101928215620002ae5791602002820160005b838211156200027d57835183826101000a81548160ff021916908360ff16021790555092602001926001016020816000010492830192600103026200023d565b8015620002ac5782816101000a81549060ff02191690556001016020816000010492830192600103026200027d565b505b509050620002bd9190620002c1565b5090565b5b80821115620002dc576000816000905550600101620002c2565b5090565b6000620002f7620002f18462000515565b620004ec565b905080838252602082019050828560208602820111156200031757600080fd5b60005b858110156200034b5781620003308882620003c7565b8452602084019350602083019250506001810190506200031a565b5050509392505050565b600081519050620003668162000619565b92915050565b600082601f8301126200037e57600080fd5b815162000390848260208601620002e0565b91505092915050565b600081519050620003aa8162000633565b92915050565b600081519050620003c1816200064d565b92915050565b600081519050620003d88162000667565b92915050565b600080600080600080600080610100898b031215620003fc57600080fd5b60006200040c8b828c0162000355565b98505060206200041f8b828c0162000399565b975050604089015167ffffffffffffffff8111156200043d57600080fd5b6200044b8b828c016200036c565b965050606089015167ffffffffffffffff8111156200046957600080fd5b620004778b828c016200036c565b955050608089015167ffffffffffffffff8111156200049557600080fd5b620004a38b828c016200036c565b94505060a0620004b68b828c01620003b0565b93505060c0620004c98b828c01620003b0565b92505060e0620004dc8b828c0162000355565b9150509295985092959890939650565b6000620004f86200050b565b9050620005068282620005a3565b919050565b6000604051905090565b600067ffffffffffffffff821115620005335762000532620005d9565b5b602082029050602081019050919050565b6000620005518262000558565b9050919050565b600073ffffffffffffffffffffffffffffffffffffffff82169050919050565b6000819050919050565b600067ffffffffffffffff82169050919050565b600060ff82169050919050565b620005ae8262000608565b810181811067ffffffffffffffff82111715620005d057620005cf620005d9565b5b80604052505050565b7f4e487b7100000000000000000000000000000000000000000000000000000000600052604160045260246000fd5b6000601f19601f8301169050919050565b620006248162000544565b81146200063057600080fd5b50565b6200063e8162000578565b81146200064a57600080fd5b50565b620006588162000582565b81146200066457600080fd5b50565b620006728162000596565b81146200067e57600080fd5b50565b61316e80620006916000396000f3fe6080604052600436106101d4576000357c0100000000000000000000000000000000000000000000000000000000900480637ae6ee3211610109578063b688a363116100a7578063d553ed1311610081578063d553ed1314610688578063e2fd21e8146106c5578063e885f76b14610702578063f541c60f1461072d576101d4565b8063b688a36314610602578063c08d1fe514610620578063cb0cd6b51461064b576101d4565b806393d18113116100e357806393d181131461054457806394a5c2e41461056f578063b0417e981461059a578063b4bd497a146105c5576101d4565b80637ae6ee32146104c35780637cdc65f2146104ee5780637f698dad14610519576101d4565b80633dad5c70116101765780634e71d92d116101505780634e71d92d146103f35780635d7c58ea1461041e578063688594b31461044957806370a0823114610486576101d4565b80633dad5c701461033c57806342bbec59146103795780634ce2cdc7146103b6576101d4565b80632808241e116101b25780632808241e1461026c5780632e8a498c146102a95780633197cbb6146102e65780633ccfd60b14610311576101d4565b80631b5a3cc9146101d9578063200d2ed21461021657806320949bb414610241575b600080fd5b3480156101e557600080fd5b5061020060048036038101906101fb9190612614565b610758565b60405161020d9190612acf565b60405180910390f35b34801561022257600080fd5b5061022b610805565b6040516102389190612b3b565b60405180910390f35b34801561024d57600080fd5b50610256610818565b6040516102639190612b3b565b60405180910390f35b34801561027857600080fd5b50610293600480360381019061028e9190612666565b61082b565b6040516102a09190612acf565b60405180910390f35b3480156102b557600080fd5b506102d060048036038101906102cb91906125eb565b610cbc565b6040516102dd9190612aea565b60405180910390f35b3480156102f257600080fd5b506102fb610cd4565b6040516103089190612b20565b60405180910390f35b34801561031d57600080fd5b50610326610cee565b6040516103339190612acf565b60405180910390f35b34801561034857600080fd5b50610363600480360381019061035e919061263d565b610f4d565b6040516103709190612b20565b60405180910390f35b34801561038557600080fd5b506103a0600480360381019061039b919061263d565b610f8b565b6040516103ad9190612b3b565b60405180910390f35b3480156103c257600080fd5b506103dd60048036038101906103d8919061263d565b610fbf565b6040516103ea9190612b3b565b60405180910390f35b3480156103ff57600080fd5b50610408610ff3565b6040516104159190612acf565b60405180910390f35b34801561042a57600080fd5b50610433611133565b6040516104409190612b20565b60405180910390f35b34801561045557600080fd5b50610470600480360381019061046b919061263d565b61114d565b60405161047d9190612a99565b60405180910390f35b34801561049257600080fd5b506104ad60048036038101906104a891906125eb565b61118c565b6040516104ba9190612aea565b60405180910390f35b3480156104cf57600080fd5b506104d8611249565b6040516104e59190612ab4565b60405180910390f35b3480156104fa57600080fd5b50610503611401565b6040516105109190612a99565b60405180910390f35b34801561052557600080fd5b5061052e611427565b60405161053b9190612b3b565b60405180910390f35b34801561055057600080fd5b50610559611434565b6040516105669190612b05565b60405180910390f35b34801561057b57600080fd5b5061058461144a565b6040516105919190612aea565b60405180910390f35b3480156105a657600080fd5b506105af611450565b6040516105bc9190612acf565b60405180910390f35b3480156105d157600080fd5b506105ec60048036038101906105e791906125eb565b611545565b6040516105f99190612aea565b60405180910390f35b61060a61155d565b6040516106179190612acf565b60405180910390f35b34801561062c57600080fd5b5061063561180e565b6040516106429190612b20565b60405180910390f35b34801561065757600080fd5b50610672600480360381019061066d919061263d565b611828565b60405161067f9190612b3b565b60405180910390f35b34801561069457600080fd5b506106af60048036038101906106aa919061263d565b61185c565b6040516106bc9190612b3b565b60405180910390f35b3480156106d157600080fd5b506106ec60048036038101906106e791906125eb565b611890565b6040516106f99190612aea565b60405180910390f35b34801561070e57600080fd5b506107176118d9565b6040516107249190612aea565b60405180910390f35b34801561073957600080fd5b506107426118df565b60405161074f9190612aea565b60405180910390f35b60008060009054906101000a900473ffffffffffffffffffffffffffffffffffffffff168073ffffffffffffffffffffffffffffffffffffffff163373ffffffffffffffffffffffffffffffffffffffff16146107e1576040517f82b4290000000000000000000000000000000000000000000000000000000000815260040160405180910390fd5b82600c60086101000a81548160ff0219169083151502179055506001915050919050565b601360049054906101000a900460ff1681565b600c60099054906101000a900460ff1681565b600080600360003373ffffffffffffffffffffffffffffffffffffffff1673ffffffffffffffffffffffffffffffffffffffff1681526020019081526020016000205414156108a6576040517f995a2dae00000000000000000000000000000000000000000000000000000000815260040160405180910390fd5b6040516108b290612a1b565b60405180910390207f7cdb51e9dbbc205231228146c3246e7f914aa6d4a33170e43ecc8e3593481d1a60405160405180910390a26000601360049054906101000a900460ff1660ff16148061091c5750600c60099054906101000a900460ff1660ff168360ff1614155b15610953576040517f4733210000000000000000000000000000000000000000000000000000000000815260040160405180910390fd5b600d60003373ffffffffffffffffffffffffffffffffffffffff1673ffffffffffffffffffffffffffffffffffffffff16815260200190815260200160002060009054906101000a900460ff16156109d7576040517f7c9a1cf900000000000000000000000000000000000000000000000000000000815260040160405180910390fd5b6040516109e390612a45565b60405180910390207f7cdb51e9dbbc205231228146c3246e7f914aa6d4a33170e43ecc8e3593481d1a60405160405180910390a26000610a2233611890565b90508215610a48578060116000828254610a3c9190612bc5565b92505081905550610a62565b8060126000828254610a5a9190612bc5565b925050819055505b6001601360008282829054906101000a900463ffffffff16610a849190612c1b565b92506101000a81548163ffffffff021916908363ffffffff1602179055506001600d60003373ffffffffffffffffffffffffffffffffffffffff1673ffffffffffffffffffffffffffffffffffffffff16815260200190815260200160002060006101000a81548160ff0219169083151502179055503373ffffffffffffffffffffffffffffffffffffffff167fa635d31e67484fd1d93ba01ab0ef882e4440a78aa40d0e2771e8a2aace45986984604051610b409190612acf565b60405180910390a26000610b526118e5565b9050604051610b6090612a84565b60405180910390207f7cdb51e9dbbc205231228146c3246e7f914aa6d4a33170e43ecc8e3593481d1a60405160405180910390a260008160ff1614610caf57600060018260ff161415610bfc57604051610bb990612988565b60405180910390207f7cdb51e9dbbc205231228146c3246e7f914aa6d4a33170e43ecc8e3593481d1a60405160405180910390a2610bf56119bc565b9050610c54565b60028260ff161415610c5357604051610c1490612973565b60405180910390207f7cdb51e9dbbc205231228146c3246e7f914aa6d4a33170e43ecc8e3593481d1a60405160405180910390a2610c50611d26565b90505b5b8015610ca457604051610c66906129b2565b60405180910390207f7cdb51e9dbbc205231228146c3246e7f914aa6d4a33170e43ecc8e3593481d1a60405160405180910390a2610ca2611ef6565b505b809350505050610cb6565b6001925050505b92915050565b60036020528060005260406000206000915090505481565b600c60009054906101000a900467ffffffffffffffff1681565b600080600360003373ffffffffffffffffffffffffffffffffffffffff1673ffffffffffffffffffffffffffffffffffffffff168152602001908152602001600020541415610d69576040517f995a2dae00000000000000000000000000000000000000000000000000000000815260040160405180910390fd5b600c60089054906101000a900460ff16610d865760009050610f4a565b6000610d913361118c565b90503373ffffffffffffffffffffffffffffffffffffffff166108fc610dce833073ffffffffffffffffffffffffffffffffffffffff1631612011565b9081150290604051600060405180830381858888f19350505050158015610df9573d6000803e3d6000fd5b506000600260003373ffffffffffffffffffffffffffffffffffffffff1673ffffffffffffffffffffffffffffffffffffffff16815260200190815260200160002060006101000a81548160ff021916908360ff1602179055506000600360003373ffffffffffffffffffffffffffffffffffffffff1673ffffffffffffffffffffffffffffffffffffffff168152602001908152602001600020819055506000600460003373ffffffffffffffffffffffffffffffffffffffff1673ffffffffffffffffffffffffffffffffffffffff168152602001908152602001600020819055508060016000828254610eef9190612d17565b925050819055503373ffffffffffffffffffffffffffffffffffffffff167f884edad9ce6fa2440d8a54cc123490eb96d2768479d49ff9c7366125a942436482604051610f3c9190612aea565b60405180910390a260019150505b90565b60088181548110610f5d57600080fd5b9060005260206000209060049182820401919006600802915054906101000a900467ffffffffffffffff1681565b60078181548110610f9b57600080fd5b9060005260206000209060209182820401919006915054906101000a900460ff1681565b60098181548110610fcf57600080fd5b9060005260206000209060209182820401919006915054906101000a900460ff1681565b60008060009054906101000a900473ffffffffffffffffffffffffffffffffffffffff168073ffffffffffffffffffffffffffffffffffffffff163373ffffffffffffffffffffffffffffffffffffffff161461107c576040517f82b4290000000000000000000000000000000000000000000000000000000000815260040160405180910390fd5b6000601360049054906101000a900460ff1660ff161461109f576000915061112f565b601060009054906101000a900467ffffffffffffffff1667ffffffffffffffff16426110cb9190612bc5565b600c60006101000a81548167ffffffffffffffff021916908367ffffffffffffffff1602179055506000600c60086101000a81548160ff0219169083151502179055506001601360046101000a81548160ff021916908360ff160217905550600191505b5090565b600e60009054906101000a900467ffffffffffffffff1681565b6005818154811061115d57600080fd5b906000526020600020016000915054906101000a900473ffffffffffffffffffffffffffffffffffffffff1681565b60006112426064611234600260008673ffffffffffffffffffffffffffffffffffffffff1673ffffffffffffffffffffffffffffffffffffffff16815260200190815260200160002060009054906101000a900460ff1660ff16600360008773ffffffffffffffffffffffffffffffffffffffff1673ffffffffffffffffffffffffffffffffffffffff1681526020019081526020016000205461202a90919063ffffffff16565b61204090919063ffffffff16565b9050919050565b611251612575565b6040518060e00160405280600c60099054906101000a900460ff1660ff1681526020016009600c60099054906101000a900460ff1660ff16815481106112c0577f4e487b7100000000000000000000000000000000000000000000000000000000600052603260045260246000fd5b90600052602060002090602091828204019190069054906101000a900460ff1660ff16815260200160115481526020016012548152602001600a600c60099054906101000a900460ff1660ff1681548110611344577f4e487b7100000000000000000000000000000000000000000000000000000000600052603260045260246000fd5b90600052602060002090602091828204019190069054906101000a900460ff1660ff168152602001600b600c60099054906101000a900460ff1660ff16815481106113b8577f4e487b7100000000000000000000000000000000000000000000000000000000600052603260045260246000fd5b90600052602060002090602091828204019190069054906101000a900460ff1660ff168152602001601360009054906101000a900463ffffffff1663ffffffff16815250905090565b600660009054906101000a900473ffffffffffffffffffffffffffffffffffffffff1681565b6000600580549050905090565b601360009054906101000a900463ffffffff1681565b600f5481565b60008060009054906101000a900473ffffffffffffffffffffffffffffffffffffffff168073ffffffffffffffffffffffffffffffffffffffff163373ffffffffffffffffffffffffffffffffffffffff16146114d9576040517f82b4290000000000000000000000000000000000000000000000000000000000815260040160405180910390fd5b60006114e36118e5565b905060008160ff161461153f57600060018260ff16141561150d576115066119bc565b9050611525565b60028260ff16141561152457611521611d26565b90505b5b801561153557611533611ef6565b505b8093505050611541565b505b5090565b60046020528060005260406000206000915090505481565b6000600e60009054906101000a900467ffffffffffffffff168067ffffffffffffffff164211156115ba576040517fecdd1c2900000000000000000000000000000000000000000000000000000000815260040160405180910390fd5b6040516115c6906129c7565b60405180910390207f7cdb51e9dbbc205231228146c3246e7f914aa6d4a33170e43ecc8e3593481d1a60405160405180910390a26000341415611635576040517f995a2dae00000000000000000000000000000000000000000000000000000000815260040160405180910390fd5b600f54343073ffffffffffffffffffffffffffffffffffffffff163161165b9190612bc5565b10611692576040517f77d09e5000000000000000000000000000000000000000000000000000000000815260040160405180910390fd5b6000600360003373ffffffffffffffffffffffffffffffffffffffff1673ffffffffffffffffffffffffffffffffffffffff168152602001908152602001600020541415611797576005339080600181540180825580915050600190039060005260206000200160009091909190916101000a81548173ffffffffffffffffffffffffffffffffffffffff021916908373ffffffffffffffffffffffffffffffffffffffff1602179055506064600260003373ffffffffffffffffffffffffffffffffffffffff1673ffffffffffffffffffffffffffffffffffffffff16815260200190815260200160002060006101000a81548160ff021916908360ff1602179055505b34600360003373ffffffffffffffffffffffffffffffffffffffff1673ffffffffffffffffffffffffffffffffffffffff16815260200190815260200160002060008282546117e69190612bc5565b9250508190555034600160008282546117ff9190612bc5565b92505081905550600191505090565b601060009054906101000a900467ffffffffffffffff1681565b600b818154811061183857600080fd5b9060005260206000209060209182820401919006915054906101000a900460ff1681565b600a818154811061186c57600080fd5b9060005260206000209060209182820401919006915054906101000a900460ff1681565b6000600360008373ffffffffffffffffffffffffffffffffffffffff1673ffffffffffffffffffffffffffffffffffffffff168152602001908152602001600020549050919050565b60115481565b60125481565b60008061197e60646119706009600c60099054906101000a900460ff1660ff168154811061193c577f4e487b7100000000000000000000000000000000000000000000000000000000600052603260045260246000fd5b90600052602060002090602091828204019190069054906101000a900460ff1660ff1660015461202a90919063ffffffff16565b61204090919063ffffffff16565b905080601154106119935760019150506119b9565b806001546119a19190612d17565b601254106119b35760029150506119b9565b60009150505b90565b60006040516119ca90612a30565b60405180910390207f7cdb51e9dbbc205231228146c3246e7f914aa6d4a33170e43ecc8e3593481d1a60405160405180910390a260006007600c60099054906101000a900460ff1660ff1681548110611a4c577f4e487b7100000000000000000000000000000000000000000000000000000000600052603260045260246000fd5b90600052602060002090602091828204019190069054906101000a900460ff1660ff161415611aa7576040517fd70a0e3000000000000000000000000000000000000000000000000000000000815260040160405180910390fd5b604051611ab390612a6f565b60405180910390207f7cdb51e9dbbc205231228146c3246e7f914aa6d4a33170e43ecc8e3593481d1a60405160405180910390a26000611b7f6064611b716007600c60099054906101000a900460ff1660ff1681548110611b3d577f4e487b7100000000000000000000000000000000000000000000000000000000600052603260045260246000fd5b90600052602060002090602091828204019190069054906101000a900460ff1660ff1660015461202a90919063ffffffff16565b61204090919063ffffffff16565b9050600660009054906101000a900473ffffffffffffffffffffffffffffffffffffffff1673ffffffffffffffffffffffffffffffffffffffff166108fc829081150290604051600060405180830381858888f19350505050158015611be9573d6000803e3d6000fd5b50604051611bf69061299d565b60405180910390207f7cdb51e9dbbc205231228146c3246e7f914aa6d4a33170e43ecc8e3593481d1a60405160405180910390a260006007600c60099054906101000a900460ff1660ff1681548110611c78577f4e487b7100000000000000000000000000000000000000000000000000000000600052603260045260246000fd5b90600052602060002090602091828204019190066101000a81548160ff021916908360ff160217905550611cab81612056565b507f0e45f244d89cea5099c0a6f24efd8cfde53e85de3cbf08c24acc387c1160ccc3600c60099054906101000a900460ff1682600660009054906101000a900473ffffffffffffffffffffffffffffffffffffffff16604051611d1093929190612b56565b60405180910390a1611d206121ca565b91505090565b6000604051611d3490612a06565b60405180910390207f7cdb51e9dbbc205231228146c3246e7f914aa6d4a33170e43ecc8e3593481d1a60405160405180910390a26001600a600c60099054906101000a900460ff1660ff1681548110611db6577f4e487b7100000000000000000000000000000000000000000000000000000000600052603260045260246000fd5b90600052602060002090602091828204019190068282829054906101000a900460ff16611de39190612c55565b92506101000a81548160ff021916908360ff160217905550600b600c60099054906101000a900460ff1660ff1681548110611e47577f4e487b7100000000000000000000000000000000000000000000000000000000600052603260045260246000fd5b90600052602060002090602091828204019190069054906101000a900460ff1660ff16600a600c60099054906101000a900460ff1660ff1681548110611eb6577f4e487b7100000000000000000000000000000000000000000000000000000000600052603260045260246000fd5b90600052602060002090602091828204019190069054906101000a900460ff1660ff161415611eee57611ee7612276565b9050611ef3565b600090505b90565b60008060118190555060006012819055506000601360006101000a81548163ffffffff021916908363ffffffff16021790555060005b600580549050811015612009576000600d600060058481548110611f79577f4e487b7100000000000000000000000000000000000000000000000000000000600052603260045260246000fd5b9060005260206000200160009054906101000a900473ffffffffffffffffffffffffffffffffffffffff1673ffffffffffffffffffffffffffffffffffffffff1673ffffffffffffffffffffffffffffffffffffffff16815260200190815260200160002060006101000a81548160ff0219169083151502179055506001816120029190612bc5565b9050611f2c565b506001905090565b60008183106120205781612022565b825b905092915050565b600081836120389190612cbd565b905092915050565b6000818361204e9190612c8c565b905092915050565b600060405161206490612a5a565b60405180910390207f7cdb51e9dbbc205231228146c3246e7f914aa6d4a33170e43ecc8e3593481d1a60405160405180910390a260006120c26001546120b460648661202a90919063ffffffff16565b61204090919063ffffffff16565b905060005b6005805490508110156121bf57816002600060058481548110612113577f4e487b7100000000000000000000000000000000000000000000000000000000600052603260045260246000fd5b9060005260206000200160009054906101000a900473ffffffffffffffffffffffffffffffffffffffff1673ffffffffffffffffffffffffffffffffffffffff1673ffffffffffffffffffffffffffffffffffffffff16815260200190815260200160002060008282829054906101000a900460ff166121939190612d4b565b92506101000a81548160ff021916908360ff1602179055506001816121b89190612bc5565b90506120c7565b506001915050919050565b60006040516121d8906129dc565b60405180910390207f7cdb51e9dbbc205231228146c3246e7f914aa6d4a33170e43ecc8e3593481d1a60405160405180910390a2600160078054905061221e9190612d17565b600c60099054906101000a900460ff1660ff16101561226f576001600c60098282829054906101000a900460ff166122569190612c55565b92506101000a81548160ff021916908360ff1602179055505b6001905090565b6000604051612284906129f1565b60405180910390207f7cdb51e9dbbc205231228146c3246e7f914aa6d4a33170e43ecc8e3593481d1a60405160405180910390a2600061235060646123426007600c60099054906101000a900460ff1660ff168154811061230e577f4e487b7100000000000000000000000000000000000000000000000000000000600052603260045260246000fd5b90600052602060002090602091828204019190069054906101000a900460ff1660ff1660015461202a90919063ffffffff16565b61204090919063ffffffff16565b905060005b60058054905081101561251657600061242f600154612421606460036000600588815481106123ad577f4e487b7100000000000000000000000000000000000000000000000000000000600052603260045260246000fd5b9060005260206000200160009054906101000a900473ffffffffffffffffffffffffffffffffffffffff1673ffffffffffffffffffffffffffffffffffffffff1673ffffffffffffffffffffffffffffffffffffffff1681526020019081526020016000205461202a90919063ffffffff16565b61204090919063ffffffff16565b90506005828154811061246b577f4e487b7100000000000000000000000000000000000000000000000000000000600052603260045260246000fd5b9060005260206000200160009054906101000a900473ffffffffffffffffffffffffffffffffffffffff1673ffffffffffffffffffffffffffffffffffffffff166108fc6124d560646124c7858861202a90919063ffffffff16565b61204090919063ffffffff16565b9081150290604051600060405180830381858888f19350505050158015612500573d6000803e3d6000fd5b505060018161250f9190612bc5565b9050612355565b5061252081612056565b507f230739317a7f90b018762e0570d567293eac14d67441b810f714879dd6aed0bf600c60099054906101000a900460ff1660405161255f9190612b3b565b60405180910390a161256f6121ca565b91505090565b6040518060e00160405280600790602082028036833780820191505090505090565b6000813590506125a6816130dc565b92915050565b6000813590506125bb816130f3565b92915050565b6000813590506125d08161310a565b92915050565b6000813590506125e581613121565b92915050565b6000602082840312156125fd57600080fd5b600061260b84828501612597565b91505092915050565b60006020828403121561262657600080fd5b6000612634848285016125ac565b91505092915050565b60006020828403121561264f57600080fd5b600061265d848285016125c1565b91505092915050565b6000806040838503121561267957600080fd5b6000612687858286016125d6565b9250506020612698858286016125ac565b9150509250929050565b60006126ae8383612928565b60208301905092915050565b6126c381612e0a565b82525050565b6126d281612d91565b82525050565b6126e181612b97565b6126eb8184612baf565b92506126f682612b8d565b8060005b8381101561272757815161270e87826126a2565b965061271983612ba2565b9250506001810190506126fa565b505050505050565b61273881612da3565b82525050565b600061274b600c83612bba565b915061275682612e9e565b600c82019050919050565b600061276e600e83612bba565b915061277982612ec7565b600e82019050919050565b6000612791601983612bba565b915061279c82612ef0565b601982019050919050565b60006127b4601183612bba565b91506127bf82612f19565b601182019050919050565b60006127d7600b83612bba565b91506127e282612f42565b600b82019050919050565b60006127fa600d83612bba565b915061280582612f6b565b600d82019050919050565b600061281d600f83612bba565b915061282882612f94565b600f82019050919050565b6000612840600d83612bba565b915061284b82612fbd565b600d82019050919050565b6000612863600b83612bba565b915061286e82612fe6565b600b82019050919050565b6000612886600d83612bba565b91506128918261300f565b600d82019050919050565b60006128a9601283612bba565b91506128b482613038565b601282019050919050565b60006128cc600e83612bba565b91506128d782613061565b600e82019050919050565b60006128ef601b83612bba565b91506128fa8261308a565b601b82019050919050565b6000612912601183612bba565b915061291d826130b3565b601182019050919050565b61293181612dcf565b82525050565b61294081612dcf565b82525050565b61294f81612dd9565b82525050565b61295e81612de9565b82525050565b61296d81612dfd565b82525050565b600061297e8261273e565b9150819050919050565b600061299382612761565b9150819050919050565b60006129a882612784565b9150819050919050565b60006129bd826127a7565b9150819050919050565b60006129d2826127ca565b9150819050919050565b60006129e7826127ed565b9150819050919050565b60006129fc82612810565b9150819050919050565b6000612a1182612833565b9150819050919050565b6000612a2682612856565b9150819050919050565b6000612a3b82612879565b9150819050919050565b6000612a508261289c565b9150819050919050565b6000612a65826128bf565b9150819050919050565b6000612a7a826128e2565b9150819050919050565b6000612a8f82612905565b9150819050919050565b6000602082019050612aae60008301846126c9565b92915050565b600060e082019050612ac960008301846126d8565b92915050565b6000602082019050612ae4600083018461272f565b92915050565b6000602082019050612aff6000830184612937565b92915050565b6000602082019050612b1a6000830184612946565b92915050565b6000602082019050612b356000830184612955565b92915050565b6000602082019050612b506000830184612964565b92915050565b6000606082019050612b6b6000830186612964565b612b786020830185612937565b612b8560408301846126ba565b949350505050565b6000819050919050565b600060079050919050565b6000602082019050919050565b600081905092915050565b600081905092915050565b6000612bd082612dcf565b9150612bdb83612dcf565b9250827fffffffffffffffffffffffffffffffffffffffffffffffffffffffffffffffff03821115612c1057612c0f612e40565b5b828201905092915050565b6000612c2682612dd9565b9150612c3183612dd9565b92508263ffffffff03821115612c4a57612c49612e40565b5b828201905092915050565b6000612c6082612dfd565b9150612c6b83612dfd565b92508260ff03821115612c8157612c80612e40565b5b828201905092915050565b6000612c9782612dcf565b9150612ca283612dcf565b925082612cb257612cb1612e6f565b5b828204905092915050565b6000612cc882612dcf565b9150612cd383612dcf565b9250817fffffffffffffffffffffffffffffffffffffffffffffffffffffffffffffffff0483118215151615612d0c57612d0b612e40565b5b828202905092915050565b6000612d2282612dcf565b9150612d2d83612dcf565b925082821015612d4057612d3f612e40565b5b828203905092915050565b6000612d5682612dfd565b9150612d6183612dfd565b925082821015612d7457612d73612e40565b5b828203905092915050565b6000612d8a82612daf565b9050919050565b6000612d9c82612daf565b9050919050565b60008115159050919050565b600073ffffffffffffffffffffffffffffffffffffffff82169050919050565b6000819050919050565b600063ffffffff82169050919050565b600067ffffffffffffffff82169050919050565b600060ff82169050919050565b6000612e1582612e1c565b9050919050565b6000612e2782612e2e565b9050919050565b6000612e3982612daf565b9050919050565b7f4e487b7100000000000000000000000000000000000000000000000000000000600052601160045260246000fd5b7f4e487b7100000000000000000000000000000000000000000000000000000000600052601260045260246000fd5b7f766f7465206661696c696e670000000000000000000000000000000000000000600082015250565b7f766f746520617070726f76696e67000000000000000000000000000000000000600082015250565b7f617070726f7665416e64506179207472616e7366657272656400000000000000600082015250565b7f766f746520776970696e67207374617465000000000000000000000000000000600082015250565b7f6a6f696e2063616c6c6564000000000000000000000000000000000000000000600082015250565b7f6e6578744d696c6573746f6e6500000000000000000000000000000000000000600082015250565b7f6661696c416e6457697468647261770000000000000000000000000000000000600082015250565b7f6661696c4d696c6573746f6e6500000000000000000000000000000000000000600082015250565b7f766f74652063616c6c6564000000000000000000000000000000000000000000600082015250565b7f617070726f7665416e6450617900000000000000000000000000000000000000600082015250565b7f766f74652070617373656420636865636b730000000000000000000000000000600082015250565b7f61646a75737442616c616e636573000000000000000000000000000000000000600082015250565b7f617070726f7665416e645061792070617373656420636865636b730000000000600082015250565b7f766f74652073746174757320666f756e64000000000000000000000000000000600082015250565b6130e581612d7f565b81146130f057600080fd5b50565b6130fc81612da3565b811461310757600080fd5b50565b61311381612dcf565b811461311e57600080fd5b50565b61312a81612dfd565b811461313557600080fd5b5056fea2646970667358221220adae469c4133784f7df4cc54c7db8f9fac3403a4c6b911be9fb05ac460b18aa764736f6c63430008040033a26469706673582212209f6c04d587d3cf312d160f96cccfb61fdfe0ec0b6454bddb25f43495a69d4cd464736f6c63430008040033",
  "immutableReferences": {},
  "source": "// SPDX-License-Identifier: MIT\r\npragma solidity ^0.8.0;\r\n\r\nimport \"./Bounty.sol\";\r\n\r\ncontract Machine {\r\n    address public owner = msg.sender;\r\n\r\n    event Create(address indexed configAddress, address indexed sender);\r\n\r\n    function create(\r\n        address payable _creatorWallet,\r\n        uint256 _maxValue,\r\n        uint8[] memory _bonusTargets,\r\n        uint8[] memory _bonusPctYeasNeeded,\r\n        uint8[] memory _bonusFailureThresholds,\r\n        uint64 _mustBeClaimedTime,\r\n        uint64 _timeLimit\r\n    ) public returns (address configAddress) {\r\n        address config = address(\r\n            new Bounty(\r\n                _creatorWallet,\r\n                _maxValue,\r\n                _bonusTargets,\r\n                _bonusPctYeasNeeded,\r\n                _bonusFailureThresholds,\r\n                _mustBeClaimedTime,\r\n                _timeLimit,\r\n                payable(owner)\r\n            )\r\n        );\r\n        emit Create(config, msg.sender);\r\n        return config;\r\n    }\r\n}\r\n",
  "sourcePath": "C:\\Users\\kumquatexpress\\projects\\polygon-hack\\web3\\contracts\\polygon\\Machine.sol",
  "compiler": {
    "name": "solc",
    "version": "0.8.4+commit.c7e474f2.Emscripten.clang"
  },
  "schemaVersion": "3.4.4",
  "updatedAt": "2022-02-04T19:09:07.757Z",
  "networkType": "ethereum",
  "devdoc": {
    "kind": "dev",
    "methods": {},
    "version": 1
  },
  "userdoc": {
    "kind": "user",
    "methods": {},
    "version": 1
  },
  "db": {
    "callBytecode": {
      "id": "0x519876b4c121afc7e45a4899eac00ca49902628d808bd7367c7a43bdc07283e2"
    },
    "createBytecode": {
      "id": "0x52bb432f8639e808731831d37ce47b607c25fbb49a036b5bb8f44396cd9d731b"
    },
    "contract": {
      "id": "0xbc5c3fc536307171bdbf6f1c70bd47beea59c9720e3e30c51501feb8777bac52"
    }
  }
}