{
  "contractName": "Machine",
  "abi": [
    {
      "anonymous": false,
      "inputs": [
        {
          "indexed": true,
          "internalType": "address",
          "name": "configAddress",
          "type": "address"
        },
        {
          "indexed": true,
          "internalType": "address",
          "name": "sender",
          "type": "address"
        }
      ],
      "name": "Create",
      "type": "event"
    },
    {
      "inputs": [],
      "name": "owner",
      "outputs": [
        {
          "internalType": "address",
          "name": "",
          "type": "address"
        }
      ],
      "stateMutability": "view",
      "type": "function",
      "constant": true
    },
    {
      "inputs": [
        {
          "internalType": "address payable",
          "name": "_creatorWallet",
          "type": "address"
        },
        {
          "internalType": "uint256",
          "name": "_maxValue",
          "type": "uint256"
        },
        {
          "internalType": "uint8[]",
          "name": "_bonusTargets",
          "type": "uint8[]"
        },
        {
          "internalType": "uint8[]",
          "name": "_bonusPctYeasNeeded",
          "type": "uint8[]"
        },
        {
          "internalType": "uint8[]",
          "name": "_bonusFailureThresholds",
          "type": "uint8[]"
        },
        {
          "internalType": "uint64",
          "name": "_mustBeClaimedTime",
          "type": "uint64"
        },
        {
          "internalType": "uint64",
          "name": "_timeLimit",
          "type": "uint64"
        },
        {
          "internalType": "address payable",
          "name": "_owner",
          "type": "address"
        }
      ],
      "name": "create",
      "outputs": [
        {
          "internalType": "address",
          "name": "configAddress",
          "type": "address"
        }
      ],
      "stateMutability": "nonpayable",
      "type": "function"
    }
  ],
  "bytecode": "0x6080604052336000806101000a81548173ffffffffffffffffffffffffffffffffffffffff021916908373ffffffffffffffffffffffffffffffffffffffff16021790555034801561005057600080fd5b50613602806100606000396000f3fe60806040523480156200001157600080fd5b506004361062000057576000357c0100000000000000000000000000000000000000000000000000000000900480631805116c146200005c5780638da5cb5b1462000092575b600080fd5b6200007a60048036038101906200007491906200029a565b620000b4565b60405162000089919062000481565b60405180910390f35b6200009c6200016a565b604051620000ab919062000481565b60405180910390f35b6000808989898989898989604051620000cd906200018e565b620000e09897969594939291906200049e565b604051809103906000f080158015620000fd573d6000803e3d6000fd5b5090503373ffffffffffffffffffffffffffffffffffffffff168173ffffffffffffffffffffffffffffffffffffffff167f96b5b9b8a7193304150caccf9b80d150675fa3d6af57761d8d8ef1d6f9a1a90960405160405180910390a38091505098975050505050505050565b60008054906101000a900473ffffffffffffffffffffffffffffffffffffffff1681565b612ea9806200072483390190565b6000620001b3620001ad846200056a565b62000541565b90508083825260208201905082856020860282011115620001d357600080fd5b60005b85811015620002075781620001ec888262000283565b845260208401935060208301925050600181019050620001d6565b5050509392505050565b6000813590506200022281620006bb565b92915050565b600082601f8301126200023a57600080fd5b81356200024c8482602086016200019c565b91505092915050565b6000813590506200026681620006d5565b92915050565b6000813590506200027d81620006ef565b92915050565b600081359050620002948162000709565b92915050565b600080600080600080600080610100898b031215620002b857600080fd5b6000620002c88b828c0162000211565b9850506020620002db8b828c0162000255565b975050604089013567ffffffffffffffff811115620002f957600080fd5b620003078b828c0162000228565b965050606089013567ffffffffffffffff8111156200032557600080fd5b620003338b828c0162000228565b955050608089013567ffffffffffffffff8111156200035157600080fd5b6200035f8b828c0162000228565b94505060a0620003728b828c016200026c565b93505060c0620003858b828c016200026c565b92505060e0620003988b828c0162000211565b9150509295985092959890939650565b6000620003b6838362000470565b60208301905092915050565b620003cd81620005e6565b82525050565b620003de81620005d2565b82525050565b6000620003f182620005a9565b620003fd8185620005c1565b93506200040a8362000599565b8060005b8381101562000441578151620004258882620003a8565b97506200043283620005b4565b9250506001810190506200040e565b5085935050505092915050565b62000459816200061a565b82525050565b6200046a8162000624565b82525050565b6200047b8162000638565b82525050565b6000602082019050620004986000830184620003d3565b92915050565b600061010082019050620004b6600083018b620003c2565b620004c5602083018a6200044e565b8181036040830152620004d98189620003e4565b90508181036060830152620004ef8188620003e4565b90508181036080830152620005058187620003e4565b90506200051660a08301866200045f565b6200052560c08301856200045f565b6200053460e0830184620003c2565b9998505050505050505050565b60006200054d62000560565b90506200055b828262000645565b919050565b6000604051905090565b600067ffffffffffffffff8211156200058857620005876200067b565b5b602082029050602081019050919050565b6000819050602082019050919050565b600081519050919050565b6000602082019050919050565b600082825260208201905092915050565b6000620005df82620005fa565b9050919050565b6000620005f382620005fa565b9050919050565b600073ffffffffffffffffffffffffffffffffffffffff82169050919050565b6000819050919050565b600067ffffffffffffffff82169050919050565b600060ff82169050919050565b6200065082620006aa565b810181811067ffffffffffffffff821117156200067257620006716200067b565b5b80604052505050565b7f4e487b7100000000000000000000000000000000000000000000000000000000600052604160045260246000fd5b6000601f19601f8301169050919050565b620006c681620005e6565b8114620006d257600080fd5b50565b620006e0816200061a565b8114620006ec57600080fd5b50565b620006fa8162000624565b81146200070657600080fd5b50565b620007148162000638565b81146200072057600080fd5b5056fe60806040523480156200001157600080fd5b5060405162002ea938038062002ea98339818101604052810190620000379190620003de565b87600660006101000a81548173ffffffffffffffffffffffffffffffffffffffff021916908373ffffffffffffffffffffffffffffffffffffffff16021790555086600d8190555085600790805190602001906200009792919062000213565b508460099080519060200190620000b092919062000213565b5083600b9080519060200190620000c992919062000213565b5082600c600a6101000a81548167ffffffffffffffff021916908367ffffffffffffffff160217905550806000806101000a81548173ffffffffffffffffffffffffffffffffffffffff021916908373ffffffffffffffffffffffffffffffffffffffff1602179055506001600c60086101000a81548160ff02191690831515021790555081600e60006101000a81548167ffffffffffffffff021916908367ffffffffffffffff16021790555060078054905067ffffffffffffffff811115620001bd577f4e487b7100000000000000000000000000000000000000000000000000000000600052604160045260246000fd5b604051908082528060200260200182016040528015620001ec5781602001602082028036833780820191505090505b50600a90805190602001906200020492919062000213565b50505050505050505062000681565b82805482825590600052602060002090601f01602090048101928215620002ae5791602002820160005b838211156200027d57835183826101000a81548160ff021916908360ff16021790555092602001926001016020816000010492830192600103026200023d565b8015620002ac5782816101000a81549060ff02191690556001016020816000010492830192600103026200027d565b505b509050620002bd9190620002c1565b5090565b5b80821115620002dc576000816000905550600101620002c2565b5090565b6000620002f7620002f18462000515565b620004ec565b905080838252602082019050828560208602820111156200031757600080fd5b60005b858110156200034b5781620003308882620003c7565b8452602084019350602083019250506001810190506200031a565b5050509392505050565b600081519050620003668162000619565b92915050565b600082601f8301126200037e57600080fd5b815162000390848260208601620002e0565b91505092915050565b600081519050620003aa8162000633565b92915050565b600081519050620003c1816200064d565b92915050565b600081519050620003d88162000667565b92915050565b600080600080600080600080610100898b031215620003fc57600080fd5b60006200040c8b828c0162000355565b98505060206200041f8b828c0162000399565b975050604089015167ffffffffffffffff8111156200043d57600080fd5b6200044b8b828c016200036c565b965050606089015167ffffffffffffffff8111156200046957600080fd5b620004778b828c016200036c565b955050608089015167ffffffffffffffff8111156200049557600080fd5b620004a38b828c016200036c565b94505060a0620004b68b828c01620003b0565b93505060c0620004c98b828c01620003b0565b92505060e0620004dc8b828c0162000355565b9150509295985092959890939650565b6000620004f86200050b565b9050620005068282620005a3565b919050565b6000604051905090565b600067ffffffffffffffff821115620005335762000532620005d9565b5b602082029050602081019050919050565b6000620005518262000558565b9050919050565b600073ffffffffffffffffffffffffffffffffffffffff82169050919050565b6000819050919050565b600067ffffffffffffffff82169050919050565b600060ff82169050919050565b620005ae8262000608565b810181811067ffffffffffffffff82111715620005d057620005cf620005d9565b5b80604052505050565b7f4e487b7100000000000000000000000000000000000000000000000000000000600052604160045260246000fd5b6000601f19601f8301169050919050565b620006248162000544565b81146200063057600080fd5b50565b6200063e8162000578565b81146200064a57600080fd5b50565b620006588162000582565b81146200066457600080fd5b50565b620006728162000596565b81146200067e57600080fd5b50565b61281880620006916000396000f3fe6080604052600436106101b9576000357c010000000000000000000000000000000000000000000000000000000090048063688594b311610109578063b688a363116100a7578063d553ed1311610081578063d553ed1314610630578063e2fd21e81461066d578063e885f76b146106aa578063f541c60f146106d5576101b9565b8063b688a363146105aa578063c08d1fe5146105c8578063cb0cd6b5146105f3576101b9565b80637f698dad116100e35780637f698dad146104ec57806393d181131461051757806394a5c2e414610542578063b4bd497a1461056d576101b9565b8063688594b3146104595780637ae6ee32146104965780637cdc65f2146104c1576101b9565b80633ccfd60b116101765780634ce2cdc7116101505780634ce2cdc71461039b5780634e71d92d146103d85780635d7c58ea1461040357806365f9775f1461042e576101b9565b80633ccfd60b146102f65780633dad5c701461032157806342bbec591461035e576101b9565b806306574a8c146101be5780631b5a3cc9146101e957806320949bb4146102265780632808241e146102515780632e8a498c1461028e5780633197cbb6146102cb575b600080fd5b3480156101ca57600080fd5b506101d3610700565b6040516101e091906123f6565b60405180910390f35b3480156101f557600080fd5b50610210600480360381019061020b919061224b565b610918565b60405161021d91906123f6565b60405180910390f35b34801561023257600080fd5b5061023b6109c5565b6040516102489190612462565b60405180910390f35b34801561025d57600080fd5b506102786004803603810190610273919061229d565b6109d8565b60405161028591906123f6565b60405180910390f35b34801561029a57600080fd5b506102b560048036038101906102b09190612222565b610bee565b6040516102c29190612411565b60405180910390f35b3480156102d757600080fd5b506102e0610c06565b6040516102ed9190612447565b60405180910390f35b34801561030257600080fd5b5061030b610c20565b60405161031891906123f6565b60405180910390f35b34801561032d57600080fd5b5061034860048036038101906103439190612274565b610e82565b6040516103559190612447565b60405180910390f35b34801561036a57600080fd5b5061038560048036038101906103809190612274565b610ec0565b6040516103929190612462565b60405180910390f35b3480156103a757600080fd5b506103c260048036038101906103bd9190612274565b610ef4565b6040516103cf9190612462565b60405180910390f35b3480156103e457600080fd5b506103ed610f28565b6040516103fa91906123f6565b60405180910390f35b34801561040f57600080fd5b5061041861105b565b6040516104259190612447565b60405180910390f35b34801561043a57600080fd5b50610443611075565b60405161045091906123f6565b60405180910390f35b34801561046557600080fd5b50610480600480360381019061047b9190612274565b611169565b60405161048d91906123c0565b60405180910390f35b3480156104a257600080fd5b506104ab6111a8565b6040516104b891906123db565b60405180910390f35b3480156104cd57600080fd5b506104d6611360565b6040516104e391906123c0565b60405180910390f35b3480156104f857600080fd5b50610501611386565b60405161050e9190612462565b60405180910390f35b34801561052357600080fd5b5061052c611393565b604051610539919061242c565b60405180910390f35b34801561054e57600080fd5b506105576113a9565b6040516105649190612411565b60405180910390f35b34801561057957600080fd5b50610594600480360381019061058f9190612222565b6113af565b6040516105a19190612411565b60405180910390f35b6105b26113c7565b6040516105bf91906123f6565b60405180910390f35b3480156105d457600080fd5b506105dd611635565b6040516105ea9190612447565b60405180910390f35b3480156105ff57600080fd5b5061061a60048036038101906106159190612274565b61164f565b6040516106279190612462565b60405180910390f35b34801561063c57600080fd5b5061065760048036038101906106529190612274565b611683565b6040516106649190612462565b60405180910390f35b34801561067957600080fd5b50610694600480360381019061068f9190612222565b6116b7565b6040516106a19190612411565b60405180910390f35b3480156106b657600080fd5b506106bf611700565b6040516106cc9190612411565b60405180910390f35b3480156106e157600080fd5b506106ea611706565b6040516106f79190612411565b60405180910390f35b60008060009054906101000a900473ffffffffffffffffffffffffffffffffffffffff168073ffffffffffffffffffffffffffffffffffffffff163373ffffffffffffffffffffffffffffffffffffffff1614610789576040517f82b4290000000000000000000000000000000000000000000000000000000000815260040160405180910390fd5b6001600a600c60099054906101000a900460ff1660ff16815481106107d7577f4e487b7100000000000000000000000000000000000000000000000000000000600052603260045260246000fd5b90600052602060002090602091828204019190068282829054906101000a900460ff166108049190612571565b92506101000a81548160ff021916908360ff160217905550600b600c60099054906101000a900460ff1660ff1681548110610868577f4e487b7100000000000000000000000000000000000000000000000000000000600052603260045260246000fd5b90600052602060002090602091828204019190069054906101000a900460ff1660ff16600a600c60099054906101000a900460ff1660ff16815481106108d7577f4e487b7100000000000000000000000000000000000000000000000000000000600052603260045260246000fd5b90600052602060002090602091828204019190069054906101000a900460ff1660ff16141561090f5761090861170c565b9150610914565b600091505b5090565b60008060009054906101000a900473ffffffffffffffffffffffffffffffffffffffff168073ffffffffffffffffffffffffffffffffffffffff163373ffffffffffffffffffffffffffffffffffffffff16146109a1576040517f82b4290000000000000000000000000000000000000000000000000000000000815260040160405180910390fd5b82600c60086101000a81548160ff0219169083151502179055506001915050919050565b600c60099054906101000a900460ff1681565b600080600360003373ffffffffffffffffffffffffffffffffffffffff1673ffffffffffffffffffffffffffffffffffffffff168152602001908152602001600020541415610a53576040517f995a2dae00000000000000000000000000000000000000000000000000000000815260040160405180910390fd5b600c60099054906101000a900460ff1660ff168360ff1614610aa1576040517f4733210000000000000000000000000000000000000000000000000000000000815260040160405180910390fd5b6000610aac336116b7565b90508215610ad25780600f6000828254610ac691906124e1565b92505081905550610aec565b8060106000828254610ae491906124e1565b925050819055505b6001601160008282829054906101000a900463ffffffff16610b0e9190612537565b92506101000a81548163ffffffff021916908363ffffffff1602179055503373ffffffffffffffffffffffffffffffffffffffff167fa635d31e67484fd1d93ba01ab0ef882e4440a78aa40d0e2771e8a2aace45986984604051610b7291906123f6565b60405180910390a26000610b84611a59565b905060008160ff1614610be157600060018260ff161415610bae57610ba7611b30565b9050610bc6565b60028260ff161415610bc557610bc2610700565b90505b5b8015610bd657610bd4611e62565b505b809350505050610be8565b6001925050505b92915050565b60036020528060005260406000206000915090505481565b600c60009054906101000a900467ffffffffffffffff1681565b600080600360003373ffffffffffffffffffffffffffffffffffffffff1673ffffffffffffffffffffffffffffffffffffffff168152602001908152602001600020541415610c9b576040517f995a2dae00000000000000000000000000000000000000000000000000000000815260040160405180910390fd5b600c60089054906101000a900460ff16610cb85760009050610e7f565b6000600260003373ffffffffffffffffffffffffffffffffffffffff1673ffffffffffffffffffffffffffffffffffffffff1681526020019081526020016000205490503373ffffffffffffffffffffffffffffffffffffffff166108fc829081150290604051600060405180830381858888f19350505050158015610d42573d6000803e3d6000fd5b506000600260003373ffffffffffffffffffffffffffffffffffffffff1673ffffffffffffffffffffffffffffffffffffffff168152602001908152602001600020819055506000600360003373ffffffffffffffffffffffffffffffffffffffff1673ffffffffffffffffffffffffffffffffffffffff168152602001908152602001600020819055506000600460003373ffffffffffffffffffffffffffffffffffffffff1673ffffffffffffffffffffffffffffffffffffffff168152602001908152602001600020819055508060016000828254610e249190612633565b925050819055503373ffffffffffffffffffffffffffffffffffffffff167f884edad9ce6fa2440d8a54cc123490eb96d2768479d49ff9c7366125a942436482604051610e719190612411565b60405180910390a260019150505b90565b60088181548110610e9257600080fd5b9060005260206000209060049182820401919006600802915054906101000a900467ffffffffffffffff1681565b60078181548110610ed057600080fd5b9060005260206000209060209182820401919006915054906101000a900460ff1681565b60098181548110610f0457600080fd5b9060005260206000209060209182820401919006915054906101000a900460ff1681565b6000600660009054906101000a900473ffffffffffffffffffffffffffffffffffffffff168073ffffffffffffffffffffffffffffffffffffffff163373ffffffffffffffffffffffffffffffffffffffff1614610fb2576040517f82b4290000000000000000000000000000000000000000000000000000000000815260040160405180910390fd5b6000600c60009054906101000a900467ffffffffffffffff1667ffffffffffffffff1614610fe35760009150611057565b600e60009054906101000a900467ffffffffffffffff1667ffffffffffffffff164261100f91906124e1565b600c60006101000a81548167ffffffffffffffff021916908367ffffffffffffffff1602179055506000600c60086101000a81548160ff021916908315150217905550600191505b5090565b600c600a9054906101000a900467ffffffffffffffff1681565b60008060009054906101000a900473ffffffffffffffffffffffffffffffffffffffff168073ffffffffffffffffffffffffffffffffffffffff163373ffffffffffffffffffffffffffffffffffffffff16146110fe576040517f82b4290000000000000000000000000000000000000000000000000000000000815260040160405180910390fd5b60016007805490506111109190612633565b600c60099054906101000a900460ff1660ff161015611161576001600c60098282829054906101000a900460ff166111489190612571565b92506101000a81548160ff021916908360ff1602179055505b600191505090565b6005818154811061117957600080fd5b906000526020600020016000915054906101000a900473ffffffffffffffffffffffffffffffffffffffff1681565b6111b06121ac565b6040518060e00160405280600c60099054906101000a900460ff1660ff1681526020016009600c60099054906101000a900460ff1660ff168154811061121f577f4e487b7100000000000000000000000000000000000000000000000000000000600052603260045260246000fd5b90600052602060002090602091828204019190069054906101000a900460ff1660ff168152602001600f5481526020016010548152602001600a600c60099054906101000a900460ff1660ff16815481106112a3577f4e487b7100000000000000000000000000000000000000000000000000000000600052603260045260246000fd5b90600052602060002090602091828204019190069054906101000a900460ff1660ff168152602001600b600c60099054906101000a900460ff1660ff1681548110611317577f4e487b7100000000000000000000000000000000000000000000000000000000600052603260045260246000fd5b90600052602060002090602091828204019190069054906101000a900460ff1660ff168152602001601160009054906101000a900463ffffffff1663ffffffff16815250905090565b600660009054906101000a900473ffffffffffffffffffffffffffffffffffffffff1681565b6000600580549050905090565b601160009054906101000a900463ffffffff1681565b600d5481565b60046020528060005260406000206000915090505481565b6000600c600a9054906101000a900467ffffffffffffffff168067ffffffffffffffff16421115611424576040517fecdd1c2900000000000000000000000000000000000000000000000000000000815260040160405180910390fd5b600034141561145f576040517f995a2dae00000000000000000000000000000000000000000000000000000000815260040160405180910390fd5b600d54343073ffffffffffffffffffffffffffffffffffffffff163161148591906124e1565b106114bc576040517f77d09e5000000000000000000000000000000000000000000000000000000000815260040160405180910390fd5b6000600360003373ffffffffffffffffffffffffffffffffffffffff1673ffffffffffffffffffffffffffffffffffffffff168152602001908152602001600020541415611568576005339080600181540180825580915050600190039060005260206000200160009091909190916101000a81548173ffffffffffffffffffffffffffffffffffffffff021916908373ffffffffffffffffffffffffffffffffffffffff1602179055505b34600260003373ffffffffffffffffffffffffffffffffffffffff1673ffffffffffffffffffffffffffffffffffffffff16815260200190815260200160002060008282546115b791906124e1565b9250508190555034600360003373ffffffffffffffffffffffffffffffffffffffff1673ffffffffffffffffffffffffffffffffffffffff168152602001908152602001600020600082825461160d91906124e1565b92505081905550346001600082825461162691906124e1565b92505081905550600191505090565b600e60009054906101000a900467ffffffffffffffff1681565b600b818154811061165f57600080fd5b9060005260206000209060209182820401919006915054906101000a900460ff1681565b600a818154811061169357600080fd5b9060005260206000209060209182820401919006915054906101000a900460ff1681565b6000600360008373ffffffffffffffffffffffffffffffffffffffff1673ffffffffffffffffffffffffffffffffffffffff168152602001908152602001600020549050919050565b600f5481565b60105481565b60008060009054906101000a900473ffffffffffffffffffffffffffffffffffffffff168073ffffffffffffffffffffffffffffffffffffffff163373ffffffffffffffffffffffffffffffffffffffff1614611795576040517f82b4290000000000000000000000000000000000000000000000000000000000815260040160405180910390fd5b600061182d606461181f6007600c60099054906101000a900460ff1660ff16815481106117eb577f4e487b7100000000000000000000000000000000000000000000000000000000600052603260045260246000fd5b90600052602060002090602091828204019190069054906101000a900460ff1660ff16600154611f2590919063ffffffff16565b611f3b90919063ffffffff16565b905060005b6005805490508110156119f9576000600360006005848154811061187f577f4e487b7100000000000000000000000000000000000000000000000000000000600052603260045260246000fd5b9060005260206000200160009054906101000a900473ffffffffffffffffffffffffffffffffffffffff1673ffffffffffffffffffffffffffffffffffffffff1673ffffffffffffffffffffffffffffffffffffffff1681526020019081526020016000205490506000611911600154611903606485611f2590919063ffffffff16565b611f3b90919063ffffffff16565b90506005838154811061194d577f4e487b7100000000000000000000000000000000000000000000000000000000600052603260045260246000fd5b9060005260206000200160009054906101000a900473ffffffffffffffffffffffffffffffffffffffff1673ffffffffffffffffffffffffffffffffffffffff166108fc6119b760646119a98589611f2590919063ffffffff16565b611f3b90919063ffffffff16565b9081150290604051600060405180830381858888f193505050501580156119e2573d6000803e3d6000fd5b5050506001816119f291906124e1565b9050611832565b50611a0381611f51565b507f230739317a7f90b018762e0570d567293eac14d67441b810f714879dd6aed0bf600c60099054906101000a900460ff16604051611a429190612462565b60405180910390a1611a52611075565b9250505090565b600080611af26064611ae46009600c60099054906101000a900460ff1660ff1681548110611ab0577f4e487b7100000000000000000000000000000000000000000000000000000000600052603260045260246000fd5b90600052602060002090602091828204019190069054906101000a900460ff1660ff16600154611f2590919063ffffffff16565b611f3b90919063ffffffff16565b905080600f5410611b07576001915050611b2d565b80600154611b159190612633565b60105410611b27576002915050611b2d565b60009150505b90565b60008060009054906101000a900473ffffffffffffffffffffffffffffffffffffffff168073ffffffffffffffffffffffffffffffffffffffff163373ffffffffffffffffffffffffffffffffffffffff1614611bb9576040517f82b4290000000000000000000000000000000000000000000000000000000000815260040160405180910390fd5b60006007600c60099054906101000a900460ff1660ff1681548110611c07577f4e487b7100000000000000000000000000000000000000000000000000000000600052603260045260246000fd5b90600052602060002090602091828204019190069054906101000a900460ff1660ff161015611c62576040517fd70a0e3000000000000000000000000000000000000000000000000000000000815260040160405180910390fd5b6000611cfa6064611cec6007600c60099054906101000a900460ff1660ff1681548110611cb8577f4e487b7100000000000000000000000000000000000000000000000000000000600052603260045260246000fd5b90600052602060002090602091828204019190069054906101000a900460ff1660ff16600154611f2590919063ffffffff16565b611f3b90919063ffffffff16565b9050600660009054906101000a900473ffffffffffffffffffffffffffffffffffffffff1673ffffffffffffffffffffffffffffffffffffffff166108fc829081150290604051600060405180830381858888f19350505050158015611d64573d6000803e3d6000fd5b5060006007600c60099054906101000a900460ff1660ff1681548110611db3577f4e487b7100000000000000000000000000000000000000000000000000000000600052603260045260246000fd5b90600052602060002090602091828204019190066101000a81548160ff021916908360ff160217905550611de681611f51565b507f0e45f244d89cea5099c0a6f24efd8cfde53e85de3cbf08c24acc387c1160ccc3600c60099054906101000a900460ff1682600660009054906101000a900473ffffffffffffffffffffffffffffffffffffffff16604051611e4b9392919061247d565b60405180910390a1611e5b611075565b9250505090565b60008060009054906101000a900473ffffffffffffffffffffffffffffffffffffffff168073ffffffffffffffffffffffffffffffffffffffff163373ffffffffffffffffffffffffffffffffffffffff1614611eeb576040517f82b4290000000000000000000000000000000000000000000000000000000000815260040160405180910390fd5b6000600f8190555060006010819055506000601160006101000a81548163ffffffff021916908363ffffffff160217905550600191505090565b60008183611f3391906125d9565b905092915050565b60008183611f4991906125a8565b905092915050565b60008060009054906101000a900473ffffffffffffffffffffffffffffffffffffffff168073ffffffffffffffffffffffffffffffffffffffff163373ffffffffffffffffffffffffffffffffffffffff1614611fda576040517f82b4290000000000000000000000000000000000000000000000000000000000815260040160405180910390fd5b6000612004600154611ff6606487611f2590919063ffffffff16565b611f3b90919063ffffffff16565b905060005b6005805490508110156121a05760006002600060058481548110612056577f4e487b7100000000000000000000000000000000000000000000000000000000600052603260045260246000fd5b9060005260206000200160009054906101000a900473ffffffffffffffffffffffffffffffffffffffff1673ffffffffffffffffffffffffffffffffffffffff1673ffffffffffffffffffffffffffffffffffffffff1681526020019081526020016000205490506120e460646120d68584611f2590919063ffffffff16565b611f3b90919063ffffffff16565b6002600060058581548110612122577f4e487b7100000000000000000000000000000000000000000000000000000000600052603260045260246000fd5b9060005260206000200160009054906101000a900473ffffffffffffffffffffffffffffffffffffffff1673ffffffffffffffffffffffffffffffffffffffff1673ffffffffffffffffffffffffffffffffffffffff168152602001908152602001600020819055505060018161219991906124e1565b9050612009565b50600192505050919050565b6040518060e00160405280600790602082028036833780820191505090505090565b6000813590506121dd81612786565b92915050565b6000813590506121f28161279d565b92915050565b600081359050612207816127b4565b92915050565b60008135905061221c816127cb565b92915050565b60006020828403121561223457600080fd5b6000612242848285016121ce565b91505092915050565b60006020828403121561225d57600080fd5b600061226b848285016121e3565b91505092915050565b60006020828403121561228657600080fd5b6000612294848285016121f8565b91505092915050565b600080604083850312156122b057600080fd5b60006122be8582860161220d565b92505060206122cf858286016121e3565b9150509250929050565b60006122e58383612375565b60208301905092915050565b6122fa816126f2565b82525050565b61230981612679565b82525050565b612318816124be565b61232281846124d6565b925061232d826124b4565b8060005b8381101561235e57815161234587826122d9565b9650612350836124c9565b925050600181019050612331565b505050505050565b61236f8161268b565b82525050565b61237e816126b7565b82525050565b61238d816126b7565b82525050565b61239c816126c1565b82525050565b6123ab816126d1565b82525050565b6123ba816126e5565b82525050565b60006020820190506123d56000830184612300565b92915050565b600060e0820190506123f0600083018461230f565b92915050565b600060208201905061240b6000830184612366565b92915050565b60006020820190506124266000830184612384565b92915050565b60006020820190506124416000830184612393565b92915050565b600060208201905061245c60008301846123a2565b92915050565b600060208201905061247760008301846123b1565b92915050565b600060608201905061249260008301866123b1565b61249f6020830185612384565b6124ac60408301846122f1565b949350505050565b6000819050919050565b600060079050919050565b6000602082019050919050565b600081905092915050565b60006124ec826126b7565b91506124f7836126b7565b9250827fffffffffffffffffffffffffffffffffffffffffffffffffffffffffffffffff0382111561252c5761252b612728565b5b828201905092915050565b6000612542826126c1565b915061254d836126c1565b92508263ffffffff0382111561256657612565612728565b5b828201905092915050565b600061257c826126e5565b9150612587836126e5565b92508260ff0382111561259d5761259c612728565b5b828201905092915050565b60006125b3826126b7565b91506125be836126b7565b9250826125ce576125cd612757565b5b828204905092915050565b60006125e4826126b7565b91506125ef836126b7565b9250817fffffffffffffffffffffffffffffffffffffffffffffffffffffffffffffffff048311821515161561262857612627612728565b5b828202905092915050565b600061263e826126b7565b9150612649836126b7565b92508282101561265c5761265b612728565b5b828203905092915050565b600061267282612697565b9050919050565b600061268482612697565b9050919050565b60008115159050919050565b600073ffffffffffffffffffffffffffffffffffffffff82169050919050565b6000819050919050565b600063ffffffff82169050919050565b600067ffffffffffffffff82169050919050565b600060ff82169050919050565b60006126fd82612704565b9050919050565b600061270f82612716565b9050919050565b600061272182612697565b9050919050565b7f4e487b7100000000000000000000000000000000000000000000000000000000600052601160045260246000fd5b7f4e487b7100000000000000000000000000000000000000000000000000000000600052601260045260246000fd5b61278f81612667565b811461279a57600080fd5b50565b6127a68161268b565b81146127b157600080fd5b50565b6127bd816126b7565b81146127c857600080fd5b50565b6127d4816126e5565b81146127df57600080fd5b5056fea2646970667358221220b305dd33de61bad354f1b2051a7feebdd92037e45a80329ca1f53c2331a55ff364736f6c63430008040033a2646970667358221220af0752fb1c3033dd84049b6a8451621fef23fa02f8f3c41fec3853b4ccc1774064736f6c63430008040033",
  "immutableReferences": {},
  "source": "// SPDX-License-Identifier: MIT\r\npragma solidity ^0.8.0;\r\n\r\nimport \"@openzeppelin/contracts/utils/math/SafeMath.sol\";\r\nimport \"./Bounty.sol\";\r\n\r\ncontract Machine {\r\n    using SafeMath for uint256;\r\n    address public owner = msg.sender;\r\n\r\n    event Create(address indexed configAddress, address indexed sender);\r\n\r\n    function create(\r\n        address payable _creatorWallet,\r\n        uint256 _maxValue,\r\n        uint8[] memory _bonusTargets,\r\n        uint8[] memory _bonusPctYeasNeeded,\r\n        uint8[] memory _bonusFailureThresholds,\r\n        uint64 _mustBeClaimedTime,\r\n        uint64 _timeLimit,\r\n        address payable _owner\r\n    ) public returns (address configAddress) {\r\n        address config = address(\r\n            new Bounty(\r\n                _creatorWallet,\r\n                _maxValue,\r\n                _bonusTargets,\r\n                _bonusPctYeasNeeded,\r\n                _bonusFailureThresholds,\r\n                _mustBeClaimedTime,\r\n                _timeLimit,\r\n                _owner\r\n            )\r\n        );\r\n        emit Create(config, msg.sender);\r\n        return config;\r\n    }\r\n}\r\n",
  "sourcePath": "C:\\Users\\kumquatexpress\\projects\\polygon-hack\\web3\\contracts\\polygon\\Machine.sol",
  "compiler": {
    "name": "solc",
    "version": "0.8.4+commit.c7e474f2.Emscripten.clang"
  },
  "schemaVersion": "3.4.4",
  "updatedAt": "2022-02-03T08:06:16.991Z",
  "networkType": "ethereum",
  "devdoc": {
    "kind": "dev",
    "methods": {},
    "version": 1
  },
  "userdoc": {
    "kind": "user",
    "methods": {},
    "version": 1
  },
  "db": {
    "callBytecode": {
      "id": "0x9b39adcc0fa6d443b469d91c623c605bec488f1aacf361cf49d052a55be07a38"
    },
    "createBytecode": {
      "id": "0x7d17a03be4c69ca291f99ce35c14f590004329bf44a30f8cb5713630aad990a2"
    },
    "contract": {
      "id": "0x5d2e1180612a88f5bdb4d5b0081969fc8488d92e2c147ee950f29465f9e10db4"
    }
  }
}